{
	"data": {
		"bytecode": {
			"linkReferences": {},
			"object": "6080604052670de0b6b3a76400006003556802b5e3af16b1880000600455348015610028575f80fd5b5060405161332f38038061332f833981810160405281019061004a9190610246565b805f73ffffffffffffffffffffffffffffffffffffffff168173ffffffffffffffffffffffffffffffffffffffff16036100bb575f6040517f1e4fbdf70000000000000000000000000000000000000000000000000000000081526004016100b29190610280565b60405180910390fd5b6100ca816100f560201b60201c565b5060016100e96100de6101b660201b60201c565b6101df60201b60201c565b5f018190555050610299565b5f805f9054906101000a900473ffffffffffffffffffffffffffffffffffffffff169050815f806101000a81548173ffffffffffffffffffffffffffffffffffffffff021916908373ffffffffffffffffffffffffffffffffffffffff1602179055508173ffffffffffffffffffffffffffffffffffffffff168173ffffffffffffffffffffffffffffffffffffffff167f8be0079c531659141344cd1fd0a4f28419497f9722a3daafe3b4186f6b6457e060405160405180910390a35050565b5f7f9b779b17422d0df92223018b32b4d1fa46e071723d6817e2486d003becc55f005f1b905090565b5f819050919050565b5f80fd5b5f73ffffffffffffffffffffffffffffffffffffffff82169050919050565b5f610215826101ec565b9050919050565b6102258161020b565b811461022f575f80fd5b50565b5f815190506102408161021c565b92915050565b5f6020828403121561025b5761025a6101e8565b5b5f61026884828501610232565b91505092915050565b61027a8161020b565b82525050565b5f6020820190506102935f830184610271565b92915050565b613089806102a65f395ff3fe608060405260043610610180575f3560e01c8063ae169a50116100d0578063c4590d3f11610089578063f0f4426011610063578063f0f442601461056e578063f2fde38b14610596578063f525cb68146105be578063f6dd6d8e146105e857610180565b8063c4590d3f146104e0578063c8e7711f14610508578063cf48bd2c1461054457610180565b8063ae169a50146103c4578063aef18bf7146103ec578063b0c9fbc114610428578063c0dcd95414610452578063c20632ba1461047c578063c326bf4f146104a457610180565b806357e900bc1161013d578063715018a611610117578063715018a61461031c5780638da5cb5b1461033257806393f1a40b1461035c578063a80a78821461039a57610180565b806357e900bc146102ae57806361d027b3146102ca5780636c19e783146102f457610180565b80630b78f9c0146101845780631526fe27146101ac578063238ac933146101ec57806334c1f94414610216578063441a3e701461025657806353be657f14610272575b5f80fd5b34801561018f575f80fd5b506101aa60048036038101906101a59190611e20565b610612565b005b3480156101b7575f80fd5b506101d260048036038101906101cd9190611e5e565b61062c565b6040516101e3959493929190611f12565b60405180910390f35b3480156101f7575f80fd5b506102006106ab565b60405161020d9190611f83565b60405180910390f35b348015610221575f80fd5b5061023c60048036038101906102379190611e5e565b6106d0565b60405161024d95949392919061200c565b60405180910390f35b610270600480360381019061026b9190611e20565b6107b6565b005b34801561027d575f80fd5b506102986004803603810190610293919061208e565b610bf7565b6040516102a591906120b9565b60405180910390f35b6102c860048036038101906102c391906121fe565b610c0c565b005b3480156102d5575f80fd5b506102de611037565b6040516102eb9190611f83565b60405180910390f35b3480156102ff575f80fd5b5061031a6004803603810190610315919061208e565b61105c565b005b348015610327575f80fd5b506103306110a7565b005b34801561033d575f80fd5b506103466110ba565b6040516103539190611f83565b60405180910390f35b348015610367575f80fd5b50610382600480360381019061037d9190612291565b6110e1565b604051610391939291906122cf565b60405180910390f35b3480156103a5575f80fd5b506103ae611112565b6040516103bb91906120b9565b60405180910390f35b3480156103cf575f80fd5b506103ea60048036038101906103e59190611e5e565b611118565b005b3480156103f7575f80fd5b50610412600480360381019061040d9190612337565b6112af565b60405161041f919061237c565b60405180910390f35b348015610433575f80fd5b5061043c6112cc565b60405161044991906120b9565b60405180910390f35b34801561045d575f80fd5b506104666112d2565b60405161047391906120b9565b60405180910390f35b348015610487575f80fd5b506104a2600480360381019061049d91906123d0565b6112d8565b005b3480156104af575f80fd5b506104ca60048036038101906104c5919061208e565b611422565b6040516104d791906120b9565b60405180910390f35b3480156104eb575f80fd5b5061050660048036038101906105019190611e20565b611437565b005b348015610513575f80fd5b5061052e60048036038101906105299190612434565b611451565b60405161053b91906120b9565b60405180910390f35b34801561054f575f80fd5b50610558611471565b6040516105659190612606565b60405180910390f35b348015610579575f80fd5b50610594600480360381019061058f919061208e565b6115cf565b005b3480156105a1575f80fd5b506105bc60048036038101906105b7919061208e565b61161a565b005b3480156105c9575f80fd5b506105d261169e565b6040516105df91906120b9565b60405180910390f35b3480156105f3575f80fd5b506105fc6116a4565b60405161060991906120b9565b60405180910390f35b61061a6116aa565b81600581905550806006819055505050565b600b818154811061063b575f80fd5b905f5260205f2090600502015f91509050805f015f9054906101000a900473ffffffffffffffffffffffffffffffffffffffff1690806001015f9054906101000a900473ffffffffffffffffffffffffffffffffffffffff16908060020154908060030154908060040154905085565b60015f9054906101000a900473ffffffffffffffffffffffffffffffffffffffff1681565b600e81815481106106df575f80fd5b905f5260205f2090600502015f91509050805f015490806001015490806002015f9054906101000a900473ffffffffffffffffffffffffffffffffffffffff169080600301805461072f90612653565b80601f016020809104026020016040519081016040528092919081815260200182805461075b90612653565b80156107a65780601f1061077d576101008083540402835291602001916107a6565b820191905f5260205f20905b81548152906001019060200180831161078957829003601f168201915b5050505050908060040154905085565b6107be611731565b5f600b83815481106107d3576107d2612683565b5b905f5260205f20906005020190505f600c5f8581526020019081526020015f205f3373ffffffffffffffffffffffffffffffffffffffff1673ffffffffffffffffffffffffffffffffffffffff1681526020019081526020015f20905082815f01541015610876576040517f08c379a000000000000000000000000000000000000000000000000000000000815260040161086d906126fa565b60405180910390fd5b5f6108a9826040518060600160405290815f82015481526020016001820154815260200160028201548152505086611753565b90505f8260020154421090508080156108c357505f600654115b156109735760065434101561090d576040517f08c379a000000000000000000000000000000000000000000000000000000000815260040161090490612762565b60405180910390fd5b60025f9054906101000a900473ffffffffffffffffffffffffffffffffffffffff1673ffffffffffffffffffffffffffffffffffffffff166108fc3490811502906040515f60405180830381858888f19350505050158015610971573d5f803e3d5ffd5b505b5f8211156109ca576109c93383866001015f9054906101000a900473ffffffffffffffffffffffffffffffffffffffff1673ffffffffffffffffffffffffffffffffffffffff166118b39092919063ffffffff16565b5b5f851115610b9d5784835f015f8282546109e491906127ad565b9250508190555084846002015f8282546109fe91906127ad565b9250508190555084600d5f865f015f9054906101000a900473ffffffffffffffffffffffffffffffffffffffff1673ffffffffffffffffffffffffffffffffffffffff1673ffffffffffffffffffffffffffffffffffffffff1681526020019081526020015f205f828254610a7391906127ad565b925050819055508015610b4e575f6064601487610a9091906127e0565b610a9a919061284e565b90505f8187610aa991906127ad565b9050610af83382885f015f9054906101000a900473ffffffffffffffffffffffffffffffffffffffff1673ffffffffffffffffffffffffffffffffffffffff166118b39092919063ffffffff16565b610b4761dead83885f015f9054906101000a900473ffffffffffffffffffffffffffffffffffffffff1673ffffffffffffffffffffffffffffffffffffffff166118b39092919063ffffffff16565b5050610b9c565b610b9b3386865f015f9054906101000a900473ffffffffffffffffffffffffffffffffffffffff1673ffffffffffffffffffffffffffffffffffffffff166118b39092919063ffffffff16565b5b5b428360010181905550610be78686336040518060400160405280600881526020017f5769746864726177000000000000000000000000000000000000000000000000815250611906565b50505050610bf36119eb565b5050565b6008602052805f5260405f205f915090505481565b610c14611731565b81421115610c57576040517f08c379a0000000000000000000000000000000000000000000000000000000008152600401610c4e906128c8565b60405180910390fd5b600354841115610c9c576040517f08c379a0000000000000000000000000000000000000000000000000000000008152600401610c9390612930565b60405180910390fd5b5f6201518042610cac919061284e565b90506004548560095f3373ffffffffffffffffffffffffffffffffffffffff1673ffffffffffffffffffffffffffffffffffffffff1681526020019081526020015f205f8481526020019081526020015f2054610d09919061294e565b1115610d4a576040517f08c379a0000000000000000000000000000000000000000000000000000000008152600401610d41906129cb565b60405180910390fd5b5f33868686604051602001610d629493929190612a4e565b60405160208183030381529060405280519060200120905060075f8281526020019081526020015f205f9054906101000a900460ff1615610dd8576040517f08c379a0000000000000000000000000000000000000000000000000000000008152600401610dcf90612ae5565b60405180910390fd5b5f81604051602001610dea9190612b77565b60405160208183030381529060405280519060200120905060015f9054906101000a900473ffffffffffffffffffffffffffffffffffffffff1673ffffffffffffffffffffffffffffffffffffffff16610e448286611a05565b73ffffffffffffffffffffffffffffffffffffffff1614610e9a576040517f08c379a0000000000000000000000000000000000000000000000000000000008152600401610e9190612be6565b60405180910390fd5b600160075f8481526020019081526020015f205f6101000a81548160ff0219169083151502179055508660095f3373ffffffffffffffffffffffffffffffffffffffff1673ffffffffffffffffffffffffffffffffffffffff1681526020019081526020015f205f8581526020019081526020015f205f828254610f1e919061294e565b925050819055505f6005541115610fda57600554341015610f74576040517f08c379a0000000000000000000000000000000000000000000000000000000008152600401610f6b90612c4e565b60405180910390fd5b60025f9054906101000a900473ffffffffffffffffffffffffffffffffffffffff1673ffffffffffffffffffffffffffffffffffffffff166108fc3490811502906040515f60405180830381858888f19350505050158015610fd8573d5f803e3d5ffd5b505b610fe48888611a6f565b6110258888336040518060400160405280600d81526020017f436c61696d416e645374616b6500000000000000000000000000000000000000815250611906565b5050506110306119eb565b5050505050565b60025f9054906101000a900473ffffffffffffffffffffffffffffffffffffffff1681565b6110646116aa565b8060015f6101000a81548173ffffffffffffffffffffffffffffffffffffffff021916908373ffffffffffffffffffffffffffffffffffffffff16021790555050565b6110af6116aa565b6110b85f611bbe565b565b5f805f9054906101000a900473ffffffffffffffffffffffffffffffffffffffff16905090565b600c602052815f5260405f20602052805f5260405f205f9150915050805f0154908060010154908060020154905083565b60065481565b611120611731565b5f600b828154811061113557611134612683565b5b905f5260205f20906005020190505f600c5f8481526020019081526020015f205f3373ffffffffffffffffffffffffffffffffffffffff1673ffffffffffffffffffffffffffffffffffffffff1681526020019081526020015f2090505f6111c5826040518060600160405290815f82015481526020016001820154815260200160028201548152505085611753565b90505f8111611209576040517f08c379a000000000000000000000000000000000000000000000000000000000815260040161120090612cb6565b60405180910390fd5b4282600101819055506112603382856001015f9054906101000a900473ffffffffffffffffffffffffffffffffffffffff1673ffffffffffffffffffffffffffffffffffffffff166118b39092919063ffffffff16565b6112a18482336040518060400160405280600b81526020017f436c61696d526577617264000000000000000000000000000000000000000000815250611906565b5050506112ac6119eb565b50565b6007602052805f5260405f205f915054906101000a900460ff1681565b60045481565b60055481565b6112e06116aa565b600b6040518060a001604052808673ffffffffffffffffffffffffffffffffffffffff1681526020018573ffffffffffffffffffffffffffffffffffffffff1681526020015f815260200184815260200183815250908060018154018082558091505060019003905f5260205f2090600502015f909190919091505f820151815f015f6101000a81548173ffffffffffffffffffffffffffffffffffffffff021916908373ffffffffffffffffffffffffffffffffffffffff1602179055506020820151816001015f6101000a81548173ffffffffffffffffffffffffffffffffffffffff021916908373ffffffffffffffffffffffffffffffffffffffff1602179055506040820151816002015560608201518160030155608082015181600401555050600a5f81548092919061141790612cd4565b919050555050505050565b600d602052805f5260405f205f915090505481565b61143f6116aa565b81600381905550806004819055505050565b6009602052815f5260405f20602052805f5260405f205f91509150505481565b6060600e805480602002602001604051908101604052809291908181526020015f905b828210156115c6578382905f5260205f2090600502016040518060a00160405290815f820154815260200160018201548152602001600282015f9054906101000a900473ffffffffffffffffffffffffffffffffffffffff1673ffffffffffffffffffffffffffffffffffffffff1673ffffffffffffffffffffffffffffffffffffffff16815260200160038201805461152d90612653565b80601f016020809104026020016040519081016040528092919081815260200182805461155990612653565b80156115a45780601f1061157b576101008083540402835291602001916115a4565b820191905f5260205f20905b81548152906001019060200180831161158757829003601f168201915b5050505050815260200160048201548152505081526020019060010190611494565b50505050905090565b6115d76116aa565b8060025f6101000a81548173ffffffffffffffffffffffffffffffffffffffff021916908373ffffffffffffffffffffffffffffffffffffffff16021790555050565b6116226116aa565b5f73ffffffffffffffffffffffffffffffffffffffff168173ffffffffffffffffffffffffffffffffffffffff1603611692575f6040517f1e4fbdf70000000000000000000000000000000000000000000000000000000081526004016116899190611f83565b60405180910390fd5b61169b81611bbe565b50565b600a5481565b60035481565b6116b2611c7f565b73ffffffffffffffffffffffffffffffffffffffff166116d06110ba565b73ffffffffffffffffffffffffffffffffffffffff161461172f576116f3611c7f565b6040517f118cdaa70000000000000000000000000000000000000000000000000000000081526004016117269190611f83565b60405180910390fd5b565b611739611c86565b600261174b611746611cc7565b611cf0565b5f0181905550565b5f80600b838154811061176957611768612683565b5b905f5260205f2090600502016040518060a00160405290815f82015f9054906101000a900473ffffffffffffffffffffffffffffffffffffffff1673ffffffffffffffffffffffffffffffffffffffff1673ffffffffffffffffffffffffffffffffffffffff168152602001600182015f9054906101000a900473ffffffffffffffffffffffffffffffffffffffff1673ffffffffffffffffffffffffffffffffffffffff1673ffffffffffffffffffffffffffffffffffffffff168152602001600282015481526020016003820154815260200160048201548152505090505f6201518085602001514261185e91906127ad565b611868919061284e565b9050816080015181111561187e57816080015190505b618e94826060015182875f015161189591906127e0565b61189f91906127e0565b6118a9919061284e565b9250505092915050565b6118c08383836001611cf9565b61190157826040517f5274afe70000000000000000000000000000000000000000000000000000000081526004016118f89190611f83565b60405180910390fd5b505050565b600e6040518060a001604052808681526020018581526020018473ffffffffffffffffffffffffffffffffffffffff16815260200183815260200142815250908060018154018082558091505060019003905f5260205f2090600502015f909190919091505f820151815f0155602082015181600101556040820151816002015f6101000a81548173ffffffffffffffffffffffffffffffffffffffff021916908373ffffffffffffffffffffffffffffffffffffffff16021790555060608201518160030190816119d89190612eaf565b5060808201518160040155505050505050565b60016119fd6119f8611cc7565b611cf0565b5f0181905550565b5f805f80611a1285611d5b565b9250925092506001868285856040515f8152602001604052604051611a3a9493929190612fa8565b6020604051602081039080840390855afa158015611a5a573d5f803e3d5ffd5b50505060206040510351935050505092915050565b5f600b8381548110611a8457611a83612683565b5b905f5260205f20906005020190505f600c5f8581526020019081526020015f205f3373ffffffffffffffffffffffffffffffffffffffff1673ffffffffffffffffffffffffffffffffffffffff1681526020019081526020015f20905082826002015f828254611af4919061294e565b9250508190555082815f015f828254611b0d919061294e565b92505081905550428160010181905550620151808260040154611b3091906127e0565b42611b3b919061294e565b816002018190555082600d5f845f015f9054906101000a900473ffffffffffffffffffffffffffffffffffffffff1673ffffffffffffffffffffffffffffffffffffffff1673ffffffffffffffffffffffffffffffffffffffff1681526020019081526020015f205f828254611bb1919061294e565b9250508190555050505050565b5f805f9054906101000a900473ffffffffffffffffffffffffffffffffffffffff169050815f806101000a81548173ffffffffffffffffffffffffffffffffffffffff021916908373ffffffffffffffffffffffffffffffffffffffff1602179055508173ffffffffffffffffffffffffffffffffffffffff168173ffffffffffffffffffffffffffffffffffffffff167f8be0079c531659141344cd1fd0a4f28419497f9722a3daafe3b4186f6b6457e060405160405180910390a35050565b5f33905090565b611c8e611dc0565b15611cc5576040517f3ee5aeb500000000000000000000000000000000000000000000000000000000815260040160405180910390fd5b565b5f7f9b779b17422d0df92223018b32b4d1fa46e071723d6817e2486d003becc55f005f1b905090565b5f819050919050565b5f8063a9059cbb60e01b9050604051815f525f1960601c86166004528460245260205f60445f808b5af1925060015f51148316611d4d578383151615611d41573d5f823e3d81fd5b5f873b113d1516831692505b806040525050949350505050565b5f805f6041845114611da2576040517f08c379a0000000000000000000000000000000000000000000000000000000008152600401611d9990613035565b60405180910390fd5b602084015192506040840151915060608401515f1a90509193909250565b5f6002611dd3611dce611cc7565b611cf0565b5f015414905090565b5f604051905090565b5f80fd5b5f80fd5b5f819050919050565b611dff81611ded565b8114611e09575f80fd5b50565b5f81359050611e1a81611df6565b92915050565b5f8060408385031215611e3657611e35611de5565b5b5f611e4385828601611e0c565b9250506020611e5485828601611e0c565b9150509250929050565b5f60208284031215611e7357611e72611de5565b5b5f611e8084828501611e0c565b91505092915050565b5f73ffffffffffffffffffffffffffffffffffffffff82169050919050565b5f819050919050565b5f611ecb611ec6611ec184611e89565b611ea8565b611e89565b9050919050565b5f611edc82611eb1565b9050919050565b5f611eed82611ed2565b9050919050565b611efd81611ee3565b82525050565b611f0c81611ded565b82525050565b5f60a082019050611f255f830188611ef4565b611f326020830187611ef4565b611f3f6040830186611f03565b611f4c6060830185611f03565b611f596080830184611f03565b9695505050505050565b5f611f6d82611e89565b9050919050565b611f7d81611f63565b82525050565b5f602082019050611f965f830184611f74565b92915050565b5f81519050919050565b5f82825260208201905092915050565b8281835e5f83830152505050565b5f601f19601f8301169050919050565b5f611fde82611f9c565b611fe88185611fa6565b9350611ff8818560208601611fb6565b61200181611fc4565b840191505092915050565b5f60a08201905061201f5f830188611f03565b61202c6020830187611f03565b6120396040830186611f74565b818103606083015261204b8185611fd4565b905061205a6080830184611f03565b9695505050505050565b61206d81611f63565b8114612077575f80fd5b50565b5f8135905061208881612064565b92915050565b5f602082840312156120a3576120a2611de5565b5b5f6120b08482850161207a565b91505092915050565b5f6020820190506120cc5f830184611f03565b92915050565b5f80fd5b5f80fd5b7f4e487b71000000000000000000000000000000000000000000000000000000005f52604160045260245ffd5b61211082611fc4565b810181811067ffffffffffffffff8211171561212f5761212e6120da565b5b80604052505050565b5f612141611ddc565b905061214d8282612107565b919050565b5f67ffffffffffffffff82111561216c5761216b6120da565b5b61217582611fc4565b9050602081019050919050565b828183375f83830152505050565b5f6121a261219d84612152565b612138565b9050828152602081018484840111156121be576121bd6120d6565b5b6121c9848285612182565b509392505050565b5f82601f8301126121e5576121e46120d2565b5b81356121f5848260208601612190565b91505092915050565b5f805f805f60a0868803121561221757612216611de5565b5b5f61222488828901611e0c565b955050602061223588828901611e0c565b945050604061224688828901611e0c565b935050606061225788828901611e0c565b925050608086013567ffffffffffffffff81111561227857612277611de9565b5b612284888289016121d1565b9150509295509295909350565b5f80604083850312156122a7576122a6611de5565b5b5f6122b485828601611e0c565b92505060206122c58582860161207a565b9150509250929050565b5f6060820190506122e25f830186611f03565b6122ef6020830185611f03565b6122fc6040830184611f03565b949350505050565b5f819050919050565b61231681612304565b8114612320575f80fd5b50565b5f813590506123318161230d565b92915050565b5f6020828403121561234c5761234b611de5565b5b5f61235984828501612323565b91505092915050565b5f8115159050919050565b61237681612362565b82525050565b5f60208201905061238f5f83018461236d565b92915050565b5f61239f82611f63565b9050919050565b6123af81612395565b81146123b9575f80fd5b50565b5f813590506123ca816123a6565b92915050565b5f805f80608085870312156123e8576123e7611de5565b5b5f6123f5878288016123bc565b9450506020612406878288016123bc565b935050604061241787828801611e0c565b925050606061242887828801611e0c565b91505092959194509250565b5f806040838503121561244a57612449611de5565b5b5f6124578582860161207a565b925050602061246885828601611e0c565b9150509250929050565b5f81519050919050565b5f82825260208201905092915050565b5f819050602082019050919050565b6124a481611ded565b82525050565b6124b381611f63565b82525050565b5f82825260208201905092915050565b5f6124d382611f9c565b6124dd81856124b9565b93506124ed818560208601611fb6565b6124f681611fc4565b840191505092915050565b5f60a083015f8301516125165f86018261249b565b506020830151612529602086018261249b565b50604083015161253c60408601826124aa565b506060830151848203606086015261255482826124c9565b9150506080830151612569608086018261249b565b508091505092915050565b5f61257f8383612501565b905092915050565b5f602082019050919050565b5f61259d82612472565b6125a7818561247c565b9350836020820285016125b98561248c565b805f5b858110156125f457848403895281516125d58582612574565b94506125e083612587565b925060208a019950506001810190506125bc565b50829750879550505050505092915050565b5f6020820190508181035f83015261261e8184612593565b905092915050565b7f4e487b71000000000000000000000000000000000000000000000000000000005f52602260045260245ffd5b5f600282049050600182168061266a57607f821691505b60208210810361267d5761267c612626565b5b50919050565b7f4e487b71000000000000000000000000000000000000000000000000000000005f52603260045260245ffd5b7f546f6f206d7563680000000000000000000000000000000000000000000000005f82015250565b5f6126e4600883611fa6565b91506126ef826126b0565b602082019050919050565b5f6020820190508181035f830152612711816126d8565b9050919050565b7f46656520726571756972656400000000000000000000000000000000000000005f82015250565b5f61274c600c83611fa6565b915061275782612718565b602082019050919050565b5f6020820190508181035f83015261277981612740565b9050919050565b7f4e487b71000000000000000000000000000000000000000000000000000000005f52601160045260245ffd5b5f6127b782611ded565b91506127c283611ded565b92508282039050818111156127da576127d9612780565b5b92915050565b5f6127ea82611ded565b91506127f583611ded565b925082820261280381611ded565b9150828204841483151761281a57612819612780565b5b5092915050565b7f4e487b71000000000000000000000000000000000000000000000000000000005f52601260045260245ffd5b5f61285882611ded565b915061286383611ded565b92508261287357612872612821565b5b828204905092915050565b7f45787069726564000000000000000000000000000000000000000000000000005f82015250565b5f6128b2600783611fa6565b91506128bd8261287e565b602082019050919050565b5f6020820190508181035f8301526128df816128a6565b9050919050565b7f5461736b20746f6f206c617267650000000000000000000000000000000000005f82015250565b5f61291a600e83611fa6565b9150612925826128e6565b602082019050919050565b5f6020820190508181035f8301526129478161290e565b9050919050565b5f61295882611ded565b915061296383611ded565b925082820190508082111561297b5761297a612780565b5b92915050565b7f4461696c79206c696d69742072656163686564000000000000000000000000005f82015250565b5f6129b5601383611fa6565b91506129c082612981565b602082019050919050565b5f6020820190508181035f8301526129e2816129a9565b9050919050565b5f8160601b9050919050565b5f6129ff826129e9565b9050919050565b5f612a10826129f5565b9050919050565b612a28612a2382611f63565b612a06565b82525050565b5f819050919050565b612a48612a4382611ded565b612a2e565b82525050565b5f612a598287612a17565b601482019150612a698286612a37565b602082019150612a798285612a37565b602082019150612a898284612a37565b60208201915081905095945050505050565b7f5265706c617920646574656374656400000000000000000000000000000000005f82015250565b5f612acf600f83611fa6565b9150612ada82612a9b565b602082019050919050565b5f6020820190508181035f830152612afc81612ac3565b9050919050565b5f81905092915050565b7f19457468657265756d205369676e6564204d6573736167653a0a3332000000005f82015250565b5f612b41601c83612b03565b9150612b4c82612b0d565b601c82019050919050565b5f819050919050565b612b71612b6c82612304565b612b57565b82525050565b5f612b8182612b35565b9150612b8d8284612b60565b60208201915081905092915050565b7f496e76616c6964207369676e65720000000000000000000000000000000000005f82015250565b5f612bd0600e83611fa6565b9150612bdb82612b9c565b602082019050919050565b5f6020820190508181035f830152612bfd81612bc4565b9050919050565b7f496e73756666696369656e7420666565000000000000000000000000000000005f82015250565b5f612c38601083611fa6565b9150612c4382612c04565b602082019050919050565b5f6020820190508181035f830152612c6581612c2c565b9050919050565b7f4e6f2072657761726400000000000000000000000000000000000000000000005f82015250565b5f612ca0600983611fa6565b9150612cab82612c6c565b602082019050919050565b5f6020820190508181035f830152612ccd81612c94565b9050919050565b5f612cde82611ded565b91507fffffffffffffffffffffffffffffffffffffffffffffffffffffffffffffffff8203612d1057612d0f612780565b5b600182019050919050565b5f819050815f5260205f209050919050565b5f6020601f8301049050919050565b5f82821b905092915050565b5f60088302612d777fffffffffffffffffffffffffffffffffffffffffffffffffffffffffffffffff82612d3c565b612d818683612d3c565b95508019841693508086168417925050509392505050565b5f612db3612dae612da984611ded565b611ea8565b611ded565b9050919050565b5f819050919050565b612dcc83612d99565b612de0612dd882612dba565b848454612d48565b825550505050565b5f90565b612df4612de8565b612dff818484612dc3565b505050565b5b81811015612e2257612e175f82612dec565b600181019050612e05565b5050565b601f821115612e6757612e3881612d1b565b612e4184612d2d565b81016020851015612e50578190505b612e64612e5c85612d2d565b830182612e04565b50505b505050565b5f82821c905092915050565b5f612e875f1984600802612e6c565b1980831691505092915050565b5f612e9f8383612e78565b9150826002028217905092915050565b612eb882611f9c565b67ffffffffffffffff811115612ed157612ed06120da565b5b612edb8254612653565b612ee6828285612e26565b5f60209050601f831160018114612f17575f8415612f05578287015190505b612f0f8582612e94565b865550612f76565b601f198416612f2586612d1b565b5f5b82811015612f4c57848901518255600182019150602085019450602081019050612f27565b86831015612f695784890151612f65601f891682612e78565b8355505b6001600288020188555050505b505050505050565b612f8781612304565b82525050565b5f60ff82169050919050565b612fa281612f8d565b82525050565b5f608082019050612fbb5f830187612f7e565b612fc86020830186612f99565b612fd56040830185612f7e565b612fe26060830184612f7e565b95945050505050565b7f62616420736967000000000000000000000000000000000000000000000000005f82015250565b5f61301f600783611fa6565b915061302a82612feb565b602082019050919050565b5f6020820190508181035f83015261304c81613013565b905091905056fea2646970667358221220404ad4d793dacc83a8bc05697333d11b3a3f5618760da08d9d57f09676a0a24064736f6c634300081a0033",
			"opcodes": "PUSH1 0x80 PUSH1 0x40 MSTORE PUSH8 0xDE0B6B3A7640000 PUSH1 0x3 SSTORE PUSH9 0x2B5E3AF16B1880000 PUSH1 0x4 SSTORE CALLVALUE DUP1 ISZERO PUSH2 0x28 JUMPI PUSH0 DUP1 REVERT JUMPDEST POP PUSH1 0x40 MLOAD PUSH2 0x332F CODESIZE SUB DUP1 PUSH2 0x332F DUP4 CODECOPY DUP2 DUP2 ADD PUSH1 0x40 MSTORE DUP2 ADD SWAP1 PUSH2 0x4A SWAP2 SWAP1 PUSH2 0x246 JUMP JUMPDEST DUP1 PUSH0 PUSH20 0xFFFFFFFFFFFFFFFFFFFFFFFFFFFFFFFFFFFFFFFF AND DUP2 PUSH20 0xFFFFFFFFFFFFFFFFFFFFFFFFFFFFFFFFFFFFFFFF AND SUB PUSH2 0xBB JUMPI PUSH0 PUSH1 0x40 MLOAD PUSH32 0x1E4FBDF700000000000000000000000000000000000000000000000000000000 DUP2 MSTORE PUSH1 0x4 ADD PUSH2 0xB2 SWAP2 SWAP1 PUSH2 0x280 JUMP JUMPDEST PUSH1 0x40 MLOAD DUP1 SWAP2 SUB SWAP1 REVERT JUMPDEST PUSH2 0xCA DUP2 PUSH2 0xF5 PUSH1 0x20 SHL PUSH1 0x20 SHR JUMP JUMPDEST POP PUSH1 0x1 PUSH2 0xE9 PUSH2 0xDE PUSH2 0x1B6 PUSH1 0x20 SHL PUSH1 0x20 SHR JUMP JUMPDEST PUSH2 0x1DF PUSH1 0x20 SHL PUSH1 0x20 SHR JUMP JUMPDEST PUSH0 ADD DUP2 SWAP1 SSTORE POP POP PUSH2 0x299 JUMP JUMPDEST PUSH0 DUP1 PUSH0 SWAP1 SLOAD SWAP1 PUSH2 0x100 EXP SWAP1 DIV PUSH20 0xFFFFFFFFFFFFFFFFFFFFFFFFFFFFFFFFFFFFFFFF AND SWAP1 POP DUP2 PUSH0 DUP1 PUSH2 0x100 EXP DUP2 SLOAD DUP2 PUSH20 0xFFFFFFFFFFFFFFFFFFFFFFFFFFFFFFFFFFFFFFFF MUL NOT AND SWAP1 DUP4 PUSH20 0xFFFFFFFFFFFFFFFFFFFFFFFFFFFFFFFFFFFFFFFF AND MUL OR SWAP1 SSTORE POP DUP2 PUSH20 0xFFFFFFFFFFFFFFFFFFFFFFFFFFFFFFFFFFFFFFFF AND DUP2 PUSH20 0xFFFFFFFFFFFFFFFFFFFFFFFFFFFFFFFFFFFFFFFF AND PUSH32 0x8BE0079C531659141344CD1FD0A4F28419497F9722A3DAAFE3B4186F6B6457E0 PUSH1 0x40 MLOAD PUSH1 0x40 MLOAD DUP1 SWAP2 SUB SWAP1 LOG3 POP POP JUMP JUMPDEST PUSH0 PUSH32 0x9B779B17422D0DF92223018B32B4D1FA46E071723D6817E2486D003BECC55F00 PUSH0 SHL SWAP1 POP SWAP1 JUMP JUMPDEST PUSH0 DUP2 SWAP1 POP SWAP2 SWAP1 POP JUMP JUMPDEST PUSH0 DUP1 REVERT JUMPDEST PUSH0 PUSH20 0xFFFFFFFFFFFFFFFFFFFFFFFFFFFFFFFFFFFFFFFF DUP3 AND SWAP1 POP SWAP2 SWAP1 POP JUMP JUMPDEST PUSH0 PUSH2 0x215 DUP3 PUSH2 0x1EC JUMP JUMPDEST SWAP1 POP SWAP2 SWAP1 POP JUMP JUMPDEST PUSH2 0x225 DUP2 PUSH2 0x20B JUMP JUMPDEST DUP2 EQ PUSH2 0x22F JUMPI PUSH0 DUP1 REVERT JUMPDEST POP JUMP JUMPDEST PUSH0 DUP2 MLOAD SWAP1 POP PUSH2 0x240 DUP2 PUSH2 0x21C JUMP JUMPDEST SWAP3 SWAP2 POP POP JUMP JUMPDEST PUSH0 PUSH1 0x20 DUP3 DUP5 SUB SLT ISZERO PUSH2 0x25B JUMPI PUSH2 0x25A PUSH2 0x1E8 JUMP JUMPDEST JUMPDEST PUSH0 PUSH2 0x268 DUP5 DUP3 DUP6 ADD PUSH2 0x232 JUMP JUMPDEST SWAP2 POP POP SWAP3 SWAP2 POP POP JUMP JUMPDEST PUSH2 0x27A DUP2 PUSH2 0x20B JUMP JUMPDEST DUP3 MSTORE POP POP JUMP JUMPDEST PUSH0 PUSH1 0x20 DUP3 ADD SWAP1 POP PUSH2 0x293 PUSH0 DUP4 ADD DUP5 PUSH2 0x271 JUMP JUMPDEST SWAP3 SWAP2 POP POP JUMP JUMPDEST PUSH2 0x3089 DUP1 PUSH2 0x2A6 PUSH0 CODECOPY PUSH0 RETURN INVALID PUSH1 0x80 PUSH1 0x40 MSTORE PUSH1 0x4 CALLDATASIZE LT PUSH2 0x180 JUMPI PUSH0 CALLDATALOAD PUSH1 0xE0 SHR DUP1 PUSH4 0xAE169A50 GT PUSH2 0xD0 JUMPI DUP1 PUSH4 0xC4590D3F GT PUSH2 0x89 JUMPI DUP1 PUSH4 0xF0F44260 GT PUSH2 0x63 JUMPI DUP1 PUSH4 0xF0F44260 EQ PUSH2 0x56E JUMPI DUP1 PUSH4 0xF2FDE38B EQ PUSH2 0x596 JUMPI DUP1 PUSH4 0xF525CB68 EQ PUSH2 0x5BE JUMPI DUP1 PUSH4 0xF6DD6D8E EQ PUSH2 0x5E8 JUMPI PUSH2 0x180 JUMP JUMPDEST DUP1 PUSH4 0xC4590D3F EQ PUSH2 0x4E0 JUMPI DUP1 PUSH4 0xC8E7711F EQ PUSH2 0x508 JUMPI DUP1 PUSH4 0xCF48BD2C EQ PUSH2 0x544 JUMPI PUSH2 0x180 JUMP JUMPDEST DUP1 PUSH4 0xAE169A50 EQ PUSH2 0x3C4 JUMPI DUP1 PUSH4 0xAEF18BF7 EQ PUSH2 0x3EC JUMPI DUP1 PUSH4 0xB0C9FBC1 EQ PUSH2 0x428 JUMPI DUP1 PUSH4 0xC0DCD954 EQ PUSH2 0x452 JUMPI DUP1 PUSH4 0xC20632BA EQ PUSH2 0x47C JUMPI DUP1 PUSH4 0xC326BF4F EQ PUSH2 0x4A4 JUMPI PUSH2 0x180 JUMP JUMPDEST DUP1 PUSH4 0x57E900BC GT PUSH2 0x13D JUMPI DUP1 PUSH4 0x715018A6 GT PUSH2 0x117 JUMPI DUP1 PUSH4 0x715018A6 EQ PUSH2 0x31C JUMPI DUP1 PUSH4 0x8DA5CB5B EQ PUSH2 0x332 JUMPI DUP1 PUSH4 0x93F1A40B EQ PUSH2 0x35C JUMPI DUP1 PUSH4 0xA80A7882 EQ PUSH2 0x39A JUMPI PUSH2 0x180 JUMP JUMPDEST DUP1 PUSH4 0x57E900BC EQ PUSH2 0x2AE JUMPI DUP1 PUSH4 0x61D027B3 EQ PUSH2 0x2CA JUMPI DUP1 PUSH4 0x6C19E783 EQ PUSH2 0x2F4 JUMPI PUSH2 0x180 JUMP JUMPDEST DUP1 PUSH4 0xB78F9C0 EQ PUSH2 0x184 JUMPI DUP1 PUSH4 0x1526FE27 EQ PUSH2 0x1AC JUMPI DUP1 PUSH4 0x238AC933 EQ PUSH2 0x1EC JUMPI DUP1 PUSH4 0x34C1F944 EQ PUSH2 0x216 JUMPI DUP1 PUSH4 0x441A3E70 EQ PUSH2 0x256 JUMPI DUP1 PUSH4 0x53BE657F EQ PUSH2 0x272 JUMPI JUMPDEST PUSH0 DUP1 REVERT JUMPDEST CALLVALUE DUP1 ISZERO PUSH2 0x18F JUMPI PUSH0 DUP1 REVERT JUMPDEST POP PUSH2 0x1AA PUSH1 0x4 DUP1 CALLDATASIZE SUB DUP2 ADD SWAP1 PUSH2 0x1A5 SWAP2 SWAP1 PUSH2 0x1E20 JUMP JUMPDEST PUSH2 0x612 JUMP JUMPDEST STOP JUMPDEST CALLVALUE DUP1 ISZERO PUSH2 0x1B7 JUMPI PUSH0 DUP1 REVERT JUMPDEST POP PUSH2 0x1D2 PUSH1 0x4 DUP1 CALLDATASIZE SUB DUP2 ADD SWAP1 PUSH2 0x1CD SWAP2 SWAP1 PUSH2 0x1E5E JUMP JUMPDEST PUSH2 0x62C JUMP JUMPDEST PUSH1 0x40 MLOAD PUSH2 0x1E3 SWAP6 SWAP5 SWAP4 SWAP3 SWAP2 SWAP1 PUSH2 0x1F12 JUMP JUMPDEST PUSH1 0x40 MLOAD DUP1 SWAP2 SUB SWAP1 RETURN JUMPDEST CALLVALUE DUP1 ISZERO PUSH2 0x1F7 JUMPI PUSH0 DUP1 REVERT JUMPDEST POP PUSH2 0x200 PUSH2 0x6AB JUMP JUMPDEST PUSH1 0x40 MLOAD PUSH2 0x20D SWAP2 SWAP1 PUSH2 0x1F83 JUMP JUMPDEST PUSH1 0x40 MLOAD DUP1 SWAP2 SUB SWAP1 RETURN JUMPDEST CALLVALUE DUP1 ISZERO PUSH2 0x221 JUMPI PUSH0 DUP1 REVERT JUMPDEST POP PUSH2 0x23C PUSH1 0x4 DUP1 CALLDATASIZE SUB DUP2 ADD SWAP1 PUSH2 0x237 SWAP2 SWAP1 PUSH2 0x1E5E JUMP JUMPDEST PUSH2 0x6D0 JUMP JUMPDEST PUSH1 0x40 MLOAD PUSH2 0x24D SWAP6 SWAP5 SWAP4 SWAP3 SWAP2 SWAP1 PUSH2 0x200C JUMP JUMPDEST PUSH1 0x40 MLOAD DUP1 SWAP2 SUB SWAP1 RETURN JUMPDEST PUSH2 0x270 PUSH1 0x4 DUP1 CALLDATASIZE SUB DUP2 ADD SWAP1 PUSH2 0x26B SWAP2 SWAP1 PUSH2 0x1E20 JUMP JUMPDEST PUSH2 0x7B6 JUMP JUMPDEST STOP JUMPDEST CALLVALUE DUP1 ISZERO PUSH2 0x27D JUMPI PUSH0 DUP1 REVERT JUMPDEST POP PUSH2 0x298 PUSH1 0x4 DUP1 CALLDATASIZE SUB DUP2 ADD SWAP1 PUSH2 0x293 SWAP2 SWAP1 PUSH2 0x208E JUMP JUMPDEST PUSH2 0xBF7 JUMP JUMPDEST PUSH1 0x40 MLOAD PUSH2 0x2A5 SWAP2 SWAP1 PUSH2 0x20B9 JUMP JUMPDEST PUSH1 0x40 MLOAD DUP1 SWAP2 SUB SWAP1 RETURN JUMPDEST PUSH2 0x2C8 PUSH1 0x4 DUP1 CALLDATASIZE SUB DUP2 ADD SWAP1 PUSH2 0x2C3 SWAP2 SWAP1 PUSH2 0x21FE JUMP JUMPDEST PUSH2 0xC0C JUMP JUMPDEST STOP JUMPDEST CALLVALUE DUP1 ISZERO PUSH2 0x2D5 JUMPI PUSH0 DUP1 REVERT JUMPDEST POP PUSH2 0x2DE PUSH2 0x1037 JUMP JUMPDEST PUSH1 0x40 MLOAD PUSH2 0x2EB SWAP2 SWAP1 PUSH2 0x1F83 JUMP JUMPDEST PUSH1 0x40 MLOAD DUP1 SWAP2 SUB SWAP1 RETURN JUMPDEST CALLVALUE DUP1 ISZERO PUSH2 0x2FF JUMPI PUSH0 DUP1 REVERT JUMPDEST POP PUSH2 0x31A PUSH1 0x4 DUP1 CALLDATASIZE SUB DUP2 ADD SWAP1 PUSH2 0x315 SWAP2 SWAP1 PUSH2 0x208E JUMP JUMPDEST PUSH2 0x105C JUMP JUMPDEST STOP JUMPDEST CALLVALUE DUP1 ISZERO PUSH2 0x327 JUMPI PUSH0 DUP1 REVERT JUMPDEST POP PUSH2 0x330 PUSH2 0x10A7 JUMP JUMPDEST STOP JUMPDEST CALLVALUE DUP1 ISZERO PUSH2 0x33D JUMPI PUSH0 DUP1 REVERT JUMPDEST POP PUSH2 0x346 PUSH2 0x10BA JUMP JUMPDEST PUSH1 0x40 MLOAD PUSH2 0x353 SWAP2 SWAP1 PUSH2 0x1F83 JUMP JUMPDEST PUSH1 0x40 MLOAD DUP1 SWAP2 SUB SWAP1 RETURN JUMPDEST CALLVALUE DUP1 ISZERO PUSH2 0x367 JUMPI PUSH0 DUP1 REVERT JUMPDEST POP PUSH2 0x382 PUSH1 0x4 DUP1 CALLDATASIZE SUB DUP2 ADD SWAP1 PUSH2 0x37D SWAP2 SWAP1 PUSH2 0x2291 JUMP JUMPDEST PUSH2 0x10E1 JUMP JUMPDEST PUSH1 0x40 MLOAD PUSH2 0x391 SWAP4 SWAP3 SWAP2 SWAP1 PUSH2 0x22CF JUMP JUMPDEST PUSH1 0x40 MLOAD DUP1 SWAP2 SUB SWAP1 RETURN JUMPDEST CALLVALUE DUP1 ISZERO PUSH2 0x3A5 JUMPI PUSH0 DUP1 REVERT JUMPDEST POP PUSH2 0x3AE PUSH2 0x1112 JUMP JUMPDEST PUSH1 0x40 MLOAD PUSH2 0x3BB SWAP2 SWAP1 PUSH2 0x20B9 JUMP JUMPDEST PUSH1 0x40 MLOAD DUP1 SWAP2 SUB SWAP1 RETURN JUMPDEST CALLVALUE DUP1 ISZERO PUSH2 0x3CF JUMPI PUSH0 DUP1 REVERT JUMPDEST POP PUSH2 0x3EA PUSH1 0x4 DUP1 CALLDATASIZE SUB DUP2 ADD SWAP1 PUSH2 0x3E5 SWAP2 SWAP1 PUSH2 0x1E5E JUMP JUMPDEST PUSH2 0x1118 JUMP JUMPDEST STOP JUMPDEST CALLVALUE DUP1 ISZERO PUSH2 0x3F7 JUMPI PUSH0 DUP1 REVERT JUMPDEST POP PUSH2 0x412 PUSH1 0x4 DUP1 CALLDATASIZE SUB DUP2 ADD SWAP1 PUSH2 0x40D SWAP2 SWAP1 PUSH2 0x2337 JUMP JUMPDEST PUSH2 0x12AF JUMP JUMPDEST PUSH1 0x40 MLOAD PUSH2 0x41F SWAP2 SWAP1 PUSH2 0x237C JUMP JUMPDEST PUSH1 0x40 MLOAD DUP1 SWAP2 SUB SWAP1 RETURN JUMPDEST CALLVALUE DUP1 ISZERO PUSH2 0x433 JUMPI PUSH0 DUP1 REVERT JUMPDEST POP PUSH2 0x43C PUSH2 0x12CC JUMP JUMPDEST PUSH1 0x40 MLOAD PUSH2 0x449 SWAP2 SWAP1 PUSH2 0x20B9 JUMP JUMPDEST PUSH1 0x40 MLOAD DUP1 SWAP2 SUB SWAP1 RETURN JUMPDEST CALLVALUE DUP1 ISZERO PUSH2 0x45D JUMPI PUSH0 DUP1 REVERT JUMPDEST POP PUSH2 0x466 PUSH2 0x12D2 JUMP JUMPDEST PUSH1 0x40 MLOAD PUSH2 0x473 SWAP2 SWAP1 PUSH2 0x20B9 JUMP JUMPDEST PUSH1 0x40 MLOAD DUP1 SWAP2 SUB SWAP1 RETURN JUMPDEST CALLVALUE DUP1 ISZERO PUSH2 0x487 JUMPI PUSH0 DUP1 REVERT JUMPDEST POP PUSH2 0x4A2 PUSH1 0x4 DUP1 CALLDATASIZE SUB DUP2 ADD SWAP1 PUSH2 0x49D SWAP2 SWAP1 PUSH2 0x23D0 JUMP JUMPDEST PUSH2 0x12D8 JUMP JUMPDEST STOP JUMPDEST CALLVALUE DUP1 ISZERO PUSH2 0x4AF JUMPI PUSH0 DUP1 REVERT JUMPDEST POP PUSH2 0x4CA PUSH1 0x4 DUP1 CALLDATASIZE SUB DUP2 ADD SWAP1 PUSH2 0x4C5 SWAP2 SWAP1 PUSH2 0x208E JUMP JUMPDEST PUSH2 0x1422 JUMP JUMPDEST PUSH1 0x40 MLOAD PUSH2 0x4D7 SWAP2 SWAP1 PUSH2 0x20B9 JUMP JUMPDEST PUSH1 0x40 MLOAD DUP1 SWAP2 SUB SWAP1 RETURN JUMPDEST CALLVALUE DUP1 ISZERO PUSH2 0x4EB JUMPI PUSH0 DUP1 REVERT JUMPDEST POP PUSH2 0x506 PUSH1 0x4 DUP1 CALLDATASIZE SUB DUP2 ADD SWAP1 PUSH2 0x501 SWAP2 SWAP1 PUSH2 0x1E20 JUMP JUMPDEST PUSH2 0x1437 JUMP JUMPDEST STOP JUMPDEST CALLVALUE DUP1 ISZERO PUSH2 0x513 JUMPI PUSH0 DUP1 REVERT JUMPDEST POP PUSH2 0x52E PUSH1 0x4 DUP1 CALLDATASIZE SUB DUP2 ADD SWAP1 PUSH2 0x529 SWAP2 SWAP1 PUSH2 0x2434 JUMP JUMPDEST PUSH2 0x1451 JUMP JUMPDEST PUSH1 0x40 MLOAD PUSH2 0x53B SWAP2 SWAP1 PUSH2 0x20B9 JUMP JUMPDEST PUSH1 0x40 MLOAD DUP1 SWAP2 SUB SWAP1 RETURN JUMPDEST CALLVALUE DUP1 ISZERO PUSH2 0x54F JUMPI PUSH0 DUP1 REVERT JUMPDEST POP PUSH2 0x558 PUSH2 0x1471 JUMP JUMPDEST PUSH1 0x40 MLOAD PUSH2 0x565 SWAP2 SWAP1 PUSH2 0x2606 JUMP JUMPDEST PUSH1 0x40 MLOAD DUP1 SWAP2 SUB SWAP1 RETURN JUMPDEST CALLVALUE DUP1 ISZERO PUSH2 0x579 JUMPI PUSH0 DUP1 REVERT JUMPDEST POP PUSH2 0x594 PUSH1 0x4 DUP1 CALLDATASIZE SUB DUP2 ADD SWAP1 PUSH2 0x58F SWAP2 SWAP1 PUSH2 0x208E JUMP JUMPDEST PUSH2 0x15CF JUMP JUMPDEST STOP JUMPDEST CALLVALUE DUP1 ISZERO PUSH2 0x5A1 JUMPI PUSH0 DUP1 REVERT JUMPDEST POP PUSH2 0x5BC PUSH1 0x4 DUP1 CALLDATASIZE SUB DUP2 ADD SWAP1 PUSH2 0x5B7 SWAP2 SWAP1 PUSH2 0x208E JUMP JUMPDEST PUSH2 0x161A JUMP JUMPDEST STOP JUMPDEST CALLVALUE DUP1 ISZERO PUSH2 0x5C9 JUMPI PUSH0 DUP1 REVERT JUMPDEST POP PUSH2 0x5D2 PUSH2 0x169E JUMP JUMPDEST PUSH1 0x40 MLOAD PUSH2 0x5DF SWAP2 SWAP1 PUSH2 0x20B9 JUMP JUMPDEST PUSH1 0x40 MLOAD DUP1 SWAP2 SUB SWAP1 RETURN JUMPDEST CALLVALUE DUP1 ISZERO PUSH2 0x5F3 JUMPI PUSH0 DUP1 REVERT JUMPDEST POP PUSH2 0x5FC PUSH2 0x16A4 JUMP JUMPDEST PUSH1 0x40 MLOAD PUSH2 0x609 SWAP2 SWAP1 PUSH2 0x20B9 JUMP JUMPDEST PUSH1 0x40 MLOAD DUP1 SWAP2 SUB SWAP1 RETURN JUMPDEST PUSH2 0x61A PUSH2 0x16AA JUMP JUMPDEST DUP2 PUSH1 0x5 DUP2 SWAP1 SSTORE POP DUP1 PUSH1 0x6 DUP2 SWAP1 SSTORE POP POP POP JUMP JUMPDEST PUSH1 0xB DUP2 DUP2 SLOAD DUP2 LT PUSH2 0x63B JUMPI PUSH0 DUP1 REVERT JUMPDEST SWAP1 PUSH0 MSTORE PUSH1 0x20 PUSH0 KECCAK256 SWAP1 PUSH1 0x5 MUL ADD PUSH0 SWAP2 POP SWAP1 POP DUP1 PUSH0 ADD PUSH0 SWAP1 SLOAD SWAP1 PUSH2 0x100 EXP SWAP1 DIV PUSH20 0xFFFFFFFFFFFFFFFFFFFFFFFFFFFFFFFFFFFFFFFF AND SWAP1 DUP1 PUSH1 0x1 ADD PUSH0 SWAP1 SLOAD SWAP1 PUSH2 0x100 EXP SWAP1 DIV PUSH20 0xFFFFFFFFFFFFFFFFFFFFFFFFFFFFFFFFFFFFFFFF AND SWAP1 DUP1 PUSH1 0x2 ADD SLOAD SWAP1 DUP1 PUSH1 0x3 ADD SLOAD SWAP1 DUP1 PUSH1 0x4 ADD SLOAD SWAP1 POP DUP6 JUMP JUMPDEST PUSH1 0x1 PUSH0 SWAP1 SLOAD SWAP1 PUSH2 0x100 EXP SWAP1 DIV PUSH20 0xFFFFFFFFFFFFFFFFFFFFFFFFFFFFFFFFFFFFFFFF AND DUP2 JUMP JUMPDEST PUSH1 0xE DUP2 DUP2 SLOAD DUP2 LT PUSH2 0x6DF JUMPI PUSH0 DUP1 REVERT JUMPDEST SWAP1 PUSH0 MSTORE PUSH1 0x20 PUSH0 KECCAK256 SWAP1 PUSH1 0x5 MUL ADD PUSH0 SWAP2 POP SWAP1 POP DUP1 PUSH0 ADD SLOAD SWAP1 DUP1 PUSH1 0x1 ADD SLOAD SWAP1 DUP1 PUSH1 0x2 ADD PUSH0 SWAP1 SLOAD SWAP1 PUSH2 0x100 EXP SWAP1 DIV PUSH20 0xFFFFFFFFFFFFFFFFFFFFFFFFFFFFFFFFFFFFFFFF AND SWAP1 DUP1 PUSH1 0x3 ADD DUP1 SLOAD PUSH2 0x72F SWAP1 PUSH2 0x2653 JUMP JUMPDEST DUP1 PUSH1 0x1F ADD PUSH1 0x20 DUP1 SWAP2 DIV MUL PUSH1 0x20 ADD PUSH1 0x40 MLOAD SWAP1 DUP2 ADD PUSH1 0x40 MSTORE DUP1 SWAP3 SWAP2 SWAP1 DUP2 DUP2 MSTORE PUSH1 0x20 ADD DUP3 DUP1 SLOAD PUSH2 0x75B SWAP1 PUSH2 0x2653 JUMP JUMPDEST DUP1 ISZERO PUSH2 0x7A6 JUMPI DUP1 PUSH1 0x1F LT PUSH2 0x77D JUMPI PUSH2 0x100 DUP1 DUP4 SLOAD DIV MUL DUP4 MSTORE SWAP2 PUSH1 0x20 ADD SWAP2 PUSH2 0x7A6 JUMP JUMPDEST DUP3 ADD SWAP2 SWAP1 PUSH0 MSTORE PUSH1 0x20 PUSH0 KECCAK256 SWAP1 JUMPDEST DUP2 SLOAD DUP2 MSTORE SWAP1 PUSH1 0x1 ADD SWAP1 PUSH1 0x20 ADD DUP1 DUP4 GT PUSH2 0x789 JUMPI DUP3 SWAP1 SUB PUSH1 0x1F AND DUP3 ADD SWAP2 JUMPDEST POP POP POP POP POP SWAP1 DUP1 PUSH1 0x4 ADD SLOAD SWAP1 POP DUP6 JUMP JUMPDEST PUSH2 0x7BE PUSH2 0x1731 JUMP JUMPDEST PUSH0 PUSH1 0xB DUP4 DUP2 SLOAD DUP2 LT PUSH2 0x7D3 JUMPI PUSH2 0x7D2 PUSH2 0x2683 JUMP JUMPDEST JUMPDEST SWAP1 PUSH0 MSTORE PUSH1 0x20 PUSH0 KECCAK256 SWAP1 PUSH1 0x5 MUL ADD SWAP1 POP PUSH0 PUSH1 0xC PUSH0 DUP6 DUP2 MSTORE PUSH1 0x20 ADD SWAP1 DUP2 MSTORE PUSH1 0x20 ADD PUSH0 KECCAK256 PUSH0 CALLER PUSH20 0xFFFFFFFFFFFFFFFFFFFFFFFFFFFFFFFFFFFFFFFF AND PUSH20 0xFFFFFFFFFFFFFFFFFFFFFFFFFFFFFFFFFFFFFFFF AND DUP2 MSTORE PUSH1 0x20 ADD SWAP1 DUP2 MSTORE PUSH1 0x20 ADD PUSH0 KECCAK256 SWAP1 POP DUP3 DUP2 PUSH0 ADD SLOAD LT ISZERO PUSH2 0x876 JUMPI PUSH1 0x40 MLOAD PUSH32 0x8C379A000000000000000000000000000000000000000000000000000000000 DUP2 MSTORE PUSH1 0x4 ADD PUSH2 0x86D SWAP1 PUSH2 0x26FA JUMP JUMPDEST PUSH1 0x40 MLOAD DUP1 SWAP2 SUB SWAP1 REVERT JUMPDEST PUSH0 PUSH2 0x8A9 DUP3 PUSH1 0x40 MLOAD DUP1 PUSH1 0x60 ADD PUSH1 0x40 MSTORE SWAP1 DUP2 PUSH0 DUP3 ADD SLOAD DUP2 MSTORE PUSH1 0x20 ADD PUSH1 0x1 DUP3 ADD SLOAD DUP2 MSTORE PUSH1 0x20 ADD PUSH1 0x2 DUP3 ADD SLOAD DUP2 MSTORE POP POP DUP7 PUSH2 0x1753 JUMP JUMPDEST SWAP1 POP PUSH0 DUP3 PUSH1 0x2 ADD SLOAD TIMESTAMP LT SWAP1 POP DUP1 DUP1 ISZERO PUSH2 0x8C3 JUMPI POP PUSH0 PUSH1 0x6 SLOAD GT JUMPDEST ISZERO PUSH2 0x973 JUMPI PUSH1 0x6 SLOAD CALLVALUE LT ISZERO PUSH2 0x90D JUMPI PUSH1 0x40 MLOAD PUSH32 0x8C379A000000000000000000000000000000000000000000000000000000000 DUP2 MSTORE PUSH1 0x4 ADD PUSH2 0x904 SWAP1 PUSH2 0x2762 JUMP JUMPDEST PUSH1 0x40 MLOAD DUP1 SWAP2 SUB SWAP1 REVERT JUMPDEST PUSH1 0x2 PUSH0 SWAP1 SLOAD SWAP1 PUSH2 0x100 EXP SWAP1 DIV PUSH20 0xFFFFFFFFFFFFFFFFFFFFFFFFFFFFFFFFFFFFFFFF AND PUSH20 0xFFFFFFFFFFFFFFFFFFFFFFFFFFFFFFFFFFFFFFFF AND PUSH2 0x8FC CALLVALUE SWAP1 DUP2 ISZERO MUL SWAP1 PUSH1 0x40 MLOAD PUSH0 PUSH1 0x40 MLOAD DUP1 DUP4 SUB DUP2 DUP6 DUP9 DUP9 CALL SWAP4 POP POP POP POP ISZERO DUP1 ISZERO PUSH2 0x971 JUMPI RETURNDATASIZE PUSH0 DUP1 RETURNDATACOPY RETURNDATASIZE PUSH0 REVERT JUMPDEST POP JUMPDEST PUSH0 DUP3 GT ISZERO PUSH2 0x9CA JUMPI PUSH2 0x9C9 CALLER DUP4 DUP7 PUSH1 0x1 ADD PUSH0 SWAP1 SLOAD SWAP1 PUSH2 0x100 EXP SWAP1 DIV PUSH20 0xFFFFFFFFFFFFFFFFFFFFFFFFFFFFFFFFFFFFFFFF AND PUSH20 0xFFFFFFFFFFFFFFFFFFFFFFFFFFFFFFFFFFFFFFFF AND PUSH2 0x18B3 SWAP1 SWAP3 SWAP2 SWAP1 PUSH4 0xFFFFFFFF AND JUMP JUMPDEST JUMPDEST PUSH0 DUP6 GT ISZERO PUSH2 0xB9D JUMPI DUP5 DUP4 PUSH0 ADD PUSH0 DUP3 DUP3 SLOAD PUSH2 0x9E4 SWAP2 SWAP1 PUSH2 0x27AD JUMP JUMPDEST SWAP3 POP POP DUP2 SWAP1 SSTORE POP DUP5 DUP5 PUSH1 0x2 ADD PUSH0 DUP3 DUP3 SLOAD PUSH2 0x9FE SWAP2 SWAP1 PUSH2 0x27AD JUMP JUMPDEST SWAP3 POP POP DUP2 SWAP1 SSTORE POP DUP5 PUSH1 0xD PUSH0 DUP7 PUSH0 ADD PUSH0 SWAP1 SLOAD SWAP1 PUSH2 0x100 EXP SWAP1 DIV PUSH20 0xFFFFFFFFFFFFFFFFFFFFFFFFFFFFFFFFFFFFFFFF AND PUSH20 0xFFFFFFFFFFFFFFFFFFFFFFFFFFFFFFFFFFFFFFFF AND PUSH20 0xFFFFFFFFFFFFFFFFFFFFFFFFFFFFFFFFFFFFFFFF AND DUP2 MSTORE PUSH1 0x20 ADD SWAP1 DUP2 MSTORE PUSH1 0x20 ADD PUSH0 KECCAK256 PUSH0 DUP3 DUP3 SLOAD PUSH2 0xA73 SWAP2 SWAP1 PUSH2 0x27AD JUMP JUMPDEST SWAP3 POP POP DUP2 SWAP1 SSTORE POP DUP1 ISZERO PUSH2 0xB4E JUMPI PUSH0 PUSH1 0x64 PUSH1 0x14 DUP8 PUSH2 0xA90 SWAP2 SWAP1 PUSH2 0x27E0 JUMP JUMPDEST PUSH2 0xA9A SWAP2 SWAP1 PUSH2 0x284E JUMP JUMPDEST SWAP1 POP PUSH0 DUP2 DUP8 PUSH2 0xAA9 SWAP2 SWAP1 PUSH2 0x27AD JUMP JUMPDEST SWAP1 POP PUSH2 0xAF8 CALLER DUP3 DUP9 PUSH0 ADD PUSH0 SWAP1 SLOAD SWAP1 PUSH2 0x100 EXP SWAP1 DIV PUSH20 0xFFFFFFFFFFFFFFFFFFFFFFFFFFFFFFFFFFFFFFFF AND PUSH20 0xFFFFFFFFFFFFFFFFFFFFFFFFFFFFFFFFFFFFFFFF AND PUSH2 0x18B3 SWAP1 SWAP3 SWAP2 SWAP1 PUSH4 0xFFFFFFFF AND JUMP JUMPDEST PUSH2 0xB47 PUSH2 0xDEAD DUP4 DUP9 PUSH0 ADD PUSH0 SWAP1 SLOAD SWAP1 PUSH2 0x100 EXP SWAP1 DIV PUSH20 0xFFFFFFFFFFFFFFFFFFFFFFFFFFFFFFFFFFFFFFFF AND PUSH20 0xFFFFFFFFFFFFFFFFFFFFFFFFFFFFFFFFFFFFFFFF AND PUSH2 0x18B3 SWAP1 SWAP3 SWAP2 SWAP1 PUSH4 0xFFFFFFFF AND JUMP JUMPDEST POP POP PUSH2 0xB9C JUMP JUMPDEST PUSH2 0xB9B CALLER DUP7 DUP7 PUSH0 ADD PUSH0 SWAP1 SLOAD SWAP1 PUSH2 0x100 EXP SWAP1 DIV PUSH20 0xFFFFFFFFFFFFFFFFFFFFFFFFFFFFFFFFFFFFFFFF AND PUSH20 0xFFFFFFFFFFFFFFFFFFFFFFFFFFFFFFFFFFFFFFFF AND PUSH2 0x18B3 SWAP1 SWAP3 SWAP2 SWAP1 PUSH4 0xFFFFFFFF AND JUMP JUMPDEST JUMPDEST JUMPDEST TIMESTAMP DUP4 PUSH1 0x1 ADD DUP2 SWAP1 SSTORE POP PUSH2 0xBE7 DUP7 DUP7 CALLER PUSH1 0x40 MLOAD DUP1 PUSH1 0x40 ADD PUSH1 0x40 MSTORE DUP1 PUSH1 0x8 DUP2 MSTORE PUSH1 0x20 ADD PUSH32 0x5769746864726177000000000000000000000000000000000000000000000000 DUP2 MSTORE POP PUSH2 0x1906 JUMP JUMPDEST POP POP POP POP PUSH2 0xBF3 PUSH2 0x19EB JUMP JUMPDEST POP POP JUMP JUMPDEST PUSH1 0x8 PUSH1 0x20 MSTORE DUP1 PUSH0 MSTORE PUSH1 0x40 PUSH0 KECCAK256 PUSH0 SWAP2 POP SWAP1 POP SLOAD DUP2 JUMP JUMPDEST PUSH2 0xC14 PUSH2 0x1731 JUMP JUMPDEST DUP2 TIMESTAMP GT ISZERO PUSH2 0xC57 JUMPI PUSH1 0x40 MLOAD PUSH32 0x8C379A000000000000000000000000000000000000000000000000000000000 DUP2 MSTORE PUSH1 0x4 ADD PUSH2 0xC4E SWAP1 PUSH2 0x28C8 JUMP JUMPDEST PUSH1 0x40 MLOAD DUP1 SWAP2 SUB SWAP1 REVERT JUMPDEST PUSH1 0x3 SLOAD DUP5 GT ISZERO PUSH2 0xC9C JUMPI PUSH1 0x40 MLOAD PUSH32 0x8C379A000000000000000000000000000000000000000000000000000000000 DUP2 MSTORE PUSH1 0x4 ADD PUSH2 0xC93 SWAP1 PUSH2 0x2930 JUMP JUMPDEST PUSH1 0x40 MLOAD DUP1 SWAP2 SUB SWAP1 REVERT JUMPDEST PUSH0 PUSH3 0x15180 TIMESTAMP PUSH2 0xCAC SWAP2 SWAP1 PUSH2 0x284E JUMP JUMPDEST SWAP1 POP PUSH1 0x4 SLOAD DUP6 PUSH1 0x9 PUSH0 CALLER PUSH20 0xFFFFFFFFFFFFFFFFFFFFFFFFFFFFFFFFFFFFFFFF AND PUSH20 0xFFFFFFFFFFFFFFFFFFFFFFFFFFFFFFFFFFFFFFFF AND DUP2 MSTORE PUSH1 0x20 ADD SWAP1 DUP2 MSTORE PUSH1 0x20 ADD PUSH0 KECCAK256 PUSH0 DUP5 DUP2 MSTORE PUSH1 0x20 ADD SWAP1 DUP2 MSTORE PUSH1 0x20 ADD PUSH0 KECCAK256 SLOAD PUSH2 0xD09 SWAP2 SWAP1 PUSH2 0x294E JUMP JUMPDEST GT ISZERO PUSH2 0xD4A JUMPI PUSH1 0x40 MLOAD PUSH32 0x8C379A000000000000000000000000000000000000000000000000000000000 DUP2 MSTORE PUSH1 0x4 ADD PUSH2 0xD41 SWAP1 PUSH2 0x29CB JUMP JUMPDEST PUSH1 0x40 MLOAD DUP1 SWAP2 SUB SWAP1 REVERT JUMPDEST PUSH0 CALLER DUP7 DUP7 DUP7 PUSH1 0x40 MLOAD PUSH1 0x20 ADD PUSH2 0xD62 SWAP5 SWAP4 SWAP3 SWAP2 SWAP1 PUSH2 0x2A4E JUMP JUMPDEST PUSH1 0x40 MLOAD PUSH1 0x20 DUP2 DUP4 SUB SUB DUP2 MSTORE SWAP1 PUSH1 0x40 MSTORE DUP1 MLOAD SWAP1 PUSH1 0x20 ADD KECCAK256 SWAP1 POP PUSH1 0x7 PUSH0 DUP3 DUP2 MSTORE PUSH1 0x20 ADD SWAP1 DUP2 MSTORE PUSH1 0x20 ADD PUSH0 KECCAK256 PUSH0 SWAP1 SLOAD SWAP1 PUSH2 0x100 EXP SWAP1 DIV PUSH1 0xFF AND ISZERO PUSH2 0xDD8 JUMPI PUSH1 0x40 MLOAD PUSH32 0x8C379A000000000000000000000000000000000000000000000000000000000 DUP2 MSTORE PUSH1 0x4 ADD PUSH2 0xDCF SWAP1 PUSH2 0x2AE5 JUMP JUMPDEST PUSH1 0x40 MLOAD DUP1 SWAP2 SUB SWAP1 REVERT JUMPDEST PUSH0 DUP2 PUSH1 0x40 MLOAD PUSH1 0x20 ADD PUSH2 0xDEA SWAP2 SWAP1 PUSH2 0x2B77 JUMP JUMPDEST PUSH1 0x40 MLOAD PUSH1 0x20 DUP2 DUP4 SUB SUB DUP2 MSTORE SWAP1 PUSH1 0x40 MSTORE DUP1 MLOAD SWAP1 PUSH1 0x20 ADD KECCAK256 SWAP1 POP PUSH1 0x1 PUSH0 SWAP1 SLOAD SWAP1 PUSH2 0x100 EXP SWAP1 DIV PUSH20 0xFFFFFFFFFFFFFFFFFFFFFFFFFFFFFFFFFFFFFFFF AND PUSH20 0xFFFFFFFFFFFFFFFFFFFFFFFFFFFFFFFFFFFFFFFF AND PUSH2 0xE44 DUP3 DUP7 PUSH2 0x1A05 JUMP JUMPDEST PUSH20 0xFFFFFFFFFFFFFFFFFFFFFFFFFFFFFFFFFFFFFFFF AND EQ PUSH2 0xE9A JUMPI PUSH1 0x40 MLOAD PUSH32 0x8C379A000000000000000000000000000000000000000000000000000000000 DUP2 MSTORE PUSH1 0x4 ADD PUSH2 0xE91 SWAP1 PUSH2 0x2BE6 JUMP JUMPDEST PUSH1 0x40 MLOAD DUP1 SWAP2 SUB SWAP1 REVERT JUMPDEST PUSH1 0x1 PUSH1 0x7 PUSH0 DUP5 DUP2 MSTORE PUSH1 0x20 ADD SWAP1 DUP2 MSTORE PUSH1 0x20 ADD PUSH0 KECCAK256 PUSH0 PUSH2 0x100 EXP DUP2 SLOAD DUP2 PUSH1 0xFF MUL NOT AND SWAP1 DUP4 ISZERO ISZERO MUL OR SWAP1 SSTORE POP DUP7 PUSH1 0x9 PUSH0 CALLER PUSH20 0xFFFFFFFFFFFFFFFFFFFFFFFFFFFFFFFFFFFFFFFF AND PUSH20 0xFFFFFFFFFFFFFFFFFFFFFFFFFFFFFFFFFFFFFFFF AND DUP2 MSTORE PUSH1 0x20 ADD SWAP1 DUP2 MSTORE PUSH1 0x20 ADD PUSH0 KECCAK256 PUSH0 DUP6 DUP2 MSTORE PUSH1 0x20 ADD SWAP1 DUP2 MSTORE PUSH1 0x20 ADD PUSH0 KECCAK256 PUSH0 DUP3 DUP3 SLOAD PUSH2 0xF1E SWAP2 SWAP1 PUSH2 0x294E JUMP JUMPDEST SWAP3 POP POP DUP2 SWAP1 SSTORE POP PUSH0 PUSH1 0x5 SLOAD GT ISZERO PUSH2 0xFDA JUMPI PUSH1 0x5 SLOAD CALLVALUE LT ISZERO PUSH2 0xF74 JUMPI PUSH1 0x40 MLOAD PUSH32 0x8C379A000000000000000000000000000000000000000000000000000000000 DUP2 MSTORE PUSH1 0x4 ADD PUSH2 0xF6B SWAP1 PUSH2 0x2C4E JUMP JUMPDEST PUSH1 0x40 MLOAD DUP1 SWAP2 SUB SWAP1 REVERT JUMPDEST PUSH1 0x2 PUSH0 SWAP1 SLOAD SWAP1 PUSH2 0x100 EXP SWAP1 DIV PUSH20 0xFFFFFFFFFFFFFFFFFFFFFFFFFFFFFFFFFFFFFFFF AND PUSH20 0xFFFFFFFFFFFFFFFFFFFFFFFFFFFFFFFFFFFFFFFF AND PUSH2 0x8FC CALLVALUE SWAP1 DUP2 ISZERO MUL SWAP1 PUSH1 0x40 MLOAD PUSH0 PUSH1 0x40 MLOAD DUP1 DUP4 SUB DUP2 DUP6 DUP9 DUP9 CALL SWAP4 POP POP POP POP ISZERO DUP1 ISZERO PUSH2 0xFD8 JUMPI RETURNDATASIZE PUSH0 DUP1 RETURNDATACOPY RETURNDATASIZE PUSH0 REVERT JUMPDEST POP JUMPDEST PUSH2 0xFE4 DUP9 DUP9 PUSH2 0x1A6F JUMP JUMPDEST PUSH2 0x1025 DUP9 DUP9 CALLER PUSH1 0x40 MLOAD DUP1 PUSH1 0x40 ADD PUSH1 0x40 MSTORE DUP1 PUSH1 0xD DUP2 MSTORE PUSH1 0x20 ADD PUSH32 0x436C61696D416E645374616B6500000000000000000000000000000000000000 DUP2 MSTORE POP PUSH2 0x1906 JUMP JUMPDEST POP POP POP PUSH2 0x1030 PUSH2 0x19EB JUMP JUMPDEST POP POP POP POP POP JUMP JUMPDEST PUSH1 0x2 PUSH0 SWAP1 SLOAD SWAP1 PUSH2 0x100 EXP SWAP1 DIV PUSH20 0xFFFFFFFFFFFFFFFFFFFFFFFFFFFFFFFFFFFFFFFF AND DUP2 JUMP JUMPDEST PUSH2 0x1064 PUSH2 0x16AA JUMP JUMPDEST DUP1 PUSH1 0x1 PUSH0 PUSH2 0x100 EXP DUP2 SLOAD DUP2 PUSH20 0xFFFFFFFFFFFFFFFFFFFFFFFFFFFFFFFFFFFFFFFF MUL NOT AND SWAP1 DUP4 PUSH20 0xFFFFFFFFFFFFFFFFFFFFFFFFFFFFFFFFFFFFFFFF AND MUL OR SWAP1 SSTORE POP POP JUMP JUMPDEST PUSH2 0x10AF PUSH2 0x16AA JUMP JUMPDEST PUSH2 0x10B8 PUSH0 PUSH2 0x1BBE JUMP JUMPDEST JUMP JUMPDEST PUSH0 DUP1 PUSH0 SWAP1 SLOAD SWAP1 PUSH2 0x100 EXP SWAP1 DIV PUSH20 0xFFFFFFFFFFFFFFFFFFFFFFFFFFFFFFFFFFFFFFFF AND SWAP1 POP SWAP1 JUMP JUMPDEST PUSH1 0xC PUSH1 0x20 MSTORE DUP2 PUSH0 MSTORE PUSH1 0x40 PUSH0 KECCAK256 PUSH1 0x20 MSTORE DUP1 PUSH0 MSTORE PUSH1 0x40 PUSH0 KECCAK256 PUSH0 SWAP2 POP SWAP2 POP POP DUP1 PUSH0 ADD SLOAD SWAP1 DUP1 PUSH1 0x1 ADD SLOAD SWAP1 DUP1 PUSH1 0x2 ADD SLOAD SWAP1 POP DUP4 JUMP JUMPDEST PUSH1 0x6 SLOAD DUP2 JUMP JUMPDEST PUSH2 0x1120 PUSH2 0x1731 JUMP JUMPDEST PUSH0 PUSH1 0xB DUP3 DUP2 SLOAD DUP2 LT PUSH2 0x1135 JUMPI PUSH2 0x1134 PUSH2 0x2683 JUMP JUMPDEST JUMPDEST SWAP1 PUSH0 MSTORE PUSH1 0x20 PUSH0 KECCAK256 SWAP1 PUSH1 0x5 MUL ADD SWAP1 POP PUSH0 PUSH1 0xC PUSH0 DUP5 DUP2 MSTORE PUSH1 0x20 ADD SWAP1 DUP2 MSTORE PUSH1 0x20 ADD PUSH0 KECCAK256 PUSH0 CALLER PUSH20 0xFFFFFFFFFFFFFFFFFFFFFFFFFFFFFFFFFFFFFFFF AND PUSH20 0xFFFFFFFFFFFFFFFFFFFFFFFFFFFFFFFFFFFFFFFF AND DUP2 MSTORE PUSH1 0x20 ADD SWAP1 DUP2 MSTORE PUSH1 0x20 ADD PUSH0 KECCAK256 SWAP1 POP PUSH0 PUSH2 0x11C5 DUP3 PUSH1 0x40 MLOAD DUP1 PUSH1 0x60 ADD PUSH1 0x40 MSTORE SWAP1 DUP2 PUSH0 DUP3 ADD SLOAD DUP2 MSTORE PUSH1 0x20 ADD PUSH1 0x1 DUP3 ADD SLOAD DUP2 MSTORE PUSH1 0x20 ADD PUSH1 0x2 DUP3 ADD SLOAD DUP2 MSTORE POP POP DUP6 PUSH2 0x1753 JUMP JUMPDEST SWAP1 POP PUSH0 DUP2 GT PUSH2 0x1209 JUMPI PUSH1 0x40 MLOAD PUSH32 0x8C379A000000000000000000000000000000000000000000000000000000000 DUP2 MSTORE PUSH1 0x4 ADD PUSH2 0x1200 SWAP1 PUSH2 0x2CB6 JUMP JUMPDEST PUSH1 0x40 MLOAD DUP1 SWAP2 SUB SWAP1 REVERT JUMPDEST TIMESTAMP DUP3 PUSH1 0x1 ADD DUP2 SWAP1 SSTORE POP PUSH2 0x1260 CALLER DUP3 DUP6 PUSH1 0x1 ADD PUSH0 SWAP1 SLOAD SWAP1 PUSH2 0x100 EXP SWAP1 DIV PUSH20 0xFFFFFFFFFFFFFFFFFFFFFFFFFFFFFFFFFFFFFFFF AND PUSH20 0xFFFFFFFFFFFFFFFFFFFFFFFFFFFFFFFFFFFFFFFF AND PUSH2 0x18B3 SWAP1 SWAP3 SWAP2 SWAP1 PUSH4 0xFFFFFFFF AND JUMP JUMPDEST PUSH2 0x12A1 DUP5 DUP3 CALLER PUSH1 0x40 MLOAD DUP1 PUSH1 0x40 ADD PUSH1 0x40 MSTORE DUP1 PUSH1 0xB DUP2 MSTORE PUSH1 0x20 ADD PUSH32 0x436C61696D526577617264000000000000000000000000000000000000000000 DUP2 MSTORE POP PUSH2 0x1906 JUMP JUMPDEST POP POP POP PUSH2 0x12AC PUSH2 0x19EB JUMP JUMPDEST POP JUMP JUMPDEST PUSH1 0x7 PUSH1 0x20 MSTORE DUP1 PUSH0 MSTORE PUSH1 0x40 PUSH0 KECCAK256 PUSH0 SWAP2 POP SLOAD SWAP1 PUSH2 0x100 EXP SWAP1 DIV PUSH1 0xFF AND DUP2 JUMP JUMPDEST PUSH1 0x4 SLOAD DUP2 JUMP JUMPDEST PUSH1 0x5 SLOAD DUP2 JUMP JUMPDEST PUSH2 0x12E0 PUSH2 0x16AA JUMP JUMPDEST PUSH1 0xB PUSH1 0x40 MLOAD DUP1 PUSH1 0xA0 ADD PUSH1 0x40 MSTORE DUP1 DUP7 PUSH20 0xFFFFFFFFFFFFFFFFFFFFFFFFFFFFFFFFFFFFFFFF AND DUP2 MSTORE PUSH1 0x20 ADD DUP6 PUSH20 0xFFFFFFFFFFFFFFFFFFFFFFFFFFFFFFFFFFFFFFFF AND DUP2 MSTORE PUSH1 0x20 ADD PUSH0 DUP2 MSTORE PUSH1 0x20 ADD DUP5 DUP2 MSTORE PUSH1 0x20 ADD DUP4 DUP2 MSTORE POP SWAP1 DUP1 PUSH1 0x1 DUP2 SLOAD ADD DUP1 DUP3 SSTORE DUP1 SWAP2 POP POP PUSH1 0x1 SWAP1 SUB SWAP1 PUSH0 MSTORE PUSH1 0x20 PUSH0 KECCAK256 SWAP1 PUSH1 0x5 MUL ADD PUSH0 SWAP1 SWAP2 SWAP1 SWAP2 SWAP1 SWAP2 POP PUSH0 DUP3 ADD MLOAD DUP2 PUSH0 ADD PUSH0 PUSH2 0x100 EXP DUP2 SLOAD DUP2 PUSH20 0xFFFFFFFFFFFFFFFFFFFFFFFFFFFFFFFFFFFFFFFF MUL NOT AND SWAP1 DUP4 PUSH20 0xFFFFFFFFFFFFFFFFFFFFFFFFFFFFFFFFFFFFFFFF AND MUL OR SWAP1 SSTORE POP PUSH1 0x20 DUP3 ADD MLOAD DUP2 PUSH1 0x1 ADD PUSH0 PUSH2 0x100 EXP DUP2 SLOAD DUP2 PUSH20 0xFFFFFFFFFFFFFFFFFFFFFFFFFFFFFFFFFFFFFFFF MUL NOT AND SWAP1 DUP4 PUSH20 0xFFFFFFFFFFFFFFFFFFFFFFFFFFFFFFFFFFFFFFFF AND MUL OR SWAP1 SSTORE POP PUSH1 0x40 DUP3 ADD MLOAD DUP2 PUSH1 0x2 ADD SSTORE PUSH1 0x60 DUP3 ADD MLOAD DUP2 PUSH1 0x3 ADD SSTORE PUSH1 0x80 DUP3 ADD MLOAD DUP2 PUSH1 0x4 ADD SSTORE POP POP PUSH1 0xA PUSH0 DUP2 SLOAD DUP1 SWAP3 SWAP2 SWAP1 PUSH2 0x1417 SWAP1 PUSH2 0x2CD4 JUMP JUMPDEST SWAP2 SWAP1 POP SSTORE POP POP POP POP POP JUMP JUMPDEST PUSH1 0xD PUSH1 0x20 MSTORE DUP1 PUSH0 MSTORE PUSH1 0x40 PUSH0 KECCAK256 PUSH0 SWAP2 POP SWAP1 POP SLOAD DUP2 JUMP JUMPDEST PUSH2 0x143F PUSH2 0x16AA JUMP JUMPDEST DUP2 PUSH1 0x3 DUP2 SWAP1 SSTORE POP DUP1 PUSH1 0x4 DUP2 SWAP1 SSTORE POP POP POP JUMP JUMPDEST PUSH1 0x9 PUSH1 0x20 MSTORE DUP2 PUSH0 MSTORE PUSH1 0x40 PUSH0 KECCAK256 PUSH1 0x20 MSTORE DUP1 PUSH0 MSTORE PUSH1 0x40 PUSH0 KECCAK256 PUSH0 SWAP2 POP SWAP2 POP POP SLOAD DUP2 JUMP JUMPDEST PUSH1 0x60 PUSH1 0xE DUP1 SLOAD DUP1 PUSH1 0x20 MUL PUSH1 0x20 ADD PUSH1 0x40 MLOAD SWAP1 DUP2 ADD PUSH1 0x40 MSTORE DUP1 SWAP3 SWAP2 SWAP1 DUP2 DUP2 MSTORE PUSH1 0x20 ADD PUSH0 SWAP1 JUMPDEST DUP3 DUP3 LT ISZERO PUSH2 0x15C6 JUMPI DUP4 DUP3 SWAP1 PUSH0 MSTORE PUSH1 0x20 PUSH0 KECCAK256 SWAP1 PUSH1 0x5 MUL ADD PUSH1 0x40 MLOAD DUP1 PUSH1 0xA0 ADD PUSH1 0x40 MSTORE SWAP1 DUP2 PUSH0 DUP3 ADD SLOAD DUP2 MSTORE PUSH1 0x20 ADD PUSH1 0x1 DUP3 ADD SLOAD DUP2 MSTORE PUSH1 0x20 ADD PUSH1 0x2 DUP3 ADD PUSH0 SWAP1 SLOAD SWAP1 PUSH2 0x100 EXP SWAP1 DIV PUSH20 0xFFFFFFFFFFFFFFFFFFFFFFFFFFFFFFFFFFFFFFFF AND PUSH20 0xFFFFFFFFFFFFFFFFFFFFFFFFFFFFFFFFFFFFFFFF AND PUSH20 0xFFFFFFFFFFFFFFFFFFFFFFFFFFFFFFFFFFFFFFFF AND DUP2 MSTORE PUSH1 0x20 ADD PUSH1 0x3 DUP3 ADD DUP1 SLOAD PUSH2 0x152D SWAP1 PUSH2 0x2653 JUMP JUMPDEST DUP1 PUSH1 0x1F ADD PUSH1 0x20 DUP1 SWAP2 DIV MUL PUSH1 0x20 ADD PUSH1 0x40 MLOAD SWAP1 DUP2 ADD PUSH1 0x40 MSTORE DUP1 SWAP3 SWAP2 SWAP1 DUP2 DUP2 MSTORE PUSH1 0x20 ADD DUP3 DUP1 SLOAD PUSH2 0x1559 SWAP1 PUSH2 0x2653 JUMP JUMPDEST DUP1 ISZERO PUSH2 0x15A4 JUMPI DUP1 PUSH1 0x1F LT PUSH2 0x157B JUMPI PUSH2 0x100 DUP1 DUP4 SLOAD DIV MUL DUP4 MSTORE SWAP2 PUSH1 0x20 ADD SWAP2 PUSH2 0x15A4 JUMP JUMPDEST DUP3 ADD SWAP2 SWAP1 PUSH0 MSTORE PUSH1 0x20 PUSH0 KECCAK256 SWAP1 JUMPDEST DUP2 SLOAD DUP2 MSTORE SWAP1 PUSH1 0x1 ADD SWAP1 PUSH1 0x20 ADD DUP1 DUP4 GT PUSH2 0x1587 JUMPI DUP3 SWAP1 SUB PUSH1 0x1F AND DUP3 ADD SWAP2 JUMPDEST POP POP POP POP POP DUP2 MSTORE PUSH1 0x20 ADD PUSH1 0x4 DUP3 ADD SLOAD DUP2 MSTORE POP POP DUP2 MSTORE PUSH1 0x20 ADD SWAP1 PUSH1 0x1 ADD SWAP1 PUSH2 0x1494 JUMP JUMPDEST POP POP POP POP SWAP1 POP SWAP1 JUMP JUMPDEST PUSH2 0x15D7 PUSH2 0x16AA JUMP JUMPDEST DUP1 PUSH1 0x2 PUSH0 PUSH2 0x100 EXP DUP2 SLOAD DUP2 PUSH20 0xFFFFFFFFFFFFFFFFFFFFFFFFFFFFFFFFFFFFFFFF MUL NOT AND SWAP1 DUP4 PUSH20 0xFFFFFFFFFFFFFFFFFFFFFFFFFFFFFFFFFFFFFFFF AND MUL OR SWAP1 SSTORE POP POP JUMP JUMPDEST PUSH2 0x1622 PUSH2 0x16AA JUMP JUMPDEST PUSH0 PUSH20 0xFFFFFFFFFFFFFFFFFFFFFFFFFFFFFFFFFFFFFFFF AND DUP2 PUSH20 0xFFFFFFFFFFFFFFFFFFFFFFFFFFFFFFFFFFFFFFFF AND SUB PUSH2 0x1692 JUMPI PUSH0 PUSH1 0x40 MLOAD PUSH32 0x1E4FBDF700000000000000000000000000000000000000000000000000000000 DUP2 MSTORE PUSH1 0x4 ADD PUSH2 0x1689 SWAP2 SWAP1 PUSH2 0x1F83 JUMP JUMPDEST PUSH1 0x40 MLOAD DUP1 SWAP2 SUB SWAP1 REVERT JUMPDEST PUSH2 0x169B DUP2 PUSH2 0x1BBE JUMP JUMPDEST POP JUMP JUMPDEST PUSH1 0xA SLOAD DUP2 JUMP JUMPDEST PUSH1 0x3 SLOAD DUP2 JUMP JUMPDEST PUSH2 0x16B2 PUSH2 0x1C7F JUMP JUMPDEST PUSH20 0xFFFFFFFFFFFFFFFFFFFFFFFFFFFFFFFFFFFFFFFF AND PUSH2 0x16D0 PUSH2 0x10BA JUMP JUMPDEST PUSH20 0xFFFFFFFFFFFFFFFFFFFFFFFFFFFFFFFFFFFFFFFF AND EQ PUSH2 0x172F JUMPI PUSH2 0x16F3 PUSH2 0x1C7F JUMP JUMPDEST PUSH1 0x40 MLOAD PUSH32 0x118CDAA700000000000000000000000000000000000000000000000000000000 DUP2 MSTORE PUSH1 0x4 ADD PUSH2 0x1726 SWAP2 SWAP1 PUSH2 0x1F83 JUMP JUMPDEST PUSH1 0x40 MLOAD DUP1 SWAP2 SUB SWAP1 REVERT JUMPDEST JUMP JUMPDEST PUSH2 0x1739 PUSH2 0x1C86 JUMP JUMPDEST PUSH1 0x2 PUSH2 0x174B PUSH2 0x1746 PUSH2 0x1CC7 JUMP JUMPDEST PUSH2 0x1CF0 JUMP JUMPDEST PUSH0 ADD DUP2 SWAP1 SSTORE POP JUMP JUMPDEST PUSH0 DUP1 PUSH1 0xB DUP4 DUP2 SLOAD DUP2 LT PUSH2 0x1769 JUMPI PUSH2 0x1768 PUSH2 0x2683 JUMP JUMPDEST JUMPDEST SWAP1 PUSH0 MSTORE PUSH1 0x20 PUSH0 KECCAK256 SWAP1 PUSH1 0x5 MUL ADD PUSH1 0x40 MLOAD DUP1 PUSH1 0xA0 ADD PUSH1 0x40 MSTORE SWAP1 DUP2 PUSH0 DUP3 ADD PUSH0 SWAP1 SLOAD SWAP1 PUSH2 0x100 EXP SWAP1 DIV PUSH20 0xFFFFFFFFFFFFFFFFFFFFFFFFFFFFFFFFFFFFFFFF AND PUSH20 0xFFFFFFFFFFFFFFFFFFFFFFFFFFFFFFFFFFFFFFFF AND PUSH20 0xFFFFFFFFFFFFFFFFFFFFFFFFFFFFFFFFFFFFFFFF AND DUP2 MSTORE PUSH1 0x20 ADD PUSH1 0x1 DUP3 ADD PUSH0 SWAP1 SLOAD SWAP1 PUSH2 0x100 EXP SWAP1 DIV PUSH20 0xFFFFFFFFFFFFFFFFFFFFFFFFFFFFFFFFFFFFFFFF AND PUSH20 0xFFFFFFFFFFFFFFFFFFFFFFFFFFFFFFFFFFFFFFFF AND PUSH20 0xFFFFFFFFFFFFFFFFFFFFFFFFFFFFFFFFFFFFFFFF AND DUP2 MSTORE PUSH1 0x20 ADD PUSH1 0x2 DUP3 ADD SLOAD DUP2 MSTORE PUSH1 0x20 ADD PUSH1 0x3 DUP3 ADD SLOAD DUP2 MSTORE PUSH1 0x20 ADD PUSH1 0x4 DUP3 ADD SLOAD DUP2 MSTORE POP POP SWAP1 POP PUSH0 PUSH3 0x15180 DUP6 PUSH1 0x20 ADD MLOAD TIMESTAMP PUSH2 0x185E SWAP2 SWAP1 PUSH2 0x27AD JUMP JUMPDEST PUSH2 0x1868 SWAP2 SWAP1 PUSH2 0x284E JUMP JUMPDEST SWAP1 POP DUP2 PUSH1 0x80 ADD MLOAD DUP2 GT ISZERO PUSH2 0x187E JUMPI DUP2 PUSH1 0x80 ADD MLOAD SWAP1 POP JUMPDEST PUSH2 0x8E94 DUP3 PUSH1 0x60 ADD MLOAD DUP3 DUP8 PUSH0 ADD MLOAD PUSH2 0x1895 SWAP2 SWAP1 PUSH2 0x27E0 JUMP JUMPDEST PUSH2 0x189F SWAP2 SWAP1 PUSH2 0x27E0 JUMP JUMPDEST PUSH2 0x18A9 SWAP2 SWAP1 PUSH2 0x284E JUMP JUMPDEST SWAP3 POP POP POP SWAP3 SWAP2 POP POP JUMP JUMPDEST PUSH2 0x18C0 DUP4 DUP4 DUP4 PUSH1 0x1 PUSH2 0x1CF9 JUMP JUMPDEST PUSH2 0x1901 JUMPI DUP3 PUSH1 0x40 MLOAD PUSH32 0x5274AFE700000000000000000000000000000000000000000000000000000000 DUP2 MSTORE PUSH1 0x4 ADD PUSH2 0x18F8 SWAP2 SWAP1 PUSH2 0x1F83 JUMP JUMPDEST PUSH1 0x40 MLOAD DUP1 SWAP2 SUB SWAP1 REVERT JUMPDEST POP POP POP JUMP JUMPDEST PUSH1 0xE PUSH1 0x40 MLOAD DUP1 PUSH1 0xA0 ADD PUSH1 0x40 MSTORE DUP1 DUP7 DUP2 MSTORE PUSH1 0x20 ADD DUP6 DUP2 MSTORE PUSH1 0x20 ADD DUP5 PUSH20 0xFFFFFFFFFFFFFFFFFFFFFFFFFFFFFFFFFFFFFFFF AND DUP2 MSTORE PUSH1 0x20 ADD DUP4 DUP2 MSTORE PUSH1 0x20 ADD TIMESTAMP DUP2 MSTORE POP SWAP1 DUP1 PUSH1 0x1 DUP2 SLOAD ADD DUP1 DUP3 SSTORE DUP1 SWAP2 POP POP PUSH1 0x1 SWAP1 SUB SWAP1 PUSH0 MSTORE PUSH1 0x20 PUSH0 KECCAK256 SWAP1 PUSH1 0x5 MUL ADD PUSH0 SWAP1 SWAP2 SWAP1 SWAP2 SWAP1 SWAP2 POP PUSH0 DUP3 ADD MLOAD DUP2 PUSH0 ADD SSTORE PUSH1 0x20 DUP3 ADD MLOAD DUP2 PUSH1 0x1 ADD SSTORE PUSH1 0x40 DUP3 ADD MLOAD DUP2 PUSH1 0x2 ADD PUSH0 PUSH2 0x100 EXP DUP2 SLOAD DUP2 PUSH20 0xFFFFFFFFFFFFFFFFFFFFFFFFFFFFFFFFFFFFFFFF MUL NOT AND SWAP1 DUP4 PUSH20 0xFFFFFFFFFFFFFFFFFFFFFFFFFFFFFFFFFFFFFFFF AND MUL OR SWAP1 SSTORE POP PUSH1 0x60 DUP3 ADD MLOAD DUP2 PUSH1 0x3 ADD SWAP1 DUP2 PUSH2 0x19D8 SWAP2 SWAP1 PUSH2 0x2EAF JUMP JUMPDEST POP PUSH1 0x80 DUP3 ADD MLOAD DUP2 PUSH1 0x4 ADD SSTORE POP POP POP POP POP POP JUMP JUMPDEST PUSH1 0x1 PUSH2 0x19FD PUSH2 0x19F8 PUSH2 0x1CC7 JUMP JUMPDEST PUSH2 0x1CF0 JUMP JUMPDEST PUSH0 ADD DUP2 SWAP1 SSTORE POP JUMP JUMPDEST PUSH0 DUP1 PUSH0 DUP1 PUSH2 0x1A12 DUP6 PUSH2 0x1D5B JUMP JUMPDEST SWAP3 POP SWAP3 POP SWAP3 POP PUSH1 0x1 DUP7 DUP3 DUP6 DUP6 PUSH1 0x40 MLOAD PUSH0 DUP2 MSTORE PUSH1 0x20 ADD PUSH1 0x40 MSTORE PUSH1 0x40 MLOAD PUSH2 0x1A3A SWAP5 SWAP4 SWAP3 SWAP2 SWAP1 PUSH2 0x2FA8 JUMP JUMPDEST PUSH1 0x20 PUSH1 0x40 MLOAD PUSH1 0x20 DUP2 SUB SWAP1 DUP1 DUP5 SUB SWAP1 DUP6 GAS STATICCALL ISZERO DUP1 ISZERO PUSH2 0x1A5A JUMPI RETURNDATASIZE PUSH0 DUP1 RETURNDATACOPY RETURNDATASIZE PUSH0 REVERT JUMPDEST POP POP POP PUSH1 0x20 PUSH1 0x40 MLOAD SUB MLOAD SWAP4 POP POP POP POP SWAP3 SWAP2 POP POP JUMP JUMPDEST PUSH0 PUSH1 0xB DUP4 DUP2 SLOAD DUP2 LT PUSH2 0x1A84 JUMPI PUSH2 0x1A83 PUSH2 0x2683 JUMP JUMPDEST JUMPDEST SWAP1 PUSH0 MSTORE PUSH1 0x20 PUSH0 KECCAK256 SWAP1 PUSH1 0x5 MUL ADD SWAP1 POP PUSH0 PUSH1 0xC PUSH0 DUP6 DUP2 MSTORE PUSH1 0x20 ADD SWAP1 DUP2 MSTORE PUSH1 0x20 ADD PUSH0 KECCAK256 PUSH0 CALLER PUSH20 0xFFFFFFFFFFFFFFFFFFFFFFFFFFFFFFFFFFFFFFFF AND PUSH20 0xFFFFFFFFFFFFFFFFFFFFFFFFFFFFFFFFFFFFFFFF AND DUP2 MSTORE PUSH1 0x20 ADD SWAP1 DUP2 MSTORE PUSH1 0x20 ADD PUSH0 KECCAK256 SWAP1 POP DUP3 DUP3 PUSH1 0x2 ADD PUSH0 DUP3 DUP3 SLOAD PUSH2 0x1AF4 SWAP2 SWAP1 PUSH2 0x294E JUMP JUMPDEST SWAP3 POP POP DUP2 SWAP1 SSTORE POP DUP3 DUP2 PUSH0 ADD PUSH0 DUP3 DUP3 SLOAD PUSH2 0x1B0D SWAP2 SWAP1 PUSH2 0x294E JUMP JUMPDEST SWAP3 POP POP DUP2 SWAP1 SSTORE POP TIMESTAMP DUP2 PUSH1 0x1 ADD DUP2 SWAP1 SSTORE POP PUSH3 0x15180 DUP3 PUSH1 0x4 ADD SLOAD PUSH2 0x1B30 SWAP2 SWAP1 PUSH2 0x27E0 JUMP JUMPDEST TIMESTAMP PUSH2 0x1B3B SWAP2 SWAP1 PUSH2 0x294E JUMP JUMPDEST DUP2 PUSH1 0x2 ADD DUP2 SWAP1 SSTORE POP DUP3 PUSH1 0xD PUSH0 DUP5 PUSH0 ADD PUSH0 SWAP1 SLOAD SWAP1 PUSH2 0x100 EXP SWAP1 DIV PUSH20 0xFFFFFFFFFFFFFFFFFFFFFFFFFFFFFFFFFFFFFFFF AND PUSH20 0xFFFFFFFFFFFFFFFFFFFFFFFFFFFFFFFFFFFFFFFF AND PUSH20 0xFFFFFFFFFFFFFFFFFFFFFFFFFFFFFFFFFFFFFFFF AND DUP2 MSTORE PUSH1 0x20 ADD SWAP1 DUP2 MSTORE PUSH1 0x20 ADD PUSH0 KECCAK256 PUSH0 DUP3 DUP3 SLOAD PUSH2 0x1BB1 SWAP2 SWAP1 PUSH2 0x294E JUMP JUMPDEST SWAP3 POP POP DUP2 SWAP1 SSTORE POP POP POP POP POP JUMP JUMPDEST PUSH0 DUP1 PUSH0 SWAP1 SLOAD SWAP1 PUSH2 0x100 EXP SWAP1 DIV PUSH20 0xFFFFFFFFFFFFFFFFFFFFFFFFFFFFFFFFFFFFFFFF AND SWAP1 POP DUP2 PUSH0 DUP1 PUSH2 0x100 EXP DUP2 SLOAD DUP2 PUSH20 0xFFFFFFFFFFFFFFFFFFFFFFFFFFFFFFFFFFFFFFFF MUL NOT AND SWAP1 DUP4 PUSH20 0xFFFFFFFFFFFFFFFFFFFFFFFFFFFFFFFFFFFFFFFF AND MUL OR SWAP1 SSTORE POP DUP2 PUSH20 0xFFFFFFFFFFFFFFFFFFFFFFFFFFFFFFFFFFFFFFFF AND DUP2 PUSH20 0xFFFFFFFFFFFFFFFFFFFFFFFFFFFFFFFFFFFFFFFF AND PUSH32 0x8BE0079C531659141344CD1FD0A4F28419497F9722A3DAAFE3B4186F6B6457E0 PUSH1 0x40 MLOAD PUSH1 0x40 MLOAD DUP1 SWAP2 SUB SWAP1 LOG3 POP POP JUMP JUMPDEST PUSH0 CALLER SWAP1 POP SWAP1 JUMP JUMPDEST PUSH2 0x1C8E PUSH2 0x1DC0 JUMP JUMPDEST ISZERO PUSH2 0x1CC5 JUMPI PUSH1 0x40 MLOAD PUSH32 0x3EE5AEB500000000000000000000000000000000000000000000000000000000 DUP2 MSTORE PUSH1 0x4 ADD PUSH1 0x40 MLOAD DUP1 SWAP2 SUB SWAP1 REVERT JUMPDEST JUMP JUMPDEST PUSH0 PUSH32 0x9B779B17422D0DF92223018B32B4D1FA46E071723D6817E2486D003BECC55F00 PUSH0 SHL SWAP1 POP SWAP1 JUMP JUMPDEST PUSH0 DUP2 SWAP1 POP SWAP2 SWAP1 POP JUMP JUMPDEST PUSH0 DUP1 PUSH4 0xA9059CBB PUSH1 0xE0 SHL SWAP1 POP PUSH1 0x40 MLOAD DUP2 PUSH0 MSTORE PUSH0 NOT PUSH1 0x60 SHR DUP7 AND PUSH1 0x4 MSTORE DUP5 PUSH1 0x24 MSTORE PUSH1 0x20 PUSH0 PUSH1 0x44 PUSH0 DUP1 DUP12 GAS CALL SWAP3 POP PUSH1 0x1 PUSH0 MLOAD EQ DUP4 AND PUSH2 0x1D4D JUMPI DUP4 DUP4 ISZERO AND ISZERO PUSH2 0x1D41 JUMPI RETURNDATASIZE PUSH0 DUP3 RETURNDATACOPY RETURNDATASIZE DUP2 REVERT JUMPDEST PUSH0 DUP8 EXTCODESIZE GT RETURNDATASIZE ISZERO AND DUP4 AND SWAP3 POP JUMPDEST DUP1 PUSH1 0x40 MSTORE POP POP SWAP5 SWAP4 POP POP POP POP JUMP JUMPDEST PUSH0 DUP1 PUSH0 PUSH1 0x41 DUP5 MLOAD EQ PUSH2 0x1DA2 JUMPI PUSH1 0x40 MLOAD PUSH32 0x8C379A000000000000000000000000000000000000000000000000000000000 DUP2 MSTORE PUSH1 0x4 ADD PUSH2 0x1D99 SWAP1 PUSH2 0x3035 JUMP JUMPDEST PUSH1 0x40 MLOAD DUP1 SWAP2 SUB SWAP1 REVERT JUMPDEST PUSH1 0x20 DUP5 ADD MLOAD SWAP3 POP PUSH1 0x40 DUP5 ADD MLOAD SWAP2 POP PUSH1 0x60 DUP5 ADD MLOAD PUSH0 BYTE SWAP1 POP SWAP2 SWAP4 SWAP1 SWAP3 POP JUMP JUMPDEST PUSH0 PUSH1 0x2 PUSH2 0x1DD3 PUSH2 0x1DCE PUSH2 0x1CC7 JUMP JUMPDEST PUSH2 0x1CF0 JUMP JUMPDEST PUSH0 ADD SLOAD EQ SWAP1 POP SWAP1 JUMP JUMPDEST PUSH0 PUSH1 0x40 MLOAD SWAP1 POP SWAP1 JUMP JUMPDEST PUSH0 DUP1 REVERT JUMPDEST PUSH0 DUP1 REVERT JUMPDEST PUSH0 DUP2 SWAP1 POP SWAP2 SWAP1 POP JUMP JUMPDEST PUSH2 0x1DFF DUP2 PUSH2 0x1DED JUMP JUMPDEST DUP2 EQ PUSH2 0x1E09 JUMPI PUSH0 DUP1 REVERT JUMPDEST POP JUMP JUMPDEST PUSH0 DUP2 CALLDATALOAD SWAP1 POP PUSH2 0x1E1A DUP2 PUSH2 0x1DF6 JUMP JUMPDEST SWAP3 SWAP2 POP POP JUMP JUMPDEST PUSH0 DUP1 PUSH1 0x40 DUP4 DUP6 SUB SLT ISZERO PUSH2 0x1E36 JUMPI PUSH2 0x1E35 PUSH2 0x1DE5 JUMP JUMPDEST JUMPDEST PUSH0 PUSH2 0x1E43 DUP6 DUP3 DUP7 ADD PUSH2 0x1E0C JUMP JUMPDEST SWAP3 POP POP PUSH1 0x20 PUSH2 0x1E54 DUP6 DUP3 DUP7 ADD PUSH2 0x1E0C JUMP JUMPDEST SWAP2 POP POP SWAP3 POP SWAP3 SWAP1 POP JUMP JUMPDEST PUSH0 PUSH1 0x20 DUP3 DUP5 SUB SLT ISZERO PUSH2 0x1E73 JUMPI PUSH2 0x1E72 PUSH2 0x1DE5 JUMP JUMPDEST JUMPDEST PUSH0 PUSH2 0x1E80 DUP5 DUP3 DUP6 ADD PUSH2 0x1E0C JUMP JUMPDEST SWAP2 POP POP SWAP3 SWAP2 POP POP JUMP JUMPDEST PUSH0 PUSH20 0xFFFFFFFFFFFFFFFFFFFFFFFFFFFFFFFFFFFFFFFF DUP3 AND SWAP1 POP SWAP2 SWAP1 POP JUMP JUMPDEST PUSH0 DUP2 SWAP1 POP SWAP2 SWAP1 POP JUMP JUMPDEST PUSH0 PUSH2 0x1ECB PUSH2 0x1EC6 PUSH2 0x1EC1 DUP5 PUSH2 0x1E89 JUMP JUMPDEST PUSH2 0x1EA8 JUMP JUMPDEST PUSH2 0x1E89 JUMP JUMPDEST SWAP1 POP SWAP2 SWAP1 POP JUMP JUMPDEST PUSH0 PUSH2 0x1EDC DUP3 PUSH2 0x1EB1 JUMP JUMPDEST SWAP1 POP SWAP2 SWAP1 POP JUMP JUMPDEST PUSH0 PUSH2 0x1EED DUP3 PUSH2 0x1ED2 JUMP JUMPDEST SWAP1 POP SWAP2 SWAP1 POP JUMP JUMPDEST PUSH2 0x1EFD DUP2 PUSH2 0x1EE3 JUMP JUMPDEST DUP3 MSTORE POP POP JUMP JUMPDEST PUSH2 0x1F0C DUP2 PUSH2 0x1DED JUMP JUMPDEST DUP3 MSTORE POP POP JUMP JUMPDEST PUSH0 PUSH1 0xA0 DUP3 ADD SWAP1 POP PUSH2 0x1F25 PUSH0 DUP4 ADD DUP9 PUSH2 0x1EF4 JUMP JUMPDEST PUSH2 0x1F32 PUSH1 0x20 DUP4 ADD DUP8 PUSH2 0x1EF4 JUMP JUMPDEST PUSH2 0x1F3F PUSH1 0x40 DUP4 ADD DUP7 PUSH2 0x1F03 JUMP JUMPDEST PUSH2 0x1F4C PUSH1 0x60 DUP4 ADD DUP6 PUSH2 0x1F03 JUMP JUMPDEST PUSH2 0x1F59 PUSH1 0x80 DUP4 ADD DUP5 PUSH2 0x1F03 JUMP JUMPDEST SWAP7 SWAP6 POP POP POP POP POP POP JUMP JUMPDEST PUSH0 PUSH2 0x1F6D DUP3 PUSH2 0x1E89 JUMP JUMPDEST SWAP1 POP SWAP2 SWAP1 POP JUMP JUMPDEST PUSH2 0x1F7D DUP2 PUSH2 0x1F63 JUMP JUMPDEST DUP3 MSTORE POP POP JUMP JUMPDEST PUSH0 PUSH1 0x20 DUP3 ADD SWAP1 POP PUSH2 0x1F96 PUSH0 DUP4 ADD DUP5 PUSH2 0x1F74 JUMP JUMPDEST SWAP3 SWAP2 POP POP JUMP JUMPDEST PUSH0 DUP2 MLOAD SWAP1 POP SWAP2 SWAP1 POP JUMP JUMPDEST PUSH0 DUP3 DUP3 MSTORE PUSH1 0x20 DUP3 ADD SWAP1 POP SWAP3 SWAP2 POP POP JUMP JUMPDEST DUP3 DUP2 DUP4 MCOPY PUSH0 DUP4 DUP4 ADD MSTORE POP POP POP JUMP JUMPDEST PUSH0 PUSH1 0x1F NOT PUSH1 0x1F DUP4 ADD AND SWAP1 POP SWAP2 SWAP1 POP JUMP JUMPDEST PUSH0 PUSH2 0x1FDE DUP3 PUSH2 0x1F9C JUMP JUMPDEST PUSH2 0x1FE8 DUP2 DUP6 PUSH2 0x1FA6 JUMP JUMPDEST SWAP4 POP PUSH2 0x1FF8 DUP2 DUP6 PUSH1 0x20 DUP7 ADD PUSH2 0x1FB6 JUMP JUMPDEST PUSH2 0x2001 DUP2 PUSH2 0x1FC4 JUMP JUMPDEST DUP5 ADD SWAP2 POP POP SWAP3 SWAP2 POP POP JUMP JUMPDEST PUSH0 PUSH1 0xA0 DUP3 ADD SWAP1 POP PUSH2 0x201F PUSH0 DUP4 ADD DUP9 PUSH2 0x1F03 JUMP JUMPDEST PUSH2 0x202C PUSH1 0x20 DUP4 ADD DUP8 PUSH2 0x1F03 JUMP JUMPDEST PUSH2 0x2039 PUSH1 0x40 DUP4 ADD DUP7 PUSH2 0x1F74 JUMP JUMPDEST DUP2 DUP2 SUB PUSH1 0x60 DUP4 ADD MSTORE PUSH2 0x204B DUP2 DUP6 PUSH2 0x1FD4 JUMP JUMPDEST SWAP1 POP PUSH2 0x205A PUSH1 0x80 DUP4 ADD DUP5 PUSH2 0x1F03 JUMP JUMPDEST SWAP7 SWAP6 POP POP POP POP POP POP JUMP JUMPDEST PUSH2 0x206D DUP2 PUSH2 0x1F63 JUMP JUMPDEST DUP2 EQ PUSH2 0x2077 JUMPI PUSH0 DUP1 REVERT JUMPDEST POP JUMP JUMPDEST PUSH0 DUP2 CALLDATALOAD SWAP1 POP PUSH2 0x2088 DUP2 PUSH2 0x2064 JUMP JUMPDEST SWAP3 SWAP2 POP POP JUMP JUMPDEST PUSH0 PUSH1 0x20 DUP3 DUP5 SUB SLT ISZERO PUSH2 0x20A3 JUMPI PUSH2 0x20A2 PUSH2 0x1DE5 JUMP JUMPDEST JUMPDEST PUSH0 PUSH2 0x20B0 DUP5 DUP3 DUP6 ADD PUSH2 0x207A JUMP JUMPDEST SWAP2 POP POP SWAP3 SWAP2 POP POP JUMP JUMPDEST PUSH0 PUSH1 0x20 DUP3 ADD SWAP1 POP PUSH2 0x20CC PUSH0 DUP4 ADD DUP5 PUSH2 0x1F03 JUMP JUMPDEST SWAP3 SWAP2 POP POP JUMP JUMPDEST PUSH0 DUP1 REVERT JUMPDEST PUSH0 DUP1 REVERT JUMPDEST PUSH32 0x4E487B7100000000000000000000000000000000000000000000000000000000 PUSH0 MSTORE PUSH1 0x41 PUSH1 0x4 MSTORE PUSH1 0x24 PUSH0 REVERT JUMPDEST PUSH2 0x2110 DUP3 PUSH2 0x1FC4 JUMP JUMPDEST DUP2 ADD DUP2 DUP2 LT PUSH8 0xFFFFFFFFFFFFFFFF DUP3 GT OR ISZERO PUSH2 0x212F JUMPI PUSH2 0x212E PUSH2 0x20DA JUMP JUMPDEST JUMPDEST DUP1 PUSH1 0x40 MSTORE POP POP POP JUMP JUMPDEST PUSH0 PUSH2 0x2141 PUSH2 0x1DDC JUMP JUMPDEST SWAP1 POP PUSH2 0x214D DUP3 DUP3 PUSH2 0x2107 JUMP JUMPDEST SWAP2 SWAP1 POP JUMP JUMPDEST PUSH0 PUSH8 0xFFFFFFFFFFFFFFFF DUP3 GT ISZERO PUSH2 0x216C JUMPI PUSH2 0x216B PUSH2 0x20DA JUMP JUMPDEST JUMPDEST PUSH2 0x2175 DUP3 PUSH2 0x1FC4 JUMP JUMPDEST SWAP1 POP PUSH1 0x20 DUP2 ADD SWAP1 POP SWAP2 SWAP1 POP JUMP JUMPDEST DUP3 DUP2 DUP4 CALLDATACOPY PUSH0 DUP4 DUP4 ADD MSTORE POP POP POP JUMP JUMPDEST PUSH0 PUSH2 0x21A2 PUSH2 0x219D DUP5 PUSH2 0x2152 JUMP JUMPDEST PUSH2 0x2138 JUMP JUMPDEST SWAP1 POP DUP3 DUP2 MSTORE PUSH1 0x20 DUP2 ADD DUP5 DUP5 DUP5 ADD GT ISZERO PUSH2 0x21BE JUMPI PUSH2 0x21BD PUSH2 0x20D6 JUMP JUMPDEST JUMPDEST PUSH2 0x21C9 DUP5 DUP3 DUP6 PUSH2 0x2182 JUMP JUMPDEST POP SWAP4 SWAP3 POP POP POP JUMP JUMPDEST PUSH0 DUP3 PUSH1 0x1F DUP4 ADD SLT PUSH2 0x21E5 JUMPI PUSH2 0x21E4 PUSH2 0x20D2 JUMP JUMPDEST JUMPDEST DUP2 CALLDATALOAD PUSH2 0x21F5 DUP5 DUP3 PUSH1 0x20 DUP7 ADD PUSH2 0x2190 JUMP JUMPDEST SWAP2 POP POP SWAP3 SWAP2 POP POP JUMP JUMPDEST PUSH0 DUP1 PUSH0 DUP1 PUSH0 PUSH1 0xA0 DUP7 DUP9 SUB SLT ISZERO PUSH2 0x2217 JUMPI PUSH2 0x2216 PUSH2 0x1DE5 JUMP JUMPDEST JUMPDEST PUSH0 PUSH2 0x2224 DUP9 DUP3 DUP10 ADD PUSH2 0x1E0C JUMP JUMPDEST SWAP6 POP POP PUSH1 0x20 PUSH2 0x2235 DUP9 DUP3 DUP10 ADD PUSH2 0x1E0C JUMP JUMPDEST SWAP5 POP POP PUSH1 0x40 PUSH2 0x2246 DUP9 DUP3 DUP10 ADD PUSH2 0x1E0C JUMP JUMPDEST SWAP4 POP POP PUSH1 0x60 PUSH2 0x2257 DUP9 DUP3 DUP10 ADD PUSH2 0x1E0C JUMP JUMPDEST SWAP3 POP POP PUSH1 0x80 DUP7 ADD CALLDATALOAD PUSH8 0xFFFFFFFFFFFFFFFF DUP2 GT ISZERO PUSH2 0x2278 JUMPI PUSH2 0x2277 PUSH2 0x1DE9 JUMP JUMPDEST JUMPDEST PUSH2 0x2284 DUP9 DUP3 DUP10 ADD PUSH2 0x21D1 JUMP JUMPDEST SWAP2 POP POP SWAP3 SWAP6 POP SWAP3 SWAP6 SWAP1 SWAP4 POP JUMP JUMPDEST PUSH0 DUP1 PUSH1 0x40 DUP4 DUP6 SUB SLT ISZERO PUSH2 0x22A7 JUMPI PUSH2 0x22A6 PUSH2 0x1DE5 JUMP JUMPDEST JUMPDEST PUSH0 PUSH2 0x22B4 DUP6 DUP3 DUP7 ADD PUSH2 0x1E0C JUMP JUMPDEST SWAP3 POP POP PUSH1 0x20 PUSH2 0x22C5 DUP6 DUP3 DUP7 ADD PUSH2 0x207A JUMP JUMPDEST SWAP2 POP POP SWAP3 POP SWAP3 SWAP1 POP JUMP JUMPDEST PUSH0 PUSH1 0x60 DUP3 ADD SWAP1 POP PUSH2 0x22E2 PUSH0 DUP4 ADD DUP7 PUSH2 0x1F03 JUMP JUMPDEST PUSH2 0x22EF PUSH1 0x20 DUP4 ADD DUP6 PUSH2 0x1F03 JUMP JUMPDEST PUSH2 0x22FC PUSH1 0x40 DUP4 ADD DUP5 PUSH2 0x1F03 JUMP JUMPDEST SWAP5 SWAP4 POP POP POP POP JUMP JUMPDEST PUSH0 DUP2 SWAP1 POP SWAP2 SWAP1 POP JUMP JUMPDEST PUSH2 0x2316 DUP2 PUSH2 0x2304 JUMP JUMPDEST DUP2 EQ PUSH2 0x2320 JUMPI PUSH0 DUP1 REVERT JUMPDEST POP JUMP JUMPDEST PUSH0 DUP2 CALLDATALOAD SWAP1 POP PUSH2 0x2331 DUP2 PUSH2 0x230D JUMP JUMPDEST SWAP3 SWAP2 POP POP JUMP JUMPDEST PUSH0 PUSH1 0x20 DUP3 DUP5 SUB SLT ISZERO PUSH2 0x234C JUMPI PUSH2 0x234B PUSH2 0x1DE5 JUMP JUMPDEST JUMPDEST PUSH0 PUSH2 0x2359 DUP5 DUP3 DUP6 ADD PUSH2 0x2323 JUMP JUMPDEST SWAP2 POP POP SWAP3 SWAP2 POP POP JUMP JUMPDEST PUSH0 DUP2 ISZERO ISZERO SWAP1 POP SWAP2 SWAP1 POP JUMP JUMPDEST PUSH2 0x2376 DUP2 PUSH2 0x2362 JUMP JUMPDEST DUP3 MSTORE POP POP JUMP JUMPDEST PUSH0 PUSH1 0x20 DUP3 ADD SWAP1 POP PUSH2 0x238F PUSH0 DUP4 ADD DUP5 PUSH2 0x236D JUMP JUMPDEST SWAP3 SWAP2 POP POP JUMP JUMPDEST PUSH0 PUSH2 0x239F DUP3 PUSH2 0x1F63 JUMP JUMPDEST SWAP1 POP SWAP2 SWAP1 POP JUMP JUMPDEST PUSH2 0x23AF DUP2 PUSH2 0x2395 JUMP JUMPDEST DUP2 EQ PUSH2 0x23B9 JUMPI PUSH0 DUP1 REVERT JUMPDEST POP JUMP JUMPDEST PUSH0 DUP2 CALLDATALOAD SWAP1 POP PUSH2 0x23CA DUP2 PUSH2 0x23A6 JUMP JUMPDEST SWAP3 SWAP2 POP POP JUMP JUMPDEST PUSH0 DUP1 PUSH0 DUP1 PUSH1 0x80 DUP6 DUP8 SUB SLT ISZERO PUSH2 0x23E8 JUMPI PUSH2 0x23E7 PUSH2 0x1DE5 JUMP JUMPDEST JUMPDEST PUSH0 PUSH2 0x23F5 DUP8 DUP3 DUP9 ADD PUSH2 0x23BC JUMP JUMPDEST SWAP5 POP POP PUSH1 0x20 PUSH2 0x2406 DUP8 DUP3 DUP9 ADD PUSH2 0x23BC JUMP JUMPDEST SWAP4 POP POP PUSH1 0x40 PUSH2 0x2417 DUP8 DUP3 DUP9 ADD PUSH2 0x1E0C JUMP JUMPDEST SWAP3 POP POP PUSH1 0x60 PUSH2 0x2428 DUP8 DUP3 DUP9 ADD PUSH2 0x1E0C JUMP JUMPDEST SWAP2 POP POP SWAP3 SWAP6 SWAP2 SWAP5 POP SWAP3 POP JUMP JUMPDEST PUSH0 DUP1 PUSH1 0x40 DUP4 DUP6 SUB SLT ISZERO PUSH2 0x244A JUMPI PUSH2 0x2449 PUSH2 0x1DE5 JUMP JUMPDEST JUMPDEST PUSH0 PUSH2 0x2457 DUP6 DUP3 DUP7 ADD PUSH2 0x207A JUMP JUMPDEST SWAP3 POP POP PUSH1 0x20 PUSH2 0x2468 DUP6 DUP3 DUP7 ADD PUSH2 0x1E0C JUMP JUMPDEST SWAP2 POP POP SWAP3 POP SWAP3 SWAP1 POP JUMP JUMPDEST PUSH0 DUP2 MLOAD SWAP1 POP SWAP2 SWAP1 POP JUMP JUMPDEST PUSH0 DUP3 DUP3 MSTORE PUSH1 0x20 DUP3 ADD SWAP1 POP SWAP3 SWAP2 POP POP JUMP JUMPDEST PUSH0 DUP2 SWAP1 POP PUSH1 0x20 DUP3 ADD SWAP1 POP SWAP2 SWAP1 POP JUMP JUMPDEST PUSH2 0x24A4 DUP2 PUSH2 0x1DED JUMP JUMPDEST DUP3 MSTORE POP POP JUMP JUMPDEST PUSH2 0x24B3 DUP2 PUSH2 0x1F63 JUMP JUMPDEST DUP3 MSTORE POP POP JUMP JUMPDEST PUSH0 DUP3 DUP3 MSTORE PUSH1 0x20 DUP3 ADD SWAP1 POP SWAP3 SWAP2 POP POP JUMP JUMPDEST PUSH0 PUSH2 0x24D3 DUP3 PUSH2 0x1F9C JUMP JUMPDEST PUSH2 0x24DD DUP2 DUP6 PUSH2 0x24B9 JUMP JUMPDEST SWAP4 POP PUSH2 0x24ED DUP2 DUP6 PUSH1 0x20 DUP7 ADD PUSH2 0x1FB6 JUMP JUMPDEST PUSH2 0x24F6 DUP2 PUSH2 0x1FC4 JUMP JUMPDEST DUP5 ADD SWAP2 POP POP SWAP3 SWAP2 POP POP JUMP JUMPDEST PUSH0 PUSH1 0xA0 DUP4 ADD PUSH0 DUP4 ADD MLOAD PUSH2 0x2516 PUSH0 DUP7 ADD DUP3 PUSH2 0x249B JUMP JUMPDEST POP PUSH1 0x20 DUP4 ADD MLOAD PUSH2 0x2529 PUSH1 0x20 DUP7 ADD DUP3 PUSH2 0x249B JUMP JUMPDEST POP PUSH1 0x40 DUP4 ADD MLOAD PUSH2 0x253C PUSH1 0x40 DUP7 ADD DUP3 PUSH2 0x24AA JUMP JUMPDEST POP PUSH1 0x60 DUP4 ADD MLOAD DUP5 DUP3 SUB PUSH1 0x60 DUP7 ADD MSTORE PUSH2 0x2554 DUP3 DUP3 PUSH2 0x24C9 JUMP JUMPDEST SWAP2 POP POP PUSH1 0x80 DUP4 ADD MLOAD PUSH2 0x2569 PUSH1 0x80 DUP7 ADD DUP3 PUSH2 0x249B JUMP JUMPDEST POP DUP1 SWAP2 POP POP SWAP3 SWAP2 POP POP JUMP JUMPDEST PUSH0 PUSH2 0x257F DUP4 DUP4 PUSH2 0x2501 JUMP JUMPDEST SWAP1 POP SWAP3 SWAP2 POP POP JUMP JUMPDEST PUSH0 PUSH1 0x20 DUP3 ADD SWAP1 POP SWAP2 SWAP1 POP JUMP JUMPDEST PUSH0 PUSH2 0x259D DUP3 PUSH2 0x2472 JUMP JUMPDEST PUSH2 0x25A7 DUP2 DUP6 PUSH2 0x247C JUMP JUMPDEST SWAP4 POP DUP4 PUSH1 0x20 DUP3 MUL DUP6 ADD PUSH2 0x25B9 DUP6 PUSH2 0x248C JUMP JUMPDEST DUP1 PUSH0 JUMPDEST DUP6 DUP2 LT ISZERO PUSH2 0x25F4 JUMPI DUP5 DUP5 SUB DUP10 MSTORE DUP2 MLOAD PUSH2 0x25D5 DUP6 DUP3 PUSH2 0x2574 JUMP JUMPDEST SWAP5 POP PUSH2 0x25E0 DUP4 PUSH2 0x2587 JUMP JUMPDEST SWAP3 POP PUSH1 0x20 DUP11 ADD SWAP10 POP POP PUSH1 0x1 DUP2 ADD SWAP1 POP PUSH2 0x25BC JUMP JUMPDEST POP DUP3 SWAP8 POP DUP8 SWAP6 POP POP POP POP POP POP SWAP3 SWAP2 POP POP JUMP JUMPDEST PUSH0 PUSH1 0x20 DUP3 ADD SWAP1 POP DUP2 DUP2 SUB PUSH0 DUP4 ADD MSTORE PUSH2 0x261E DUP2 DUP5 PUSH2 0x2593 JUMP JUMPDEST SWAP1 POP SWAP3 SWAP2 POP POP JUMP JUMPDEST PUSH32 0x4E487B7100000000000000000000000000000000000000000000000000000000 PUSH0 MSTORE PUSH1 0x22 PUSH1 0x4 MSTORE PUSH1 0x24 PUSH0 REVERT JUMPDEST PUSH0 PUSH1 0x2 DUP3 DIV SWAP1 POP PUSH1 0x1 DUP3 AND DUP1 PUSH2 0x266A JUMPI PUSH1 0x7F DUP3 AND SWAP2 POP JUMPDEST PUSH1 0x20 DUP3 LT DUP2 SUB PUSH2 0x267D JUMPI PUSH2 0x267C PUSH2 0x2626 JUMP JUMPDEST JUMPDEST POP SWAP2 SWAP1 POP JUMP JUMPDEST PUSH32 0x4E487B7100000000000000000000000000000000000000000000000000000000 PUSH0 MSTORE PUSH1 0x32 PUSH1 0x4 MSTORE PUSH1 0x24 PUSH0 REVERT JUMPDEST PUSH32 0x546F6F206D756368000000000000000000000000000000000000000000000000 PUSH0 DUP3 ADD MSTORE POP JUMP JUMPDEST PUSH0 PUSH2 0x26E4 PUSH1 0x8 DUP4 PUSH2 0x1FA6 JUMP JUMPDEST SWAP2 POP PUSH2 0x26EF DUP3 PUSH2 0x26B0 JUMP JUMPDEST PUSH1 0x20 DUP3 ADD SWAP1 POP SWAP2 SWAP1 POP JUMP JUMPDEST PUSH0 PUSH1 0x20 DUP3 ADD SWAP1 POP DUP2 DUP2 SUB PUSH0 DUP4 ADD MSTORE PUSH2 0x2711 DUP2 PUSH2 0x26D8 JUMP JUMPDEST SWAP1 POP SWAP2 SWAP1 POP JUMP JUMPDEST PUSH32 0x4665652072657175697265640000000000000000000000000000000000000000 PUSH0 DUP3 ADD MSTORE POP JUMP JUMPDEST PUSH0 PUSH2 0x274C PUSH1 0xC DUP4 PUSH2 0x1FA6 JUMP JUMPDEST SWAP2 POP PUSH2 0x2757 DUP3 PUSH2 0x2718 JUMP JUMPDEST PUSH1 0x20 DUP3 ADD SWAP1 POP SWAP2 SWAP1 POP JUMP JUMPDEST PUSH0 PUSH1 0x20 DUP3 ADD SWAP1 POP DUP2 DUP2 SUB PUSH0 DUP4 ADD MSTORE PUSH2 0x2779 DUP2 PUSH2 0x2740 JUMP JUMPDEST SWAP1 POP SWAP2 SWAP1 POP JUMP JUMPDEST PUSH32 0x4E487B7100000000000000000000000000000000000000000000000000000000 PUSH0 MSTORE PUSH1 0x11 PUSH1 0x4 MSTORE PUSH1 0x24 PUSH0 REVERT JUMPDEST PUSH0 PUSH2 0x27B7 DUP3 PUSH2 0x1DED JUMP JUMPDEST SWAP2 POP PUSH2 0x27C2 DUP4 PUSH2 0x1DED JUMP JUMPDEST SWAP3 POP DUP3 DUP3 SUB SWAP1 POP DUP2 DUP2 GT ISZERO PUSH2 0x27DA JUMPI PUSH2 0x27D9 PUSH2 0x2780 JUMP JUMPDEST JUMPDEST SWAP3 SWAP2 POP POP JUMP JUMPDEST PUSH0 PUSH2 0x27EA DUP3 PUSH2 0x1DED JUMP JUMPDEST SWAP2 POP PUSH2 0x27F5 DUP4 PUSH2 0x1DED JUMP JUMPDEST SWAP3 POP DUP3 DUP3 MUL PUSH2 0x2803 DUP2 PUSH2 0x1DED JUMP JUMPDEST SWAP2 POP DUP3 DUP3 DIV DUP5 EQ DUP4 ISZERO OR PUSH2 0x281A JUMPI PUSH2 0x2819 PUSH2 0x2780 JUMP JUMPDEST JUMPDEST POP SWAP3 SWAP2 POP POP JUMP JUMPDEST PUSH32 0x4E487B7100000000000000000000000000000000000000000000000000000000 PUSH0 MSTORE PUSH1 0x12 PUSH1 0x4 MSTORE PUSH1 0x24 PUSH0 REVERT JUMPDEST PUSH0 PUSH2 0x2858 DUP3 PUSH2 0x1DED JUMP JUMPDEST SWAP2 POP PUSH2 0x2863 DUP4 PUSH2 0x1DED JUMP JUMPDEST SWAP3 POP DUP3 PUSH2 0x2873 JUMPI PUSH2 0x2872 PUSH2 0x2821 JUMP JUMPDEST JUMPDEST DUP3 DUP3 DIV SWAP1 POP SWAP3 SWAP2 POP POP JUMP JUMPDEST PUSH32 0x4578706972656400000000000000000000000000000000000000000000000000 PUSH0 DUP3 ADD MSTORE POP JUMP JUMPDEST PUSH0 PUSH2 0x28B2 PUSH1 0x7 DUP4 PUSH2 0x1FA6 JUMP JUMPDEST SWAP2 POP PUSH2 0x28BD DUP3 PUSH2 0x287E JUMP JUMPDEST PUSH1 0x20 DUP3 ADD SWAP1 POP SWAP2 SWAP1 POP JUMP JUMPDEST PUSH0 PUSH1 0x20 DUP3 ADD SWAP1 POP DUP2 DUP2 SUB PUSH0 DUP4 ADD MSTORE PUSH2 0x28DF DUP2 PUSH2 0x28A6 JUMP JUMPDEST SWAP1 POP SWAP2 SWAP1 POP JUMP JUMPDEST PUSH32 0x5461736B20746F6F206C61726765000000000000000000000000000000000000 PUSH0 DUP3 ADD MSTORE POP JUMP JUMPDEST PUSH0 PUSH2 0x291A PUSH1 0xE DUP4 PUSH2 0x1FA6 JUMP JUMPDEST SWAP2 POP PUSH2 0x2925 DUP3 PUSH2 0x28E6 JUMP JUMPDEST PUSH1 0x20 DUP3 ADD SWAP1 POP SWAP2 SWAP1 POP JUMP JUMPDEST PUSH0 PUSH1 0x20 DUP3 ADD SWAP1 POP DUP2 DUP2 SUB PUSH0 DUP4 ADD MSTORE PUSH2 0x2947 DUP2 PUSH2 0x290E JUMP JUMPDEST SWAP1 POP SWAP2 SWAP1 POP JUMP JUMPDEST PUSH0 PUSH2 0x2958 DUP3 PUSH2 0x1DED JUMP JUMPDEST SWAP2 POP PUSH2 0x2963 DUP4 PUSH2 0x1DED JUMP JUMPDEST SWAP3 POP DUP3 DUP3 ADD SWAP1 POP DUP1 DUP3 GT ISZERO PUSH2 0x297B JUMPI PUSH2 0x297A PUSH2 0x2780 JUMP JUMPDEST JUMPDEST SWAP3 SWAP2 POP POP JUMP JUMPDEST PUSH32 0x4461696C79206C696D6974207265616368656400000000000000000000000000 PUSH0 DUP3 ADD MSTORE POP JUMP JUMPDEST PUSH0 PUSH2 0x29B5 PUSH1 0x13 DUP4 PUSH2 0x1FA6 JUMP JUMPDEST SWAP2 POP PUSH2 0x29C0 DUP3 PUSH2 0x2981 JUMP JUMPDEST PUSH1 0x20 DUP3 ADD SWAP1 POP SWAP2 SWAP1 POP JUMP JUMPDEST PUSH0 PUSH1 0x20 DUP3 ADD SWAP1 POP DUP2 DUP2 SUB PUSH0 DUP4 ADD MSTORE PUSH2 0x29E2 DUP2 PUSH2 0x29A9 JUMP JUMPDEST SWAP1 POP SWAP2 SWAP1 POP JUMP JUMPDEST PUSH0 DUP2 PUSH1 0x60 SHL SWAP1 POP SWAP2 SWAP1 POP JUMP JUMPDEST PUSH0 PUSH2 0x29FF DUP3 PUSH2 0x29E9 JUMP JUMPDEST SWAP1 POP SWAP2 SWAP1 POP JUMP JUMPDEST PUSH0 PUSH2 0x2A10 DUP3 PUSH2 0x29F5 JUMP JUMPDEST SWAP1 POP SWAP2 SWAP1 POP JUMP JUMPDEST PUSH2 0x2A28 PUSH2 0x2A23 DUP3 PUSH2 0x1F63 JUMP JUMPDEST PUSH2 0x2A06 JUMP JUMPDEST DUP3 MSTORE POP POP JUMP JUMPDEST PUSH0 DUP2 SWAP1 POP SWAP2 SWAP1 POP JUMP JUMPDEST PUSH2 0x2A48 PUSH2 0x2A43 DUP3 PUSH2 0x1DED JUMP JUMPDEST PUSH2 0x2A2E JUMP JUMPDEST DUP3 MSTORE POP POP JUMP JUMPDEST PUSH0 PUSH2 0x2A59 DUP3 DUP8 PUSH2 0x2A17 JUMP JUMPDEST PUSH1 0x14 DUP3 ADD SWAP2 POP PUSH2 0x2A69 DUP3 DUP7 PUSH2 0x2A37 JUMP JUMPDEST PUSH1 0x20 DUP3 ADD SWAP2 POP PUSH2 0x2A79 DUP3 DUP6 PUSH2 0x2A37 JUMP JUMPDEST PUSH1 0x20 DUP3 ADD SWAP2 POP PUSH2 0x2A89 DUP3 DUP5 PUSH2 0x2A37 JUMP JUMPDEST PUSH1 0x20 DUP3 ADD SWAP2 POP DUP2 SWAP1 POP SWAP6 SWAP5 POP POP POP POP POP JUMP JUMPDEST PUSH32 0x5265706C61792064657465637465640000000000000000000000000000000000 PUSH0 DUP3 ADD MSTORE POP JUMP JUMPDEST PUSH0 PUSH2 0x2ACF PUSH1 0xF DUP4 PUSH2 0x1FA6 JUMP JUMPDEST SWAP2 POP PUSH2 0x2ADA DUP3 PUSH2 0x2A9B JUMP JUMPDEST PUSH1 0x20 DUP3 ADD SWAP1 POP SWAP2 SWAP1 POP JUMP JUMPDEST PUSH0 PUSH1 0x20 DUP3 ADD SWAP1 POP DUP2 DUP2 SUB PUSH0 DUP4 ADD MSTORE PUSH2 0x2AFC DUP2 PUSH2 0x2AC3 JUMP JUMPDEST SWAP1 POP SWAP2 SWAP1 POP JUMP JUMPDEST PUSH0 DUP2 SWAP1 POP SWAP3 SWAP2 POP POP JUMP JUMPDEST PUSH32 0x19457468657265756D205369676E6564204D6573736167653A0A333200000000 PUSH0 DUP3 ADD MSTORE POP JUMP JUMPDEST PUSH0 PUSH2 0x2B41 PUSH1 0x1C DUP4 PUSH2 0x2B03 JUMP JUMPDEST SWAP2 POP PUSH2 0x2B4C DUP3 PUSH2 0x2B0D JUMP JUMPDEST PUSH1 0x1C DUP3 ADD SWAP1 POP SWAP2 SWAP1 POP JUMP JUMPDEST PUSH0 DUP2 SWAP1 POP SWAP2 SWAP1 POP JUMP JUMPDEST PUSH2 0x2B71 PUSH2 0x2B6C DUP3 PUSH2 0x2304 JUMP JUMPDEST PUSH2 0x2B57 JUMP JUMPDEST DUP3 MSTORE POP POP JUMP JUMPDEST PUSH0 PUSH2 0x2B81 DUP3 PUSH2 0x2B35 JUMP JUMPDEST SWAP2 POP PUSH2 0x2B8D DUP3 DUP5 PUSH2 0x2B60 JUMP JUMPDEST PUSH1 0x20 DUP3 ADD SWAP2 POP DUP2 SWAP1 POP SWAP3 SWAP2 POP POP JUMP JUMPDEST PUSH32 0x496E76616C6964207369676E6572000000000000000000000000000000000000 PUSH0 DUP3 ADD MSTORE POP JUMP JUMPDEST PUSH0 PUSH2 0x2BD0 PUSH1 0xE DUP4 PUSH2 0x1FA6 JUMP JUMPDEST SWAP2 POP PUSH2 0x2BDB DUP3 PUSH2 0x2B9C JUMP JUMPDEST PUSH1 0x20 DUP3 ADD SWAP1 POP SWAP2 SWAP1 POP JUMP JUMPDEST PUSH0 PUSH1 0x20 DUP3 ADD SWAP1 POP DUP2 DUP2 SUB PUSH0 DUP4 ADD MSTORE PUSH2 0x2BFD DUP2 PUSH2 0x2BC4 JUMP JUMPDEST SWAP1 POP SWAP2 SWAP1 POP JUMP JUMPDEST PUSH32 0x496E73756666696369656E742066656500000000000000000000000000000000 PUSH0 DUP3 ADD MSTORE POP JUMP JUMPDEST PUSH0 PUSH2 0x2C38 PUSH1 0x10 DUP4 PUSH2 0x1FA6 JUMP JUMPDEST SWAP2 POP PUSH2 0x2C43 DUP3 PUSH2 0x2C04 JUMP JUMPDEST PUSH1 0x20 DUP3 ADD SWAP1 POP SWAP2 SWAP1 POP JUMP JUMPDEST PUSH0 PUSH1 0x20 DUP3 ADD SWAP1 POP DUP2 DUP2 SUB PUSH0 DUP4 ADD MSTORE PUSH2 0x2C65 DUP2 PUSH2 0x2C2C JUMP JUMPDEST SWAP1 POP SWAP2 SWAP1 POP JUMP JUMPDEST PUSH32 0x4E6F207265776172640000000000000000000000000000000000000000000000 PUSH0 DUP3 ADD MSTORE POP JUMP JUMPDEST PUSH0 PUSH2 0x2CA0 PUSH1 0x9 DUP4 PUSH2 0x1FA6 JUMP JUMPDEST SWAP2 POP PUSH2 0x2CAB DUP3 PUSH2 0x2C6C JUMP JUMPDEST PUSH1 0x20 DUP3 ADD SWAP1 POP SWAP2 SWAP1 POP JUMP JUMPDEST PUSH0 PUSH1 0x20 DUP3 ADD SWAP1 POP DUP2 DUP2 SUB PUSH0 DUP4 ADD MSTORE PUSH2 0x2CCD DUP2 PUSH2 0x2C94 JUMP JUMPDEST SWAP1 POP SWAP2 SWAP1 POP JUMP JUMPDEST PUSH0 PUSH2 0x2CDE DUP3 PUSH2 0x1DED JUMP JUMPDEST SWAP2 POP PUSH32 0xFFFFFFFFFFFFFFFFFFFFFFFFFFFFFFFFFFFFFFFFFFFFFFFFFFFFFFFFFFFFFFFF DUP3 SUB PUSH2 0x2D10 JUMPI PUSH2 0x2D0F PUSH2 0x2780 JUMP JUMPDEST JUMPDEST PUSH1 0x1 DUP3 ADD SWAP1 POP SWAP2 SWAP1 POP JUMP JUMPDEST PUSH0 DUP2 SWAP1 POP DUP2 PUSH0 MSTORE PUSH1 0x20 PUSH0 KECCAK256 SWAP1 POP SWAP2 SWAP1 POP JUMP JUMPDEST PUSH0 PUSH1 0x20 PUSH1 0x1F DUP4 ADD DIV SWAP1 POP SWAP2 SWAP1 POP JUMP JUMPDEST PUSH0 DUP3 DUP3 SHL SWAP1 POP SWAP3 SWAP2 POP POP JUMP JUMPDEST PUSH0 PUSH1 0x8 DUP4 MUL PUSH2 0x2D77 PUSH32 0xFFFFFFFFFFFFFFFFFFFFFFFFFFFFFFFFFFFFFFFFFFFFFFFFFFFFFFFFFFFFFFFF DUP3 PUSH2 0x2D3C JUMP JUMPDEST PUSH2 0x2D81 DUP7 DUP4 PUSH2 0x2D3C JUMP JUMPDEST SWAP6 POP DUP1 NOT DUP5 AND SWAP4 POP DUP1 DUP7 AND DUP5 OR SWAP3 POP POP POP SWAP4 SWAP3 POP POP POP JUMP JUMPDEST PUSH0 PUSH2 0x2DB3 PUSH2 0x2DAE PUSH2 0x2DA9 DUP5 PUSH2 0x1DED JUMP JUMPDEST PUSH2 0x1EA8 JUMP JUMPDEST PUSH2 0x1DED JUMP JUMPDEST SWAP1 POP SWAP2 SWAP1 POP JUMP JUMPDEST PUSH0 DUP2 SWAP1 POP SWAP2 SWAP1 POP JUMP JUMPDEST PUSH2 0x2DCC DUP4 PUSH2 0x2D99 JUMP JUMPDEST PUSH2 0x2DE0 PUSH2 0x2DD8 DUP3 PUSH2 0x2DBA JUMP JUMPDEST DUP5 DUP5 SLOAD PUSH2 0x2D48 JUMP JUMPDEST DUP3 SSTORE POP POP POP POP JUMP JUMPDEST PUSH0 SWAP1 JUMP JUMPDEST PUSH2 0x2DF4 PUSH2 0x2DE8 JUMP JUMPDEST PUSH2 0x2DFF DUP2 DUP5 DUP5 PUSH2 0x2DC3 JUMP JUMPDEST POP POP POP JUMP JUMPDEST JUMPDEST DUP2 DUP2 LT ISZERO PUSH2 0x2E22 JUMPI PUSH2 0x2E17 PUSH0 DUP3 PUSH2 0x2DEC JUMP JUMPDEST PUSH1 0x1 DUP2 ADD SWAP1 POP PUSH2 0x2E05 JUMP JUMPDEST POP POP JUMP JUMPDEST PUSH1 0x1F DUP3 GT ISZERO PUSH2 0x2E67 JUMPI PUSH2 0x2E38 DUP2 PUSH2 0x2D1B JUMP JUMPDEST PUSH2 0x2E41 DUP5 PUSH2 0x2D2D JUMP JUMPDEST DUP2 ADD PUSH1 0x20 DUP6 LT ISZERO PUSH2 0x2E50 JUMPI DUP2 SWAP1 POP JUMPDEST PUSH2 0x2E64 PUSH2 0x2E5C DUP6 PUSH2 0x2D2D JUMP JUMPDEST DUP4 ADD DUP3 PUSH2 0x2E04 JUMP JUMPDEST POP POP JUMPDEST POP POP POP JUMP JUMPDEST PUSH0 DUP3 DUP3 SHR SWAP1 POP SWAP3 SWAP2 POP POP JUMP JUMPDEST PUSH0 PUSH2 0x2E87 PUSH0 NOT DUP5 PUSH1 0x8 MUL PUSH2 0x2E6C JUMP JUMPDEST NOT DUP1 DUP4 AND SWAP2 POP POP SWAP3 SWAP2 POP POP JUMP JUMPDEST PUSH0 PUSH2 0x2E9F DUP4 DUP4 PUSH2 0x2E78 JUMP JUMPDEST SWAP2 POP DUP3 PUSH1 0x2 MUL DUP3 OR SWAP1 POP SWAP3 SWAP2 POP POP JUMP JUMPDEST PUSH2 0x2EB8 DUP3 PUSH2 0x1F9C JUMP JUMPDEST PUSH8 0xFFFFFFFFFFFFFFFF DUP2 GT ISZERO PUSH2 0x2ED1 JUMPI PUSH2 0x2ED0 PUSH2 0x20DA JUMP JUMPDEST JUMPDEST PUSH2 0x2EDB DUP3 SLOAD PUSH2 0x2653 JUMP JUMPDEST PUSH2 0x2EE6 DUP3 DUP3 DUP6 PUSH2 0x2E26 JUMP JUMPDEST PUSH0 PUSH1 0x20 SWAP1 POP PUSH1 0x1F DUP4 GT PUSH1 0x1 DUP2 EQ PUSH2 0x2F17 JUMPI PUSH0 DUP5 ISZERO PUSH2 0x2F05 JUMPI DUP3 DUP8 ADD MLOAD SWAP1 POP JUMPDEST PUSH2 0x2F0F DUP6 DUP3 PUSH2 0x2E94 JUMP JUMPDEST DUP7 SSTORE POP PUSH2 0x2F76 JUMP JUMPDEST PUSH1 0x1F NOT DUP5 AND PUSH2 0x2F25 DUP7 PUSH2 0x2D1B JUMP JUMPDEST PUSH0 JUMPDEST DUP3 DUP2 LT ISZERO PUSH2 0x2F4C JUMPI DUP5 DUP10 ADD MLOAD DUP3 SSTORE PUSH1 0x1 DUP3 ADD SWAP2 POP PUSH1 0x20 DUP6 ADD SWAP5 POP PUSH1 0x20 DUP2 ADD SWAP1 POP PUSH2 0x2F27 JUMP JUMPDEST DUP7 DUP4 LT ISZERO PUSH2 0x2F69 JUMPI DUP5 DUP10 ADD MLOAD PUSH2 0x2F65 PUSH1 0x1F DUP10 AND DUP3 PUSH2 0x2E78 JUMP JUMPDEST DUP4 SSTORE POP JUMPDEST PUSH1 0x1 PUSH1 0x2 DUP9 MUL ADD DUP9 SSTORE POP POP POP JUMPDEST POP POP POP POP POP POP JUMP JUMPDEST PUSH2 0x2F87 DUP2 PUSH2 0x2304 JUMP JUMPDEST DUP3 MSTORE POP POP JUMP JUMPDEST PUSH0 PUSH1 0xFF DUP3 AND SWAP1 POP SWAP2 SWAP1 POP JUMP JUMPDEST PUSH2 0x2FA2 DUP2 PUSH2 0x2F8D JUMP JUMPDEST DUP3 MSTORE POP POP JUMP JUMPDEST PUSH0 PUSH1 0x80 DUP3 ADD SWAP1 POP PUSH2 0x2FBB PUSH0 DUP4 ADD DUP8 PUSH2 0x2F7E JUMP JUMPDEST PUSH2 0x2FC8 PUSH1 0x20 DUP4 ADD DUP7 PUSH2 0x2F99 JUMP JUMPDEST PUSH2 0x2FD5 PUSH1 0x40 DUP4 ADD DUP6 PUSH2 0x2F7E JUMP JUMPDEST PUSH2 0x2FE2 PUSH1 0x60 DUP4 ADD DUP5 PUSH2 0x2F7E JUMP JUMPDEST SWAP6 SWAP5 POP POP POP POP POP JUMP JUMPDEST PUSH32 0x6261642073696700000000000000000000000000000000000000000000000000 PUSH0 DUP3 ADD MSTORE POP JUMP JUMPDEST PUSH0 PUSH2 0x301F PUSH1 0x7 DUP4 PUSH2 0x1FA6 JUMP JUMPDEST SWAP2 POP PUSH2 0x302A DUP3 PUSH2 0x2FEB JUMP JUMPDEST PUSH1 0x20 DUP3 ADD SWAP1 POP SWAP2 SWAP1 POP JUMP JUMPDEST PUSH0 PUSH1 0x20 DUP3 ADD SWAP1 POP DUP2 DUP2 SUB PUSH0 DUP4 ADD MSTORE PUSH2 0x304C DUP2 PUSH2 0x3013 JUMP JUMPDEST SWAP1 POP SWAP2 SWAP1 POP JUMP INVALID LOG2 PUSH5 0x6970667358 0x22 SLT KECCAK256 BLOCKHASH BLOBBASEFEE 0xD4 0xD7 SWAP4 0xDA 0xCC DUP4 0xA8 0xBC SDIV PUSH10 0x7333D11B3A3F5618760D LOG0 DUP14 SWAP14 JUMPI CREATE SWAP7 PUSH23 0xA0A24064736F6C634300081A0033000000000000000000 "
		},
		"gasEstimates": {
			"creation": {
				"codeDepositCost": "2485000",
				"executionCost": "infinite",
				"totalCost": "infinite"
			},
			"external": {
				"MAX_DAILY_CLAIM()": "2492",
				"MAX_TASK_REWARD()": "2535",
				"addPool(address,address,uint256,uint256)": "infinite",
				"claimAndStake(uint256,uint256,uint256,uint256,bytes)": "infinite",
				"claimAndStakeFee()": "2514",
				"claimReward(uint256)": "infinite",
				"dailyClaimed(address,uint256)": "infinite",
				"depositedTokens(address)": "2935",
				"earlyWithdrawFee()": "2536",
				"getNotifications()": "infinite",
				"notifications(uint256)": "infinite",
				"owner()": "2582",
				"poolCount()": "2513",
				"poolInfo(uint256)": "infinite",
				"renounceOwnership()": "infinite",
				"setFees(uint256,uint256)": "infinite",
				"setLimits(uint256,uint256)": "infinite",
				"setSigner(address)": "infinite",
				"setTreasury(address)": "infinite",
				"signer()": "2576",
				"taskRewards(address)": "2936",
				"transferOwnership(address)": "infinite",
				"treasury()": "2576",
				"usedHashes(bytes32)": "2830",
				"userInfo(uint256,address)": "infinite",
				"withdraw(uint256,uint256)": "infinite"
			},
			"internal": {
				"_calcReward(struct StakingDapp.UserInfo memory,uint256)": "infinite",
				"_createNotification(uint256,uint256,address,string memory)": "infinite",
				"_stake(uint256,uint256)": "infinite",
				"recoverSigner(bytes32,bytes memory)": "infinite",
				"split(bytes memory)": "infinite"
			}
		},
		"methodIdentifiers": {
			"MAX_DAILY_CLAIM()": "b0c9fbc1",
			"MAX_TASK_REWARD()": "f6dd6d8e",
			"addPool(address,address,uint256,uint256)": "c20632ba",
			"claimAndStake(uint256,uint256,uint256,uint256,bytes)": "57e900bc",
			"claimAndStakeFee()": "c0dcd954",
			"claimReward(uint256)": "ae169a50",
			"dailyClaimed(address,uint256)": "c8e7711f",
			"depositedTokens(address)": "c326bf4f",
			"earlyWithdrawFee()": "a80a7882",
			"getNotifications()": "cf48bd2c",
			"notifications(uint256)": "34c1f944",
			"owner()": "8da5cb5b",
			"poolCount()": "f525cb68",
			"poolInfo(uint256)": "1526fe27",
			"renounceOwnership()": "715018a6",
			"setFees(uint256,uint256)": "0b78f9c0",
			"setLimits(uint256,uint256)": "c4590d3f",
			"setSigner(address)": "6c19e783",
			"setTreasury(address)": "f0f44260",
			"signer()": "238ac933",
			"taskRewards(address)": "53be657f",
			"transferOwnership(address)": "f2fde38b",
			"treasury()": "61d027b3",
			"usedHashes(bytes32)": "aef18bf7",
			"userInfo(uint256,address)": "93f1a40b",
			"withdraw(uint256,uint256)": "441a3e70"
		}
	},
	"abi": [
		{
			"inputs": [
				{
					"internalType": "address",
					"name": "initialOwner",
					"type": "address"
				}
			],
			"stateMutability": "nonpayable",
			"type": "constructor"
		},
		{
			"inputs": [
				{
					"internalType": "address",
					"name": "owner",
					"type": "address"
				}
			],
			"name": "OwnableInvalidOwner",
			"type": "error"
		},
		{
			"inputs": [
				{
					"internalType": "address",
					"name": "account",
					"type": "address"
				}
			],
			"name": "OwnableUnauthorizedAccount",
			"type": "error"
		},
		{
			"inputs": [],
			"name": "ReentrancyGuardReentrantCall",
			"type": "error"
		},
		{
			"inputs": [
				{
					"internalType": "address",
					"name": "token",
					"type": "address"
				}
			],
			"name": "SafeERC20FailedOperation",
			"type": "error"
		},
		{
			"anonymous": false,
			"inputs": [
				{
					"indexed": true,
					"internalType": "address",
					"name": "previousOwner",
					"type": "address"
				},
				{
					"indexed": true,
					"internalType": "address",
					"name": "newOwner",
					"type": "address"
				}
			],
			"name": "OwnershipTransferred",
			"type": "event"
		},
		{
			"inputs": [],
			"name": "MAX_DAILY_CLAIM",
			"outputs": [
				{
					"internalType": "uint256",
					"name": "",
					"type": "uint256"
				}
			],
			"stateMutability": "view",
			"type": "function"
		},
		{
			"inputs": [],
			"name": "MAX_TASK_REWARD",
			"outputs": [
				{
					"internalType": "uint256",
					"name": "",
					"type": "uint256"
				}
			],
			"stateMutability": "view",
			"type": "function"
		},
		{
			"inputs": [
				{
					"internalType": "contract IERC20",
					"name": "_depositToken",
					"type": "address"
				},
				{
					"internalType": "contract IERC20",
					"name": "_rewardToken",
					"type": "address"
				},
				{
					"internalType": "uint256",
					"name": "_apy",
					"type": "uint256"
				},
				{
					"internalType": "uint256",
					"name": "_lockDays",
					"type": "uint256"
				}
			],
			"name": "addPool",
			"outputs": [],
			"stateMutability": "nonpayable",
			"type": "function"
		},
		{
			"inputs": [
				{
					"internalType": "uint256",
					"name": "pid",
					"type": "uint256"
				},
				{
					"internalType": "uint256",
					"name": "amount",
					"type": "uint256"
				},
				{
					"internalType": "uint256",
					"name": "nonce",
					"type": "uint256"
				},
				{
					"internalType": "uint256",
					"name": "deadline",
					"type": "uint256"
				},
				{
					"internalType": "bytes",
					"name": "signature",
					"type": "bytes"
				}
			],
			"name": "claimAndStake",
			"outputs": [],
			"stateMutability": "payable",
			"type": "function"
		},
		{
			"inputs": [],
			"name": "claimAndStakeFee",
			"outputs": [
				{
					"internalType": "uint256",
					"name": "",
					"type": "uint256"
				}
			],
			"stateMutability": "view",
			"type": "function"
		},
		{
			"inputs": [
				{
					"internalType": "uint256",
					"name": "pid",
					"type": "uint256"
				}
			],
			"name": "claimReward",
			"outputs": [],
			"stateMutability": "nonpayable",
			"type": "function"
		},
		{
			"inputs": [
				{
					"internalType": "address",
					"name": "",
					"type": "address"
				},
				{
					"internalType": "uint256",
					"name": "",
					"type": "uint256"
				}
			],
			"name": "dailyClaimed",
			"outputs": [
				{
					"internalType": "uint256",
					"name": "",
					"type": "uint256"
				}
			],
			"stateMutability": "view",
			"type": "function"
		},
		{
			"inputs": [
				{
					"internalType": "address",
					"name": "",
					"type": "address"
				}
			],
			"name": "depositedTokens",
			"outputs": [
				{
					"internalType": "uint256",
					"name": "",
					"type": "uint256"
				}
			],
			"stateMutability": "view",
			"type": "function"
		},
		{
			"inputs": [],
			"name": "earlyWithdrawFee",
			"outputs": [
				{
					"internalType": "uint256",
					"name": "",
					"type": "uint256"
				}
			],
			"stateMutability": "view",
			"type": "function"
		},
		{
			"inputs": [],
			"name": "getNotifications",
			"outputs": [
				{
					"components": [
						{
							"internalType": "uint256",
							"name": "poolID",
							"type": "uint256"
						},
						{
							"internalType": "uint256",
							"name": "amount",
							"type": "uint256"
						},
						{
							"internalType": "address",
							"name": "user",
							"type": "address"
						},
						{
							"internalType": "string",
							"name": "action",
							"type": "string"
						},
						{
							"internalType": "uint256",
							"name": "timestamp",
							"type": "uint256"
						}
					],
					"internalType": "struct StakingDapp.Notification[]",
					"name": "",
					"type": "tuple[]"
				}
			],
			"stateMutability": "view",
			"type": "function"
		},
		{
			"inputs": [
				{
					"internalType": "uint256",
					"name": "",
					"type": "uint256"
				}
			],
			"name": "notifications",
			"outputs": [
				{
					"internalType": "uint256",
					"name": "poolID",
					"type": "uint256"
				},
				{
					"internalType": "uint256",
					"name": "amount",
					"type": "uint256"
				},
				{
					"internalType": "address",
					"name": "user",
					"type": "address"
				},
				{
					"internalType": "string",
					"name": "action",
					"type": "string"
				},
				{
					"internalType": "uint256",
					"name": "timestamp",
					"type": "uint256"
				}
			],
			"stateMutability": "view",
			"type": "function"
		},
		{
			"inputs": [],
			"name": "owner",
			"outputs": [
				{
					"internalType": "address",
					"name": "",
					"type": "address"
				}
			],
			"stateMutability": "view",
			"type": "function"
		},
		{
			"inputs": [],
			"name": "poolCount",
			"outputs": [
				{
					"internalType": "uint256",
					"name": "",
					"type": "uint256"
				}
			],
			"stateMutability": "view",
			"type": "function"
		},
		{
			"inputs": [
				{
					"internalType": "uint256",
					"name": "",
					"type": "uint256"
				}
			],
			"name": "poolInfo",
			"outputs": [
				{
					"internalType": "contract IERC20",
					"name": "depositToken",
					"type": "address"
				},
				{
					"internalType": "contract IERC20",
					"name": "rewardToken",
					"type": "address"
				},
				{
					"internalType": "uint256",
					"name": "depositedAmount",
					"type": "uint256"
				},
				{
					"internalType": "uint256",
					"name": "apy",
					"type": "uint256"
				},
				{
					"internalType": "uint256",
					"name": "lockDays",
					"type": "uint256"
				}
			],
			"stateMutability": "view",
			"type": "function"
		},
		{
			"inputs": [],
			"name": "renounceOwnership",
			"outputs": [],
			"stateMutability": "nonpayable",
			"type": "function"
		},
		{
			"inputs": [
				{
					"internalType": "uint256",
					"name": "_claimFee",
					"type": "uint256"
				},
				{
					"internalType": "uint256",
					"name": "_earlyFee",
					"type": "uint256"
				}
			],
			"name": "setFees",
			"outputs": [],
			"stateMutability": "nonpayable",
			"type": "function"
		},
		{
			"inputs": [
				{
					"internalType": "uint256",
					"name": "_maxTask",
					"type": "uint256"
				},
				{
					"internalType": "uint256",
					"name": "_dailyLimit",
					"type": "uint256"
				}
			],
			"name": "setLimits",
			"outputs": [],
			"stateMutability": "nonpayable",
			"type": "function"
		},
		{
			"inputs": [
				{
					"internalType": "address",
					"name": "_signer",
					"type": "address"
				}
			],
			"name": "setSigner",
			"outputs": [],
			"stateMutability": "nonpayable",
			"type": "function"
		},
		{
			"inputs": [
				{
					"internalType": "address",
					"name": "_treasury",
					"type": "address"
				}
			],
			"name": "setTreasury",
			"outputs": [],
			"stateMutability": "nonpayable",
			"type": "function"
		},
		{
			"inputs": [],
			"name": "signer",
			"outputs": [
				{
					"internalType": "address",
					"name": "",
					"type": "address"
				}
			],
			"stateMutability": "view",
			"type": "function"
		},
		{
			"inputs": [
				{
					"internalType": "address",
					"name": "",
					"type": "address"
				}
			],
			"name": "taskRewards",
			"outputs": [
				{
					"internalType": "uint256",
					"name": "",
					"type": "uint256"
				}
			],
			"stateMutability": "view",
			"type": "function"
		},
		{
			"inputs": [
				{
					"internalType": "address",
					"name": "newOwner",
					"type": "address"
				}
			],
			"name": "transferOwnership",
			"outputs": [],
			"stateMutability": "nonpayable",
			"type": "function"
		},
		{
			"inputs": [],
			"name": "treasury",
			"outputs": [
				{
					"internalType": "address",
					"name": "",
					"type": "address"
				}
			],
			"stateMutability": "view",
			"type": "function"
		},
		{
			"inputs": [
				{
					"internalType": "bytes32",
					"name": "",
					"type": "bytes32"
				}
			],
			"name": "usedHashes",
			"outputs": [
				{
					"internalType": "bool",
					"name": "",
					"type": "bool"
				}
			],
			"stateMutability": "view",
			"type": "function"
		},
		{
			"inputs": [
				{
					"internalType": "uint256",
					"name": "",
					"type": "uint256"
				},
				{
					"internalType": "address",
					"name": "",
					"type": "address"
				}
			],
			"name": "userInfo",
			"outputs": [
				{
					"internalType": "uint256",
					"name": "amount",
					"type": "uint256"
				},
				{
					"internalType": "uint256",
					"name": "lastRewardAt",
					"type": "uint256"
				},
				{
					"internalType": "uint256",
					"name": "lockUntil",
					"type": "uint256"
				}
			],
			"stateMutability": "view",
			"type": "function"
		},
		{
			"inputs": [
				{
					"internalType": "uint256",
					"name": "pid",
					"type": "uint256"
				},
				{
					"internalType": "uint256",
					"name": "amount",
					"type": "uint256"
				}
			],
			"name": "withdraw",
			"outputs": [],
			"stateMutability": "payable",
			"type": "function"
		}
	]
}