{
	"data": {
		"bytecode": {
			"linkReferences": {},
			"object": "6080604052670de0b6b3a764000060045534801561001b575f80fd5b506040516120e63803806120e6833981810160405281019061003d9190610239565b805f73ffffffffffffffffffffffffffffffffffffffff168173ffffffffffffffffffffffffffffffffffffffff16036100ae575f6040517f1e4fbdf70000000000000000000000000000000000000000000000000000000081526004016100a59190610273565b60405180910390fd5b6100bd816100e860201b60201c565b5060016100dc6100d16101a960201b60201c565b6101d260201b60201c565b5f01819055505061028c565b5f805f9054906101000a900473ffffffffffffffffffffffffffffffffffffffff169050815f806101000a81548173ffffffffffffffffffffffffffffffffffffffff021916908373ffffffffffffffffffffffffffffffffffffffff1602179055508173ffffffffffffffffffffffffffffffffffffffff168173ffffffffffffffffffffffffffffffffffffffff167f8be0079c531659141344cd1fd0a4f28419497f9722a3daafe3b4186f6b6457e060405160405180910390a35050565b5f7f9b779b17422d0df92223018b32b4d1fa46e071723d6817e2486d003becc55f005f1b905090565b5f819050919050565b5f80fd5b5f73ffffffffffffffffffffffffffffffffffffffff82169050919050565b5f610208826101df565b9050919050565b610218816101fe565b8114610222575f80fd5b50565b5f815190506102338161020f565b92915050565b5f6020828403121561024e5761024d6101db565b5b5f61025b84828501610225565b91505092915050565b61026d816101fe565b82525050565b5f6020820190506102865f830184610264565b92915050565b611e4d806102995f395ff3fe608060405234801561000f575f80fd5b5060043610610109575f3560e01c806393f1a40b116100a0578063c7f31b0c1161006f578063c7f31b0c146102d1578063f2fde38b146102ed578063f307655b14610309578063f525cb6814610325578063f6dd6d8e1461034357610109565b806393f1a40b14610223578063aef18bf714610255578063c20632ba14610285578063c326bf4f146102a157610109565b806353be657f116100dc57806353be657f146101af5780636c19e783146101df578063715018a6146101fb5780638da5cb5b1461020557610109565b806312dee8831461010d5780631526fe2714610129578063238ac9331461015d57806334c1f9441461017b575b5f80fd5b610127600480360381019061012291906111d4565b610361565b005b610143600480360381019061013e9190611254565b610613565b604051610154959493929190611308565b60405180910390f35b610165610692565b6040516101729190611379565b60405180910390f35b61019560048036038101906101909190611254565b6106b7565b6040516101a69594939291906113f2565b60405180910390f35b6101c960048036038101906101c49190611474565b61079d565b6040516101d6919061149f565b60405180910390f35b6101f960048036038101906101f49190611474565b6107b2565b005b6102036107fd565b005b61020d610810565b60405161021a9190611379565b60405180910390f35b61023d600480360381019061023891906114b8565b610837565b60405161024c939291906114f6565b60405180910390f35b61026f600480360381019061026a919061155e565b610868565b60405161027c91906115a3565b60405180910390f35b61029f600480360381019061029a91906115f7565b610885565b005b6102bb60048036038101906102b69190611474565b6109cf565b6040516102c8919061149f565b60405180910390f35b6102eb60048036038101906102e69190611254565b6109e4565b005b61030760048036038101906103029190611474565b6109f6565b005b610323600480360381019061031e9190611254565b610a7a565b005b61032d610bc5565b60405161033a919061149f565b60405180910390f35b61034b610bcb565b604051610358919061149f565b60405180910390f35b610369610bd1565b814211156103ac576040517f08c379a00000000000000000000000000000000000000000000000000000000081526004016103a3906116a5565b60405180910390fd5b6004548411156103f1576040517f08c379a00000000000000000000000000000000000000000000000000000000081526004016103e89061170d565b60405180910390fd5b5f338585856040516020016104099493929190611790565b60405160208183030381529060405280519060200120905060025f8281526020019081526020015f205f9054906101000a900460ff161561047f576040517f08c379a000000000000000000000000000000000000000000000000000000000815260040161047690611827565b60405180910390fd5b5f8160405160200161049191906118b9565b6040516020818303038152906040528051906020012090505f6104b48285610bf3565b905060035f9054906101000a900473ffffffffffffffffffffffffffffffffffffffff1673ffffffffffffffffffffffffffffffffffffffff168173ffffffffffffffffffffffffffffffffffffffff1614610545576040517f08c379a000000000000000000000000000000000000000000000000000000000815260040161053c90611928565b60405180910390fd5b600160025f8581526020019081526020015f205f6101000a81548160ff0219169083151502179055508660015f3373ffffffffffffffffffffffffffffffffffffffff1673ffffffffffffffffffffffffffffffffffffffff1681526020019081526020015f205f8282546105ba9190611973565b925050819055506106025f88336040518060400160405280600a81526020017f5461736b52657761726400000000000000000000000000000000000000000000815250610c5d565b50505061060d610d42565b50505050565b60068181548110610622575f80fd5b905f5260205f2090600502015f91509050805f015f9054906101000a900473ffffffffffffffffffffffffffffffffffffffff1690806001015f9054906101000a900473ffffffffffffffffffffffffffffffffffffffff16908060020154908060030154908060040154905085565b60035f9054906101000a900473ffffffffffffffffffffffffffffffffffffffff1681565b600981815481106106c6575f80fd5b905f5260205f2090600502015f91509050805f015490806001015490806002015f9054906101000a900473ffffffffffffffffffffffffffffffffffffffff1690806003018054610716906119d3565b80601f0160208091040260200160405190810160405280929190818152602001828054610742906119d3565b801561078d5780601f106107645761010080835404028352916020019161078d565b820191905f5260205f20905b81548152906001019060200180831161077057829003601f168201915b5050505050908060040154905085565b6001602052805f5260405f205f915090505481565b6107ba610d5c565b8060035f6101000a81548173ffffffffffffffffffffffffffffffffffffffff021916908373ffffffffffffffffffffffffffffffffffffffff16021790555050565b610805610d5c565b61080e5f610de3565b565b5f805f9054906101000a900473ffffffffffffffffffffffffffffffffffffffff16905090565b6007602052815f5260405f20602052805f5260405f205f9150915050805f0154908060010154908060020154905083565b6002602052805f5260405f205f915054906101000a900460ff1681565b61088d610d5c565b60066040518060a001604052808673ffffffffffffffffffffffffffffffffffffffff1681526020018573ffffffffffffffffffffffffffffffffffffffff1681526020015f815260200184815260200183815250908060018154018082558091505060019003905f5260205f2090600502015f909190919091505f820151815f015f6101000a81548173ffffffffffffffffffffffffffffffffffffffff021916908373ffffffffffffffffffffffffffffffffffffffff1602179055506020820151816001015f6101000a81548173ffffffffffffffffffffffffffffffffffffffff021916908373ffffffffffffffffffffffffffffffffffffffff160217905550604082015181600201556060820151816003015560808201518160040155505060055f8154809291906109c490611a03565b919050555050505050565b6008602052805f5260405f205f915090505481565b6109ec610d5c565b8060048190555050565b6109fe610d5c565b5f73ffffffffffffffffffffffffffffffffffffffff168173ffffffffffffffffffffffffffffffffffffffff1603610a6e575f6040517f1e4fbdf7000000000000000000000000000000000000000000000000000000008152600401610a659190611379565b60405180910390fd5b610a7781610de3565b50565b610a82610bd1565b5f60015f3373ffffffffffffffffffffffffffffffffffffffff1673ffffffffffffffffffffffffffffffffffffffff1681526020019081526020015f205490505f8111610b05576040517f08c379a0000000000000000000000000000000000000000000000000000000008152600401610afc90611a94565b60405180910390fd5b5f60015f3373ffffffffffffffffffffffffffffffffffffffff1673ffffffffffffffffffffffffffffffffffffffff1681526020019081526020015f20819055505f60068381548110610b5c57610b5b611ab2565b5b905f5260205f2090600502016001015f9054906101000a900473ffffffffffffffffffffffffffffffffffffffff169050610bb833838373ffffffffffffffffffffffffffffffffffffffff16610ea49092919063ffffffff16565b5050610bc2610d42565b50565b60055481565b60045481565b610bd9610ef7565b6002610beb610be6610f38565b610f61565b5f0181905550565b5f805f80610c0085610f6a565b9250925092506001868285856040515f8152602001604052604051610c289493929190611b09565b6020604051602081039080840390855afa158015610c48573d5f803e3d5ffd5b50505060206040510351935050505092915050565b60096040518060a001604052808681526020018581526020018473ffffffffffffffffffffffffffffffffffffffff16815260200183815260200142815250908060018154018082558091505060019003905f5260205f2090600502015f909190919091505f820151815f0155602082015181600101556040820151816002015f6101000a81548173ffffffffffffffffffffffffffffffffffffffff021916908373ffffffffffffffffffffffffffffffffffffffff1602179055506060820151816003019081610d2f9190611ce0565b5060808201518160040155505050505050565b6001610d54610d4f610f38565b610f61565b5f0181905550565b610d64610fcf565b73ffffffffffffffffffffffffffffffffffffffff16610d82610810565b73ffffffffffffffffffffffffffffffffffffffff1614610de157610da5610fcf565b6040517f118cdaa7000000000000000000000000000000000000000000000000000000008152600401610dd89190611379565b60405180910390fd5b565b5f805f9054906101000a900473ffffffffffffffffffffffffffffffffffffffff169050815f806101000a81548173ffffffffffffffffffffffffffffffffffffffff021916908373ffffffffffffffffffffffffffffffffffffffff1602179055508173ffffffffffffffffffffffffffffffffffffffff168173ffffffffffffffffffffffffffffffffffffffff167f8be0079c531659141344cd1fd0a4f28419497f9722a3daafe3b4186f6b6457e060405160405180910390a35050565b610eb18383836001610fd6565b610ef257826040517f5274afe7000000000000000000000000000000000000000000000000000000008152600401610ee99190611379565b60405180910390fd5b505050565b610eff611038565b15610f36576040517f3ee5aeb500000000000000000000000000000000000000000000000000000000815260040160405180910390fd5b565b5f7f9b779b17422d0df92223018b32b4d1fa46e071723d6817e2486d003becc55f005f1b905090565b5f819050919050565b5f805f6041845114610fb1576040517f08c379a0000000000000000000000000000000000000000000000000000000008152600401610fa890611df9565b60405180910390fd5b602084015192506040840151915060608401515f1a90509193909250565b5f33905090565b5f8063a9059cbb60e01b9050604051815f525f1960601c86166004528460245260205f60445f808b5af1925060015f5114831661102a57838315161561101e573d5f823e3d81fd5b5f873b113d1516831692505b806040525050949350505050565b5f600261104b611046610f38565b610f61565b5f015414905090565b5f604051905090565b5f80fd5b5f80fd5b5f819050919050565b61107781611065565b8114611081575f80fd5b50565b5f813590506110928161106e565b92915050565b5f80fd5b5f80fd5b5f601f19601f8301169050919050565b7f4e487b71000000000000000000000000000000000000000000000000000000005f52604160045260245ffd5b6110e6826110a0565b810181811067ffffffffffffffff82111715611105576111046110b0565b5b80604052505050565b5f611117611054565b905061112382826110dd565b919050565b5f67ffffffffffffffff821115611142576111416110b0565b5b61114b826110a0565b9050602081019050919050565b828183375f83830152505050565b5f61117861117384611128565b61110e565b9050828152602081018484840111156111945761119361109c565b5b61119f848285611158565b509392505050565b5f82601f8301126111bb576111ba611098565b5b81356111cb848260208601611166565b91505092915050565b5f805f80608085870312156111ec576111eb61105d565b5b5f6111f987828801611084565b945050602061120a87828801611084565b935050604061121b87828801611084565b925050606085013567ffffffffffffffff81111561123c5761123b611061565b5b611248878288016111a7565b91505092959194509250565b5f602082840312156112695761126861105d565b5b5f61127684828501611084565b91505092915050565b5f73ffffffffffffffffffffffffffffffffffffffff82169050919050565b5f819050919050565b5f6112c16112bc6112b78461127f565b61129e565b61127f565b9050919050565b5f6112d2826112a7565b9050919050565b5f6112e3826112c8565b9050919050565b6112f3816112d9565b82525050565b61130281611065565b82525050565b5f60a08201905061131b5f8301886112ea565b61132860208301876112ea565b61133560408301866112f9565b61134260608301856112f9565b61134f60808301846112f9565b9695505050505050565b5f6113638261127f565b9050919050565b61137381611359565b82525050565b5f60208201905061138c5f83018461136a565b92915050565b5f81519050919050565b5f82825260208201905092915050565b8281835e5f83830152505050565b5f6113c482611392565b6113ce818561139c565b93506113de8185602086016113ac565b6113e7816110a0565b840191505092915050565b5f60a0820190506114055f8301886112f9565b61141260208301876112f9565b61141f604083018661136a565b818103606083015261143181856113ba565b905061144060808301846112f9565b9695505050505050565b61145381611359565b811461145d575f80fd5b50565b5f8135905061146e8161144a565b92915050565b5f602082840312156114895761148861105d565b5b5f61149684828501611460565b91505092915050565b5f6020820190506114b25f8301846112f9565b92915050565b5f80604083850312156114ce576114cd61105d565b5b5f6114db85828601611084565b92505060206114ec85828601611460565b9150509250929050565b5f6060820190506115095f8301866112f9565b61151660208301856112f9565b61152360408301846112f9565b949350505050565b5f819050919050565b61153d8161152b565b8114611547575f80fd5b50565b5f8135905061155881611534565b92915050565b5f602082840312156115735761157261105d565b5b5f6115808482850161154a565b91505092915050565b5f8115159050919050565b61159d81611589565b82525050565b5f6020820190506115b65f830184611594565b92915050565b5f6115c682611359565b9050919050565b6115d6816115bc565b81146115e0575f80fd5b50565b5f813590506115f1816115cd565b92915050565b5f805f806080858703121561160f5761160e61105d565b5b5f61161c878288016115e3565b945050602061162d878288016115e3565b935050604061163e87828801611084565b925050606061164f87828801611084565b91505092959194509250565b7f45787069726564000000000000000000000000000000000000000000000000005f82015250565b5f61168f60078361139c565b915061169a8261165b565b602082019050919050565b5f6020820190508181035f8301526116bc81611683565b9050919050565b7f546f6f206c6172676500000000000000000000000000000000000000000000005f82015250565b5f6116f760098361139c565b9150611702826116c3565b602082019050919050565b5f6020820190508181035f830152611724816116eb565b9050919050565b5f8160601b9050919050565b5f6117418261172b565b9050919050565b5f61175282611737565b9050919050565b61176a61176582611359565b611748565b82525050565b5f819050919050565b61178a61178582611065565b611770565b82525050565b5f61179b8287611759565b6014820191506117ab8286611779565b6020820191506117bb8285611779565b6020820191506117cb8284611779565b60208201915081905095945050505050565b7f416c7265616479207573656400000000000000000000000000000000000000005f82015250565b5f611811600c8361139c565b915061181c826117dd565b602082019050919050565b5f6020820190508181035f83015261183e81611805565b9050919050565b5f81905092915050565b7f19457468657265756d205369676e6564204d6573736167653a0a3332000000005f82015250565b5f611883601c83611845565b915061188e8261184f565b601c82019050919050565b5f819050919050565b6118b36118ae8261152b565b611899565b82525050565b5f6118c382611877565b91506118cf82846118a2565b60208201915081905092915050565b7f496e76616c6964207369676e65720000000000000000000000000000000000005f82015250565b5f611912600e8361139c565b915061191d826118de565b602082019050919050565b5f6020820190508181035f83015261193f81611906565b9050919050565b7f4e487b71000000000000000000000000000000000000000000000000000000005f52601160045260245ffd5b5f61197d82611065565b915061198883611065565b92508282019050808211156119a05761199f611946565b5b92915050565b7f4e487b71000000000000000000000000000000000000000000000000000000005f52602260045260245ffd5b5f60028204905060018216806119ea57607f821691505b6020821081036119fd576119fc6119a6565b5b50919050565b5f611a0d82611065565b91507fffffffffffffffffffffffffffffffffffffffffffffffffffffffffffffffff8203611a3f57611a3e611946565b5b600182019050919050565b7f4e6f2072657761726400000000000000000000000000000000000000000000005f82015250565b5f611a7e60098361139c565b9150611a8982611a4a565b602082019050919050565b5f6020820190508181035f830152611aab81611a72565b9050919050565b7f4e487b71000000000000000000000000000000000000000000000000000000005f52603260045260245ffd5b611ae88161152b565b82525050565b5f60ff82169050919050565b611b0381611aee565b82525050565b5f608082019050611b1c5f830187611adf565b611b296020830186611afa565b611b366040830185611adf565b611b436060830184611adf565b95945050505050565b5f819050815f5260205f209050919050565b5f6020601f8301049050919050565b5f82821b905092915050565b5f60088302611ba87fffffffffffffffffffffffffffffffffffffffffffffffffffffffffffffffff82611b6d565b611bb28683611b6d565b95508019841693508086168417925050509392505050565b5f611be4611bdf611bda84611065565b61129e565b611065565b9050919050565b5f819050919050565b611bfd83611bca565b611c11611c0982611beb565b848454611b79565b825550505050565b5f90565b611c25611c19565b611c30818484611bf4565b505050565b5b81811015611c5357611c485f82611c1d565b600181019050611c36565b5050565b601f821115611c9857611c6981611b4c565b611c7284611b5e565b81016020851015611c81578190505b611c95611c8d85611b5e565b830182611c35565b50505b505050565b5f82821c905092915050565b5f611cb85f1984600802611c9d565b1980831691505092915050565b5f611cd08383611ca9565b9150826002028217905092915050565b611ce982611392565b67ffffffffffffffff811115611d0257611d016110b0565b5b611d0c82546119d3565b611d17828285611c57565b5f60209050601f831160018114611d48575f8415611d36578287015190505b611d408582611cc5565b865550611da7565b601f198416611d5686611b4c565b5f5b82811015611d7d57848901518255600182019150602085019450602081019050611d58565b86831015611d9a5784890151611d96601f891682611ca9565b8355505b6001600288020188555050505b505050505050565b7f496e76616c6964207369676e61747572650000000000000000000000000000005f82015250565b5f611de360118361139c565b9150611dee82611daf565b602082019050919050565b5f6020820190508181035f830152611e1081611dd7565b905091905056fea26469706673582212207df1c870f502c0a385d28d98cbeddccdbd6a06f17f8bb2c40ad0887dd02446af64736f6c634300081a0033",
			"opcodes": "PUSH1 0x80 PUSH1 0x40 MSTORE PUSH8 0xDE0B6B3A7640000 PUSH1 0x4 SSTORE CALLVALUE DUP1 ISZERO PUSH2 0x1B JUMPI PUSH0 DUP1 REVERT JUMPDEST POP PUSH1 0x40 MLOAD PUSH2 0x20E6 CODESIZE SUB DUP1 PUSH2 0x20E6 DUP4 CODECOPY DUP2 DUP2 ADD PUSH1 0x40 MSTORE DUP2 ADD SWAP1 PUSH2 0x3D SWAP2 SWAP1 PUSH2 0x239 JUMP JUMPDEST DUP1 PUSH0 PUSH20 0xFFFFFFFFFFFFFFFFFFFFFFFFFFFFFFFFFFFFFFFF AND DUP2 PUSH20 0xFFFFFFFFFFFFFFFFFFFFFFFFFFFFFFFFFFFFFFFF AND SUB PUSH2 0xAE JUMPI PUSH0 PUSH1 0x40 MLOAD PUSH32 0x1E4FBDF700000000000000000000000000000000000000000000000000000000 DUP2 MSTORE PUSH1 0x4 ADD PUSH2 0xA5 SWAP2 SWAP1 PUSH2 0x273 JUMP JUMPDEST PUSH1 0x40 MLOAD DUP1 SWAP2 SUB SWAP1 REVERT JUMPDEST PUSH2 0xBD DUP2 PUSH2 0xE8 PUSH1 0x20 SHL PUSH1 0x20 SHR JUMP JUMPDEST POP PUSH1 0x1 PUSH2 0xDC PUSH2 0xD1 PUSH2 0x1A9 PUSH1 0x20 SHL PUSH1 0x20 SHR JUMP JUMPDEST PUSH2 0x1D2 PUSH1 0x20 SHL PUSH1 0x20 SHR JUMP JUMPDEST PUSH0 ADD DUP2 SWAP1 SSTORE POP POP PUSH2 0x28C JUMP JUMPDEST PUSH0 DUP1 PUSH0 SWAP1 SLOAD SWAP1 PUSH2 0x100 EXP SWAP1 DIV PUSH20 0xFFFFFFFFFFFFFFFFFFFFFFFFFFFFFFFFFFFFFFFF AND SWAP1 POP DUP2 PUSH0 DUP1 PUSH2 0x100 EXP DUP2 SLOAD DUP2 PUSH20 0xFFFFFFFFFFFFFFFFFFFFFFFFFFFFFFFFFFFFFFFF MUL NOT AND SWAP1 DUP4 PUSH20 0xFFFFFFFFFFFFFFFFFFFFFFFFFFFFFFFFFFFFFFFF AND MUL OR SWAP1 SSTORE POP DUP2 PUSH20 0xFFFFFFFFFFFFFFFFFFFFFFFFFFFFFFFFFFFFFFFF AND DUP2 PUSH20 0xFFFFFFFFFFFFFFFFFFFFFFFFFFFFFFFFFFFFFFFF AND PUSH32 0x8BE0079C531659141344CD1FD0A4F28419497F9722A3DAAFE3B4186F6B6457E0 PUSH1 0x40 MLOAD PUSH1 0x40 MLOAD DUP1 SWAP2 SUB SWAP1 LOG3 POP POP JUMP JUMPDEST PUSH0 PUSH32 0x9B779B17422D0DF92223018B32B4D1FA46E071723D6817E2486D003BECC55F00 PUSH0 SHL SWAP1 POP SWAP1 JUMP JUMPDEST PUSH0 DUP2 SWAP1 POP SWAP2 SWAP1 POP JUMP JUMPDEST PUSH0 DUP1 REVERT JUMPDEST PUSH0 PUSH20 0xFFFFFFFFFFFFFFFFFFFFFFFFFFFFFFFFFFFFFFFF DUP3 AND SWAP1 POP SWAP2 SWAP1 POP JUMP JUMPDEST PUSH0 PUSH2 0x208 DUP3 PUSH2 0x1DF JUMP JUMPDEST SWAP1 POP SWAP2 SWAP1 POP JUMP JUMPDEST PUSH2 0x218 DUP2 PUSH2 0x1FE JUMP JUMPDEST DUP2 EQ PUSH2 0x222 JUMPI PUSH0 DUP1 REVERT JUMPDEST POP JUMP JUMPDEST PUSH0 DUP2 MLOAD SWAP1 POP PUSH2 0x233 DUP2 PUSH2 0x20F JUMP JUMPDEST SWAP3 SWAP2 POP POP JUMP JUMPDEST PUSH0 PUSH1 0x20 DUP3 DUP5 SUB SLT ISZERO PUSH2 0x24E JUMPI PUSH2 0x24D PUSH2 0x1DB JUMP JUMPDEST JUMPDEST PUSH0 PUSH2 0x25B DUP5 DUP3 DUP6 ADD PUSH2 0x225 JUMP JUMPDEST SWAP2 POP POP SWAP3 SWAP2 POP POP JUMP JUMPDEST PUSH2 0x26D DUP2 PUSH2 0x1FE JUMP JUMPDEST DUP3 MSTORE POP POP JUMP JUMPDEST PUSH0 PUSH1 0x20 DUP3 ADD SWAP1 POP PUSH2 0x286 PUSH0 DUP4 ADD DUP5 PUSH2 0x264 JUMP JUMPDEST SWAP3 SWAP2 POP POP JUMP JUMPDEST PUSH2 0x1E4D DUP1 PUSH2 0x299 PUSH0 CODECOPY PUSH0 RETURN INVALID PUSH1 0x80 PUSH1 0x40 MSTORE CALLVALUE DUP1 ISZERO PUSH2 0xF JUMPI PUSH0 DUP1 REVERT JUMPDEST POP PUSH1 0x4 CALLDATASIZE LT PUSH2 0x109 JUMPI PUSH0 CALLDATALOAD PUSH1 0xE0 SHR DUP1 PUSH4 0x93F1A40B GT PUSH2 0xA0 JUMPI DUP1 PUSH4 0xC7F31B0C GT PUSH2 0x6F JUMPI DUP1 PUSH4 0xC7F31B0C EQ PUSH2 0x2D1 JUMPI DUP1 PUSH4 0xF2FDE38B EQ PUSH2 0x2ED JUMPI DUP1 PUSH4 0xF307655B EQ PUSH2 0x309 JUMPI DUP1 PUSH4 0xF525CB68 EQ PUSH2 0x325 JUMPI DUP1 PUSH4 0xF6DD6D8E EQ PUSH2 0x343 JUMPI PUSH2 0x109 JUMP JUMPDEST DUP1 PUSH4 0x93F1A40B EQ PUSH2 0x223 JUMPI DUP1 PUSH4 0xAEF18BF7 EQ PUSH2 0x255 JUMPI DUP1 PUSH4 0xC20632BA EQ PUSH2 0x285 JUMPI DUP1 PUSH4 0xC326BF4F EQ PUSH2 0x2A1 JUMPI PUSH2 0x109 JUMP JUMPDEST DUP1 PUSH4 0x53BE657F GT PUSH2 0xDC JUMPI DUP1 PUSH4 0x53BE657F EQ PUSH2 0x1AF JUMPI DUP1 PUSH4 0x6C19E783 EQ PUSH2 0x1DF JUMPI DUP1 PUSH4 0x715018A6 EQ PUSH2 0x1FB JUMPI DUP1 PUSH4 0x8DA5CB5B EQ PUSH2 0x205 JUMPI PUSH2 0x109 JUMP JUMPDEST DUP1 PUSH4 0x12DEE883 EQ PUSH2 0x10D JUMPI DUP1 PUSH4 0x1526FE27 EQ PUSH2 0x129 JUMPI DUP1 PUSH4 0x238AC933 EQ PUSH2 0x15D JUMPI DUP1 PUSH4 0x34C1F944 EQ PUSH2 0x17B JUMPI JUMPDEST PUSH0 DUP1 REVERT JUMPDEST PUSH2 0x127 PUSH1 0x4 DUP1 CALLDATASIZE SUB DUP2 ADD SWAP1 PUSH2 0x122 SWAP2 SWAP1 PUSH2 0x11D4 JUMP JUMPDEST PUSH2 0x361 JUMP JUMPDEST STOP JUMPDEST PUSH2 0x143 PUSH1 0x4 DUP1 CALLDATASIZE SUB DUP2 ADD SWAP1 PUSH2 0x13E SWAP2 SWAP1 PUSH2 0x1254 JUMP JUMPDEST PUSH2 0x613 JUMP JUMPDEST PUSH1 0x40 MLOAD PUSH2 0x154 SWAP6 SWAP5 SWAP4 SWAP3 SWAP2 SWAP1 PUSH2 0x1308 JUMP JUMPDEST PUSH1 0x40 MLOAD DUP1 SWAP2 SUB SWAP1 RETURN JUMPDEST PUSH2 0x165 PUSH2 0x692 JUMP JUMPDEST PUSH1 0x40 MLOAD PUSH2 0x172 SWAP2 SWAP1 PUSH2 0x1379 JUMP JUMPDEST PUSH1 0x40 MLOAD DUP1 SWAP2 SUB SWAP1 RETURN JUMPDEST PUSH2 0x195 PUSH1 0x4 DUP1 CALLDATASIZE SUB DUP2 ADD SWAP1 PUSH2 0x190 SWAP2 SWAP1 PUSH2 0x1254 JUMP JUMPDEST PUSH2 0x6B7 JUMP JUMPDEST PUSH1 0x40 MLOAD PUSH2 0x1A6 SWAP6 SWAP5 SWAP4 SWAP3 SWAP2 SWAP1 PUSH2 0x13F2 JUMP JUMPDEST PUSH1 0x40 MLOAD DUP1 SWAP2 SUB SWAP1 RETURN JUMPDEST PUSH2 0x1C9 PUSH1 0x4 DUP1 CALLDATASIZE SUB DUP2 ADD SWAP1 PUSH2 0x1C4 SWAP2 SWAP1 PUSH2 0x1474 JUMP JUMPDEST PUSH2 0x79D JUMP JUMPDEST PUSH1 0x40 MLOAD PUSH2 0x1D6 SWAP2 SWAP1 PUSH2 0x149F JUMP JUMPDEST PUSH1 0x40 MLOAD DUP1 SWAP2 SUB SWAP1 RETURN JUMPDEST PUSH2 0x1F9 PUSH1 0x4 DUP1 CALLDATASIZE SUB DUP2 ADD SWAP1 PUSH2 0x1F4 SWAP2 SWAP1 PUSH2 0x1474 JUMP JUMPDEST PUSH2 0x7B2 JUMP JUMPDEST STOP JUMPDEST PUSH2 0x203 PUSH2 0x7FD JUMP JUMPDEST STOP JUMPDEST PUSH2 0x20D PUSH2 0x810 JUMP JUMPDEST PUSH1 0x40 MLOAD PUSH2 0x21A SWAP2 SWAP1 PUSH2 0x1379 JUMP JUMPDEST PUSH1 0x40 MLOAD DUP1 SWAP2 SUB SWAP1 RETURN JUMPDEST PUSH2 0x23D PUSH1 0x4 DUP1 CALLDATASIZE SUB DUP2 ADD SWAP1 PUSH2 0x238 SWAP2 SWAP1 PUSH2 0x14B8 JUMP JUMPDEST PUSH2 0x837 JUMP JUMPDEST PUSH1 0x40 MLOAD PUSH2 0x24C SWAP4 SWAP3 SWAP2 SWAP1 PUSH2 0x14F6 JUMP JUMPDEST PUSH1 0x40 MLOAD DUP1 SWAP2 SUB SWAP1 RETURN JUMPDEST PUSH2 0x26F PUSH1 0x4 DUP1 CALLDATASIZE SUB DUP2 ADD SWAP1 PUSH2 0x26A SWAP2 SWAP1 PUSH2 0x155E JUMP JUMPDEST PUSH2 0x868 JUMP JUMPDEST PUSH1 0x40 MLOAD PUSH2 0x27C SWAP2 SWAP1 PUSH2 0x15A3 JUMP JUMPDEST PUSH1 0x40 MLOAD DUP1 SWAP2 SUB SWAP1 RETURN JUMPDEST PUSH2 0x29F PUSH1 0x4 DUP1 CALLDATASIZE SUB DUP2 ADD SWAP1 PUSH2 0x29A SWAP2 SWAP1 PUSH2 0x15F7 JUMP JUMPDEST PUSH2 0x885 JUMP JUMPDEST STOP JUMPDEST PUSH2 0x2BB PUSH1 0x4 DUP1 CALLDATASIZE SUB DUP2 ADD SWAP1 PUSH2 0x2B6 SWAP2 SWAP1 PUSH2 0x1474 JUMP JUMPDEST PUSH2 0x9CF JUMP JUMPDEST PUSH1 0x40 MLOAD PUSH2 0x2C8 SWAP2 SWAP1 PUSH2 0x149F JUMP JUMPDEST PUSH1 0x40 MLOAD DUP1 SWAP2 SUB SWAP1 RETURN JUMPDEST PUSH2 0x2EB PUSH1 0x4 DUP1 CALLDATASIZE SUB DUP2 ADD SWAP1 PUSH2 0x2E6 SWAP2 SWAP1 PUSH2 0x1254 JUMP JUMPDEST PUSH2 0x9E4 JUMP JUMPDEST STOP JUMPDEST PUSH2 0x307 PUSH1 0x4 DUP1 CALLDATASIZE SUB DUP2 ADD SWAP1 PUSH2 0x302 SWAP2 SWAP1 PUSH2 0x1474 JUMP JUMPDEST PUSH2 0x9F6 JUMP JUMPDEST STOP JUMPDEST PUSH2 0x323 PUSH1 0x4 DUP1 CALLDATASIZE SUB DUP2 ADD SWAP1 PUSH2 0x31E SWAP2 SWAP1 PUSH2 0x1254 JUMP JUMPDEST PUSH2 0xA7A JUMP JUMPDEST STOP JUMPDEST PUSH2 0x32D PUSH2 0xBC5 JUMP JUMPDEST PUSH1 0x40 MLOAD PUSH2 0x33A SWAP2 SWAP1 PUSH2 0x149F JUMP JUMPDEST PUSH1 0x40 MLOAD DUP1 SWAP2 SUB SWAP1 RETURN JUMPDEST PUSH2 0x34B PUSH2 0xBCB JUMP JUMPDEST PUSH1 0x40 MLOAD PUSH2 0x358 SWAP2 SWAP1 PUSH2 0x149F JUMP JUMPDEST PUSH1 0x40 MLOAD DUP1 SWAP2 SUB SWAP1 RETURN JUMPDEST PUSH2 0x369 PUSH2 0xBD1 JUMP JUMPDEST DUP2 TIMESTAMP GT ISZERO PUSH2 0x3AC JUMPI PUSH1 0x40 MLOAD PUSH32 0x8C379A000000000000000000000000000000000000000000000000000000000 DUP2 MSTORE PUSH1 0x4 ADD PUSH2 0x3A3 SWAP1 PUSH2 0x16A5 JUMP JUMPDEST PUSH1 0x40 MLOAD DUP1 SWAP2 SUB SWAP1 REVERT JUMPDEST PUSH1 0x4 SLOAD DUP5 GT ISZERO PUSH2 0x3F1 JUMPI PUSH1 0x40 MLOAD PUSH32 0x8C379A000000000000000000000000000000000000000000000000000000000 DUP2 MSTORE PUSH1 0x4 ADD PUSH2 0x3E8 SWAP1 PUSH2 0x170D JUMP JUMPDEST PUSH1 0x40 MLOAD DUP1 SWAP2 SUB SWAP1 REVERT JUMPDEST PUSH0 CALLER DUP6 DUP6 DUP6 PUSH1 0x40 MLOAD PUSH1 0x20 ADD PUSH2 0x409 SWAP5 SWAP4 SWAP3 SWAP2 SWAP1 PUSH2 0x1790 JUMP JUMPDEST PUSH1 0x40 MLOAD PUSH1 0x20 DUP2 DUP4 SUB SUB DUP2 MSTORE SWAP1 PUSH1 0x40 MSTORE DUP1 MLOAD SWAP1 PUSH1 0x20 ADD KECCAK256 SWAP1 POP PUSH1 0x2 PUSH0 DUP3 DUP2 MSTORE PUSH1 0x20 ADD SWAP1 DUP2 MSTORE PUSH1 0x20 ADD PUSH0 KECCAK256 PUSH0 SWAP1 SLOAD SWAP1 PUSH2 0x100 EXP SWAP1 DIV PUSH1 0xFF AND ISZERO PUSH2 0x47F JUMPI PUSH1 0x40 MLOAD PUSH32 0x8C379A000000000000000000000000000000000000000000000000000000000 DUP2 MSTORE PUSH1 0x4 ADD PUSH2 0x476 SWAP1 PUSH2 0x1827 JUMP JUMPDEST PUSH1 0x40 MLOAD DUP1 SWAP2 SUB SWAP1 REVERT JUMPDEST PUSH0 DUP2 PUSH1 0x40 MLOAD PUSH1 0x20 ADD PUSH2 0x491 SWAP2 SWAP1 PUSH2 0x18B9 JUMP JUMPDEST PUSH1 0x40 MLOAD PUSH1 0x20 DUP2 DUP4 SUB SUB DUP2 MSTORE SWAP1 PUSH1 0x40 MSTORE DUP1 MLOAD SWAP1 PUSH1 0x20 ADD KECCAK256 SWAP1 POP PUSH0 PUSH2 0x4B4 DUP3 DUP6 PUSH2 0xBF3 JUMP JUMPDEST SWAP1 POP PUSH1 0x3 PUSH0 SWAP1 SLOAD SWAP1 PUSH2 0x100 EXP SWAP1 DIV PUSH20 0xFFFFFFFFFFFFFFFFFFFFFFFFFFFFFFFFFFFFFFFF AND PUSH20 0xFFFFFFFFFFFFFFFFFFFFFFFFFFFFFFFFFFFFFFFF AND DUP2 PUSH20 0xFFFFFFFFFFFFFFFFFFFFFFFFFFFFFFFFFFFFFFFF AND EQ PUSH2 0x545 JUMPI PUSH1 0x40 MLOAD PUSH32 0x8C379A000000000000000000000000000000000000000000000000000000000 DUP2 MSTORE PUSH1 0x4 ADD PUSH2 0x53C SWAP1 PUSH2 0x1928 JUMP JUMPDEST PUSH1 0x40 MLOAD DUP1 SWAP2 SUB SWAP1 REVERT JUMPDEST PUSH1 0x1 PUSH1 0x2 PUSH0 DUP6 DUP2 MSTORE PUSH1 0x20 ADD SWAP1 DUP2 MSTORE PUSH1 0x20 ADD PUSH0 KECCAK256 PUSH0 PUSH2 0x100 EXP DUP2 SLOAD DUP2 PUSH1 0xFF MUL NOT AND SWAP1 DUP4 ISZERO ISZERO MUL OR SWAP1 SSTORE POP DUP7 PUSH1 0x1 PUSH0 CALLER PUSH20 0xFFFFFFFFFFFFFFFFFFFFFFFFFFFFFFFFFFFFFFFF AND PUSH20 0xFFFFFFFFFFFFFFFFFFFFFFFFFFFFFFFFFFFFFFFF AND DUP2 MSTORE PUSH1 0x20 ADD SWAP1 DUP2 MSTORE PUSH1 0x20 ADD PUSH0 KECCAK256 PUSH0 DUP3 DUP3 SLOAD PUSH2 0x5BA SWAP2 SWAP1 PUSH2 0x1973 JUMP JUMPDEST SWAP3 POP POP DUP2 SWAP1 SSTORE POP PUSH2 0x602 PUSH0 DUP9 CALLER PUSH1 0x40 MLOAD DUP1 PUSH1 0x40 ADD PUSH1 0x40 MSTORE DUP1 PUSH1 0xA DUP2 MSTORE PUSH1 0x20 ADD PUSH32 0x5461736B52657761726400000000000000000000000000000000000000000000 DUP2 MSTORE POP PUSH2 0xC5D JUMP JUMPDEST POP POP POP PUSH2 0x60D PUSH2 0xD42 JUMP JUMPDEST POP POP POP POP JUMP JUMPDEST PUSH1 0x6 DUP2 DUP2 SLOAD DUP2 LT PUSH2 0x622 JUMPI PUSH0 DUP1 REVERT JUMPDEST SWAP1 PUSH0 MSTORE PUSH1 0x20 PUSH0 KECCAK256 SWAP1 PUSH1 0x5 MUL ADD PUSH0 SWAP2 POP SWAP1 POP DUP1 PUSH0 ADD PUSH0 SWAP1 SLOAD SWAP1 PUSH2 0x100 EXP SWAP1 DIV PUSH20 0xFFFFFFFFFFFFFFFFFFFFFFFFFFFFFFFFFFFFFFFF AND SWAP1 DUP1 PUSH1 0x1 ADD PUSH0 SWAP1 SLOAD SWAP1 PUSH2 0x100 EXP SWAP1 DIV PUSH20 0xFFFFFFFFFFFFFFFFFFFFFFFFFFFFFFFFFFFFFFFF AND SWAP1 DUP1 PUSH1 0x2 ADD SLOAD SWAP1 DUP1 PUSH1 0x3 ADD SLOAD SWAP1 DUP1 PUSH1 0x4 ADD SLOAD SWAP1 POP DUP6 JUMP JUMPDEST PUSH1 0x3 PUSH0 SWAP1 SLOAD SWAP1 PUSH2 0x100 EXP SWAP1 DIV PUSH20 0xFFFFFFFFFFFFFFFFFFFFFFFFFFFFFFFFFFFFFFFF AND DUP2 JUMP JUMPDEST PUSH1 0x9 DUP2 DUP2 SLOAD DUP2 LT PUSH2 0x6C6 JUMPI PUSH0 DUP1 REVERT JUMPDEST SWAP1 PUSH0 MSTORE PUSH1 0x20 PUSH0 KECCAK256 SWAP1 PUSH1 0x5 MUL ADD PUSH0 SWAP2 POP SWAP1 POP DUP1 PUSH0 ADD SLOAD SWAP1 DUP1 PUSH1 0x1 ADD SLOAD SWAP1 DUP1 PUSH1 0x2 ADD PUSH0 SWAP1 SLOAD SWAP1 PUSH2 0x100 EXP SWAP1 DIV PUSH20 0xFFFFFFFFFFFFFFFFFFFFFFFFFFFFFFFFFFFFFFFF AND SWAP1 DUP1 PUSH1 0x3 ADD DUP1 SLOAD PUSH2 0x716 SWAP1 PUSH2 0x19D3 JUMP JUMPDEST DUP1 PUSH1 0x1F ADD PUSH1 0x20 DUP1 SWAP2 DIV MUL PUSH1 0x20 ADD PUSH1 0x40 MLOAD SWAP1 DUP2 ADD PUSH1 0x40 MSTORE DUP1 SWAP3 SWAP2 SWAP1 DUP2 DUP2 MSTORE PUSH1 0x20 ADD DUP3 DUP1 SLOAD PUSH2 0x742 SWAP1 PUSH2 0x19D3 JUMP JUMPDEST DUP1 ISZERO PUSH2 0x78D JUMPI DUP1 PUSH1 0x1F LT PUSH2 0x764 JUMPI PUSH2 0x100 DUP1 DUP4 SLOAD DIV MUL DUP4 MSTORE SWAP2 PUSH1 0x20 ADD SWAP2 PUSH2 0x78D JUMP JUMPDEST DUP3 ADD SWAP2 SWAP1 PUSH0 MSTORE PUSH1 0x20 PUSH0 KECCAK256 SWAP1 JUMPDEST DUP2 SLOAD DUP2 MSTORE SWAP1 PUSH1 0x1 ADD SWAP1 PUSH1 0x20 ADD DUP1 DUP4 GT PUSH2 0x770 JUMPI DUP3 SWAP1 SUB PUSH1 0x1F AND DUP3 ADD SWAP2 JUMPDEST POP POP POP POP POP SWAP1 DUP1 PUSH1 0x4 ADD SLOAD SWAP1 POP DUP6 JUMP JUMPDEST PUSH1 0x1 PUSH1 0x20 MSTORE DUP1 PUSH0 MSTORE PUSH1 0x40 PUSH0 KECCAK256 PUSH0 SWAP2 POP SWAP1 POP SLOAD DUP2 JUMP JUMPDEST PUSH2 0x7BA PUSH2 0xD5C JUMP JUMPDEST DUP1 PUSH1 0x3 PUSH0 PUSH2 0x100 EXP DUP2 SLOAD DUP2 PUSH20 0xFFFFFFFFFFFFFFFFFFFFFFFFFFFFFFFFFFFFFFFF MUL NOT AND SWAP1 DUP4 PUSH20 0xFFFFFFFFFFFFFFFFFFFFFFFFFFFFFFFFFFFFFFFF AND MUL OR SWAP1 SSTORE POP POP JUMP JUMPDEST PUSH2 0x805 PUSH2 0xD5C JUMP JUMPDEST PUSH2 0x80E PUSH0 PUSH2 0xDE3 JUMP JUMPDEST JUMP JUMPDEST PUSH0 DUP1 PUSH0 SWAP1 SLOAD SWAP1 PUSH2 0x100 EXP SWAP1 DIV PUSH20 0xFFFFFFFFFFFFFFFFFFFFFFFFFFFFFFFFFFFFFFFF AND SWAP1 POP SWAP1 JUMP JUMPDEST PUSH1 0x7 PUSH1 0x20 MSTORE DUP2 PUSH0 MSTORE PUSH1 0x40 PUSH0 KECCAK256 PUSH1 0x20 MSTORE DUP1 PUSH0 MSTORE PUSH1 0x40 PUSH0 KECCAK256 PUSH0 SWAP2 POP SWAP2 POP POP DUP1 PUSH0 ADD SLOAD SWAP1 DUP1 PUSH1 0x1 ADD SLOAD SWAP1 DUP1 PUSH1 0x2 ADD SLOAD SWAP1 POP DUP4 JUMP JUMPDEST PUSH1 0x2 PUSH1 0x20 MSTORE DUP1 PUSH0 MSTORE PUSH1 0x40 PUSH0 KECCAK256 PUSH0 SWAP2 POP SLOAD SWAP1 PUSH2 0x100 EXP SWAP1 DIV PUSH1 0xFF AND DUP2 JUMP JUMPDEST PUSH2 0x88D PUSH2 0xD5C JUMP JUMPDEST PUSH1 0x6 PUSH1 0x40 MLOAD DUP1 PUSH1 0xA0 ADD PUSH1 0x40 MSTORE DUP1 DUP7 PUSH20 0xFFFFFFFFFFFFFFFFFFFFFFFFFFFFFFFFFFFFFFFF AND DUP2 MSTORE PUSH1 0x20 ADD DUP6 PUSH20 0xFFFFFFFFFFFFFFFFFFFFFFFFFFFFFFFFFFFFFFFF AND DUP2 MSTORE PUSH1 0x20 ADD PUSH0 DUP2 MSTORE PUSH1 0x20 ADD DUP5 DUP2 MSTORE PUSH1 0x20 ADD DUP4 DUP2 MSTORE POP SWAP1 DUP1 PUSH1 0x1 DUP2 SLOAD ADD DUP1 DUP3 SSTORE DUP1 SWAP2 POP POP PUSH1 0x1 SWAP1 SUB SWAP1 PUSH0 MSTORE PUSH1 0x20 PUSH0 KECCAK256 SWAP1 PUSH1 0x5 MUL ADD PUSH0 SWAP1 SWAP2 SWAP1 SWAP2 SWAP1 SWAP2 POP PUSH0 DUP3 ADD MLOAD DUP2 PUSH0 ADD PUSH0 PUSH2 0x100 EXP DUP2 SLOAD DUP2 PUSH20 0xFFFFFFFFFFFFFFFFFFFFFFFFFFFFFFFFFFFFFFFF MUL NOT AND SWAP1 DUP4 PUSH20 0xFFFFFFFFFFFFFFFFFFFFFFFFFFFFFFFFFFFFFFFF AND MUL OR SWAP1 SSTORE POP PUSH1 0x20 DUP3 ADD MLOAD DUP2 PUSH1 0x1 ADD PUSH0 PUSH2 0x100 EXP DUP2 SLOAD DUP2 PUSH20 0xFFFFFFFFFFFFFFFFFFFFFFFFFFFFFFFFFFFFFFFF MUL NOT AND SWAP1 DUP4 PUSH20 0xFFFFFFFFFFFFFFFFFFFFFFFFFFFFFFFFFFFFFFFF AND MUL OR SWAP1 SSTORE POP PUSH1 0x40 DUP3 ADD MLOAD DUP2 PUSH1 0x2 ADD SSTORE PUSH1 0x60 DUP3 ADD MLOAD DUP2 PUSH1 0x3 ADD SSTORE PUSH1 0x80 DUP3 ADD MLOAD DUP2 PUSH1 0x4 ADD SSTORE POP POP PUSH1 0x5 PUSH0 DUP2 SLOAD DUP1 SWAP3 SWAP2 SWAP1 PUSH2 0x9C4 SWAP1 PUSH2 0x1A03 JUMP JUMPDEST SWAP2 SWAP1 POP SSTORE POP POP POP POP POP JUMP JUMPDEST PUSH1 0x8 PUSH1 0x20 MSTORE DUP1 PUSH0 MSTORE PUSH1 0x40 PUSH0 KECCAK256 PUSH0 SWAP2 POP SWAP1 POP SLOAD DUP2 JUMP JUMPDEST PUSH2 0x9EC PUSH2 0xD5C JUMP JUMPDEST DUP1 PUSH1 0x4 DUP2 SWAP1 SSTORE POP POP JUMP JUMPDEST PUSH2 0x9FE PUSH2 0xD5C JUMP JUMPDEST PUSH0 PUSH20 0xFFFFFFFFFFFFFFFFFFFFFFFFFFFFFFFFFFFFFFFF AND DUP2 PUSH20 0xFFFFFFFFFFFFFFFFFFFFFFFFFFFFFFFFFFFFFFFF AND SUB PUSH2 0xA6E JUMPI PUSH0 PUSH1 0x40 MLOAD PUSH32 0x1E4FBDF700000000000000000000000000000000000000000000000000000000 DUP2 MSTORE PUSH1 0x4 ADD PUSH2 0xA65 SWAP2 SWAP1 PUSH2 0x1379 JUMP JUMPDEST PUSH1 0x40 MLOAD DUP1 SWAP2 SUB SWAP1 REVERT JUMPDEST PUSH2 0xA77 DUP2 PUSH2 0xDE3 JUMP JUMPDEST POP JUMP JUMPDEST PUSH2 0xA82 PUSH2 0xBD1 JUMP JUMPDEST PUSH0 PUSH1 0x1 PUSH0 CALLER PUSH20 0xFFFFFFFFFFFFFFFFFFFFFFFFFFFFFFFFFFFFFFFF AND PUSH20 0xFFFFFFFFFFFFFFFFFFFFFFFFFFFFFFFFFFFFFFFF AND DUP2 MSTORE PUSH1 0x20 ADD SWAP1 DUP2 MSTORE PUSH1 0x20 ADD PUSH0 KECCAK256 SLOAD SWAP1 POP PUSH0 DUP2 GT PUSH2 0xB05 JUMPI PUSH1 0x40 MLOAD PUSH32 0x8C379A000000000000000000000000000000000000000000000000000000000 DUP2 MSTORE PUSH1 0x4 ADD PUSH2 0xAFC SWAP1 PUSH2 0x1A94 JUMP JUMPDEST PUSH1 0x40 MLOAD DUP1 SWAP2 SUB SWAP1 REVERT JUMPDEST PUSH0 PUSH1 0x1 PUSH0 CALLER PUSH20 0xFFFFFFFFFFFFFFFFFFFFFFFFFFFFFFFFFFFFFFFF AND PUSH20 0xFFFFFFFFFFFFFFFFFFFFFFFFFFFFFFFFFFFFFFFF AND DUP2 MSTORE PUSH1 0x20 ADD SWAP1 DUP2 MSTORE PUSH1 0x20 ADD PUSH0 KECCAK256 DUP2 SWAP1 SSTORE POP PUSH0 PUSH1 0x6 DUP4 DUP2 SLOAD DUP2 LT PUSH2 0xB5C JUMPI PUSH2 0xB5B PUSH2 0x1AB2 JUMP JUMPDEST JUMPDEST SWAP1 PUSH0 MSTORE PUSH1 0x20 PUSH0 KECCAK256 SWAP1 PUSH1 0x5 MUL ADD PUSH1 0x1 ADD PUSH0 SWAP1 SLOAD SWAP1 PUSH2 0x100 EXP SWAP1 DIV PUSH20 0xFFFFFFFFFFFFFFFFFFFFFFFFFFFFFFFFFFFFFFFF AND SWAP1 POP PUSH2 0xBB8 CALLER DUP4 DUP4 PUSH20 0xFFFFFFFFFFFFFFFFFFFFFFFFFFFFFFFFFFFFFFFF AND PUSH2 0xEA4 SWAP1 SWAP3 SWAP2 SWAP1 PUSH4 0xFFFFFFFF AND JUMP JUMPDEST POP POP PUSH2 0xBC2 PUSH2 0xD42 JUMP JUMPDEST POP JUMP JUMPDEST PUSH1 0x5 SLOAD DUP2 JUMP JUMPDEST PUSH1 0x4 SLOAD DUP2 JUMP JUMPDEST PUSH2 0xBD9 PUSH2 0xEF7 JUMP JUMPDEST PUSH1 0x2 PUSH2 0xBEB PUSH2 0xBE6 PUSH2 0xF38 JUMP JUMPDEST PUSH2 0xF61 JUMP JUMPDEST PUSH0 ADD DUP2 SWAP1 SSTORE POP JUMP JUMPDEST PUSH0 DUP1 PUSH0 DUP1 PUSH2 0xC00 DUP6 PUSH2 0xF6A JUMP JUMPDEST SWAP3 POP SWAP3 POP SWAP3 POP PUSH1 0x1 DUP7 DUP3 DUP6 DUP6 PUSH1 0x40 MLOAD PUSH0 DUP2 MSTORE PUSH1 0x20 ADD PUSH1 0x40 MSTORE PUSH1 0x40 MLOAD PUSH2 0xC28 SWAP5 SWAP4 SWAP3 SWAP2 SWAP1 PUSH2 0x1B09 JUMP JUMPDEST PUSH1 0x20 PUSH1 0x40 MLOAD PUSH1 0x20 DUP2 SUB SWAP1 DUP1 DUP5 SUB SWAP1 DUP6 GAS STATICCALL ISZERO DUP1 ISZERO PUSH2 0xC48 JUMPI RETURNDATASIZE PUSH0 DUP1 RETURNDATACOPY RETURNDATASIZE PUSH0 REVERT JUMPDEST POP POP POP PUSH1 0x20 PUSH1 0x40 MLOAD SUB MLOAD SWAP4 POP POP POP POP SWAP3 SWAP2 POP POP JUMP JUMPDEST PUSH1 0x9 PUSH1 0x40 MLOAD DUP1 PUSH1 0xA0 ADD PUSH1 0x40 MSTORE DUP1 DUP7 DUP2 MSTORE PUSH1 0x20 ADD DUP6 DUP2 MSTORE PUSH1 0x20 ADD DUP5 PUSH20 0xFFFFFFFFFFFFFFFFFFFFFFFFFFFFFFFFFFFFFFFF AND DUP2 MSTORE PUSH1 0x20 ADD DUP4 DUP2 MSTORE PUSH1 0x20 ADD TIMESTAMP DUP2 MSTORE POP SWAP1 DUP1 PUSH1 0x1 DUP2 SLOAD ADD DUP1 DUP3 SSTORE DUP1 SWAP2 POP POP PUSH1 0x1 SWAP1 SUB SWAP1 PUSH0 MSTORE PUSH1 0x20 PUSH0 KECCAK256 SWAP1 PUSH1 0x5 MUL ADD PUSH0 SWAP1 SWAP2 SWAP1 SWAP2 SWAP1 SWAP2 POP PUSH0 DUP3 ADD MLOAD DUP2 PUSH0 ADD SSTORE PUSH1 0x20 DUP3 ADD MLOAD DUP2 PUSH1 0x1 ADD SSTORE PUSH1 0x40 DUP3 ADD MLOAD DUP2 PUSH1 0x2 ADD PUSH0 PUSH2 0x100 EXP DUP2 SLOAD DUP2 PUSH20 0xFFFFFFFFFFFFFFFFFFFFFFFFFFFFFFFFFFFFFFFF MUL NOT AND SWAP1 DUP4 PUSH20 0xFFFFFFFFFFFFFFFFFFFFFFFFFFFFFFFFFFFFFFFF AND MUL OR SWAP1 SSTORE POP PUSH1 0x60 DUP3 ADD MLOAD DUP2 PUSH1 0x3 ADD SWAP1 DUP2 PUSH2 0xD2F SWAP2 SWAP1 PUSH2 0x1CE0 JUMP JUMPDEST POP PUSH1 0x80 DUP3 ADD MLOAD DUP2 PUSH1 0x4 ADD SSTORE POP POP POP POP POP POP JUMP JUMPDEST PUSH1 0x1 PUSH2 0xD54 PUSH2 0xD4F PUSH2 0xF38 JUMP JUMPDEST PUSH2 0xF61 JUMP JUMPDEST PUSH0 ADD DUP2 SWAP1 SSTORE POP JUMP JUMPDEST PUSH2 0xD64 PUSH2 0xFCF JUMP JUMPDEST PUSH20 0xFFFFFFFFFFFFFFFFFFFFFFFFFFFFFFFFFFFFFFFF AND PUSH2 0xD82 PUSH2 0x810 JUMP JUMPDEST PUSH20 0xFFFFFFFFFFFFFFFFFFFFFFFFFFFFFFFFFFFFFFFF AND EQ PUSH2 0xDE1 JUMPI PUSH2 0xDA5 PUSH2 0xFCF JUMP JUMPDEST PUSH1 0x40 MLOAD PUSH32 0x118CDAA700000000000000000000000000000000000000000000000000000000 DUP2 MSTORE PUSH1 0x4 ADD PUSH2 0xDD8 SWAP2 SWAP1 PUSH2 0x1379 JUMP JUMPDEST PUSH1 0x40 MLOAD DUP1 SWAP2 SUB SWAP1 REVERT JUMPDEST JUMP JUMPDEST PUSH0 DUP1 PUSH0 SWAP1 SLOAD SWAP1 PUSH2 0x100 EXP SWAP1 DIV PUSH20 0xFFFFFFFFFFFFFFFFFFFFFFFFFFFFFFFFFFFFFFFF AND SWAP1 POP DUP2 PUSH0 DUP1 PUSH2 0x100 EXP DUP2 SLOAD DUP2 PUSH20 0xFFFFFFFFFFFFFFFFFFFFFFFFFFFFFFFFFFFFFFFF MUL NOT AND SWAP1 DUP4 PUSH20 0xFFFFFFFFFFFFFFFFFFFFFFFFFFFFFFFFFFFFFFFF AND MUL OR SWAP1 SSTORE POP DUP2 PUSH20 0xFFFFFFFFFFFFFFFFFFFFFFFFFFFFFFFFFFFFFFFF AND DUP2 PUSH20 0xFFFFFFFFFFFFFFFFFFFFFFFFFFFFFFFFFFFFFFFF AND PUSH32 0x8BE0079C531659141344CD1FD0A4F28419497F9722A3DAAFE3B4186F6B6457E0 PUSH1 0x40 MLOAD PUSH1 0x40 MLOAD DUP1 SWAP2 SUB SWAP1 LOG3 POP POP JUMP JUMPDEST PUSH2 0xEB1 DUP4 DUP4 DUP4 PUSH1 0x1 PUSH2 0xFD6 JUMP JUMPDEST PUSH2 0xEF2 JUMPI DUP3 PUSH1 0x40 MLOAD PUSH32 0x5274AFE700000000000000000000000000000000000000000000000000000000 DUP2 MSTORE PUSH1 0x4 ADD PUSH2 0xEE9 SWAP2 SWAP1 PUSH2 0x1379 JUMP JUMPDEST PUSH1 0x40 MLOAD DUP1 SWAP2 SUB SWAP1 REVERT JUMPDEST POP POP POP JUMP JUMPDEST PUSH2 0xEFF PUSH2 0x1038 JUMP JUMPDEST ISZERO PUSH2 0xF36 JUMPI PUSH1 0x40 MLOAD PUSH32 0x3EE5AEB500000000000000000000000000000000000000000000000000000000 DUP2 MSTORE PUSH1 0x4 ADD PUSH1 0x40 MLOAD DUP1 SWAP2 SUB SWAP1 REVERT JUMPDEST JUMP JUMPDEST PUSH0 PUSH32 0x9B779B17422D0DF92223018B32B4D1FA46E071723D6817E2486D003BECC55F00 PUSH0 SHL SWAP1 POP SWAP1 JUMP JUMPDEST PUSH0 DUP2 SWAP1 POP SWAP2 SWAP1 POP JUMP JUMPDEST PUSH0 DUP1 PUSH0 PUSH1 0x41 DUP5 MLOAD EQ PUSH2 0xFB1 JUMPI PUSH1 0x40 MLOAD PUSH32 0x8C379A000000000000000000000000000000000000000000000000000000000 DUP2 MSTORE PUSH1 0x4 ADD PUSH2 0xFA8 SWAP1 PUSH2 0x1DF9 JUMP JUMPDEST PUSH1 0x40 MLOAD DUP1 SWAP2 SUB SWAP1 REVERT JUMPDEST PUSH1 0x20 DUP5 ADD MLOAD SWAP3 POP PUSH1 0x40 DUP5 ADD MLOAD SWAP2 POP PUSH1 0x60 DUP5 ADD MLOAD PUSH0 BYTE SWAP1 POP SWAP2 SWAP4 SWAP1 SWAP3 POP JUMP JUMPDEST PUSH0 CALLER SWAP1 POP SWAP1 JUMP JUMPDEST PUSH0 DUP1 PUSH4 0xA9059CBB PUSH1 0xE0 SHL SWAP1 POP PUSH1 0x40 MLOAD DUP2 PUSH0 MSTORE PUSH0 NOT PUSH1 0x60 SHR DUP7 AND PUSH1 0x4 MSTORE DUP5 PUSH1 0x24 MSTORE PUSH1 0x20 PUSH0 PUSH1 0x44 PUSH0 DUP1 DUP12 GAS CALL SWAP3 POP PUSH1 0x1 PUSH0 MLOAD EQ DUP4 AND PUSH2 0x102A JUMPI DUP4 DUP4 ISZERO AND ISZERO PUSH2 0x101E JUMPI RETURNDATASIZE PUSH0 DUP3 RETURNDATACOPY RETURNDATASIZE DUP2 REVERT JUMPDEST PUSH0 DUP8 EXTCODESIZE GT RETURNDATASIZE ISZERO AND DUP4 AND SWAP3 POP JUMPDEST DUP1 PUSH1 0x40 MSTORE POP POP SWAP5 SWAP4 POP POP POP POP JUMP JUMPDEST PUSH0 PUSH1 0x2 PUSH2 0x104B PUSH2 0x1046 PUSH2 0xF38 JUMP JUMPDEST PUSH2 0xF61 JUMP JUMPDEST PUSH0 ADD SLOAD EQ SWAP1 POP SWAP1 JUMP JUMPDEST PUSH0 PUSH1 0x40 MLOAD SWAP1 POP SWAP1 JUMP JUMPDEST PUSH0 DUP1 REVERT JUMPDEST PUSH0 DUP1 REVERT JUMPDEST PUSH0 DUP2 SWAP1 POP SWAP2 SWAP1 POP JUMP JUMPDEST PUSH2 0x1077 DUP2 PUSH2 0x1065 JUMP JUMPDEST DUP2 EQ PUSH2 0x1081 JUMPI PUSH0 DUP1 REVERT JUMPDEST POP JUMP JUMPDEST PUSH0 DUP2 CALLDATALOAD SWAP1 POP PUSH2 0x1092 DUP2 PUSH2 0x106E JUMP JUMPDEST SWAP3 SWAP2 POP POP JUMP JUMPDEST PUSH0 DUP1 REVERT JUMPDEST PUSH0 DUP1 REVERT JUMPDEST PUSH0 PUSH1 0x1F NOT PUSH1 0x1F DUP4 ADD AND SWAP1 POP SWAP2 SWAP1 POP JUMP JUMPDEST PUSH32 0x4E487B7100000000000000000000000000000000000000000000000000000000 PUSH0 MSTORE PUSH1 0x41 PUSH1 0x4 MSTORE PUSH1 0x24 PUSH0 REVERT JUMPDEST PUSH2 0x10E6 DUP3 PUSH2 0x10A0 JUMP JUMPDEST DUP2 ADD DUP2 DUP2 LT PUSH8 0xFFFFFFFFFFFFFFFF DUP3 GT OR ISZERO PUSH2 0x1105 JUMPI PUSH2 0x1104 PUSH2 0x10B0 JUMP JUMPDEST JUMPDEST DUP1 PUSH1 0x40 MSTORE POP POP POP JUMP JUMPDEST PUSH0 PUSH2 0x1117 PUSH2 0x1054 JUMP JUMPDEST SWAP1 POP PUSH2 0x1123 DUP3 DUP3 PUSH2 0x10DD JUMP JUMPDEST SWAP2 SWAP1 POP JUMP JUMPDEST PUSH0 PUSH8 0xFFFFFFFFFFFFFFFF DUP3 GT ISZERO PUSH2 0x1142 JUMPI PUSH2 0x1141 PUSH2 0x10B0 JUMP JUMPDEST JUMPDEST PUSH2 0x114B DUP3 PUSH2 0x10A0 JUMP JUMPDEST SWAP1 POP PUSH1 0x20 DUP2 ADD SWAP1 POP SWAP2 SWAP1 POP JUMP JUMPDEST DUP3 DUP2 DUP4 CALLDATACOPY PUSH0 DUP4 DUP4 ADD MSTORE POP POP POP JUMP JUMPDEST PUSH0 PUSH2 0x1178 PUSH2 0x1173 DUP5 PUSH2 0x1128 JUMP JUMPDEST PUSH2 0x110E JUMP JUMPDEST SWAP1 POP DUP3 DUP2 MSTORE PUSH1 0x20 DUP2 ADD DUP5 DUP5 DUP5 ADD GT ISZERO PUSH2 0x1194 JUMPI PUSH2 0x1193 PUSH2 0x109C JUMP JUMPDEST JUMPDEST PUSH2 0x119F DUP5 DUP3 DUP6 PUSH2 0x1158 JUMP JUMPDEST POP SWAP4 SWAP3 POP POP POP JUMP JUMPDEST PUSH0 DUP3 PUSH1 0x1F DUP4 ADD SLT PUSH2 0x11BB JUMPI PUSH2 0x11BA PUSH2 0x1098 JUMP JUMPDEST JUMPDEST DUP2 CALLDATALOAD PUSH2 0x11CB DUP5 DUP3 PUSH1 0x20 DUP7 ADD PUSH2 0x1166 JUMP JUMPDEST SWAP2 POP POP SWAP3 SWAP2 POP POP JUMP JUMPDEST PUSH0 DUP1 PUSH0 DUP1 PUSH1 0x80 DUP6 DUP8 SUB SLT ISZERO PUSH2 0x11EC JUMPI PUSH2 0x11EB PUSH2 0x105D JUMP JUMPDEST JUMPDEST PUSH0 PUSH2 0x11F9 DUP8 DUP3 DUP9 ADD PUSH2 0x1084 JUMP JUMPDEST SWAP5 POP POP PUSH1 0x20 PUSH2 0x120A DUP8 DUP3 DUP9 ADD PUSH2 0x1084 JUMP JUMPDEST SWAP4 POP POP PUSH1 0x40 PUSH2 0x121B DUP8 DUP3 DUP9 ADD PUSH2 0x1084 JUMP JUMPDEST SWAP3 POP POP PUSH1 0x60 DUP6 ADD CALLDATALOAD PUSH8 0xFFFFFFFFFFFFFFFF DUP2 GT ISZERO PUSH2 0x123C JUMPI PUSH2 0x123B PUSH2 0x1061 JUMP JUMPDEST JUMPDEST PUSH2 0x1248 DUP8 DUP3 DUP9 ADD PUSH2 0x11A7 JUMP JUMPDEST SWAP2 POP POP SWAP3 SWAP6 SWAP2 SWAP5 POP SWAP3 POP JUMP JUMPDEST PUSH0 PUSH1 0x20 DUP3 DUP5 SUB SLT ISZERO PUSH2 0x1269 JUMPI PUSH2 0x1268 PUSH2 0x105D JUMP JUMPDEST JUMPDEST PUSH0 PUSH2 0x1276 DUP5 DUP3 DUP6 ADD PUSH2 0x1084 JUMP JUMPDEST SWAP2 POP POP SWAP3 SWAP2 POP POP JUMP JUMPDEST PUSH0 PUSH20 0xFFFFFFFFFFFFFFFFFFFFFFFFFFFFFFFFFFFFFFFF DUP3 AND SWAP1 POP SWAP2 SWAP1 POP JUMP JUMPDEST PUSH0 DUP2 SWAP1 POP SWAP2 SWAP1 POP JUMP JUMPDEST PUSH0 PUSH2 0x12C1 PUSH2 0x12BC PUSH2 0x12B7 DUP5 PUSH2 0x127F JUMP JUMPDEST PUSH2 0x129E JUMP JUMPDEST PUSH2 0x127F JUMP JUMPDEST SWAP1 POP SWAP2 SWAP1 POP JUMP JUMPDEST PUSH0 PUSH2 0x12D2 DUP3 PUSH2 0x12A7 JUMP JUMPDEST SWAP1 POP SWAP2 SWAP1 POP JUMP JUMPDEST PUSH0 PUSH2 0x12E3 DUP3 PUSH2 0x12C8 JUMP JUMPDEST SWAP1 POP SWAP2 SWAP1 POP JUMP JUMPDEST PUSH2 0x12F3 DUP2 PUSH2 0x12D9 JUMP JUMPDEST DUP3 MSTORE POP POP JUMP JUMPDEST PUSH2 0x1302 DUP2 PUSH2 0x1065 JUMP JUMPDEST DUP3 MSTORE POP POP JUMP JUMPDEST PUSH0 PUSH1 0xA0 DUP3 ADD SWAP1 POP PUSH2 0x131B PUSH0 DUP4 ADD DUP9 PUSH2 0x12EA JUMP JUMPDEST PUSH2 0x1328 PUSH1 0x20 DUP4 ADD DUP8 PUSH2 0x12EA JUMP JUMPDEST PUSH2 0x1335 PUSH1 0x40 DUP4 ADD DUP7 PUSH2 0x12F9 JUMP JUMPDEST PUSH2 0x1342 PUSH1 0x60 DUP4 ADD DUP6 PUSH2 0x12F9 JUMP JUMPDEST PUSH2 0x134F PUSH1 0x80 DUP4 ADD DUP5 PUSH2 0x12F9 JUMP JUMPDEST SWAP7 SWAP6 POP POP POP POP POP POP JUMP JUMPDEST PUSH0 PUSH2 0x1363 DUP3 PUSH2 0x127F JUMP JUMPDEST SWAP1 POP SWAP2 SWAP1 POP JUMP JUMPDEST PUSH2 0x1373 DUP2 PUSH2 0x1359 JUMP JUMPDEST DUP3 MSTORE POP POP JUMP JUMPDEST PUSH0 PUSH1 0x20 DUP3 ADD SWAP1 POP PUSH2 0x138C PUSH0 DUP4 ADD DUP5 PUSH2 0x136A JUMP JUMPDEST SWAP3 SWAP2 POP POP JUMP JUMPDEST PUSH0 DUP2 MLOAD SWAP1 POP SWAP2 SWAP1 POP JUMP JUMPDEST PUSH0 DUP3 DUP3 MSTORE PUSH1 0x20 DUP3 ADD SWAP1 POP SWAP3 SWAP2 POP POP JUMP JUMPDEST DUP3 DUP2 DUP4 MCOPY PUSH0 DUP4 DUP4 ADD MSTORE POP POP POP JUMP JUMPDEST PUSH0 PUSH2 0x13C4 DUP3 PUSH2 0x1392 JUMP JUMPDEST PUSH2 0x13CE DUP2 DUP6 PUSH2 0x139C JUMP JUMPDEST SWAP4 POP PUSH2 0x13DE DUP2 DUP6 PUSH1 0x20 DUP7 ADD PUSH2 0x13AC JUMP JUMPDEST PUSH2 0x13E7 DUP2 PUSH2 0x10A0 JUMP JUMPDEST DUP5 ADD SWAP2 POP POP SWAP3 SWAP2 POP POP JUMP JUMPDEST PUSH0 PUSH1 0xA0 DUP3 ADD SWAP1 POP PUSH2 0x1405 PUSH0 DUP4 ADD DUP9 PUSH2 0x12F9 JUMP JUMPDEST PUSH2 0x1412 PUSH1 0x20 DUP4 ADD DUP8 PUSH2 0x12F9 JUMP JUMPDEST PUSH2 0x141F PUSH1 0x40 DUP4 ADD DUP7 PUSH2 0x136A JUMP JUMPDEST DUP2 DUP2 SUB PUSH1 0x60 DUP4 ADD MSTORE PUSH2 0x1431 DUP2 DUP6 PUSH2 0x13BA JUMP JUMPDEST SWAP1 POP PUSH2 0x1440 PUSH1 0x80 DUP4 ADD DUP5 PUSH2 0x12F9 JUMP JUMPDEST SWAP7 SWAP6 POP POP POP POP POP POP JUMP JUMPDEST PUSH2 0x1453 DUP2 PUSH2 0x1359 JUMP JUMPDEST DUP2 EQ PUSH2 0x145D JUMPI PUSH0 DUP1 REVERT JUMPDEST POP JUMP JUMPDEST PUSH0 DUP2 CALLDATALOAD SWAP1 POP PUSH2 0x146E DUP2 PUSH2 0x144A JUMP JUMPDEST SWAP3 SWAP2 POP POP JUMP JUMPDEST PUSH0 PUSH1 0x20 DUP3 DUP5 SUB SLT ISZERO PUSH2 0x1489 JUMPI PUSH2 0x1488 PUSH2 0x105D JUMP JUMPDEST JUMPDEST PUSH0 PUSH2 0x1496 DUP5 DUP3 DUP6 ADD PUSH2 0x1460 JUMP JUMPDEST SWAP2 POP POP SWAP3 SWAP2 POP POP JUMP JUMPDEST PUSH0 PUSH1 0x20 DUP3 ADD SWAP1 POP PUSH2 0x14B2 PUSH0 DUP4 ADD DUP5 PUSH2 0x12F9 JUMP JUMPDEST SWAP3 SWAP2 POP POP JUMP JUMPDEST PUSH0 DUP1 PUSH1 0x40 DUP4 DUP6 SUB SLT ISZERO PUSH2 0x14CE JUMPI PUSH2 0x14CD PUSH2 0x105D JUMP JUMPDEST JUMPDEST PUSH0 PUSH2 0x14DB DUP6 DUP3 DUP7 ADD PUSH2 0x1084 JUMP JUMPDEST SWAP3 POP POP PUSH1 0x20 PUSH2 0x14EC DUP6 DUP3 DUP7 ADD PUSH2 0x1460 JUMP JUMPDEST SWAP2 POP POP SWAP3 POP SWAP3 SWAP1 POP JUMP JUMPDEST PUSH0 PUSH1 0x60 DUP3 ADD SWAP1 POP PUSH2 0x1509 PUSH0 DUP4 ADD DUP7 PUSH2 0x12F9 JUMP JUMPDEST PUSH2 0x1516 PUSH1 0x20 DUP4 ADD DUP6 PUSH2 0x12F9 JUMP JUMPDEST PUSH2 0x1523 PUSH1 0x40 DUP4 ADD DUP5 PUSH2 0x12F9 JUMP JUMPDEST SWAP5 SWAP4 POP POP POP POP JUMP JUMPDEST PUSH0 DUP2 SWAP1 POP SWAP2 SWAP1 POP JUMP JUMPDEST PUSH2 0x153D DUP2 PUSH2 0x152B JUMP JUMPDEST DUP2 EQ PUSH2 0x1547 JUMPI PUSH0 DUP1 REVERT JUMPDEST POP JUMP JUMPDEST PUSH0 DUP2 CALLDATALOAD SWAP1 POP PUSH2 0x1558 DUP2 PUSH2 0x1534 JUMP JUMPDEST SWAP3 SWAP2 POP POP JUMP JUMPDEST PUSH0 PUSH1 0x20 DUP3 DUP5 SUB SLT ISZERO PUSH2 0x1573 JUMPI PUSH2 0x1572 PUSH2 0x105D JUMP JUMPDEST JUMPDEST PUSH0 PUSH2 0x1580 DUP5 DUP3 DUP6 ADD PUSH2 0x154A JUMP JUMPDEST SWAP2 POP POP SWAP3 SWAP2 POP POP JUMP JUMPDEST PUSH0 DUP2 ISZERO ISZERO SWAP1 POP SWAP2 SWAP1 POP JUMP JUMPDEST PUSH2 0x159D DUP2 PUSH2 0x1589 JUMP JUMPDEST DUP3 MSTORE POP POP JUMP JUMPDEST PUSH0 PUSH1 0x20 DUP3 ADD SWAP1 POP PUSH2 0x15B6 PUSH0 DUP4 ADD DUP5 PUSH2 0x1594 JUMP JUMPDEST SWAP3 SWAP2 POP POP JUMP JUMPDEST PUSH0 PUSH2 0x15C6 DUP3 PUSH2 0x1359 JUMP JUMPDEST SWAP1 POP SWAP2 SWAP1 POP JUMP JUMPDEST PUSH2 0x15D6 DUP2 PUSH2 0x15BC JUMP JUMPDEST DUP2 EQ PUSH2 0x15E0 JUMPI PUSH0 DUP1 REVERT JUMPDEST POP JUMP JUMPDEST PUSH0 DUP2 CALLDATALOAD SWAP1 POP PUSH2 0x15F1 DUP2 PUSH2 0x15CD JUMP JUMPDEST SWAP3 SWAP2 POP POP JUMP JUMPDEST PUSH0 DUP1 PUSH0 DUP1 PUSH1 0x80 DUP6 DUP8 SUB SLT ISZERO PUSH2 0x160F JUMPI PUSH2 0x160E PUSH2 0x105D JUMP JUMPDEST JUMPDEST PUSH0 PUSH2 0x161C DUP8 DUP3 DUP9 ADD PUSH2 0x15E3 JUMP JUMPDEST SWAP5 POP POP PUSH1 0x20 PUSH2 0x162D DUP8 DUP3 DUP9 ADD PUSH2 0x15E3 JUMP JUMPDEST SWAP4 POP POP PUSH1 0x40 PUSH2 0x163E DUP8 DUP3 DUP9 ADD PUSH2 0x1084 JUMP JUMPDEST SWAP3 POP POP PUSH1 0x60 PUSH2 0x164F DUP8 DUP3 DUP9 ADD PUSH2 0x1084 JUMP JUMPDEST SWAP2 POP POP SWAP3 SWAP6 SWAP2 SWAP5 POP SWAP3 POP JUMP JUMPDEST PUSH32 0x4578706972656400000000000000000000000000000000000000000000000000 PUSH0 DUP3 ADD MSTORE POP JUMP JUMPDEST PUSH0 PUSH2 0x168F PUSH1 0x7 DUP4 PUSH2 0x139C JUMP JUMPDEST SWAP2 POP PUSH2 0x169A DUP3 PUSH2 0x165B JUMP JUMPDEST PUSH1 0x20 DUP3 ADD SWAP1 POP SWAP2 SWAP1 POP JUMP JUMPDEST PUSH0 PUSH1 0x20 DUP3 ADD SWAP1 POP DUP2 DUP2 SUB PUSH0 DUP4 ADD MSTORE PUSH2 0x16BC DUP2 PUSH2 0x1683 JUMP JUMPDEST SWAP1 POP SWAP2 SWAP1 POP JUMP JUMPDEST PUSH32 0x546F6F206C617267650000000000000000000000000000000000000000000000 PUSH0 DUP3 ADD MSTORE POP JUMP JUMPDEST PUSH0 PUSH2 0x16F7 PUSH1 0x9 DUP4 PUSH2 0x139C JUMP JUMPDEST SWAP2 POP PUSH2 0x1702 DUP3 PUSH2 0x16C3 JUMP JUMPDEST PUSH1 0x20 DUP3 ADD SWAP1 POP SWAP2 SWAP1 POP JUMP JUMPDEST PUSH0 PUSH1 0x20 DUP3 ADD SWAP1 POP DUP2 DUP2 SUB PUSH0 DUP4 ADD MSTORE PUSH2 0x1724 DUP2 PUSH2 0x16EB JUMP JUMPDEST SWAP1 POP SWAP2 SWAP1 POP JUMP JUMPDEST PUSH0 DUP2 PUSH1 0x60 SHL SWAP1 POP SWAP2 SWAP1 POP JUMP JUMPDEST PUSH0 PUSH2 0x1741 DUP3 PUSH2 0x172B JUMP JUMPDEST SWAP1 POP SWAP2 SWAP1 POP JUMP JUMPDEST PUSH0 PUSH2 0x1752 DUP3 PUSH2 0x1737 JUMP JUMPDEST SWAP1 POP SWAP2 SWAP1 POP JUMP JUMPDEST PUSH2 0x176A PUSH2 0x1765 DUP3 PUSH2 0x1359 JUMP JUMPDEST PUSH2 0x1748 JUMP JUMPDEST DUP3 MSTORE POP POP JUMP JUMPDEST PUSH0 DUP2 SWAP1 POP SWAP2 SWAP1 POP JUMP JUMPDEST PUSH2 0x178A PUSH2 0x1785 DUP3 PUSH2 0x1065 JUMP JUMPDEST PUSH2 0x1770 JUMP JUMPDEST DUP3 MSTORE POP POP JUMP JUMPDEST PUSH0 PUSH2 0x179B DUP3 DUP8 PUSH2 0x1759 JUMP JUMPDEST PUSH1 0x14 DUP3 ADD SWAP2 POP PUSH2 0x17AB DUP3 DUP7 PUSH2 0x1779 JUMP JUMPDEST PUSH1 0x20 DUP3 ADD SWAP2 POP PUSH2 0x17BB DUP3 DUP6 PUSH2 0x1779 JUMP JUMPDEST PUSH1 0x20 DUP3 ADD SWAP2 POP PUSH2 0x17CB DUP3 DUP5 PUSH2 0x1779 JUMP JUMPDEST PUSH1 0x20 DUP3 ADD SWAP2 POP DUP2 SWAP1 POP SWAP6 SWAP5 POP POP POP POP POP JUMP JUMPDEST PUSH32 0x416C726561647920757365640000000000000000000000000000000000000000 PUSH0 DUP3 ADD MSTORE POP JUMP JUMPDEST PUSH0 PUSH2 0x1811 PUSH1 0xC DUP4 PUSH2 0x139C JUMP JUMPDEST SWAP2 POP PUSH2 0x181C DUP3 PUSH2 0x17DD JUMP JUMPDEST PUSH1 0x20 DUP3 ADD SWAP1 POP SWAP2 SWAP1 POP JUMP JUMPDEST PUSH0 PUSH1 0x20 DUP3 ADD SWAP1 POP DUP2 DUP2 SUB PUSH0 DUP4 ADD MSTORE PUSH2 0x183E DUP2 PUSH2 0x1805 JUMP JUMPDEST SWAP1 POP SWAP2 SWAP1 POP JUMP JUMPDEST PUSH0 DUP2 SWAP1 POP SWAP3 SWAP2 POP POP JUMP JUMPDEST PUSH32 0x19457468657265756D205369676E6564204D6573736167653A0A333200000000 PUSH0 DUP3 ADD MSTORE POP JUMP JUMPDEST PUSH0 PUSH2 0x1883 PUSH1 0x1C DUP4 PUSH2 0x1845 JUMP JUMPDEST SWAP2 POP PUSH2 0x188E DUP3 PUSH2 0x184F JUMP JUMPDEST PUSH1 0x1C DUP3 ADD SWAP1 POP SWAP2 SWAP1 POP JUMP JUMPDEST PUSH0 DUP2 SWAP1 POP SWAP2 SWAP1 POP JUMP JUMPDEST PUSH2 0x18B3 PUSH2 0x18AE DUP3 PUSH2 0x152B JUMP JUMPDEST PUSH2 0x1899 JUMP JUMPDEST DUP3 MSTORE POP POP JUMP JUMPDEST PUSH0 PUSH2 0x18C3 DUP3 PUSH2 0x1877 JUMP JUMPDEST SWAP2 POP PUSH2 0x18CF DUP3 DUP5 PUSH2 0x18A2 JUMP JUMPDEST PUSH1 0x20 DUP3 ADD SWAP2 POP DUP2 SWAP1 POP SWAP3 SWAP2 POP POP JUMP JUMPDEST PUSH32 0x496E76616C6964207369676E6572000000000000000000000000000000000000 PUSH0 DUP3 ADD MSTORE POP JUMP JUMPDEST PUSH0 PUSH2 0x1912 PUSH1 0xE DUP4 PUSH2 0x139C JUMP JUMPDEST SWAP2 POP PUSH2 0x191D DUP3 PUSH2 0x18DE JUMP JUMPDEST PUSH1 0x20 DUP3 ADD SWAP1 POP SWAP2 SWAP1 POP JUMP JUMPDEST PUSH0 PUSH1 0x20 DUP3 ADD SWAP1 POP DUP2 DUP2 SUB PUSH0 DUP4 ADD MSTORE PUSH2 0x193F DUP2 PUSH2 0x1906 JUMP JUMPDEST SWAP1 POP SWAP2 SWAP1 POP JUMP JUMPDEST PUSH32 0x4E487B7100000000000000000000000000000000000000000000000000000000 PUSH0 MSTORE PUSH1 0x11 PUSH1 0x4 MSTORE PUSH1 0x24 PUSH0 REVERT JUMPDEST PUSH0 PUSH2 0x197D DUP3 PUSH2 0x1065 JUMP JUMPDEST SWAP2 POP PUSH2 0x1988 DUP4 PUSH2 0x1065 JUMP JUMPDEST SWAP3 POP DUP3 DUP3 ADD SWAP1 POP DUP1 DUP3 GT ISZERO PUSH2 0x19A0 JUMPI PUSH2 0x199F PUSH2 0x1946 JUMP JUMPDEST JUMPDEST SWAP3 SWAP2 POP POP JUMP JUMPDEST PUSH32 0x4E487B7100000000000000000000000000000000000000000000000000000000 PUSH0 MSTORE PUSH1 0x22 PUSH1 0x4 MSTORE PUSH1 0x24 PUSH0 REVERT JUMPDEST PUSH0 PUSH1 0x2 DUP3 DIV SWAP1 POP PUSH1 0x1 DUP3 AND DUP1 PUSH2 0x19EA JUMPI PUSH1 0x7F DUP3 AND SWAP2 POP JUMPDEST PUSH1 0x20 DUP3 LT DUP2 SUB PUSH2 0x19FD JUMPI PUSH2 0x19FC PUSH2 0x19A6 JUMP JUMPDEST JUMPDEST POP SWAP2 SWAP1 POP JUMP JUMPDEST PUSH0 PUSH2 0x1A0D DUP3 PUSH2 0x1065 JUMP JUMPDEST SWAP2 POP PUSH32 0xFFFFFFFFFFFFFFFFFFFFFFFFFFFFFFFFFFFFFFFFFFFFFFFFFFFFFFFFFFFFFFFF DUP3 SUB PUSH2 0x1A3F JUMPI PUSH2 0x1A3E PUSH2 0x1946 JUMP JUMPDEST JUMPDEST PUSH1 0x1 DUP3 ADD SWAP1 POP SWAP2 SWAP1 POP JUMP JUMPDEST PUSH32 0x4E6F207265776172640000000000000000000000000000000000000000000000 PUSH0 DUP3 ADD MSTORE POP JUMP JUMPDEST PUSH0 PUSH2 0x1A7E PUSH1 0x9 DUP4 PUSH2 0x139C JUMP JUMPDEST SWAP2 POP PUSH2 0x1A89 DUP3 PUSH2 0x1A4A JUMP JUMPDEST PUSH1 0x20 DUP3 ADD SWAP1 POP SWAP2 SWAP1 POP JUMP JUMPDEST PUSH0 PUSH1 0x20 DUP3 ADD SWAP1 POP DUP2 DUP2 SUB PUSH0 DUP4 ADD MSTORE PUSH2 0x1AAB DUP2 PUSH2 0x1A72 JUMP JUMPDEST SWAP1 POP SWAP2 SWAP1 POP JUMP JUMPDEST PUSH32 0x4E487B7100000000000000000000000000000000000000000000000000000000 PUSH0 MSTORE PUSH1 0x32 PUSH1 0x4 MSTORE PUSH1 0x24 PUSH0 REVERT JUMPDEST PUSH2 0x1AE8 DUP2 PUSH2 0x152B JUMP JUMPDEST DUP3 MSTORE POP POP JUMP JUMPDEST PUSH0 PUSH1 0xFF DUP3 AND SWAP1 POP SWAP2 SWAP1 POP JUMP JUMPDEST PUSH2 0x1B03 DUP2 PUSH2 0x1AEE JUMP JUMPDEST DUP3 MSTORE POP POP JUMP JUMPDEST PUSH0 PUSH1 0x80 DUP3 ADD SWAP1 POP PUSH2 0x1B1C PUSH0 DUP4 ADD DUP8 PUSH2 0x1ADF JUMP JUMPDEST PUSH2 0x1B29 PUSH1 0x20 DUP4 ADD DUP7 PUSH2 0x1AFA JUMP JUMPDEST PUSH2 0x1B36 PUSH1 0x40 DUP4 ADD DUP6 PUSH2 0x1ADF JUMP JUMPDEST PUSH2 0x1B43 PUSH1 0x60 DUP4 ADD DUP5 PUSH2 0x1ADF JUMP JUMPDEST SWAP6 SWAP5 POP POP POP POP POP JUMP JUMPDEST PUSH0 DUP2 SWAP1 POP DUP2 PUSH0 MSTORE PUSH1 0x20 PUSH0 KECCAK256 SWAP1 POP SWAP2 SWAP1 POP JUMP JUMPDEST PUSH0 PUSH1 0x20 PUSH1 0x1F DUP4 ADD DIV SWAP1 POP SWAP2 SWAP1 POP JUMP JUMPDEST PUSH0 DUP3 DUP3 SHL SWAP1 POP SWAP3 SWAP2 POP POP JUMP JUMPDEST PUSH0 PUSH1 0x8 DUP4 MUL PUSH2 0x1BA8 PUSH32 0xFFFFFFFFFFFFFFFFFFFFFFFFFFFFFFFFFFFFFFFFFFFFFFFFFFFFFFFFFFFFFFFF DUP3 PUSH2 0x1B6D JUMP JUMPDEST PUSH2 0x1BB2 DUP7 DUP4 PUSH2 0x1B6D JUMP JUMPDEST SWAP6 POP DUP1 NOT DUP5 AND SWAP4 POP DUP1 DUP7 AND DUP5 OR SWAP3 POP POP POP SWAP4 SWAP3 POP POP POP JUMP JUMPDEST PUSH0 PUSH2 0x1BE4 PUSH2 0x1BDF PUSH2 0x1BDA DUP5 PUSH2 0x1065 JUMP JUMPDEST PUSH2 0x129E JUMP JUMPDEST PUSH2 0x1065 JUMP JUMPDEST SWAP1 POP SWAP2 SWAP1 POP JUMP JUMPDEST PUSH0 DUP2 SWAP1 POP SWAP2 SWAP1 POP JUMP JUMPDEST PUSH2 0x1BFD DUP4 PUSH2 0x1BCA JUMP JUMPDEST PUSH2 0x1C11 PUSH2 0x1C09 DUP3 PUSH2 0x1BEB JUMP JUMPDEST DUP5 DUP5 SLOAD PUSH2 0x1B79 JUMP JUMPDEST DUP3 SSTORE POP POP POP POP JUMP JUMPDEST PUSH0 SWAP1 JUMP JUMPDEST PUSH2 0x1C25 PUSH2 0x1C19 JUMP JUMPDEST PUSH2 0x1C30 DUP2 DUP5 DUP5 PUSH2 0x1BF4 JUMP JUMPDEST POP POP POP JUMP JUMPDEST JUMPDEST DUP2 DUP2 LT ISZERO PUSH2 0x1C53 JUMPI PUSH2 0x1C48 PUSH0 DUP3 PUSH2 0x1C1D JUMP JUMPDEST PUSH1 0x1 DUP2 ADD SWAP1 POP PUSH2 0x1C36 JUMP JUMPDEST POP POP JUMP JUMPDEST PUSH1 0x1F DUP3 GT ISZERO PUSH2 0x1C98 JUMPI PUSH2 0x1C69 DUP2 PUSH2 0x1B4C JUMP JUMPDEST PUSH2 0x1C72 DUP5 PUSH2 0x1B5E JUMP JUMPDEST DUP2 ADD PUSH1 0x20 DUP6 LT ISZERO PUSH2 0x1C81 JUMPI DUP2 SWAP1 POP JUMPDEST PUSH2 0x1C95 PUSH2 0x1C8D DUP6 PUSH2 0x1B5E JUMP JUMPDEST DUP4 ADD DUP3 PUSH2 0x1C35 JUMP JUMPDEST POP POP JUMPDEST POP POP POP JUMP JUMPDEST PUSH0 DUP3 DUP3 SHR SWAP1 POP SWAP3 SWAP2 POP POP JUMP JUMPDEST PUSH0 PUSH2 0x1CB8 PUSH0 NOT DUP5 PUSH1 0x8 MUL PUSH2 0x1C9D JUMP JUMPDEST NOT DUP1 DUP4 AND SWAP2 POP POP SWAP3 SWAP2 POP POP JUMP JUMPDEST PUSH0 PUSH2 0x1CD0 DUP4 DUP4 PUSH2 0x1CA9 JUMP JUMPDEST SWAP2 POP DUP3 PUSH1 0x2 MUL DUP3 OR SWAP1 POP SWAP3 SWAP2 POP POP JUMP JUMPDEST PUSH2 0x1CE9 DUP3 PUSH2 0x1392 JUMP JUMPDEST PUSH8 0xFFFFFFFFFFFFFFFF DUP2 GT ISZERO PUSH2 0x1D02 JUMPI PUSH2 0x1D01 PUSH2 0x10B0 JUMP JUMPDEST JUMPDEST PUSH2 0x1D0C DUP3 SLOAD PUSH2 0x19D3 JUMP JUMPDEST PUSH2 0x1D17 DUP3 DUP3 DUP6 PUSH2 0x1C57 JUMP JUMPDEST PUSH0 PUSH1 0x20 SWAP1 POP PUSH1 0x1F DUP4 GT PUSH1 0x1 DUP2 EQ PUSH2 0x1D48 JUMPI PUSH0 DUP5 ISZERO PUSH2 0x1D36 JUMPI DUP3 DUP8 ADD MLOAD SWAP1 POP JUMPDEST PUSH2 0x1D40 DUP6 DUP3 PUSH2 0x1CC5 JUMP JUMPDEST DUP7 SSTORE POP PUSH2 0x1DA7 JUMP JUMPDEST PUSH1 0x1F NOT DUP5 AND PUSH2 0x1D56 DUP7 PUSH2 0x1B4C JUMP JUMPDEST PUSH0 JUMPDEST DUP3 DUP2 LT ISZERO PUSH2 0x1D7D JUMPI DUP5 DUP10 ADD MLOAD DUP3 SSTORE PUSH1 0x1 DUP3 ADD SWAP2 POP PUSH1 0x20 DUP6 ADD SWAP5 POP PUSH1 0x20 DUP2 ADD SWAP1 POP PUSH2 0x1D58 JUMP JUMPDEST DUP7 DUP4 LT ISZERO PUSH2 0x1D9A JUMPI DUP5 DUP10 ADD MLOAD PUSH2 0x1D96 PUSH1 0x1F DUP10 AND DUP3 PUSH2 0x1CA9 JUMP JUMPDEST DUP4 SSTORE POP JUMPDEST PUSH1 0x1 PUSH1 0x2 DUP9 MUL ADD DUP9 SSTORE POP POP POP JUMPDEST POP POP POP POP POP POP JUMP JUMPDEST PUSH32 0x496E76616C6964207369676E6174757265000000000000000000000000000000 PUSH0 DUP3 ADD MSTORE POP JUMP JUMPDEST PUSH0 PUSH2 0x1DE3 PUSH1 0x11 DUP4 PUSH2 0x139C JUMP JUMPDEST SWAP2 POP PUSH2 0x1DEE DUP3 PUSH2 0x1DAF JUMP JUMPDEST PUSH1 0x20 DUP3 ADD SWAP1 POP SWAP2 SWAP1 POP JUMP JUMPDEST PUSH0 PUSH1 0x20 DUP3 ADD SWAP1 POP DUP2 DUP2 SUB PUSH0 DUP4 ADD MSTORE PUSH2 0x1E10 DUP2 PUSH2 0x1DD7 JUMP JUMPDEST SWAP1 POP SWAP2 SWAP1 POP JUMP INVALID LOG2 PUSH5 0x6970667358 0x22 SLT KECCAK256 PUSH30 0xF1C870F502C0A385D28D98CBEDDCCDBD6A06F17F8BB2C40AD0887DD02446 0xAF PUSH5 0x736F6C6343 STOP ADDMOD BYTE STOP CALLER "
		},
		"gasEstimates": {
			"creation": {
				"codeDepositCost": "1551400",
				"executionCost": "infinite",
				"totalCost": "infinite"
			},
			"external": {
				"MAX_TASK_REWARD()": "2535",
				"addPool(address,address,uint256,uint256)": "infinite",
				"claimTaskReward(uint256,uint256,uint256,bytes)": "infinite",
				"depositedTokens(address)": "2891",
				"notifications(uint256)": "infinite",
				"owner()": "2604",
				"poolCount()": "2513",
				"poolInfo(uint256)": "infinite",
				"renounceOwnership()": "infinite",
				"setMaxTaskReward(uint256)": "infinite",
				"setSigner(address)": "infinite",
				"signer()": "2576",
				"taskRewards(address)": "2825",
				"transferOwnership(address)": "infinite",
				"usedHashes(bytes32)": "2830",
				"userInfo(uint256,address)": "infinite",
				"withdrawTaskReward(uint256)": "infinite"
			},
			"internal": {
				"_createNotification(uint256,uint256,address,string memory)": "infinite",
				"recoverSigner(bytes32,bytes memory)": "infinite",
				"splitSignature(bytes memory)": "infinite"
			}
		},
		"methodIdentifiers": {
			"MAX_TASK_REWARD()": "f6dd6d8e",
			"addPool(address,address,uint256,uint256)": "c20632ba",
			"claimTaskReward(uint256,uint256,uint256,bytes)": "12dee883",
			"depositedTokens(address)": "c326bf4f",
			"notifications(uint256)": "34c1f944",
			"owner()": "8da5cb5b",
			"poolCount()": "f525cb68",
			"poolInfo(uint256)": "1526fe27",
			"renounceOwnership()": "715018a6",
			"setMaxTaskReward(uint256)": "c7f31b0c",
			"setSigner(address)": "6c19e783",
			"signer()": "238ac933",
			"taskRewards(address)": "53be657f",
			"transferOwnership(address)": "f2fde38b",
			"usedHashes(bytes32)": "aef18bf7",
			"userInfo(uint256,address)": "93f1a40b",
			"withdrawTaskReward(uint256)": "f307655b"
		}
	},
	"abi": [
		{
			"inputs": [
				{
					"internalType": "address",
					"name": "initialOwner",
					"type": "address"
				}
			],
			"stateMutability": "nonpayable",
			"type": "constructor"
		},
		{
			"inputs": [
				{
					"internalType": "address",
					"name": "owner",
					"type": "address"
				}
			],
			"name": "OwnableInvalidOwner",
			"type": "error"
		},
		{
			"inputs": [
				{
					"internalType": "address",
					"name": "account",
					"type": "address"
				}
			],
			"name": "OwnableUnauthorizedAccount",
			"type": "error"
		},
		{
			"inputs": [],
			"name": "ReentrancyGuardReentrantCall",
			"type": "error"
		},
		{
			"inputs": [
				{
					"internalType": "address",
					"name": "token",
					"type": "address"
				}
			],
			"name": "SafeERC20FailedOperation",
			"type": "error"
		},
		{
			"anonymous": false,
			"inputs": [
				{
					"indexed": true,
					"internalType": "address",
					"name": "previousOwner",
					"type": "address"
				},
				{
					"indexed": true,
					"internalType": "address",
					"name": "newOwner",
					"type": "address"
				}
			],
			"name": "OwnershipTransferred",
			"type": "event"
		},
		{
			"inputs": [],
			"name": "MAX_TASK_REWARD",
			"outputs": [
				{
					"internalType": "uint256",
					"name": "",
					"type": "uint256"
				}
			],
			"stateMutability": "view",
			"type": "function"
		},
		{
			"inputs": [
				{
					"internalType": "contract IERC20",
					"name": "_depositToken",
					"type": "address"
				},
				{
					"internalType": "contract IERC20",
					"name": "_rewardToken",
					"type": "address"
				},
				{
					"internalType": "uint256",
					"name": "_apy",
					"type": "uint256"
				},
				{
					"internalType": "uint256",
					"name": "_lockDays",
					"type": "uint256"
				}
			],
			"name": "addPool",
			"outputs": [],
			"stateMutability": "nonpayable",
			"type": "function"
		},
		{
			"inputs": [
				{
					"internalType": "uint256",
					"name": "amount",
					"type": "uint256"
				},
				{
					"internalType": "uint256",
					"name": "nonce",
					"type": "uint256"
				},
				{
					"internalType": "uint256",
					"name": "deadline",
					"type": "uint256"
				},
				{
					"internalType": "bytes",
					"name": "signature",
					"type": "bytes"
				}
			],
			"name": "claimTaskReward",
			"outputs": [],
			"stateMutability": "nonpayable",
			"type": "function"
		},
		{
			"inputs": [
				{
					"internalType": "address",
					"name": "",
					"type": "address"
				}
			],
			"name": "depositedTokens",
			"outputs": [
				{
					"internalType": "uint256",
					"name": "",
					"type": "uint256"
				}
			],
			"stateMutability": "view",
			"type": "function"
		},
		{
			"inputs": [
				{
					"internalType": "uint256",
					"name": "",
					"type": "uint256"
				}
			],
			"name": "notifications",
			"outputs": [
				{
					"internalType": "uint256",
					"name": "poolID",
					"type": "uint256"
				},
				{
					"internalType": "uint256",
					"name": "amount",
					"type": "uint256"
				},
				{
					"internalType": "address",
					"name": "user",
					"type": "address"
				},
				{
					"internalType": "string",
					"name": "typeOf",
					"type": "string"
				},
				{
					"internalType": "uint256",
					"name": "timestamp",
					"type": "uint256"
				}
			],
			"stateMutability": "view",
			"type": "function"
		},
		{
			"inputs": [],
			"name": "owner",
			"outputs": [
				{
					"internalType": "address",
					"name": "",
					"type": "address"
				}
			],
			"stateMutability": "view",
			"type": "function"
		},
		{
			"inputs": [],
			"name": "poolCount",
			"outputs": [
				{
					"internalType": "uint256",
					"name": "",
					"type": "uint256"
				}
			],
			"stateMutability": "view",
			"type": "function"
		},
		{
			"inputs": [
				{
					"internalType": "uint256",
					"name": "",
					"type": "uint256"
				}
			],
			"name": "poolInfo",
			"outputs": [
				{
					"internalType": "contract IERC20",
					"name": "depositToken",
					"type": "address"
				},
				{
					"internalType": "contract IERC20",
					"name": "rewardToken",
					"type": "address"
				},
				{
					"internalType": "uint256",
					"name": "depositedAmount",
					"type": "uint256"
				},
				{
					"internalType": "uint256",
					"name": "apy",
					"type": "uint256"
				},
				{
					"internalType": "uint256",
					"name": "lockDays",
					"type": "uint256"
				}
			],
			"stateMutability": "view",
			"type": "function"
		},
		{
			"inputs": [],
			"name": "renounceOwnership",
			"outputs": [],
			"stateMutability": "nonpayable",
			"type": "function"
		},
		{
			"inputs": [
				{
					"internalType": "uint256",
					"name": "_amount",
					"type": "uint256"
				}
			],
			"name": "setMaxTaskReward",
			"outputs": [],
			"stateMutability": "nonpayable",
			"type": "function"
		},
		{
			"inputs": [
				{
					"internalType": "address",
					"name": "_signer",
					"type": "address"
				}
			],
			"name": "setSigner",
			"outputs": [],
			"stateMutability": "nonpayable",
			"type": "function"
		},
		{
			"inputs": [],
			"name": "signer",
			"outputs": [
				{
					"internalType": "address",
					"name": "",
					"type": "address"
				}
			],
			"stateMutability": "view",
			"type": "function"
		},
		{
			"inputs": [
				{
					"internalType": "address",
					"name": "",
					"type": "address"
				}
			],
			"name": "taskRewards",
			"outputs": [
				{
					"internalType": "uint256",
					"name": "",
					"type": "uint256"
				}
			],
			"stateMutability": "view",
			"type": "function"
		},
		{
			"inputs": [
				{
					"internalType": "address",
					"name": "newOwner",
					"type": "address"
				}
			],
			"name": "transferOwnership",
			"outputs": [],
			"stateMutability": "nonpayable",
			"type": "function"
		},
		{
			"inputs": [
				{
					"internalType": "bytes32",
					"name": "",
					"type": "bytes32"
				}
			],
			"name": "usedHashes",
			"outputs": [
				{
					"internalType": "bool",
					"name": "",
					"type": "bool"
				}
			],
			"stateMutability": "view",
			"type": "function"
		},
		{
			"inputs": [
				{
					"internalType": "uint256",
					"name": "",
					"type": "uint256"
				},
				{
					"internalType": "address",
					"name": "",
					"type": "address"
				}
			],
			"name": "userInfo",
			"outputs": [
				{
					"internalType": "uint256",
					"name": "amount",
					"type": "uint256"
				},
				{
					"internalType": "uint256",
					"name": "lastRewardAt",
					"type": "uint256"
				},
				{
					"internalType": "uint256",
					"name": "lockUntil",
					"type": "uint256"
				}
			],
			"stateMutability": "view",
			"type": "function"
		},
		{
			"inputs": [
				{
					"internalType": "uint256",
					"name": "_pid",
					"type": "uint256"
				}
			],
			"name": "withdrawTaskReward",
			"outputs": [],
			"stateMutability": "nonpayable",
			"type": "function"
		}
	]
}