{
	"data": {
		"bytecode": {
			"linkReferences": {},
			"object": "6080604052670de0b6b3a76400006003556802b5e3af16b1880000600455348015610028575f80fd5b5060405161361a38038061361a833981810160405281019061004a9190610246565b805f73ffffffffffffffffffffffffffffffffffffffff168173ffffffffffffffffffffffffffffffffffffffff16036100bb575f6040517f1e4fbdf70000000000000000000000000000000000000000000000000000000081526004016100b29190610280565b60405180910390fd5b6100ca816100f560201b60201c565b5060016100e96100de6101b660201b60201c565b6101df60201b60201c565b5f018190555050610299565b5f805f9054906101000a900473ffffffffffffffffffffffffffffffffffffffff169050815f806101000a81548173ffffffffffffffffffffffffffffffffffffffff021916908373ffffffffffffffffffffffffffffffffffffffff1602179055508173ffffffffffffffffffffffffffffffffffffffff168173ffffffffffffffffffffffffffffffffffffffff167f8be0079c531659141344cd1fd0a4f28419497f9722a3daafe3b4186f6b6457e060405160405180910390a35050565b5f7f9b779b17422d0df92223018b32b4d1fa46e071723d6817e2486d003becc55f005f1b905090565b5f819050919050565b5f80fd5b5f73ffffffffffffffffffffffffffffffffffffffff82169050919050565b5f610215826101ec565b9050919050565b6102258161020b565b811461022f575f80fd5b50565b5f815190506102408161021c565b92915050565b5f6020828403121561025b5761025a6101e8565b5b5f61026884828501610232565b91505092915050565b61027a8161020b565b82525050565b5f6020820190506102935f830184610271565b92915050565b613374806102a65f395ff3fe60806040526004361061019b575f3560e01c8063ae169a50116100eb578063c8e7711f11610089578063f0f4426011610063578063f0f44260146105c5578063f2fde38b146105ed578063f525cb6814610615578063f6dd6d8e1461063f5761019b565b8063c8e7711f14610543578063cf48bd2c1461057f578063d3287437146105a95761019b565b8063c0dcd954116100c5578063c0dcd9541461048d578063c20632ba146104b7578063c326bf4f146104df578063c4590d3f1461051b5761019b565b8063ae169a50146103ff578063aef18bf714610427578063b0c9fbc1146104635761019b565b806361d027b3116101585780638da5cb5b116101325780638da5cb5b1461033157806393f1a40b1461035b57806398969e8214610399578063a80a7882146103d55761019b565b806361d027b3146102c95780636c19e783146102f3578063715018a61461031b5761019b565b80630b78f9c01461019f5780631526fe27146101c7578063238ac9331461020757806334c1f94414610231578063441a3e701461027157806353be657f1461028d575b5f80fd5b3480156101aa575f80fd5b506101c560048036038101906101c09190612018565b610669565b005b3480156101d2575f80fd5b506101ed60048036038101906101e89190612056565b610683565b6040516101fe95949392919061210a565b60405180910390f35b348015610212575f80fd5b5061021b610702565b604051610228919061217b565b60405180910390f35b34801561023c575f80fd5b5061025760048036038101906102529190612056565b610727565b604051610268959493929190612204565b60405180910390f35b61028b60048036038101906102869190612018565b61080d565b005b348015610298575f80fd5b506102b360048036038101906102ae9190612286565b610c50565b6040516102c091906122b1565b60405180910390f35b3480156102d4575f80fd5b506102dd610c65565b6040516102ea919061217b565b60405180910390f35b3480156102fe575f80fd5b5061031960048036038101906103149190612286565b610c8a565b005b348015610326575f80fd5b5061032f610cd5565b005b34801561033c575f80fd5b50610345610ce8565b604051610352919061217b565b60405180910390f35b348015610366575f80fd5b50610381600480360381019061037c91906122ca565b610d0f565b60405161039093929190612308565b60405180910390f35b3480156103a4575f80fd5b506103bf60048036038101906103ba91906122ca565b610d40565b6040516103cc91906122b1565b60405180910390f35b3480156103e0575f80fd5b506103e9610dc6565b6040516103f691906122b1565b60405180910390f35b34801561040a575f80fd5b5061042560048036038101906104209190612056565b610dcc565b005b348015610432575f80fd5b5061044d60048036038101906104489190612370565b610f63565b60405161045a91906123b5565b60405180910390f35b34801561046e575f80fd5b50610477610f80565b60405161048491906122b1565b60405180910390f35b348015610498575f80fd5b506104a1610f86565b6040516104ae91906122b1565b60405180910390f35b3480156104c2575f80fd5b506104dd60048036038101906104d89190612409565b610f8c565b005b3480156104ea575f80fd5b5061050560048036038101906105009190612286565b6110d6565b60405161051291906122b1565b60405180910390f35b348015610526575f80fd5b50610541600480360381019061053c9190612018565b6110eb565b005b34801561054e575f80fd5b506105696004803603810190610564919061246d565b611105565b60405161057691906122b1565b60405180910390f35b34801561058a575f80fd5b50610593611125565b6040516105a0919061263f565b60405180910390f35b6105c360048036038101906105be919061278b565b611283565b005b3480156105d0575f80fd5b506105eb60048036038101906105e69190612286565b6117c7565b005b3480156105f8575f80fd5b50610613600480360381019061060e9190612286565b611812565b005b348015610620575f80fd5b50610629611896565b60405161063691906122b1565b60405180910390f35b34801561064a575f80fd5b5061065361189c565b60405161066091906122b1565b60405180910390f35b6106716118a2565b81600581905550806006819055505050565b600b8181548110610692575f80fd5b905f5260205f2090600502015f91509050805f015f9054906101000a900473ffffffffffffffffffffffffffffffffffffffff1690806001015f9054906101000a900473ffffffffffffffffffffffffffffffffffffffff16908060020154908060030154908060040154905085565b60015f9054906101000a900473ffffffffffffffffffffffffffffffffffffffff1681565b600e8181548110610736575f80fd5b905f5260205f2090600502015f91509050805f015490806001015490806002015f9054906101000a900473ffffffffffffffffffffffffffffffffffffffff16908060030180546107869061285d565b80601f01602080910402602001604051908101604052809291908181526020018280546107b29061285d565b80156107fd5780601f106107d4576101008083540402835291602001916107fd565b820191905f5260205f20905b8154815290600101906020018083116107e057829003601f168201915b5050505050908060040154905085565b610815611929565b5f600b838154811061082a5761082961288d565b5b905f5260205f20906005020190505f600c5f8581526020019081526020015f205f3373ffffffffffffffffffffffffffffffffffffffff1673ffffffffffffffffffffffffffffffffffffffff1681526020019081526020015f20905082815f015410156108cd576040517f08c379a00000000000000000000000000000000000000000000000000000000081526004016108c490612904565b60405180910390fd5b5f610900826040518060600160405290815f8201548152602001600182015481526020016002820154815250508661194b565b90505f82600201544210905080801561091a57505f600654115b156109cc57600654341015610964576040517f08c379a000000000000000000000000000000000000000000000000000000000815260040161095b9061296c565b60405180910390fd5b60025f9054906101000a900473ffffffffffffffffffffffffffffffffffffffff1673ffffffffffffffffffffffffffffffffffffffff166108fc60065490811502906040515f60405180830381858888f193505050501580156109ca573d5f803e3d5ffd5b505b5f821115610a2357610a223383866001015f9054906101000a900473ffffffffffffffffffffffffffffffffffffffff1673ffffffffffffffffffffffffffffffffffffffff16611aab9092919063ffffffff16565b5b5f851115610bf65784835f015f828254610a3d91906129b7565b9250508190555084846002015f828254610a5791906129b7565b9250508190555084600d5f865f015f9054906101000a900473ffffffffffffffffffffffffffffffffffffffff1673ffffffffffffffffffffffffffffffffffffffff1673ffffffffffffffffffffffffffffffffffffffff1681526020019081526020015f205f828254610acc91906129b7565b925050819055508015610ba7575f6064601487610ae991906129ea565b610af39190612a58565b90505f8187610b0291906129b7565b9050610b513382885f015f9054906101000a900473ffffffffffffffffffffffffffffffffffffffff1673ffffffffffffffffffffffffffffffffffffffff16611aab9092919063ffffffff16565b610ba061dead83885f015f9054906101000a900473ffffffffffffffffffffffffffffffffffffffff1673ffffffffffffffffffffffffffffffffffffffff16611aab9092919063ffffffff16565b5050610bf5565b610bf43386865f015f9054906101000a900473ffffffffffffffffffffffffffffffffffffffff1673ffffffffffffffffffffffffffffffffffffffff16611aab9092919063ffffffff16565b5b5b428360010181905550610c408686336040518060400160405280600881526020017f5769746864726177000000000000000000000000000000000000000000000000815250611afe565b50505050610c4c611be3565b5050565b6008602052805f5260405f205f915090505481565b60025f9054906101000a900473ffffffffffffffffffffffffffffffffffffffff1681565b610c926118a2565b8060015f6101000a81548173ffffffffffffffffffffffffffffffffffffffff021916908373ffffffffffffffffffffffffffffffffffffffff16021790555050565b610cdd6118a2565b610ce65f611bfd565b565b5f805f9054906101000a900473ffffffffffffffffffffffffffffffffffffffff16905090565b600c602052815f5260405f20602052805f5260405f205f9150915050805f0154908060010154908060020154905083565b5f610dbe600c5f8581526020019081526020015f205f8473ffffffffffffffffffffffffffffffffffffffff1673ffffffffffffffffffffffffffffffffffffffff1681526020019081526020015f206040518060600160405290815f8201548152602001600182015481526020016002820154815250508461194b565b905092915050565b60065481565b610dd4611929565b5f600b8281548110610de957610de861288d565b5b905f5260205f20906005020190505f600c5f8481526020019081526020015f205f3373ffffffffffffffffffffffffffffffffffffffff1673ffffffffffffffffffffffffffffffffffffffff1681526020019081526020015f2090505f610e79826040518060600160405290815f8201548152602001600182015481526020016002820154815250508561194b565b90505f8111610ebd576040517f08c379a0000000000000000000000000000000000000000000000000000000008152600401610eb490612ad2565b60405180910390fd5b428260010181905550610f143382856001015f9054906101000a900473ffffffffffffffffffffffffffffffffffffffff1673ffffffffffffffffffffffffffffffffffffffff16611aab9092919063ffffffff16565b610f558482336040518060400160405280600b81526020017f436c61696d526577617264000000000000000000000000000000000000000000815250611afe565b505050610f60611be3565b50565b6007602052805f5260405f205f915054906101000a900460ff1681565b60045481565b60055481565b610f946118a2565b600b6040518060a001604052808673ffffffffffffffffffffffffffffffffffffffff1681526020018573ffffffffffffffffffffffffffffffffffffffff1681526020015f815260200184815260200183815250908060018154018082558091505060019003905f5260205f2090600502015f909190919091505f820151815f015f6101000a81548173ffffffffffffffffffffffffffffffffffffffff021916908373ffffffffffffffffffffffffffffffffffffffff1602179055506020820151816001015f6101000a81548173ffffffffffffffffffffffffffffffffffffffff021916908373ffffffffffffffffffffffffffffffffffffffff1602179055506040820151816002015560608201518160030155608082015181600401555050600a5f8154809291906110cb90612af0565b919050555050505050565b600d602052805f5260405f205f915090505481565b6110f36118a2565b81600381905550806004819055505050565b6009602052815f5260405f20602052805f5260405f205f91509150505481565b6060600e805480602002602001604051908101604052809291908181526020015f905b8282101561127a578382905f5260205f2090600502016040518060a00160405290815f820154815260200160018201548152602001600282015f9054906101000a900473ffffffffffffffffffffffffffffffffffffffff1673ffffffffffffffffffffffffffffffffffffffff1673ffffffffffffffffffffffffffffffffffffffff1681526020016003820180546111e19061285d565b80601f016020809104026020016040519081016040528092919081815260200182805461120d9061285d565b80156112585780601f1061122f57610100808354040283529160200191611258565b820191905f5260205f20905b81548152906001019060200180831161123b57829003601f168201915b5050505050815260200160048201548152505081526020019060010190611148565b50505050905090565b61128b611929565b814211156112ce576040517f08c379a00000000000000000000000000000000000000000000000000000000081526004016112c590612b81565b60405180910390fd5b838614611310576040517f08c379a000000000000000000000000000000000000000000000000000000000815260040161130790612be9565b60405180910390fd5b600a548410611354576040517f08c379a000000000000000000000000000000000000000000000000000000000815260040161134b90612c51565b60405180910390fd5b60085f3373ffffffffffffffffffffffffffffffffffffffff1673ffffffffffffffffffffffffffffffffffffffff1681526020019081526020015f20548511156113d4576040517f08c379a00000000000000000000000000000000000000000000000000000000081526004016113cb90612cb9565b60405180910390fd5b5f62015180426113e49190612a58565b90506004548660095f3373ffffffffffffffffffffffffffffffffffffffff1673ffffffffffffffffffffffffffffffffffffffff1681526020019081526020015f205f8481526020019081526020015f20546114419190612cd7565b1115611482576040517f08c379a000000000000000000000000000000000000000000000000000000000815260040161147990612d54565b60405180910390fd5b5f338787878760405160200161149c959493929190612dd7565b60405160208183030381529060405280519060200120905060075f8281526020019081526020015f205f9054906101000a900460ff1615611512576040517f08c379a000000000000000000000000000000000000000000000000000000000815260040161150990612e7f565b60405180910390fd5b5f816040516020016115249190612f11565b60405160208183030381529060405280519060200120905060015f9054906101000a900473ffffffffffffffffffffffffffffffffffffffff1673ffffffffffffffffffffffffffffffffffffffff1661157e8286611cbe565b73ffffffffffffffffffffffffffffffffffffffff16146115d4576040517f08c379a00000000000000000000000000000000000000000000000000000000081526004016115cb90612f80565b60405180910390fd5b600160075f8481526020019081526020015f205f6101000a81548160ff0219169083151502179055508760095f3373ffffffffffffffffffffffffffffffffffffffff1673ffffffffffffffffffffffffffffffffffffffff1681526020019081526020015f205f8581526020019081526020015f205f8282546116589190612cd7565b925050819055508760085f3373ffffffffffffffffffffffffffffffffffffffff1673ffffffffffffffffffffffffffffffffffffffff1681526020019081526020015f205f8282546116ab91906129b7565b925050819055505f600554111561176957600554341015611701576040517f08c379a00000000000000000000000000000000000000000000000000000000081526004016116f890612fe8565b60405180910390fd5b60025f9054906101000a900473ffffffffffffffffffffffffffffffffffffffff1673ffffffffffffffffffffffffffffffffffffffff166108fc60055490811502906040515f60405180830381858888f19350505050158015611767573d5f803e3d5ffd5b505b6117738989611d28565b6117b48989336040518060400160405280600d81526020017f436c61696d416e645374616b6500000000000000000000000000000000000000815250611afe565b5050506117bf611be3565b505050505050565b6117cf6118a2565b8060025f6101000a81548173ffffffffffffffffffffffffffffffffffffffff021916908373ffffffffffffffffffffffffffffffffffffffff16021790555050565b61181a6118a2565b5f73ffffffffffffffffffffffffffffffffffffffff168173ffffffffffffffffffffffffffffffffffffffff160361188a575f6040517f1e4fbdf7000000000000000000000000000000000000000000000000000000008152600401611881919061217b565b60405180910390fd5b61189381611bfd565b50565b600a5481565b60035481565b6118aa611e77565b73ffffffffffffffffffffffffffffffffffffffff166118c8610ce8565b73ffffffffffffffffffffffffffffffffffffffff1614611927576118eb611e77565b6040517f118cdaa700000000000000000000000000000000000000000000000000000000815260040161191e919061217b565b60405180910390fd5b565b611931611e7e565b600261194361193e611ebf565b611ee8565b5f0181905550565b5f80600b83815481106119615761196061288d565b5b905f5260205f2090600502016040518060a00160405290815f82015f9054906101000a900473ffffffffffffffffffffffffffffffffffffffff1673ffffffffffffffffffffffffffffffffffffffff1673ffffffffffffffffffffffffffffffffffffffff168152602001600182015f9054906101000a900473ffffffffffffffffffffffffffffffffffffffff1673ffffffffffffffffffffffffffffffffffffffff1673ffffffffffffffffffffffffffffffffffffffff168152602001600282015481526020016003820154815260200160048201548152505090505f62015180856020015142611a5691906129b7565b611a609190612a58565b90508160800151811115611a7657816080015190505b618e94826060015182875f0151611a8d91906129ea565b611a9791906129ea565b611aa19190612a58565b9250505092915050565b611ab88383836001611ef1565b611af957826040517f5274afe7000000000000000000000000000000000000000000000000000000008152600401611af0919061217b565b60405180910390fd5b505050565b600e6040518060a001604052808681526020018581526020018473ffffffffffffffffffffffffffffffffffffffff16815260200183815260200142815250908060018154018082558091505060019003905f5260205f2090600502015f909190919091505f820151815f0155602082015181600101556040820151816002015f6101000a81548173ffffffffffffffffffffffffffffffffffffffff021916908373ffffffffffffffffffffffffffffffffffffffff1602179055506060820151816003019081611bd0919061319a565b5060808201518160040155505050505050565b6001611bf5611bf0611ebf565b611ee8565b5f0181905550565b5f805f9054906101000a900473ffffffffffffffffffffffffffffffffffffffff169050815f806101000a81548173ffffffffffffffffffffffffffffffffffffffff021916908373ffffffffffffffffffffffffffffffffffffffff1602179055508173ffffffffffffffffffffffffffffffffffffffff168173ffffffffffffffffffffffffffffffffffffffff167f8be0079c531659141344cd1fd0a4f28419497f9722a3daafe3b4186f6b6457e060405160405180910390a35050565b5f805f80611ccb85611f53565b9250925092506001868285856040515f8152602001604052604051611cf39493929190613293565b6020604051602081039080840390855afa158015611d13573d5f803e3d5ffd5b50505060206040510351935050505092915050565b5f600b8381548110611d3d57611d3c61288d565b5b905f5260205f20906005020190505f600c5f8581526020019081526020015f205f3373ffffffffffffffffffffffffffffffffffffffff1673ffffffffffffffffffffffffffffffffffffffff1681526020019081526020015f20905082826002015f828254611dad9190612cd7565b9250508190555082815f015f828254611dc69190612cd7565b92505081905550428160010181905550620151808260040154611de991906129ea565b42611df49190612cd7565b816002018190555082600d5f845f015f9054906101000a900473ffffffffffffffffffffffffffffffffffffffff1673ffffffffffffffffffffffffffffffffffffffff1673ffffffffffffffffffffffffffffffffffffffff1681526020019081526020015f205f828254611e6a9190612cd7565b9250508190555050505050565b5f33905090565b611e86611fb8565b15611ebd576040517f3ee5aeb500000000000000000000000000000000000000000000000000000000815260040160405180910390fd5b565b5f7f9b779b17422d0df92223018b32b4d1fa46e071723d6817e2486d003becc55f005f1b905090565b5f819050919050565b5f8063a9059cbb60e01b9050604051815f525f1960601c86166004528460245260205f60445f808b5af1925060015f51148316611f45578383151615611f39573d5f823e3d81fd5b5f873b113d1516831692505b806040525050949350505050565b5f805f6041845114611f9a576040517f08c379a0000000000000000000000000000000000000000000000000000000008152600401611f9190613320565b60405180910390fd5b602084015192506040840151915060608401515f1a90509193909250565b5f6002611fcb611fc6611ebf565b611ee8565b5f015414905090565b5f604051905090565b5f80fd5b5f80fd5b5f819050919050565b611ff781611fe5565b8114612001575f80fd5b50565b5f8135905061201281611fee565b92915050565b5f806040838503121561202e5761202d611fdd565b5b5f61203b85828601612004565b925050602061204c85828601612004565b9150509250929050565b5f6020828403121561206b5761206a611fdd565b5b5f61207884828501612004565b91505092915050565b5f73ffffffffffffffffffffffffffffffffffffffff82169050919050565b5f819050919050565b5f6120c36120be6120b984612081565b6120a0565b612081565b9050919050565b5f6120d4826120a9565b9050919050565b5f6120e5826120ca565b9050919050565b6120f5816120db565b82525050565b61210481611fe5565b82525050565b5f60a08201905061211d5f8301886120ec565b61212a60208301876120ec565b61213760408301866120fb565b61214460608301856120fb565b61215160808301846120fb565b9695505050505050565b5f61216582612081565b9050919050565b6121758161215b565b82525050565b5f60208201905061218e5f83018461216c565b92915050565b5f81519050919050565b5f82825260208201905092915050565b8281835e5f83830152505050565b5f601f19601f8301169050919050565b5f6121d682612194565b6121e0818561219e565b93506121f08185602086016121ae565b6121f9816121bc565b840191505092915050565b5f60a0820190506122175f8301886120fb565b61222460208301876120fb565b612231604083018661216c565b818103606083015261224381856121cc565b905061225260808301846120fb565b9695505050505050565b6122658161215b565b811461226f575f80fd5b50565b5f813590506122808161225c565b92915050565b5f6020828403121561229b5761229a611fdd565b5b5f6122a884828501612272565b91505092915050565b5f6020820190506122c45f8301846120fb565b92915050565b5f80604083850312156122e0576122df611fdd565b5b5f6122ed85828601612004565b92505060206122fe85828601612272565b9150509250929050565b5f60608201905061231b5f8301866120fb565b61232860208301856120fb565b61233560408301846120fb565b949350505050565b5f819050919050565b61234f8161233d565b8114612359575f80fd5b50565b5f8135905061236a81612346565b92915050565b5f6020828403121561238557612384611fdd565b5b5f6123928482850161235c565b91505092915050565b5f8115159050919050565b6123af8161239b565b82525050565b5f6020820190506123c85f8301846123a6565b92915050565b5f6123d88261215b565b9050919050565b6123e8816123ce565b81146123f2575f80fd5b50565b5f81359050612403816123df565b92915050565b5f805f806080858703121561242157612420611fdd565b5b5f61242e878288016123f5565b945050602061243f878288016123f5565b935050604061245087828801612004565b925050606061246187828801612004565b91505092959194509250565b5f806040838503121561248357612482611fdd565b5b5f61249085828601612272565b92505060206124a185828601612004565b9150509250929050565b5f81519050919050565b5f82825260208201905092915050565b5f819050602082019050919050565b6124dd81611fe5565b82525050565b6124ec8161215b565b82525050565b5f82825260208201905092915050565b5f61250c82612194565b61251681856124f2565b93506125268185602086016121ae565b61252f816121bc565b840191505092915050565b5f60a083015f83015161254f5f8601826124d4565b50602083015161256260208601826124d4565b50604083015161257560408601826124e3565b506060830151848203606086015261258d8282612502565b91505060808301516125a260808601826124d4565b508091505092915050565b5f6125b8838361253a565b905092915050565b5f602082019050919050565b5f6125d6826124ab565b6125e081856124b5565b9350836020820285016125f2856124c5565b805f5b8581101561262d578484038952815161260e85826125ad565b9450612619836125c0565b925060208a019950506001810190506125f5565b50829750879550505050505092915050565b5f6020820190508181035f83015261265781846125cc565b905092915050565b5f80fd5b5f80fd5b7f4e487b71000000000000000000000000000000000000000000000000000000005f52604160045260245ffd5b61269d826121bc565b810181811067ffffffffffffffff821117156126bc576126bb612667565b5b80604052505050565b5f6126ce611fd4565b90506126da8282612694565b919050565b5f67ffffffffffffffff8211156126f9576126f8612667565b5b612702826121bc565b9050602081019050919050565b828183375f83830152505050565b5f61272f61272a846126df565b6126c5565b90508281526020810184848401111561274b5761274a612663565b5b61275684828561270f565b509392505050565b5f82601f8301126127725761277161265f565b5b813561278284826020860161271d565b91505092915050565b5f805f805f8060c087890312156127a5576127a4611fdd565b5b5f6127b289828a01612004565b96505060206127c389828a01612004565b95505060406127d489828a01612004565b94505060606127e589828a01612004565b93505060806127f689828a01612004565b92505060a087013567ffffffffffffffff81111561281757612816611fe1565b5b61282389828a0161275e565b9150509295509295509295565b7f4e487b71000000000000000000000000000000000000000000000000000000005f52602260045260245ffd5b5f600282049050600182168061287457607f821691505b60208210810361288757612886612830565b5b50919050565b7f4e487b71000000000000000000000000000000000000000000000000000000005f52603260045260245ffd5b7f546f6f206d7563680000000000000000000000000000000000000000000000005f82015250565b5f6128ee60088361219e565b91506128f9826128ba565b602082019050919050565b5f6020820190508181035f83015261291b816128e2565b9050919050565b7f46656520726571756972656400000000000000000000000000000000000000005f82015250565b5f612956600c8361219e565b915061296182612922565b602082019050919050565b5f6020820190508181035f8301526129838161294a565b9050919050565b7f4e487b71000000000000000000000000000000000000000000000000000000005f52601160045260245ffd5b5f6129c182611fe5565b91506129cc83611fe5565b92508282039050818111156129e4576129e361298a565b5b92915050565b5f6129f482611fe5565b91506129ff83611fe5565b9250828202612a0d81611fe5565b91508282048414831517612a2457612a2361298a565b5b5092915050565b7f4e487b71000000000000000000000000000000000000000000000000000000005f52601260045260245ffd5b5f612a6282611fe5565b9150612a6d83611fe5565b925082612a7d57612a7c612a2b565b5b828204905092915050565b7f4e6f2072657761726400000000000000000000000000000000000000000000005f82015250565b5f612abc60098361219e565b9150612ac782612a88565b602082019050919050565b5f6020820190508181035f830152612ae981612ab0565b9050919050565b5f612afa82611fe5565b91507fffffffffffffffffffffffffffffffffffffffffffffffffffffffffffffffff8203612b2c57612b2b61298a565b5b600182019050919050565b7f45787069726564000000000000000000000000000000000000000000000000005f82015250565b5f612b6b60078361219e565b9150612b7682612b37565b602082019050919050565b5f6020820190508181035f830152612b9881612b5f565b9050919050565b7f506f6f6c206d69736d61746368000000000000000000000000000000000000005f82015250565b5f612bd3600d8361219e565b9150612bde82612b9f565b602082019050919050565b5f6020820190508181035f830152612c0081612bc7565b9050919050565b7f496e76616c696420706f6f6c00000000000000000000000000000000000000005f82015250565b5f612c3b600c8361219e565b9150612c4682612c07565b602082019050919050565b5f6020820190508181035f830152612c6881612c2f565b9050919050565b7f45786365656473207265776172642062616c616e6365000000000000000000005f82015250565b5f612ca360168361219e565b9150612cae82612c6f565b602082019050919050565b5f6020820190508181035f830152612cd081612c97565b9050919050565b5f612ce182611fe5565b9150612cec83611fe5565b9250828201905080821115612d0457612d0361298a565b5b92915050565b7f4461696c79206c696d69742072656163686564000000000000000000000000005f82015250565b5f612d3e60138361219e565b9150612d4982612d0a565b602082019050919050565b5f6020820190508181035f830152612d6b81612d32565b9050919050565b5f8160601b9050919050565b5f612d8882612d72565b9050919050565b5f612d9982612d7e565b9050919050565b612db1612dac8261215b565b612d8f565b82525050565b5f819050919050565b612dd1612dcc82611fe5565b612db7565b82525050565b5f612de28288612da0565b601482019150612df28287612dc0565b602082019150612e028286612dc0565b602082019150612e128285612dc0565b602082019150612e228284612dc0565b6020820191508190509695505050505050565b7f5265706c617920646574656374656400000000000000000000000000000000005f82015250565b5f612e69600f8361219e565b9150612e7482612e35565b602082019050919050565b5f6020820190508181035f830152612e9681612e5d565b9050919050565b5f81905092915050565b7f19457468657265756d205369676e6564204d6573736167653a0a3332000000005f82015250565b5f612edb601c83612e9d565b9150612ee682612ea7565b601c82019050919050565b5f819050919050565b612f0b612f068261233d565b612ef1565b82525050565b5f612f1b82612ecf565b9150612f278284612efa565b60208201915081905092915050565b7f496e76616c6964207369676e65720000000000000000000000000000000000005f82015250565b5f612f6a600e8361219e565b9150612f7582612f36565b602082019050919050565b5f6020820190508181035f830152612f9781612f5e565b9050919050565b7f496e73756666696369656e7420666565000000000000000000000000000000005f82015250565b5f612fd260108361219e565b9150612fdd82612f9e565b602082019050919050565b5f6020820190508181035f830152612fff81612fc6565b9050919050565b5f819050815f5260205f209050919050565b5f6020601f8301049050919050565b5f82821b905092915050565b5f600883026130627fffffffffffffffffffffffffffffffffffffffffffffffffffffffffffffffff82613027565b61306c8683613027565b95508019841693508086168417925050509392505050565b5f61309e61309961309484611fe5565b6120a0565b611fe5565b9050919050565b5f819050919050565b6130b783613084565b6130cb6130c3826130a5565b848454613033565b825550505050565b5f90565b6130df6130d3565b6130ea8184846130ae565b505050565b5b8181101561310d576131025f826130d7565b6001810190506130f0565b5050565b601f8211156131525761312381613006565b61312c84613018565b8101602085101561313b578190505b61314f61314785613018565b8301826130ef565b50505b505050565b5f82821c905092915050565b5f6131725f1984600802613157565b1980831691505092915050565b5f61318a8383613163565b9150826002028217905092915050565b6131a382612194565b67ffffffffffffffff8111156131bc576131bb612667565b5b6131c6825461285d565b6131d1828285613111565b5f60209050601f831160018114613202575f84156131f0578287015190505b6131fa858261317f565b865550613261565b601f19841661321086613006565b5f5b8281101561323757848901518255600182019150602085019450602081019050613212565b868310156132545784890151613250601f891682613163565b8355505b6001600288020188555050505b505050505050565b6132728161233d565b82525050565b5f60ff82169050919050565b61328d81613278565b82525050565b5f6080820190506132a65f830187613269565b6132b36020830186613284565b6132c06040830185613269565b6132cd6060830184613269565b95945050505050565b7f62616420736967000000000000000000000000000000000000000000000000005f82015250565b5f61330a60078361219e565b9150613315826132d6565b602082019050919050565b5f6020820190508181035f830152613337816132fe565b905091905056fea2646970667358221220fcba8b7ff97543d95eb89391bd3c35732e19a6de1761fcb32a75b69342e306f864736f6c634300081a0033",
			"opcodes": "PUSH1 0x80 PUSH1 0x40 MSTORE PUSH8 0xDE0B6B3A7640000 PUSH1 0x3 SSTORE PUSH9 0x2B5E3AF16B1880000 PUSH1 0x4 SSTORE CALLVALUE DUP1 ISZERO PUSH2 0x28 JUMPI PUSH0 DUP1 REVERT JUMPDEST POP PUSH1 0x40 MLOAD PUSH2 0x361A CODESIZE SUB DUP1 PUSH2 0x361A DUP4 CODECOPY DUP2 DUP2 ADD PUSH1 0x40 MSTORE DUP2 ADD SWAP1 PUSH2 0x4A SWAP2 SWAP1 PUSH2 0x246 JUMP JUMPDEST DUP1 PUSH0 PUSH20 0xFFFFFFFFFFFFFFFFFFFFFFFFFFFFFFFFFFFFFFFF AND DUP2 PUSH20 0xFFFFFFFFFFFFFFFFFFFFFFFFFFFFFFFFFFFFFFFF AND SUB PUSH2 0xBB JUMPI PUSH0 PUSH1 0x40 MLOAD PUSH32 0x1E4FBDF700000000000000000000000000000000000000000000000000000000 DUP2 MSTORE PUSH1 0x4 ADD PUSH2 0xB2 SWAP2 SWAP1 PUSH2 0x280 JUMP JUMPDEST PUSH1 0x40 MLOAD DUP1 SWAP2 SUB SWAP1 REVERT JUMPDEST PUSH2 0xCA DUP2 PUSH2 0xF5 PUSH1 0x20 SHL PUSH1 0x20 SHR JUMP JUMPDEST POP PUSH1 0x1 PUSH2 0xE9 PUSH2 0xDE PUSH2 0x1B6 PUSH1 0x20 SHL PUSH1 0x20 SHR JUMP JUMPDEST PUSH2 0x1DF PUSH1 0x20 SHL PUSH1 0x20 SHR JUMP JUMPDEST PUSH0 ADD DUP2 SWAP1 SSTORE POP POP PUSH2 0x299 JUMP JUMPDEST PUSH0 DUP1 PUSH0 SWAP1 SLOAD SWAP1 PUSH2 0x100 EXP SWAP1 DIV PUSH20 0xFFFFFFFFFFFFFFFFFFFFFFFFFFFFFFFFFFFFFFFF AND SWAP1 POP DUP2 PUSH0 DUP1 PUSH2 0x100 EXP DUP2 SLOAD DUP2 PUSH20 0xFFFFFFFFFFFFFFFFFFFFFFFFFFFFFFFFFFFFFFFF MUL NOT AND SWAP1 DUP4 PUSH20 0xFFFFFFFFFFFFFFFFFFFFFFFFFFFFFFFFFFFFFFFF AND MUL OR SWAP1 SSTORE POP DUP2 PUSH20 0xFFFFFFFFFFFFFFFFFFFFFFFFFFFFFFFFFFFFFFFF AND DUP2 PUSH20 0xFFFFFFFFFFFFFFFFFFFFFFFFFFFFFFFFFFFFFFFF AND PUSH32 0x8BE0079C531659141344CD1FD0A4F28419497F9722A3DAAFE3B4186F6B6457E0 PUSH1 0x40 MLOAD PUSH1 0x40 MLOAD DUP1 SWAP2 SUB SWAP1 LOG3 POP POP JUMP JUMPDEST PUSH0 PUSH32 0x9B779B17422D0DF92223018B32B4D1FA46E071723D6817E2486D003BECC55F00 PUSH0 SHL SWAP1 POP SWAP1 JUMP JUMPDEST PUSH0 DUP2 SWAP1 POP SWAP2 SWAP1 POP JUMP JUMPDEST PUSH0 DUP1 REVERT JUMPDEST PUSH0 PUSH20 0xFFFFFFFFFFFFFFFFFFFFFFFFFFFFFFFFFFFFFFFF DUP3 AND SWAP1 POP SWAP2 SWAP1 POP JUMP JUMPDEST PUSH0 PUSH2 0x215 DUP3 PUSH2 0x1EC JUMP JUMPDEST SWAP1 POP SWAP2 SWAP1 POP JUMP JUMPDEST PUSH2 0x225 DUP2 PUSH2 0x20B JUMP JUMPDEST DUP2 EQ PUSH2 0x22F JUMPI PUSH0 DUP1 REVERT JUMPDEST POP JUMP JUMPDEST PUSH0 DUP2 MLOAD SWAP1 POP PUSH2 0x240 DUP2 PUSH2 0x21C JUMP JUMPDEST SWAP3 SWAP2 POP POP JUMP JUMPDEST PUSH0 PUSH1 0x20 DUP3 DUP5 SUB SLT ISZERO PUSH2 0x25B JUMPI PUSH2 0x25A PUSH2 0x1E8 JUMP JUMPDEST JUMPDEST PUSH0 PUSH2 0x268 DUP5 DUP3 DUP6 ADD PUSH2 0x232 JUMP JUMPDEST SWAP2 POP POP SWAP3 SWAP2 POP POP JUMP JUMPDEST PUSH2 0x27A DUP2 PUSH2 0x20B JUMP JUMPDEST DUP3 MSTORE POP POP JUMP JUMPDEST PUSH0 PUSH1 0x20 DUP3 ADD SWAP1 POP PUSH2 0x293 PUSH0 DUP4 ADD DUP5 PUSH2 0x271 JUMP JUMPDEST SWAP3 SWAP2 POP POP JUMP JUMPDEST PUSH2 0x3374 DUP1 PUSH2 0x2A6 PUSH0 CODECOPY PUSH0 RETURN INVALID PUSH1 0x80 PUSH1 0x40 MSTORE PUSH1 0x4 CALLDATASIZE LT PUSH2 0x19B JUMPI PUSH0 CALLDATALOAD PUSH1 0xE0 SHR DUP1 PUSH4 0xAE169A50 GT PUSH2 0xEB JUMPI DUP1 PUSH4 0xC8E7711F GT PUSH2 0x89 JUMPI DUP1 PUSH4 0xF0F44260 GT PUSH2 0x63 JUMPI DUP1 PUSH4 0xF0F44260 EQ PUSH2 0x5C5 JUMPI DUP1 PUSH4 0xF2FDE38B EQ PUSH2 0x5ED JUMPI DUP1 PUSH4 0xF525CB68 EQ PUSH2 0x615 JUMPI DUP1 PUSH4 0xF6DD6D8E EQ PUSH2 0x63F JUMPI PUSH2 0x19B JUMP JUMPDEST DUP1 PUSH4 0xC8E7711F EQ PUSH2 0x543 JUMPI DUP1 PUSH4 0xCF48BD2C EQ PUSH2 0x57F JUMPI DUP1 PUSH4 0xD3287437 EQ PUSH2 0x5A9 JUMPI PUSH2 0x19B JUMP JUMPDEST DUP1 PUSH4 0xC0DCD954 GT PUSH2 0xC5 JUMPI DUP1 PUSH4 0xC0DCD954 EQ PUSH2 0x48D JUMPI DUP1 PUSH4 0xC20632BA EQ PUSH2 0x4B7 JUMPI DUP1 PUSH4 0xC326BF4F EQ PUSH2 0x4DF JUMPI DUP1 PUSH4 0xC4590D3F EQ PUSH2 0x51B JUMPI PUSH2 0x19B JUMP JUMPDEST DUP1 PUSH4 0xAE169A50 EQ PUSH2 0x3FF JUMPI DUP1 PUSH4 0xAEF18BF7 EQ PUSH2 0x427 JUMPI DUP1 PUSH4 0xB0C9FBC1 EQ PUSH2 0x463 JUMPI PUSH2 0x19B JUMP JUMPDEST DUP1 PUSH4 0x61D027B3 GT PUSH2 0x158 JUMPI DUP1 PUSH4 0x8DA5CB5B GT PUSH2 0x132 JUMPI DUP1 PUSH4 0x8DA5CB5B EQ PUSH2 0x331 JUMPI DUP1 PUSH4 0x93F1A40B EQ PUSH2 0x35B JUMPI DUP1 PUSH4 0x98969E82 EQ PUSH2 0x399 JUMPI DUP1 PUSH4 0xA80A7882 EQ PUSH2 0x3D5 JUMPI PUSH2 0x19B JUMP JUMPDEST DUP1 PUSH4 0x61D027B3 EQ PUSH2 0x2C9 JUMPI DUP1 PUSH4 0x6C19E783 EQ PUSH2 0x2F3 JUMPI DUP1 PUSH4 0x715018A6 EQ PUSH2 0x31B JUMPI PUSH2 0x19B JUMP JUMPDEST DUP1 PUSH4 0xB78F9C0 EQ PUSH2 0x19F JUMPI DUP1 PUSH4 0x1526FE27 EQ PUSH2 0x1C7 JUMPI DUP1 PUSH4 0x238AC933 EQ PUSH2 0x207 JUMPI DUP1 PUSH4 0x34C1F944 EQ PUSH2 0x231 JUMPI DUP1 PUSH4 0x441A3E70 EQ PUSH2 0x271 JUMPI DUP1 PUSH4 0x53BE657F EQ PUSH2 0x28D JUMPI JUMPDEST PUSH0 DUP1 REVERT JUMPDEST CALLVALUE DUP1 ISZERO PUSH2 0x1AA JUMPI PUSH0 DUP1 REVERT JUMPDEST POP PUSH2 0x1C5 PUSH1 0x4 DUP1 CALLDATASIZE SUB DUP2 ADD SWAP1 PUSH2 0x1C0 SWAP2 SWAP1 PUSH2 0x2018 JUMP JUMPDEST PUSH2 0x669 JUMP JUMPDEST STOP JUMPDEST CALLVALUE DUP1 ISZERO PUSH2 0x1D2 JUMPI PUSH0 DUP1 REVERT JUMPDEST POP PUSH2 0x1ED PUSH1 0x4 DUP1 CALLDATASIZE SUB DUP2 ADD SWAP1 PUSH2 0x1E8 SWAP2 SWAP1 PUSH2 0x2056 JUMP JUMPDEST PUSH2 0x683 JUMP JUMPDEST PUSH1 0x40 MLOAD PUSH2 0x1FE SWAP6 SWAP5 SWAP4 SWAP3 SWAP2 SWAP1 PUSH2 0x210A JUMP JUMPDEST PUSH1 0x40 MLOAD DUP1 SWAP2 SUB SWAP1 RETURN JUMPDEST CALLVALUE DUP1 ISZERO PUSH2 0x212 JUMPI PUSH0 DUP1 REVERT JUMPDEST POP PUSH2 0x21B PUSH2 0x702 JUMP JUMPDEST PUSH1 0x40 MLOAD PUSH2 0x228 SWAP2 SWAP1 PUSH2 0x217B JUMP JUMPDEST PUSH1 0x40 MLOAD DUP1 SWAP2 SUB SWAP1 RETURN JUMPDEST CALLVALUE DUP1 ISZERO PUSH2 0x23C JUMPI PUSH0 DUP1 REVERT JUMPDEST POP PUSH2 0x257 PUSH1 0x4 DUP1 CALLDATASIZE SUB DUP2 ADD SWAP1 PUSH2 0x252 SWAP2 SWAP1 PUSH2 0x2056 JUMP JUMPDEST PUSH2 0x727 JUMP JUMPDEST PUSH1 0x40 MLOAD PUSH2 0x268 SWAP6 SWAP5 SWAP4 SWAP3 SWAP2 SWAP1 PUSH2 0x2204 JUMP JUMPDEST PUSH1 0x40 MLOAD DUP1 SWAP2 SUB SWAP1 RETURN JUMPDEST PUSH2 0x28B PUSH1 0x4 DUP1 CALLDATASIZE SUB DUP2 ADD SWAP1 PUSH2 0x286 SWAP2 SWAP1 PUSH2 0x2018 JUMP JUMPDEST PUSH2 0x80D JUMP JUMPDEST STOP JUMPDEST CALLVALUE DUP1 ISZERO PUSH2 0x298 JUMPI PUSH0 DUP1 REVERT JUMPDEST POP PUSH2 0x2B3 PUSH1 0x4 DUP1 CALLDATASIZE SUB DUP2 ADD SWAP1 PUSH2 0x2AE SWAP2 SWAP1 PUSH2 0x2286 JUMP JUMPDEST PUSH2 0xC50 JUMP JUMPDEST PUSH1 0x40 MLOAD PUSH2 0x2C0 SWAP2 SWAP1 PUSH2 0x22B1 JUMP JUMPDEST PUSH1 0x40 MLOAD DUP1 SWAP2 SUB SWAP1 RETURN JUMPDEST CALLVALUE DUP1 ISZERO PUSH2 0x2D4 JUMPI PUSH0 DUP1 REVERT JUMPDEST POP PUSH2 0x2DD PUSH2 0xC65 JUMP JUMPDEST PUSH1 0x40 MLOAD PUSH2 0x2EA SWAP2 SWAP1 PUSH2 0x217B JUMP JUMPDEST PUSH1 0x40 MLOAD DUP1 SWAP2 SUB SWAP1 RETURN JUMPDEST CALLVALUE DUP1 ISZERO PUSH2 0x2FE JUMPI PUSH0 DUP1 REVERT JUMPDEST POP PUSH2 0x319 PUSH1 0x4 DUP1 CALLDATASIZE SUB DUP2 ADD SWAP1 PUSH2 0x314 SWAP2 SWAP1 PUSH2 0x2286 JUMP JUMPDEST PUSH2 0xC8A JUMP JUMPDEST STOP JUMPDEST CALLVALUE DUP1 ISZERO PUSH2 0x326 JUMPI PUSH0 DUP1 REVERT JUMPDEST POP PUSH2 0x32F PUSH2 0xCD5 JUMP JUMPDEST STOP JUMPDEST CALLVALUE DUP1 ISZERO PUSH2 0x33C JUMPI PUSH0 DUP1 REVERT JUMPDEST POP PUSH2 0x345 PUSH2 0xCE8 JUMP JUMPDEST PUSH1 0x40 MLOAD PUSH2 0x352 SWAP2 SWAP1 PUSH2 0x217B JUMP JUMPDEST PUSH1 0x40 MLOAD DUP1 SWAP2 SUB SWAP1 RETURN JUMPDEST CALLVALUE DUP1 ISZERO PUSH2 0x366 JUMPI PUSH0 DUP1 REVERT JUMPDEST POP PUSH2 0x381 PUSH1 0x4 DUP1 CALLDATASIZE SUB DUP2 ADD SWAP1 PUSH2 0x37C SWAP2 SWAP1 PUSH2 0x22CA JUMP JUMPDEST PUSH2 0xD0F JUMP JUMPDEST PUSH1 0x40 MLOAD PUSH2 0x390 SWAP4 SWAP3 SWAP2 SWAP1 PUSH2 0x2308 JUMP JUMPDEST PUSH1 0x40 MLOAD DUP1 SWAP2 SUB SWAP1 RETURN JUMPDEST CALLVALUE DUP1 ISZERO PUSH2 0x3A4 JUMPI PUSH0 DUP1 REVERT JUMPDEST POP PUSH2 0x3BF PUSH1 0x4 DUP1 CALLDATASIZE SUB DUP2 ADD SWAP1 PUSH2 0x3BA SWAP2 SWAP1 PUSH2 0x22CA JUMP JUMPDEST PUSH2 0xD40 JUMP JUMPDEST PUSH1 0x40 MLOAD PUSH2 0x3CC SWAP2 SWAP1 PUSH2 0x22B1 JUMP JUMPDEST PUSH1 0x40 MLOAD DUP1 SWAP2 SUB SWAP1 RETURN JUMPDEST CALLVALUE DUP1 ISZERO PUSH2 0x3E0 JUMPI PUSH0 DUP1 REVERT JUMPDEST POP PUSH2 0x3E9 PUSH2 0xDC6 JUMP JUMPDEST PUSH1 0x40 MLOAD PUSH2 0x3F6 SWAP2 SWAP1 PUSH2 0x22B1 JUMP JUMPDEST PUSH1 0x40 MLOAD DUP1 SWAP2 SUB SWAP1 RETURN JUMPDEST CALLVALUE DUP1 ISZERO PUSH2 0x40A JUMPI PUSH0 DUP1 REVERT JUMPDEST POP PUSH2 0x425 PUSH1 0x4 DUP1 CALLDATASIZE SUB DUP2 ADD SWAP1 PUSH2 0x420 SWAP2 SWAP1 PUSH2 0x2056 JUMP JUMPDEST PUSH2 0xDCC JUMP JUMPDEST STOP JUMPDEST CALLVALUE DUP1 ISZERO PUSH2 0x432 JUMPI PUSH0 DUP1 REVERT JUMPDEST POP PUSH2 0x44D PUSH1 0x4 DUP1 CALLDATASIZE SUB DUP2 ADD SWAP1 PUSH2 0x448 SWAP2 SWAP1 PUSH2 0x2370 JUMP JUMPDEST PUSH2 0xF63 JUMP JUMPDEST PUSH1 0x40 MLOAD PUSH2 0x45A SWAP2 SWAP1 PUSH2 0x23B5 JUMP JUMPDEST PUSH1 0x40 MLOAD DUP1 SWAP2 SUB SWAP1 RETURN JUMPDEST CALLVALUE DUP1 ISZERO PUSH2 0x46E JUMPI PUSH0 DUP1 REVERT JUMPDEST POP PUSH2 0x477 PUSH2 0xF80 JUMP JUMPDEST PUSH1 0x40 MLOAD PUSH2 0x484 SWAP2 SWAP1 PUSH2 0x22B1 JUMP JUMPDEST PUSH1 0x40 MLOAD DUP1 SWAP2 SUB SWAP1 RETURN JUMPDEST CALLVALUE DUP1 ISZERO PUSH2 0x498 JUMPI PUSH0 DUP1 REVERT JUMPDEST POP PUSH2 0x4A1 PUSH2 0xF86 JUMP JUMPDEST PUSH1 0x40 MLOAD PUSH2 0x4AE SWAP2 SWAP1 PUSH2 0x22B1 JUMP JUMPDEST PUSH1 0x40 MLOAD DUP1 SWAP2 SUB SWAP1 RETURN JUMPDEST CALLVALUE DUP1 ISZERO PUSH2 0x4C2 JUMPI PUSH0 DUP1 REVERT JUMPDEST POP PUSH2 0x4DD PUSH1 0x4 DUP1 CALLDATASIZE SUB DUP2 ADD SWAP1 PUSH2 0x4D8 SWAP2 SWAP1 PUSH2 0x2409 JUMP JUMPDEST PUSH2 0xF8C JUMP JUMPDEST STOP JUMPDEST CALLVALUE DUP1 ISZERO PUSH2 0x4EA JUMPI PUSH0 DUP1 REVERT JUMPDEST POP PUSH2 0x505 PUSH1 0x4 DUP1 CALLDATASIZE SUB DUP2 ADD SWAP1 PUSH2 0x500 SWAP2 SWAP1 PUSH2 0x2286 JUMP JUMPDEST PUSH2 0x10D6 JUMP JUMPDEST PUSH1 0x40 MLOAD PUSH2 0x512 SWAP2 SWAP1 PUSH2 0x22B1 JUMP JUMPDEST PUSH1 0x40 MLOAD DUP1 SWAP2 SUB SWAP1 RETURN JUMPDEST CALLVALUE DUP1 ISZERO PUSH2 0x526 JUMPI PUSH0 DUP1 REVERT JUMPDEST POP PUSH2 0x541 PUSH1 0x4 DUP1 CALLDATASIZE SUB DUP2 ADD SWAP1 PUSH2 0x53C SWAP2 SWAP1 PUSH2 0x2018 JUMP JUMPDEST PUSH2 0x10EB JUMP JUMPDEST STOP JUMPDEST CALLVALUE DUP1 ISZERO PUSH2 0x54E JUMPI PUSH0 DUP1 REVERT JUMPDEST POP PUSH2 0x569 PUSH1 0x4 DUP1 CALLDATASIZE SUB DUP2 ADD SWAP1 PUSH2 0x564 SWAP2 SWAP1 PUSH2 0x246D JUMP JUMPDEST PUSH2 0x1105 JUMP JUMPDEST PUSH1 0x40 MLOAD PUSH2 0x576 SWAP2 SWAP1 PUSH2 0x22B1 JUMP JUMPDEST PUSH1 0x40 MLOAD DUP1 SWAP2 SUB SWAP1 RETURN JUMPDEST CALLVALUE DUP1 ISZERO PUSH2 0x58A JUMPI PUSH0 DUP1 REVERT JUMPDEST POP PUSH2 0x593 PUSH2 0x1125 JUMP JUMPDEST PUSH1 0x40 MLOAD PUSH2 0x5A0 SWAP2 SWAP1 PUSH2 0x263F JUMP JUMPDEST PUSH1 0x40 MLOAD DUP1 SWAP2 SUB SWAP1 RETURN JUMPDEST PUSH2 0x5C3 PUSH1 0x4 DUP1 CALLDATASIZE SUB DUP2 ADD SWAP1 PUSH2 0x5BE SWAP2 SWAP1 PUSH2 0x278B JUMP JUMPDEST PUSH2 0x1283 JUMP JUMPDEST STOP JUMPDEST CALLVALUE DUP1 ISZERO PUSH2 0x5D0 JUMPI PUSH0 DUP1 REVERT JUMPDEST POP PUSH2 0x5EB PUSH1 0x4 DUP1 CALLDATASIZE SUB DUP2 ADD SWAP1 PUSH2 0x5E6 SWAP2 SWAP1 PUSH2 0x2286 JUMP JUMPDEST PUSH2 0x17C7 JUMP JUMPDEST STOP JUMPDEST CALLVALUE DUP1 ISZERO PUSH2 0x5F8 JUMPI PUSH0 DUP1 REVERT JUMPDEST POP PUSH2 0x613 PUSH1 0x4 DUP1 CALLDATASIZE SUB DUP2 ADD SWAP1 PUSH2 0x60E SWAP2 SWAP1 PUSH2 0x2286 JUMP JUMPDEST PUSH2 0x1812 JUMP JUMPDEST STOP JUMPDEST CALLVALUE DUP1 ISZERO PUSH2 0x620 JUMPI PUSH0 DUP1 REVERT JUMPDEST POP PUSH2 0x629 PUSH2 0x1896 JUMP JUMPDEST PUSH1 0x40 MLOAD PUSH2 0x636 SWAP2 SWAP1 PUSH2 0x22B1 JUMP JUMPDEST PUSH1 0x40 MLOAD DUP1 SWAP2 SUB SWAP1 RETURN JUMPDEST CALLVALUE DUP1 ISZERO PUSH2 0x64A JUMPI PUSH0 DUP1 REVERT JUMPDEST POP PUSH2 0x653 PUSH2 0x189C JUMP JUMPDEST PUSH1 0x40 MLOAD PUSH2 0x660 SWAP2 SWAP1 PUSH2 0x22B1 JUMP JUMPDEST PUSH1 0x40 MLOAD DUP1 SWAP2 SUB SWAP1 RETURN JUMPDEST PUSH2 0x671 PUSH2 0x18A2 JUMP JUMPDEST DUP2 PUSH1 0x5 DUP2 SWAP1 SSTORE POP DUP1 PUSH1 0x6 DUP2 SWAP1 SSTORE POP POP POP JUMP JUMPDEST PUSH1 0xB DUP2 DUP2 SLOAD DUP2 LT PUSH2 0x692 JUMPI PUSH0 DUP1 REVERT JUMPDEST SWAP1 PUSH0 MSTORE PUSH1 0x20 PUSH0 KECCAK256 SWAP1 PUSH1 0x5 MUL ADD PUSH0 SWAP2 POP SWAP1 POP DUP1 PUSH0 ADD PUSH0 SWAP1 SLOAD SWAP1 PUSH2 0x100 EXP SWAP1 DIV PUSH20 0xFFFFFFFFFFFFFFFFFFFFFFFFFFFFFFFFFFFFFFFF AND SWAP1 DUP1 PUSH1 0x1 ADD PUSH0 SWAP1 SLOAD SWAP1 PUSH2 0x100 EXP SWAP1 DIV PUSH20 0xFFFFFFFFFFFFFFFFFFFFFFFFFFFFFFFFFFFFFFFF AND SWAP1 DUP1 PUSH1 0x2 ADD SLOAD SWAP1 DUP1 PUSH1 0x3 ADD SLOAD SWAP1 DUP1 PUSH1 0x4 ADD SLOAD SWAP1 POP DUP6 JUMP JUMPDEST PUSH1 0x1 PUSH0 SWAP1 SLOAD SWAP1 PUSH2 0x100 EXP SWAP1 DIV PUSH20 0xFFFFFFFFFFFFFFFFFFFFFFFFFFFFFFFFFFFFFFFF AND DUP2 JUMP JUMPDEST PUSH1 0xE DUP2 DUP2 SLOAD DUP2 LT PUSH2 0x736 JUMPI PUSH0 DUP1 REVERT JUMPDEST SWAP1 PUSH0 MSTORE PUSH1 0x20 PUSH0 KECCAK256 SWAP1 PUSH1 0x5 MUL ADD PUSH0 SWAP2 POP SWAP1 POP DUP1 PUSH0 ADD SLOAD SWAP1 DUP1 PUSH1 0x1 ADD SLOAD SWAP1 DUP1 PUSH1 0x2 ADD PUSH0 SWAP1 SLOAD SWAP1 PUSH2 0x100 EXP SWAP1 DIV PUSH20 0xFFFFFFFFFFFFFFFFFFFFFFFFFFFFFFFFFFFFFFFF AND SWAP1 DUP1 PUSH1 0x3 ADD DUP1 SLOAD PUSH2 0x786 SWAP1 PUSH2 0x285D JUMP JUMPDEST DUP1 PUSH1 0x1F ADD PUSH1 0x20 DUP1 SWAP2 DIV MUL PUSH1 0x20 ADD PUSH1 0x40 MLOAD SWAP1 DUP2 ADD PUSH1 0x40 MSTORE DUP1 SWAP3 SWAP2 SWAP1 DUP2 DUP2 MSTORE PUSH1 0x20 ADD DUP3 DUP1 SLOAD PUSH2 0x7B2 SWAP1 PUSH2 0x285D JUMP JUMPDEST DUP1 ISZERO PUSH2 0x7FD JUMPI DUP1 PUSH1 0x1F LT PUSH2 0x7D4 JUMPI PUSH2 0x100 DUP1 DUP4 SLOAD DIV MUL DUP4 MSTORE SWAP2 PUSH1 0x20 ADD SWAP2 PUSH2 0x7FD JUMP JUMPDEST DUP3 ADD SWAP2 SWAP1 PUSH0 MSTORE PUSH1 0x20 PUSH0 KECCAK256 SWAP1 JUMPDEST DUP2 SLOAD DUP2 MSTORE SWAP1 PUSH1 0x1 ADD SWAP1 PUSH1 0x20 ADD DUP1 DUP4 GT PUSH2 0x7E0 JUMPI DUP3 SWAP1 SUB PUSH1 0x1F AND DUP3 ADD SWAP2 JUMPDEST POP POP POP POP POP SWAP1 DUP1 PUSH1 0x4 ADD SLOAD SWAP1 POP DUP6 JUMP JUMPDEST PUSH2 0x815 PUSH2 0x1929 JUMP JUMPDEST PUSH0 PUSH1 0xB DUP4 DUP2 SLOAD DUP2 LT PUSH2 0x82A JUMPI PUSH2 0x829 PUSH2 0x288D JUMP JUMPDEST JUMPDEST SWAP1 PUSH0 MSTORE PUSH1 0x20 PUSH0 KECCAK256 SWAP1 PUSH1 0x5 MUL ADD SWAP1 POP PUSH0 PUSH1 0xC PUSH0 DUP6 DUP2 MSTORE PUSH1 0x20 ADD SWAP1 DUP2 MSTORE PUSH1 0x20 ADD PUSH0 KECCAK256 PUSH0 CALLER PUSH20 0xFFFFFFFFFFFFFFFFFFFFFFFFFFFFFFFFFFFFFFFF AND PUSH20 0xFFFFFFFFFFFFFFFFFFFFFFFFFFFFFFFFFFFFFFFF AND DUP2 MSTORE PUSH1 0x20 ADD SWAP1 DUP2 MSTORE PUSH1 0x20 ADD PUSH0 KECCAK256 SWAP1 POP DUP3 DUP2 PUSH0 ADD SLOAD LT ISZERO PUSH2 0x8CD JUMPI PUSH1 0x40 MLOAD PUSH32 0x8C379A000000000000000000000000000000000000000000000000000000000 DUP2 MSTORE PUSH1 0x4 ADD PUSH2 0x8C4 SWAP1 PUSH2 0x2904 JUMP JUMPDEST PUSH1 0x40 MLOAD DUP1 SWAP2 SUB SWAP1 REVERT JUMPDEST PUSH0 PUSH2 0x900 DUP3 PUSH1 0x40 MLOAD DUP1 PUSH1 0x60 ADD PUSH1 0x40 MSTORE SWAP1 DUP2 PUSH0 DUP3 ADD SLOAD DUP2 MSTORE PUSH1 0x20 ADD PUSH1 0x1 DUP3 ADD SLOAD DUP2 MSTORE PUSH1 0x20 ADD PUSH1 0x2 DUP3 ADD SLOAD DUP2 MSTORE POP POP DUP7 PUSH2 0x194B JUMP JUMPDEST SWAP1 POP PUSH0 DUP3 PUSH1 0x2 ADD SLOAD TIMESTAMP LT SWAP1 POP DUP1 DUP1 ISZERO PUSH2 0x91A JUMPI POP PUSH0 PUSH1 0x6 SLOAD GT JUMPDEST ISZERO PUSH2 0x9CC JUMPI PUSH1 0x6 SLOAD CALLVALUE LT ISZERO PUSH2 0x964 JUMPI PUSH1 0x40 MLOAD PUSH32 0x8C379A000000000000000000000000000000000000000000000000000000000 DUP2 MSTORE PUSH1 0x4 ADD PUSH2 0x95B SWAP1 PUSH2 0x296C JUMP JUMPDEST PUSH1 0x40 MLOAD DUP1 SWAP2 SUB SWAP1 REVERT JUMPDEST PUSH1 0x2 PUSH0 SWAP1 SLOAD SWAP1 PUSH2 0x100 EXP SWAP1 DIV PUSH20 0xFFFFFFFFFFFFFFFFFFFFFFFFFFFFFFFFFFFFFFFF AND PUSH20 0xFFFFFFFFFFFFFFFFFFFFFFFFFFFFFFFFFFFFFFFF AND PUSH2 0x8FC PUSH1 0x6 SLOAD SWAP1 DUP2 ISZERO MUL SWAP1 PUSH1 0x40 MLOAD PUSH0 PUSH1 0x40 MLOAD DUP1 DUP4 SUB DUP2 DUP6 DUP9 DUP9 CALL SWAP4 POP POP POP POP ISZERO DUP1 ISZERO PUSH2 0x9CA JUMPI RETURNDATASIZE PUSH0 DUP1 RETURNDATACOPY RETURNDATASIZE PUSH0 REVERT JUMPDEST POP JUMPDEST PUSH0 DUP3 GT ISZERO PUSH2 0xA23 JUMPI PUSH2 0xA22 CALLER DUP4 DUP7 PUSH1 0x1 ADD PUSH0 SWAP1 SLOAD SWAP1 PUSH2 0x100 EXP SWAP1 DIV PUSH20 0xFFFFFFFFFFFFFFFFFFFFFFFFFFFFFFFFFFFFFFFF AND PUSH20 0xFFFFFFFFFFFFFFFFFFFFFFFFFFFFFFFFFFFFFFFF AND PUSH2 0x1AAB SWAP1 SWAP3 SWAP2 SWAP1 PUSH4 0xFFFFFFFF AND JUMP JUMPDEST JUMPDEST PUSH0 DUP6 GT ISZERO PUSH2 0xBF6 JUMPI DUP5 DUP4 PUSH0 ADD PUSH0 DUP3 DUP3 SLOAD PUSH2 0xA3D SWAP2 SWAP1 PUSH2 0x29B7 JUMP JUMPDEST SWAP3 POP POP DUP2 SWAP1 SSTORE POP DUP5 DUP5 PUSH1 0x2 ADD PUSH0 DUP3 DUP3 SLOAD PUSH2 0xA57 SWAP2 SWAP1 PUSH2 0x29B7 JUMP JUMPDEST SWAP3 POP POP DUP2 SWAP1 SSTORE POP DUP5 PUSH1 0xD PUSH0 DUP7 PUSH0 ADD PUSH0 SWAP1 SLOAD SWAP1 PUSH2 0x100 EXP SWAP1 DIV PUSH20 0xFFFFFFFFFFFFFFFFFFFFFFFFFFFFFFFFFFFFFFFF AND PUSH20 0xFFFFFFFFFFFFFFFFFFFFFFFFFFFFFFFFFFFFFFFF AND PUSH20 0xFFFFFFFFFFFFFFFFFFFFFFFFFFFFFFFFFFFFFFFF AND DUP2 MSTORE PUSH1 0x20 ADD SWAP1 DUP2 MSTORE PUSH1 0x20 ADD PUSH0 KECCAK256 PUSH0 DUP3 DUP3 SLOAD PUSH2 0xACC SWAP2 SWAP1 PUSH2 0x29B7 JUMP JUMPDEST SWAP3 POP POP DUP2 SWAP1 SSTORE POP DUP1 ISZERO PUSH2 0xBA7 JUMPI PUSH0 PUSH1 0x64 PUSH1 0x14 DUP8 PUSH2 0xAE9 SWAP2 SWAP1 PUSH2 0x29EA JUMP JUMPDEST PUSH2 0xAF3 SWAP2 SWAP1 PUSH2 0x2A58 JUMP JUMPDEST SWAP1 POP PUSH0 DUP2 DUP8 PUSH2 0xB02 SWAP2 SWAP1 PUSH2 0x29B7 JUMP JUMPDEST SWAP1 POP PUSH2 0xB51 CALLER DUP3 DUP9 PUSH0 ADD PUSH0 SWAP1 SLOAD SWAP1 PUSH2 0x100 EXP SWAP1 DIV PUSH20 0xFFFFFFFFFFFFFFFFFFFFFFFFFFFFFFFFFFFFFFFF AND PUSH20 0xFFFFFFFFFFFFFFFFFFFFFFFFFFFFFFFFFFFFFFFF AND PUSH2 0x1AAB SWAP1 SWAP3 SWAP2 SWAP1 PUSH4 0xFFFFFFFF AND JUMP JUMPDEST PUSH2 0xBA0 PUSH2 0xDEAD DUP4 DUP9 PUSH0 ADD PUSH0 SWAP1 SLOAD SWAP1 PUSH2 0x100 EXP SWAP1 DIV PUSH20 0xFFFFFFFFFFFFFFFFFFFFFFFFFFFFFFFFFFFFFFFF AND PUSH20 0xFFFFFFFFFFFFFFFFFFFFFFFFFFFFFFFFFFFFFFFF AND PUSH2 0x1AAB SWAP1 SWAP3 SWAP2 SWAP1 PUSH4 0xFFFFFFFF AND JUMP JUMPDEST POP POP PUSH2 0xBF5 JUMP JUMPDEST PUSH2 0xBF4 CALLER DUP7 DUP7 PUSH0 ADD PUSH0 SWAP1 SLOAD SWAP1 PUSH2 0x100 EXP SWAP1 DIV PUSH20 0xFFFFFFFFFFFFFFFFFFFFFFFFFFFFFFFFFFFFFFFF AND PUSH20 0xFFFFFFFFFFFFFFFFFFFFFFFFFFFFFFFFFFFFFFFF AND PUSH2 0x1AAB SWAP1 SWAP3 SWAP2 SWAP1 PUSH4 0xFFFFFFFF AND JUMP JUMPDEST JUMPDEST JUMPDEST TIMESTAMP DUP4 PUSH1 0x1 ADD DUP2 SWAP1 SSTORE POP PUSH2 0xC40 DUP7 DUP7 CALLER PUSH1 0x40 MLOAD DUP1 PUSH1 0x40 ADD PUSH1 0x40 MSTORE DUP1 PUSH1 0x8 DUP2 MSTORE PUSH1 0x20 ADD PUSH32 0x5769746864726177000000000000000000000000000000000000000000000000 DUP2 MSTORE POP PUSH2 0x1AFE JUMP JUMPDEST POP POP POP POP PUSH2 0xC4C PUSH2 0x1BE3 JUMP JUMPDEST POP POP JUMP JUMPDEST PUSH1 0x8 PUSH1 0x20 MSTORE DUP1 PUSH0 MSTORE PUSH1 0x40 PUSH0 KECCAK256 PUSH0 SWAP2 POP SWAP1 POP SLOAD DUP2 JUMP JUMPDEST PUSH1 0x2 PUSH0 SWAP1 SLOAD SWAP1 PUSH2 0x100 EXP SWAP1 DIV PUSH20 0xFFFFFFFFFFFFFFFFFFFFFFFFFFFFFFFFFFFFFFFF AND DUP2 JUMP JUMPDEST PUSH2 0xC92 PUSH2 0x18A2 JUMP JUMPDEST DUP1 PUSH1 0x1 PUSH0 PUSH2 0x100 EXP DUP2 SLOAD DUP2 PUSH20 0xFFFFFFFFFFFFFFFFFFFFFFFFFFFFFFFFFFFFFFFF MUL NOT AND SWAP1 DUP4 PUSH20 0xFFFFFFFFFFFFFFFFFFFFFFFFFFFFFFFFFFFFFFFF AND MUL OR SWAP1 SSTORE POP POP JUMP JUMPDEST PUSH2 0xCDD PUSH2 0x18A2 JUMP JUMPDEST PUSH2 0xCE6 PUSH0 PUSH2 0x1BFD JUMP JUMPDEST JUMP JUMPDEST PUSH0 DUP1 PUSH0 SWAP1 SLOAD SWAP1 PUSH2 0x100 EXP SWAP1 DIV PUSH20 0xFFFFFFFFFFFFFFFFFFFFFFFFFFFFFFFFFFFFFFFF AND SWAP1 POP SWAP1 JUMP JUMPDEST PUSH1 0xC PUSH1 0x20 MSTORE DUP2 PUSH0 MSTORE PUSH1 0x40 PUSH0 KECCAK256 PUSH1 0x20 MSTORE DUP1 PUSH0 MSTORE PUSH1 0x40 PUSH0 KECCAK256 PUSH0 SWAP2 POP SWAP2 POP POP DUP1 PUSH0 ADD SLOAD SWAP1 DUP1 PUSH1 0x1 ADD SLOAD SWAP1 DUP1 PUSH1 0x2 ADD SLOAD SWAP1 POP DUP4 JUMP JUMPDEST PUSH0 PUSH2 0xDBE PUSH1 0xC PUSH0 DUP6 DUP2 MSTORE PUSH1 0x20 ADD SWAP1 DUP2 MSTORE PUSH1 0x20 ADD PUSH0 KECCAK256 PUSH0 DUP5 PUSH20 0xFFFFFFFFFFFFFFFFFFFFFFFFFFFFFFFFFFFFFFFF AND PUSH20 0xFFFFFFFFFFFFFFFFFFFFFFFFFFFFFFFFFFFFFFFF AND DUP2 MSTORE PUSH1 0x20 ADD SWAP1 DUP2 MSTORE PUSH1 0x20 ADD PUSH0 KECCAK256 PUSH1 0x40 MLOAD DUP1 PUSH1 0x60 ADD PUSH1 0x40 MSTORE SWAP1 DUP2 PUSH0 DUP3 ADD SLOAD DUP2 MSTORE PUSH1 0x20 ADD PUSH1 0x1 DUP3 ADD SLOAD DUP2 MSTORE PUSH1 0x20 ADD PUSH1 0x2 DUP3 ADD SLOAD DUP2 MSTORE POP POP DUP5 PUSH2 0x194B JUMP JUMPDEST SWAP1 POP SWAP3 SWAP2 POP POP JUMP JUMPDEST PUSH1 0x6 SLOAD DUP2 JUMP JUMPDEST PUSH2 0xDD4 PUSH2 0x1929 JUMP JUMPDEST PUSH0 PUSH1 0xB DUP3 DUP2 SLOAD DUP2 LT PUSH2 0xDE9 JUMPI PUSH2 0xDE8 PUSH2 0x288D JUMP JUMPDEST JUMPDEST SWAP1 PUSH0 MSTORE PUSH1 0x20 PUSH0 KECCAK256 SWAP1 PUSH1 0x5 MUL ADD SWAP1 POP PUSH0 PUSH1 0xC PUSH0 DUP5 DUP2 MSTORE PUSH1 0x20 ADD SWAP1 DUP2 MSTORE PUSH1 0x20 ADD PUSH0 KECCAK256 PUSH0 CALLER PUSH20 0xFFFFFFFFFFFFFFFFFFFFFFFFFFFFFFFFFFFFFFFF AND PUSH20 0xFFFFFFFFFFFFFFFFFFFFFFFFFFFFFFFFFFFFFFFF AND DUP2 MSTORE PUSH1 0x20 ADD SWAP1 DUP2 MSTORE PUSH1 0x20 ADD PUSH0 KECCAK256 SWAP1 POP PUSH0 PUSH2 0xE79 DUP3 PUSH1 0x40 MLOAD DUP1 PUSH1 0x60 ADD PUSH1 0x40 MSTORE SWAP1 DUP2 PUSH0 DUP3 ADD SLOAD DUP2 MSTORE PUSH1 0x20 ADD PUSH1 0x1 DUP3 ADD SLOAD DUP2 MSTORE PUSH1 0x20 ADD PUSH1 0x2 DUP3 ADD SLOAD DUP2 MSTORE POP POP DUP6 PUSH2 0x194B JUMP JUMPDEST SWAP1 POP PUSH0 DUP2 GT PUSH2 0xEBD JUMPI PUSH1 0x40 MLOAD PUSH32 0x8C379A000000000000000000000000000000000000000000000000000000000 DUP2 MSTORE PUSH1 0x4 ADD PUSH2 0xEB4 SWAP1 PUSH2 0x2AD2 JUMP JUMPDEST PUSH1 0x40 MLOAD DUP1 SWAP2 SUB SWAP1 REVERT JUMPDEST TIMESTAMP DUP3 PUSH1 0x1 ADD DUP2 SWAP1 SSTORE POP PUSH2 0xF14 CALLER DUP3 DUP6 PUSH1 0x1 ADD PUSH0 SWAP1 SLOAD SWAP1 PUSH2 0x100 EXP SWAP1 DIV PUSH20 0xFFFFFFFFFFFFFFFFFFFFFFFFFFFFFFFFFFFFFFFF AND PUSH20 0xFFFFFFFFFFFFFFFFFFFFFFFFFFFFFFFFFFFFFFFF AND PUSH2 0x1AAB SWAP1 SWAP3 SWAP2 SWAP1 PUSH4 0xFFFFFFFF AND JUMP JUMPDEST PUSH2 0xF55 DUP5 DUP3 CALLER PUSH1 0x40 MLOAD DUP1 PUSH1 0x40 ADD PUSH1 0x40 MSTORE DUP1 PUSH1 0xB DUP2 MSTORE PUSH1 0x20 ADD PUSH32 0x436C61696D526577617264000000000000000000000000000000000000000000 DUP2 MSTORE POP PUSH2 0x1AFE JUMP JUMPDEST POP POP POP PUSH2 0xF60 PUSH2 0x1BE3 JUMP JUMPDEST POP JUMP JUMPDEST PUSH1 0x7 PUSH1 0x20 MSTORE DUP1 PUSH0 MSTORE PUSH1 0x40 PUSH0 KECCAK256 PUSH0 SWAP2 POP SLOAD SWAP1 PUSH2 0x100 EXP SWAP1 DIV PUSH1 0xFF AND DUP2 JUMP JUMPDEST PUSH1 0x4 SLOAD DUP2 JUMP JUMPDEST PUSH1 0x5 SLOAD DUP2 JUMP JUMPDEST PUSH2 0xF94 PUSH2 0x18A2 JUMP JUMPDEST PUSH1 0xB PUSH1 0x40 MLOAD DUP1 PUSH1 0xA0 ADD PUSH1 0x40 MSTORE DUP1 DUP7 PUSH20 0xFFFFFFFFFFFFFFFFFFFFFFFFFFFFFFFFFFFFFFFF AND DUP2 MSTORE PUSH1 0x20 ADD DUP6 PUSH20 0xFFFFFFFFFFFFFFFFFFFFFFFFFFFFFFFFFFFFFFFF AND DUP2 MSTORE PUSH1 0x20 ADD PUSH0 DUP2 MSTORE PUSH1 0x20 ADD DUP5 DUP2 MSTORE PUSH1 0x20 ADD DUP4 DUP2 MSTORE POP SWAP1 DUP1 PUSH1 0x1 DUP2 SLOAD ADD DUP1 DUP3 SSTORE DUP1 SWAP2 POP POP PUSH1 0x1 SWAP1 SUB SWAP1 PUSH0 MSTORE PUSH1 0x20 PUSH0 KECCAK256 SWAP1 PUSH1 0x5 MUL ADD PUSH0 SWAP1 SWAP2 SWAP1 SWAP2 SWAP1 SWAP2 POP PUSH0 DUP3 ADD MLOAD DUP2 PUSH0 ADD PUSH0 PUSH2 0x100 EXP DUP2 SLOAD DUP2 PUSH20 0xFFFFFFFFFFFFFFFFFFFFFFFFFFFFFFFFFFFFFFFF MUL NOT AND SWAP1 DUP4 PUSH20 0xFFFFFFFFFFFFFFFFFFFFFFFFFFFFFFFFFFFFFFFF AND MUL OR SWAP1 SSTORE POP PUSH1 0x20 DUP3 ADD MLOAD DUP2 PUSH1 0x1 ADD PUSH0 PUSH2 0x100 EXP DUP2 SLOAD DUP2 PUSH20 0xFFFFFFFFFFFFFFFFFFFFFFFFFFFFFFFFFFFFFFFF MUL NOT AND SWAP1 DUP4 PUSH20 0xFFFFFFFFFFFFFFFFFFFFFFFFFFFFFFFFFFFFFFFF AND MUL OR SWAP1 SSTORE POP PUSH1 0x40 DUP3 ADD MLOAD DUP2 PUSH1 0x2 ADD SSTORE PUSH1 0x60 DUP3 ADD MLOAD DUP2 PUSH1 0x3 ADD SSTORE PUSH1 0x80 DUP3 ADD MLOAD DUP2 PUSH1 0x4 ADD SSTORE POP POP PUSH1 0xA PUSH0 DUP2 SLOAD DUP1 SWAP3 SWAP2 SWAP1 PUSH2 0x10CB SWAP1 PUSH2 0x2AF0 JUMP JUMPDEST SWAP2 SWAP1 POP SSTORE POP POP POP POP POP JUMP JUMPDEST PUSH1 0xD PUSH1 0x20 MSTORE DUP1 PUSH0 MSTORE PUSH1 0x40 PUSH0 KECCAK256 PUSH0 SWAP2 POP SWAP1 POP SLOAD DUP2 JUMP JUMPDEST PUSH2 0x10F3 PUSH2 0x18A2 JUMP JUMPDEST DUP2 PUSH1 0x3 DUP2 SWAP1 SSTORE POP DUP1 PUSH1 0x4 DUP2 SWAP1 SSTORE POP POP POP JUMP JUMPDEST PUSH1 0x9 PUSH1 0x20 MSTORE DUP2 PUSH0 MSTORE PUSH1 0x40 PUSH0 KECCAK256 PUSH1 0x20 MSTORE DUP1 PUSH0 MSTORE PUSH1 0x40 PUSH0 KECCAK256 PUSH0 SWAP2 POP SWAP2 POP POP SLOAD DUP2 JUMP JUMPDEST PUSH1 0x60 PUSH1 0xE DUP1 SLOAD DUP1 PUSH1 0x20 MUL PUSH1 0x20 ADD PUSH1 0x40 MLOAD SWAP1 DUP2 ADD PUSH1 0x40 MSTORE DUP1 SWAP3 SWAP2 SWAP1 DUP2 DUP2 MSTORE PUSH1 0x20 ADD PUSH0 SWAP1 JUMPDEST DUP3 DUP3 LT ISZERO PUSH2 0x127A JUMPI DUP4 DUP3 SWAP1 PUSH0 MSTORE PUSH1 0x20 PUSH0 KECCAK256 SWAP1 PUSH1 0x5 MUL ADD PUSH1 0x40 MLOAD DUP1 PUSH1 0xA0 ADD PUSH1 0x40 MSTORE SWAP1 DUP2 PUSH0 DUP3 ADD SLOAD DUP2 MSTORE PUSH1 0x20 ADD PUSH1 0x1 DUP3 ADD SLOAD DUP2 MSTORE PUSH1 0x20 ADD PUSH1 0x2 DUP3 ADD PUSH0 SWAP1 SLOAD SWAP1 PUSH2 0x100 EXP SWAP1 DIV PUSH20 0xFFFFFFFFFFFFFFFFFFFFFFFFFFFFFFFFFFFFFFFF AND PUSH20 0xFFFFFFFFFFFFFFFFFFFFFFFFFFFFFFFFFFFFFFFF AND PUSH20 0xFFFFFFFFFFFFFFFFFFFFFFFFFFFFFFFFFFFFFFFF AND DUP2 MSTORE PUSH1 0x20 ADD PUSH1 0x3 DUP3 ADD DUP1 SLOAD PUSH2 0x11E1 SWAP1 PUSH2 0x285D JUMP JUMPDEST DUP1 PUSH1 0x1F ADD PUSH1 0x20 DUP1 SWAP2 DIV MUL PUSH1 0x20 ADD PUSH1 0x40 MLOAD SWAP1 DUP2 ADD PUSH1 0x40 MSTORE DUP1 SWAP3 SWAP2 SWAP1 DUP2 DUP2 MSTORE PUSH1 0x20 ADD DUP3 DUP1 SLOAD PUSH2 0x120D SWAP1 PUSH2 0x285D JUMP JUMPDEST DUP1 ISZERO PUSH2 0x1258 JUMPI DUP1 PUSH1 0x1F LT PUSH2 0x122F JUMPI PUSH2 0x100 DUP1 DUP4 SLOAD DIV MUL DUP4 MSTORE SWAP2 PUSH1 0x20 ADD SWAP2 PUSH2 0x1258 JUMP JUMPDEST DUP3 ADD SWAP2 SWAP1 PUSH0 MSTORE PUSH1 0x20 PUSH0 KECCAK256 SWAP1 JUMPDEST DUP2 SLOAD DUP2 MSTORE SWAP1 PUSH1 0x1 ADD SWAP1 PUSH1 0x20 ADD DUP1 DUP4 GT PUSH2 0x123B JUMPI DUP3 SWAP1 SUB PUSH1 0x1F AND DUP3 ADD SWAP2 JUMPDEST POP POP POP POP POP DUP2 MSTORE PUSH1 0x20 ADD PUSH1 0x4 DUP3 ADD SLOAD DUP2 MSTORE POP POP DUP2 MSTORE PUSH1 0x20 ADD SWAP1 PUSH1 0x1 ADD SWAP1 PUSH2 0x1148 JUMP JUMPDEST POP POP POP POP SWAP1 POP SWAP1 JUMP JUMPDEST PUSH2 0x128B PUSH2 0x1929 JUMP JUMPDEST DUP2 TIMESTAMP GT ISZERO PUSH2 0x12CE JUMPI PUSH1 0x40 MLOAD PUSH32 0x8C379A000000000000000000000000000000000000000000000000000000000 DUP2 MSTORE PUSH1 0x4 ADD PUSH2 0x12C5 SWAP1 PUSH2 0x2B81 JUMP JUMPDEST PUSH1 0x40 MLOAD DUP1 SWAP2 SUB SWAP1 REVERT JUMPDEST DUP4 DUP7 EQ PUSH2 0x1310 JUMPI PUSH1 0x40 MLOAD PUSH32 0x8C379A000000000000000000000000000000000000000000000000000000000 DUP2 MSTORE PUSH1 0x4 ADD PUSH2 0x1307 SWAP1 PUSH2 0x2BE9 JUMP JUMPDEST PUSH1 0x40 MLOAD DUP1 SWAP2 SUB SWAP1 REVERT JUMPDEST PUSH1 0xA SLOAD DUP5 LT PUSH2 0x1354 JUMPI PUSH1 0x40 MLOAD PUSH32 0x8C379A000000000000000000000000000000000000000000000000000000000 DUP2 MSTORE PUSH1 0x4 ADD PUSH2 0x134B SWAP1 PUSH2 0x2C51 JUMP JUMPDEST PUSH1 0x40 MLOAD DUP1 SWAP2 SUB SWAP1 REVERT JUMPDEST PUSH1 0x8 PUSH0 CALLER PUSH20 0xFFFFFFFFFFFFFFFFFFFFFFFFFFFFFFFFFFFFFFFF AND PUSH20 0xFFFFFFFFFFFFFFFFFFFFFFFFFFFFFFFFFFFFFFFF AND DUP2 MSTORE PUSH1 0x20 ADD SWAP1 DUP2 MSTORE PUSH1 0x20 ADD PUSH0 KECCAK256 SLOAD DUP6 GT ISZERO PUSH2 0x13D4 JUMPI PUSH1 0x40 MLOAD PUSH32 0x8C379A000000000000000000000000000000000000000000000000000000000 DUP2 MSTORE PUSH1 0x4 ADD PUSH2 0x13CB SWAP1 PUSH2 0x2CB9 JUMP JUMPDEST PUSH1 0x40 MLOAD DUP1 SWAP2 SUB SWAP1 REVERT JUMPDEST PUSH0 PUSH3 0x15180 TIMESTAMP PUSH2 0x13E4 SWAP2 SWAP1 PUSH2 0x2A58 JUMP JUMPDEST SWAP1 POP PUSH1 0x4 SLOAD DUP7 PUSH1 0x9 PUSH0 CALLER PUSH20 0xFFFFFFFFFFFFFFFFFFFFFFFFFFFFFFFFFFFFFFFF AND PUSH20 0xFFFFFFFFFFFFFFFFFFFFFFFFFFFFFFFFFFFFFFFF AND DUP2 MSTORE PUSH1 0x20 ADD SWAP1 DUP2 MSTORE PUSH1 0x20 ADD PUSH0 KECCAK256 PUSH0 DUP5 DUP2 MSTORE PUSH1 0x20 ADD SWAP1 DUP2 MSTORE PUSH1 0x20 ADD PUSH0 KECCAK256 SLOAD PUSH2 0x1441 SWAP2 SWAP1 PUSH2 0x2CD7 JUMP JUMPDEST GT ISZERO PUSH2 0x1482 JUMPI PUSH1 0x40 MLOAD PUSH32 0x8C379A000000000000000000000000000000000000000000000000000000000 DUP2 MSTORE PUSH1 0x4 ADD PUSH2 0x1479 SWAP1 PUSH2 0x2D54 JUMP JUMPDEST PUSH1 0x40 MLOAD DUP1 SWAP2 SUB SWAP1 REVERT JUMPDEST PUSH0 CALLER DUP8 DUP8 DUP8 DUP8 PUSH1 0x40 MLOAD PUSH1 0x20 ADD PUSH2 0x149C SWAP6 SWAP5 SWAP4 SWAP3 SWAP2 SWAP1 PUSH2 0x2DD7 JUMP JUMPDEST PUSH1 0x40 MLOAD PUSH1 0x20 DUP2 DUP4 SUB SUB DUP2 MSTORE SWAP1 PUSH1 0x40 MSTORE DUP1 MLOAD SWAP1 PUSH1 0x20 ADD KECCAK256 SWAP1 POP PUSH1 0x7 PUSH0 DUP3 DUP2 MSTORE PUSH1 0x20 ADD SWAP1 DUP2 MSTORE PUSH1 0x20 ADD PUSH0 KECCAK256 PUSH0 SWAP1 SLOAD SWAP1 PUSH2 0x100 EXP SWAP1 DIV PUSH1 0xFF AND ISZERO PUSH2 0x1512 JUMPI PUSH1 0x40 MLOAD PUSH32 0x8C379A000000000000000000000000000000000000000000000000000000000 DUP2 MSTORE PUSH1 0x4 ADD PUSH2 0x1509 SWAP1 PUSH2 0x2E7F JUMP JUMPDEST PUSH1 0x40 MLOAD DUP1 SWAP2 SUB SWAP1 REVERT JUMPDEST PUSH0 DUP2 PUSH1 0x40 MLOAD PUSH1 0x20 ADD PUSH2 0x1524 SWAP2 SWAP1 PUSH2 0x2F11 JUMP JUMPDEST PUSH1 0x40 MLOAD PUSH1 0x20 DUP2 DUP4 SUB SUB DUP2 MSTORE SWAP1 PUSH1 0x40 MSTORE DUP1 MLOAD SWAP1 PUSH1 0x20 ADD KECCAK256 SWAP1 POP PUSH1 0x1 PUSH0 SWAP1 SLOAD SWAP1 PUSH2 0x100 EXP SWAP1 DIV PUSH20 0xFFFFFFFFFFFFFFFFFFFFFFFFFFFFFFFFFFFFFFFF AND PUSH20 0xFFFFFFFFFFFFFFFFFFFFFFFFFFFFFFFFFFFFFFFF AND PUSH2 0x157E DUP3 DUP7 PUSH2 0x1CBE JUMP JUMPDEST PUSH20 0xFFFFFFFFFFFFFFFFFFFFFFFFFFFFFFFFFFFFFFFF AND EQ PUSH2 0x15D4 JUMPI PUSH1 0x40 MLOAD PUSH32 0x8C379A000000000000000000000000000000000000000000000000000000000 DUP2 MSTORE PUSH1 0x4 ADD PUSH2 0x15CB SWAP1 PUSH2 0x2F80 JUMP JUMPDEST PUSH1 0x40 MLOAD DUP1 SWAP2 SUB SWAP1 REVERT JUMPDEST PUSH1 0x1 PUSH1 0x7 PUSH0 DUP5 DUP2 MSTORE PUSH1 0x20 ADD SWAP1 DUP2 MSTORE PUSH1 0x20 ADD PUSH0 KECCAK256 PUSH0 PUSH2 0x100 EXP DUP2 SLOAD DUP2 PUSH1 0xFF MUL NOT AND SWAP1 DUP4 ISZERO ISZERO MUL OR SWAP1 SSTORE POP DUP8 PUSH1 0x9 PUSH0 CALLER PUSH20 0xFFFFFFFFFFFFFFFFFFFFFFFFFFFFFFFFFFFFFFFF AND PUSH20 0xFFFFFFFFFFFFFFFFFFFFFFFFFFFFFFFFFFFFFFFF AND DUP2 MSTORE PUSH1 0x20 ADD SWAP1 DUP2 MSTORE PUSH1 0x20 ADD PUSH0 KECCAK256 PUSH0 DUP6 DUP2 MSTORE PUSH1 0x20 ADD SWAP1 DUP2 MSTORE PUSH1 0x20 ADD PUSH0 KECCAK256 PUSH0 DUP3 DUP3 SLOAD PUSH2 0x1658 SWAP2 SWAP1 PUSH2 0x2CD7 JUMP JUMPDEST SWAP3 POP POP DUP2 SWAP1 SSTORE POP DUP8 PUSH1 0x8 PUSH0 CALLER PUSH20 0xFFFFFFFFFFFFFFFFFFFFFFFFFFFFFFFFFFFFFFFF AND PUSH20 0xFFFFFFFFFFFFFFFFFFFFFFFFFFFFFFFFFFFFFFFF AND DUP2 MSTORE PUSH1 0x20 ADD SWAP1 DUP2 MSTORE PUSH1 0x20 ADD PUSH0 KECCAK256 PUSH0 DUP3 DUP3 SLOAD PUSH2 0x16AB SWAP2 SWAP1 PUSH2 0x29B7 JUMP JUMPDEST SWAP3 POP POP DUP2 SWAP1 SSTORE POP PUSH0 PUSH1 0x5 SLOAD GT ISZERO PUSH2 0x1769 JUMPI PUSH1 0x5 SLOAD CALLVALUE LT ISZERO PUSH2 0x1701 JUMPI PUSH1 0x40 MLOAD PUSH32 0x8C379A000000000000000000000000000000000000000000000000000000000 DUP2 MSTORE PUSH1 0x4 ADD PUSH2 0x16F8 SWAP1 PUSH2 0x2FE8 JUMP JUMPDEST PUSH1 0x40 MLOAD DUP1 SWAP2 SUB SWAP1 REVERT JUMPDEST PUSH1 0x2 PUSH0 SWAP1 SLOAD SWAP1 PUSH2 0x100 EXP SWAP1 DIV PUSH20 0xFFFFFFFFFFFFFFFFFFFFFFFFFFFFFFFFFFFFFFFF AND PUSH20 0xFFFFFFFFFFFFFFFFFFFFFFFFFFFFFFFFFFFFFFFF AND PUSH2 0x8FC PUSH1 0x5 SLOAD SWAP1 DUP2 ISZERO MUL SWAP1 PUSH1 0x40 MLOAD PUSH0 PUSH1 0x40 MLOAD DUP1 DUP4 SUB DUP2 DUP6 DUP9 DUP9 CALL SWAP4 POP POP POP POP ISZERO DUP1 ISZERO PUSH2 0x1767 JUMPI RETURNDATASIZE PUSH0 DUP1 RETURNDATACOPY RETURNDATASIZE PUSH0 REVERT JUMPDEST POP JUMPDEST PUSH2 0x1773 DUP10 DUP10 PUSH2 0x1D28 JUMP JUMPDEST PUSH2 0x17B4 DUP10 DUP10 CALLER PUSH1 0x40 MLOAD DUP1 PUSH1 0x40 ADD PUSH1 0x40 MSTORE DUP1 PUSH1 0xD DUP2 MSTORE PUSH1 0x20 ADD PUSH32 0x436C61696D416E645374616B6500000000000000000000000000000000000000 DUP2 MSTORE POP PUSH2 0x1AFE JUMP JUMPDEST POP POP POP PUSH2 0x17BF PUSH2 0x1BE3 JUMP JUMPDEST POP POP POP POP POP POP JUMP JUMPDEST PUSH2 0x17CF PUSH2 0x18A2 JUMP JUMPDEST DUP1 PUSH1 0x2 PUSH0 PUSH2 0x100 EXP DUP2 SLOAD DUP2 PUSH20 0xFFFFFFFFFFFFFFFFFFFFFFFFFFFFFFFFFFFFFFFF MUL NOT AND SWAP1 DUP4 PUSH20 0xFFFFFFFFFFFFFFFFFFFFFFFFFFFFFFFFFFFFFFFF AND MUL OR SWAP1 SSTORE POP POP JUMP JUMPDEST PUSH2 0x181A PUSH2 0x18A2 JUMP JUMPDEST PUSH0 PUSH20 0xFFFFFFFFFFFFFFFFFFFFFFFFFFFFFFFFFFFFFFFF AND DUP2 PUSH20 0xFFFFFFFFFFFFFFFFFFFFFFFFFFFFFFFFFFFFFFFF AND SUB PUSH2 0x188A JUMPI PUSH0 PUSH1 0x40 MLOAD PUSH32 0x1E4FBDF700000000000000000000000000000000000000000000000000000000 DUP2 MSTORE PUSH1 0x4 ADD PUSH2 0x1881 SWAP2 SWAP1 PUSH2 0x217B JUMP JUMPDEST PUSH1 0x40 MLOAD DUP1 SWAP2 SUB SWAP1 REVERT JUMPDEST PUSH2 0x1893 DUP2 PUSH2 0x1BFD JUMP JUMPDEST POP JUMP JUMPDEST PUSH1 0xA SLOAD DUP2 JUMP JUMPDEST PUSH1 0x3 SLOAD DUP2 JUMP JUMPDEST PUSH2 0x18AA PUSH2 0x1E77 JUMP JUMPDEST PUSH20 0xFFFFFFFFFFFFFFFFFFFFFFFFFFFFFFFFFFFFFFFF AND PUSH2 0x18C8 PUSH2 0xCE8 JUMP JUMPDEST PUSH20 0xFFFFFFFFFFFFFFFFFFFFFFFFFFFFFFFFFFFFFFFF AND EQ PUSH2 0x1927 JUMPI PUSH2 0x18EB PUSH2 0x1E77 JUMP JUMPDEST PUSH1 0x40 MLOAD PUSH32 0x118CDAA700000000000000000000000000000000000000000000000000000000 DUP2 MSTORE PUSH1 0x4 ADD PUSH2 0x191E SWAP2 SWAP1 PUSH2 0x217B JUMP JUMPDEST PUSH1 0x40 MLOAD DUP1 SWAP2 SUB SWAP1 REVERT JUMPDEST JUMP JUMPDEST PUSH2 0x1931 PUSH2 0x1E7E JUMP JUMPDEST PUSH1 0x2 PUSH2 0x1943 PUSH2 0x193E PUSH2 0x1EBF JUMP JUMPDEST PUSH2 0x1EE8 JUMP JUMPDEST PUSH0 ADD DUP2 SWAP1 SSTORE POP JUMP JUMPDEST PUSH0 DUP1 PUSH1 0xB DUP4 DUP2 SLOAD DUP2 LT PUSH2 0x1961 JUMPI PUSH2 0x1960 PUSH2 0x288D JUMP JUMPDEST JUMPDEST SWAP1 PUSH0 MSTORE PUSH1 0x20 PUSH0 KECCAK256 SWAP1 PUSH1 0x5 MUL ADD PUSH1 0x40 MLOAD DUP1 PUSH1 0xA0 ADD PUSH1 0x40 MSTORE SWAP1 DUP2 PUSH0 DUP3 ADD PUSH0 SWAP1 SLOAD SWAP1 PUSH2 0x100 EXP SWAP1 DIV PUSH20 0xFFFFFFFFFFFFFFFFFFFFFFFFFFFFFFFFFFFFFFFF AND PUSH20 0xFFFFFFFFFFFFFFFFFFFFFFFFFFFFFFFFFFFFFFFF AND PUSH20 0xFFFFFFFFFFFFFFFFFFFFFFFFFFFFFFFFFFFFFFFF AND DUP2 MSTORE PUSH1 0x20 ADD PUSH1 0x1 DUP3 ADD PUSH0 SWAP1 SLOAD SWAP1 PUSH2 0x100 EXP SWAP1 DIV PUSH20 0xFFFFFFFFFFFFFFFFFFFFFFFFFFFFFFFFFFFFFFFF AND PUSH20 0xFFFFFFFFFFFFFFFFFFFFFFFFFFFFFFFFFFFFFFFF AND PUSH20 0xFFFFFFFFFFFFFFFFFFFFFFFFFFFFFFFFFFFFFFFF AND DUP2 MSTORE PUSH1 0x20 ADD PUSH1 0x2 DUP3 ADD SLOAD DUP2 MSTORE PUSH1 0x20 ADD PUSH1 0x3 DUP3 ADD SLOAD DUP2 MSTORE PUSH1 0x20 ADD PUSH1 0x4 DUP3 ADD SLOAD DUP2 MSTORE POP POP SWAP1 POP PUSH0 PUSH3 0x15180 DUP6 PUSH1 0x20 ADD MLOAD TIMESTAMP PUSH2 0x1A56 SWAP2 SWAP1 PUSH2 0x29B7 JUMP JUMPDEST PUSH2 0x1A60 SWAP2 SWAP1 PUSH2 0x2A58 JUMP JUMPDEST SWAP1 POP DUP2 PUSH1 0x80 ADD MLOAD DUP2 GT ISZERO PUSH2 0x1A76 JUMPI DUP2 PUSH1 0x80 ADD MLOAD SWAP1 POP JUMPDEST PUSH2 0x8E94 DUP3 PUSH1 0x60 ADD MLOAD DUP3 DUP8 PUSH0 ADD MLOAD PUSH2 0x1A8D SWAP2 SWAP1 PUSH2 0x29EA JUMP JUMPDEST PUSH2 0x1A97 SWAP2 SWAP1 PUSH2 0x29EA JUMP JUMPDEST PUSH2 0x1AA1 SWAP2 SWAP1 PUSH2 0x2A58 JUMP JUMPDEST SWAP3 POP POP POP SWAP3 SWAP2 POP POP JUMP JUMPDEST PUSH2 0x1AB8 DUP4 DUP4 DUP4 PUSH1 0x1 PUSH2 0x1EF1 JUMP JUMPDEST PUSH2 0x1AF9 JUMPI DUP3 PUSH1 0x40 MLOAD PUSH32 0x5274AFE700000000000000000000000000000000000000000000000000000000 DUP2 MSTORE PUSH1 0x4 ADD PUSH2 0x1AF0 SWAP2 SWAP1 PUSH2 0x217B JUMP JUMPDEST PUSH1 0x40 MLOAD DUP1 SWAP2 SUB SWAP1 REVERT JUMPDEST POP POP POP JUMP JUMPDEST PUSH1 0xE PUSH1 0x40 MLOAD DUP1 PUSH1 0xA0 ADD PUSH1 0x40 MSTORE DUP1 DUP7 DUP2 MSTORE PUSH1 0x20 ADD DUP6 DUP2 MSTORE PUSH1 0x20 ADD DUP5 PUSH20 0xFFFFFFFFFFFFFFFFFFFFFFFFFFFFFFFFFFFFFFFF AND DUP2 MSTORE PUSH1 0x20 ADD DUP4 DUP2 MSTORE PUSH1 0x20 ADD TIMESTAMP DUP2 MSTORE POP SWAP1 DUP1 PUSH1 0x1 DUP2 SLOAD ADD DUP1 DUP3 SSTORE DUP1 SWAP2 POP POP PUSH1 0x1 SWAP1 SUB SWAP1 PUSH0 MSTORE PUSH1 0x20 PUSH0 KECCAK256 SWAP1 PUSH1 0x5 MUL ADD PUSH0 SWAP1 SWAP2 SWAP1 SWAP2 SWAP1 SWAP2 POP PUSH0 DUP3 ADD MLOAD DUP2 PUSH0 ADD SSTORE PUSH1 0x20 DUP3 ADD MLOAD DUP2 PUSH1 0x1 ADD SSTORE PUSH1 0x40 DUP3 ADD MLOAD DUP2 PUSH1 0x2 ADD PUSH0 PUSH2 0x100 EXP DUP2 SLOAD DUP2 PUSH20 0xFFFFFFFFFFFFFFFFFFFFFFFFFFFFFFFFFFFFFFFF MUL NOT AND SWAP1 DUP4 PUSH20 0xFFFFFFFFFFFFFFFFFFFFFFFFFFFFFFFFFFFFFFFF AND MUL OR SWAP1 SSTORE POP PUSH1 0x60 DUP3 ADD MLOAD DUP2 PUSH1 0x3 ADD SWAP1 DUP2 PUSH2 0x1BD0 SWAP2 SWAP1 PUSH2 0x319A JUMP JUMPDEST POP PUSH1 0x80 DUP3 ADD MLOAD DUP2 PUSH1 0x4 ADD SSTORE POP POP POP POP POP POP JUMP JUMPDEST PUSH1 0x1 PUSH2 0x1BF5 PUSH2 0x1BF0 PUSH2 0x1EBF JUMP JUMPDEST PUSH2 0x1EE8 JUMP JUMPDEST PUSH0 ADD DUP2 SWAP1 SSTORE POP JUMP JUMPDEST PUSH0 DUP1 PUSH0 SWAP1 SLOAD SWAP1 PUSH2 0x100 EXP SWAP1 DIV PUSH20 0xFFFFFFFFFFFFFFFFFFFFFFFFFFFFFFFFFFFFFFFF AND SWAP1 POP DUP2 PUSH0 DUP1 PUSH2 0x100 EXP DUP2 SLOAD DUP2 PUSH20 0xFFFFFFFFFFFFFFFFFFFFFFFFFFFFFFFFFFFFFFFF MUL NOT AND SWAP1 DUP4 PUSH20 0xFFFFFFFFFFFFFFFFFFFFFFFFFFFFFFFFFFFFFFFF AND MUL OR SWAP1 SSTORE POP DUP2 PUSH20 0xFFFFFFFFFFFFFFFFFFFFFFFFFFFFFFFFFFFFFFFF AND DUP2 PUSH20 0xFFFFFFFFFFFFFFFFFFFFFFFFFFFFFFFFFFFFFFFF AND PUSH32 0x8BE0079C531659141344CD1FD0A4F28419497F9722A3DAAFE3B4186F6B6457E0 PUSH1 0x40 MLOAD PUSH1 0x40 MLOAD DUP1 SWAP2 SUB SWAP1 LOG3 POP POP JUMP JUMPDEST PUSH0 DUP1 PUSH0 DUP1 PUSH2 0x1CCB DUP6 PUSH2 0x1F53 JUMP JUMPDEST SWAP3 POP SWAP3 POP SWAP3 POP PUSH1 0x1 DUP7 DUP3 DUP6 DUP6 PUSH1 0x40 MLOAD PUSH0 DUP2 MSTORE PUSH1 0x20 ADD PUSH1 0x40 MSTORE PUSH1 0x40 MLOAD PUSH2 0x1CF3 SWAP5 SWAP4 SWAP3 SWAP2 SWAP1 PUSH2 0x3293 JUMP JUMPDEST PUSH1 0x20 PUSH1 0x40 MLOAD PUSH1 0x20 DUP2 SUB SWAP1 DUP1 DUP5 SUB SWAP1 DUP6 GAS STATICCALL ISZERO DUP1 ISZERO PUSH2 0x1D13 JUMPI RETURNDATASIZE PUSH0 DUP1 RETURNDATACOPY RETURNDATASIZE PUSH0 REVERT JUMPDEST POP POP POP PUSH1 0x20 PUSH1 0x40 MLOAD SUB MLOAD SWAP4 POP POP POP POP SWAP3 SWAP2 POP POP JUMP JUMPDEST PUSH0 PUSH1 0xB DUP4 DUP2 SLOAD DUP2 LT PUSH2 0x1D3D JUMPI PUSH2 0x1D3C PUSH2 0x288D JUMP JUMPDEST JUMPDEST SWAP1 PUSH0 MSTORE PUSH1 0x20 PUSH0 KECCAK256 SWAP1 PUSH1 0x5 MUL ADD SWAP1 POP PUSH0 PUSH1 0xC PUSH0 DUP6 DUP2 MSTORE PUSH1 0x20 ADD SWAP1 DUP2 MSTORE PUSH1 0x20 ADD PUSH0 KECCAK256 PUSH0 CALLER PUSH20 0xFFFFFFFFFFFFFFFFFFFFFFFFFFFFFFFFFFFFFFFF AND PUSH20 0xFFFFFFFFFFFFFFFFFFFFFFFFFFFFFFFFFFFFFFFF AND DUP2 MSTORE PUSH1 0x20 ADD SWAP1 DUP2 MSTORE PUSH1 0x20 ADD PUSH0 KECCAK256 SWAP1 POP DUP3 DUP3 PUSH1 0x2 ADD PUSH0 DUP3 DUP3 SLOAD PUSH2 0x1DAD SWAP2 SWAP1 PUSH2 0x2CD7 JUMP JUMPDEST SWAP3 POP POP DUP2 SWAP1 SSTORE POP DUP3 DUP2 PUSH0 ADD PUSH0 DUP3 DUP3 SLOAD PUSH2 0x1DC6 SWAP2 SWAP1 PUSH2 0x2CD7 JUMP JUMPDEST SWAP3 POP POP DUP2 SWAP1 SSTORE POP TIMESTAMP DUP2 PUSH1 0x1 ADD DUP2 SWAP1 SSTORE POP PUSH3 0x15180 DUP3 PUSH1 0x4 ADD SLOAD PUSH2 0x1DE9 SWAP2 SWAP1 PUSH2 0x29EA JUMP JUMPDEST TIMESTAMP PUSH2 0x1DF4 SWAP2 SWAP1 PUSH2 0x2CD7 JUMP JUMPDEST DUP2 PUSH1 0x2 ADD DUP2 SWAP1 SSTORE POP DUP3 PUSH1 0xD PUSH0 DUP5 PUSH0 ADD PUSH0 SWAP1 SLOAD SWAP1 PUSH2 0x100 EXP SWAP1 DIV PUSH20 0xFFFFFFFFFFFFFFFFFFFFFFFFFFFFFFFFFFFFFFFF AND PUSH20 0xFFFFFFFFFFFFFFFFFFFFFFFFFFFFFFFFFFFFFFFF AND PUSH20 0xFFFFFFFFFFFFFFFFFFFFFFFFFFFFFFFFFFFFFFFF AND DUP2 MSTORE PUSH1 0x20 ADD SWAP1 DUP2 MSTORE PUSH1 0x20 ADD PUSH0 KECCAK256 PUSH0 DUP3 DUP3 SLOAD PUSH2 0x1E6A SWAP2 SWAP1 PUSH2 0x2CD7 JUMP JUMPDEST SWAP3 POP POP DUP2 SWAP1 SSTORE POP POP POP POP POP JUMP JUMPDEST PUSH0 CALLER SWAP1 POP SWAP1 JUMP JUMPDEST PUSH2 0x1E86 PUSH2 0x1FB8 JUMP JUMPDEST ISZERO PUSH2 0x1EBD JUMPI PUSH1 0x40 MLOAD PUSH32 0x3EE5AEB500000000000000000000000000000000000000000000000000000000 DUP2 MSTORE PUSH1 0x4 ADD PUSH1 0x40 MLOAD DUP1 SWAP2 SUB SWAP1 REVERT JUMPDEST JUMP JUMPDEST PUSH0 PUSH32 0x9B779B17422D0DF92223018B32B4D1FA46E071723D6817E2486D003BECC55F00 PUSH0 SHL SWAP1 POP SWAP1 JUMP JUMPDEST PUSH0 DUP2 SWAP1 POP SWAP2 SWAP1 POP JUMP JUMPDEST PUSH0 DUP1 PUSH4 0xA9059CBB PUSH1 0xE0 SHL SWAP1 POP PUSH1 0x40 MLOAD DUP2 PUSH0 MSTORE PUSH0 NOT PUSH1 0x60 SHR DUP7 AND PUSH1 0x4 MSTORE DUP5 PUSH1 0x24 MSTORE PUSH1 0x20 PUSH0 PUSH1 0x44 PUSH0 DUP1 DUP12 GAS CALL SWAP3 POP PUSH1 0x1 PUSH0 MLOAD EQ DUP4 AND PUSH2 0x1F45 JUMPI DUP4 DUP4 ISZERO AND ISZERO PUSH2 0x1F39 JUMPI RETURNDATASIZE PUSH0 DUP3 RETURNDATACOPY RETURNDATASIZE DUP2 REVERT JUMPDEST PUSH0 DUP8 EXTCODESIZE GT RETURNDATASIZE ISZERO AND DUP4 AND SWAP3 POP JUMPDEST DUP1 PUSH1 0x40 MSTORE POP POP SWAP5 SWAP4 POP POP POP POP JUMP JUMPDEST PUSH0 DUP1 PUSH0 PUSH1 0x41 DUP5 MLOAD EQ PUSH2 0x1F9A JUMPI PUSH1 0x40 MLOAD PUSH32 0x8C379A000000000000000000000000000000000000000000000000000000000 DUP2 MSTORE PUSH1 0x4 ADD PUSH2 0x1F91 SWAP1 PUSH2 0x3320 JUMP JUMPDEST PUSH1 0x40 MLOAD DUP1 SWAP2 SUB SWAP1 REVERT JUMPDEST PUSH1 0x20 DUP5 ADD MLOAD SWAP3 POP PUSH1 0x40 DUP5 ADD MLOAD SWAP2 POP PUSH1 0x60 DUP5 ADD MLOAD PUSH0 BYTE SWAP1 POP SWAP2 SWAP4 SWAP1 SWAP3 POP JUMP JUMPDEST PUSH0 PUSH1 0x2 PUSH2 0x1FCB PUSH2 0x1FC6 PUSH2 0x1EBF JUMP JUMPDEST PUSH2 0x1EE8 JUMP JUMPDEST PUSH0 ADD SLOAD EQ SWAP1 POP SWAP1 JUMP JUMPDEST PUSH0 PUSH1 0x40 MLOAD SWAP1 POP SWAP1 JUMP JUMPDEST PUSH0 DUP1 REVERT JUMPDEST PUSH0 DUP1 REVERT JUMPDEST PUSH0 DUP2 SWAP1 POP SWAP2 SWAP1 POP JUMP JUMPDEST PUSH2 0x1FF7 DUP2 PUSH2 0x1FE5 JUMP JUMPDEST DUP2 EQ PUSH2 0x2001 JUMPI PUSH0 DUP1 REVERT JUMPDEST POP JUMP JUMPDEST PUSH0 DUP2 CALLDATALOAD SWAP1 POP PUSH2 0x2012 DUP2 PUSH2 0x1FEE JUMP JUMPDEST SWAP3 SWAP2 POP POP JUMP JUMPDEST PUSH0 DUP1 PUSH1 0x40 DUP4 DUP6 SUB SLT ISZERO PUSH2 0x202E JUMPI PUSH2 0x202D PUSH2 0x1FDD JUMP JUMPDEST JUMPDEST PUSH0 PUSH2 0x203B DUP6 DUP3 DUP7 ADD PUSH2 0x2004 JUMP JUMPDEST SWAP3 POP POP PUSH1 0x20 PUSH2 0x204C DUP6 DUP3 DUP7 ADD PUSH2 0x2004 JUMP JUMPDEST SWAP2 POP POP SWAP3 POP SWAP3 SWAP1 POP JUMP JUMPDEST PUSH0 PUSH1 0x20 DUP3 DUP5 SUB SLT ISZERO PUSH2 0x206B JUMPI PUSH2 0x206A PUSH2 0x1FDD JUMP JUMPDEST JUMPDEST PUSH0 PUSH2 0x2078 DUP5 DUP3 DUP6 ADD PUSH2 0x2004 JUMP JUMPDEST SWAP2 POP POP SWAP3 SWAP2 POP POP JUMP JUMPDEST PUSH0 PUSH20 0xFFFFFFFFFFFFFFFFFFFFFFFFFFFFFFFFFFFFFFFF DUP3 AND SWAP1 POP SWAP2 SWAP1 POP JUMP JUMPDEST PUSH0 DUP2 SWAP1 POP SWAP2 SWAP1 POP JUMP JUMPDEST PUSH0 PUSH2 0x20C3 PUSH2 0x20BE PUSH2 0x20B9 DUP5 PUSH2 0x2081 JUMP JUMPDEST PUSH2 0x20A0 JUMP JUMPDEST PUSH2 0x2081 JUMP JUMPDEST SWAP1 POP SWAP2 SWAP1 POP JUMP JUMPDEST PUSH0 PUSH2 0x20D4 DUP3 PUSH2 0x20A9 JUMP JUMPDEST SWAP1 POP SWAP2 SWAP1 POP JUMP JUMPDEST PUSH0 PUSH2 0x20E5 DUP3 PUSH2 0x20CA JUMP JUMPDEST SWAP1 POP SWAP2 SWAP1 POP JUMP JUMPDEST PUSH2 0x20F5 DUP2 PUSH2 0x20DB JUMP JUMPDEST DUP3 MSTORE POP POP JUMP JUMPDEST PUSH2 0x2104 DUP2 PUSH2 0x1FE5 JUMP JUMPDEST DUP3 MSTORE POP POP JUMP JUMPDEST PUSH0 PUSH1 0xA0 DUP3 ADD SWAP1 POP PUSH2 0x211D PUSH0 DUP4 ADD DUP9 PUSH2 0x20EC JUMP JUMPDEST PUSH2 0x212A PUSH1 0x20 DUP4 ADD DUP8 PUSH2 0x20EC JUMP JUMPDEST PUSH2 0x2137 PUSH1 0x40 DUP4 ADD DUP7 PUSH2 0x20FB JUMP JUMPDEST PUSH2 0x2144 PUSH1 0x60 DUP4 ADD DUP6 PUSH2 0x20FB JUMP JUMPDEST PUSH2 0x2151 PUSH1 0x80 DUP4 ADD DUP5 PUSH2 0x20FB JUMP JUMPDEST SWAP7 SWAP6 POP POP POP POP POP POP JUMP JUMPDEST PUSH0 PUSH2 0x2165 DUP3 PUSH2 0x2081 JUMP JUMPDEST SWAP1 POP SWAP2 SWAP1 POP JUMP JUMPDEST PUSH2 0x2175 DUP2 PUSH2 0x215B JUMP JUMPDEST DUP3 MSTORE POP POP JUMP JUMPDEST PUSH0 PUSH1 0x20 DUP3 ADD SWAP1 POP PUSH2 0x218E PUSH0 DUP4 ADD DUP5 PUSH2 0x216C JUMP JUMPDEST SWAP3 SWAP2 POP POP JUMP JUMPDEST PUSH0 DUP2 MLOAD SWAP1 POP SWAP2 SWAP1 POP JUMP JUMPDEST PUSH0 DUP3 DUP3 MSTORE PUSH1 0x20 DUP3 ADD SWAP1 POP SWAP3 SWAP2 POP POP JUMP JUMPDEST DUP3 DUP2 DUP4 MCOPY PUSH0 DUP4 DUP4 ADD MSTORE POP POP POP JUMP JUMPDEST PUSH0 PUSH1 0x1F NOT PUSH1 0x1F DUP4 ADD AND SWAP1 POP SWAP2 SWAP1 POP JUMP JUMPDEST PUSH0 PUSH2 0x21D6 DUP3 PUSH2 0x2194 JUMP JUMPDEST PUSH2 0x21E0 DUP2 DUP6 PUSH2 0x219E JUMP JUMPDEST SWAP4 POP PUSH2 0x21F0 DUP2 DUP6 PUSH1 0x20 DUP7 ADD PUSH2 0x21AE JUMP JUMPDEST PUSH2 0x21F9 DUP2 PUSH2 0x21BC JUMP JUMPDEST DUP5 ADD SWAP2 POP POP SWAP3 SWAP2 POP POP JUMP JUMPDEST PUSH0 PUSH1 0xA0 DUP3 ADD SWAP1 POP PUSH2 0x2217 PUSH0 DUP4 ADD DUP9 PUSH2 0x20FB JUMP JUMPDEST PUSH2 0x2224 PUSH1 0x20 DUP4 ADD DUP8 PUSH2 0x20FB JUMP JUMPDEST PUSH2 0x2231 PUSH1 0x40 DUP4 ADD DUP7 PUSH2 0x216C JUMP JUMPDEST DUP2 DUP2 SUB PUSH1 0x60 DUP4 ADD MSTORE PUSH2 0x2243 DUP2 DUP6 PUSH2 0x21CC JUMP JUMPDEST SWAP1 POP PUSH2 0x2252 PUSH1 0x80 DUP4 ADD DUP5 PUSH2 0x20FB JUMP JUMPDEST SWAP7 SWAP6 POP POP POP POP POP POP JUMP JUMPDEST PUSH2 0x2265 DUP2 PUSH2 0x215B JUMP JUMPDEST DUP2 EQ PUSH2 0x226F JUMPI PUSH0 DUP1 REVERT JUMPDEST POP JUMP JUMPDEST PUSH0 DUP2 CALLDATALOAD SWAP1 POP PUSH2 0x2280 DUP2 PUSH2 0x225C JUMP JUMPDEST SWAP3 SWAP2 POP POP JUMP JUMPDEST PUSH0 PUSH1 0x20 DUP3 DUP5 SUB SLT ISZERO PUSH2 0x229B JUMPI PUSH2 0x229A PUSH2 0x1FDD JUMP JUMPDEST JUMPDEST PUSH0 PUSH2 0x22A8 DUP5 DUP3 DUP6 ADD PUSH2 0x2272 JUMP JUMPDEST SWAP2 POP POP SWAP3 SWAP2 POP POP JUMP JUMPDEST PUSH0 PUSH1 0x20 DUP3 ADD SWAP1 POP PUSH2 0x22C4 PUSH0 DUP4 ADD DUP5 PUSH2 0x20FB JUMP JUMPDEST SWAP3 SWAP2 POP POP JUMP JUMPDEST PUSH0 DUP1 PUSH1 0x40 DUP4 DUP6 SUB SLT ISZERO PUSH2 0x22E0 JUMPI PUSH2 0x22DF PUSH2 0x1FDD JUMP JUMPDEST JUMPDEST PUSH0 PUSH2 0x22ED DUP6 DUP3 DUP7 ADD PUSH2 0x2004 JUMP JUMPDEST SWAP3 POP POP PUSH1 0x20 PUSH2 0x22FE DUP6 DUP3 DUP7 ADD PUSH2 0x2272 JUMP JUMPDEST SWAP2 POP POP SWAP3 POP SWAP3 SWAP1 POP JUMP JUMPDEST PUSH0 PUSH1 0x60 DUP3 ADD SWAP1 POP PUSH2 0x231B PUSH0 DUP4 ADD DUP7 PUSH2 0x20FB JUMP JUMPDEST PUSH2 0x2328 PUSH1 0x20 DUP4 ADD DUP6 PUSH2 0x20FB JUMP JUMPDEST PUSH2 0x2335 PUSH1 0x40 DUP4 ADD DUP5 PUSH2 0x20FB JUMP JUMPDEST SWAP5 SWAP4 POP POP POP POP JUMP JUMPDEST PUSH0 DUP2 SWAP1 POP SWAP2 SWAP1 POP JUMP JUMPDEST PUSH2 0x234F DUP2 PUSH2 0x233D JUMP JUMPDEST DUP2 EQ PUSH2 0x2359 JUMPI PUSH0 DUP1 REVERT JUMPDEST POP JUMP JUMPDEST PUSH0 DUP2 CALLDATALOAD SWAP1 POP PUSH2 0x236A DUP2 PUSH2 0x2346 JUMP JUMPDEST SWAP3 SWAP2 POP POP JUMP JUMPDEST PUSH0 PUSH1 0x20 DUP3 DUP5 SUB SLT ISZERO PUSH2 0x2385 JUMPI PUSH2 0x2384 PUSH2 0x1FDD JUMP JUMPDEST JUMPDEST PUSH0 PUSH2 0x2392 DUP5 DUP3 DUP6 ADD PUSH2 0x235C JUMP JUMPDEST SWAP2 POP POP SWAP3 SWAP2 POP POP JUMP JUMPDEST PUSH0 DUP2 ISZERO ISZERO SWAP1 POP SWAP2 SWAP1 POP JUMP JUMPDEST PUSH2 0x23AF DUP2 PUSH2 0x239B JUMP JUMPDEST DUP3 MSTORE POP POP JUMP JUMPDEST PUSH0 PUSH1 0x20 DUP3 ADD SWAP1 POP PUSH2 0x23C8 PUSH0 DUP4 ADD DUP5 PUSH2 0x23A6 JUMP JUMPDEST SWAP3 SWAP2 POP POP JUMP JUMPDEST PUSH0 PUSH2 0x23D8 DUP3 PUSH2 0x215B JUMP JUMPDEST SWAP1 POP SWAP2 SWAP1 POP JUMP JUMPDEST PUSH2 0x23E8 DUP2 PUSH2 0x23CE JUMP JUMPDEST DUP2 EQ PUSH2 0x23F2 JUMPI PUSH0 DUP1 REVERT JUMPDEST POP JUMP JUMPDEST PUSH0 DUP2 CALLDATALOAD SWAP1 POP PUSH2 0x2403 DUP2 PUSH2 0x23DF JUMP JUMPDEST SWAP3 SWAP2 POP POP JUMP JUMPDEST PUSH0 DUP1 PUSH0 DUP1 PUSH1 0x80 DUP6 DUP8 SUB SLT ISZERO PUSH2 0x2421 JUMPI PUSH2 0x2420 PUSH2 0x1FDD JUMP JUMPDEST JUMPDEST PUSH0 PUSH2 0x242E DUP8 DUP3 DUP9 ADD PUSH2 0x23F5 JUMP JUMPDEST SWAP5 POP POP PUSH1 0x20 PUSH2 0x243F DUP8 DUP3 DUP9 ADD PUSH2 0x23F5 JUMP JUMPDEST SWAP4 POP POP PUSH1 0x40 PUSH2 0x2450 DUP8 DUP3 DUP9 ADD PUSH2 0x2004 JUMP JUMPDEST SWAP3 POP POP PUSH1 0x60 PUSH2 0x2461 DUP8 DUP3 DUP9 ADD PUSH2 0x2004 JUMP JUMPDEST SWAP2 POP POP SWAP3 SWAP6 SWAP2 SWAP5 POP SWAP3 POP JUMP JUMPDEST PUSH0 DUP1 PUSH1 0x40 DUP4 DUP6 SUB SLT ISZERO PUSH2 0x2483 JUMPI PUSH2 0x2482 PUSH2 0x1FDD JUMP JUMPDEST JUMPDEST PUSH0 PUSH2 0x2490 DUP6 DUP3 DUP7 ADD PUSH2 0x2272 JUMP JUMPDEST SWAP3 POP POP PUSH1 0x20 PUSH2 0x24A1 DUP6 DUP3 DUP7 ADD PUSH2 0x2004 JUMP JUMPDEST SWAP2 POP POP SWAP3 POP SWAP3 SWAP1 POP JUMP JUMPDEST PUSH0 DUP2 MLOAD SWAP1 POP SWAP2 SWAP1 POP JUMP JUMPDEST PUSH0 DUP3 DUP3 MSTORE PUSH1 0x20 DUP3 ADD SWAP1 POP SWAP3 SWAP2 POP POP JUMP JUMPDEST PUSH0 DUP2 SWAP1 POP PUSH1 0x20 DUP3 ADD SWAP1 POP SWAP2 SWAP1 POP JUMP JUMPDEST PUSH2 0x24DD DUP2 PUSH2 0x1FE5 JUMP JUMPDEST DUP3 MSTORE POP POP JUMP JUMPDEST PUSH2 0x24EC DUP2 PUSH2 0x215B JUMP JUMPDEST DUP3 MSTORE POP POP JUMP JUMPDEST PUSH0 DUP3 DUP3 MSTORE PUSH1 0x20 DUP3 ADD SWAP1 POP SWAP3 SWAP2 POP POP JUMP JUMPDEST PUSH0 PUSH2 0x250C DUP3 PUSH2 0x2194 JUMP JUMPDEST PUSH2 0x2516 DUP2 DUP6 PUSH2 0x24F2 JUMP JUMPDEST SWAP4 POP PUSH2 0x2526 DUP2 DUP6 PUSH1 0x20 DUP7 ADD PUSH2 0x21AE JUMP JUMPDEST PUSH2 0x252F DUP2 PUSH2 0x21BC JUMP JUMPDEST DUP5 ADD SWAP2 POP POP SWAP3 SWAP2 POP POP JUMP JUMPDEST PUSH0 PUSH1 0xA0 DUP4 ADD PUSH0 DUP4 ADD MLOAD PUSH2 0x254F PUSH0 DUP7 ADD DUP3 PUSH2 0x24D4 JUMP JUMPDEST POP PUSH1 0x20 DUP4 ADD MLOAD PUSH2 0x2562 PUSH1 0x20 DUP7 ADD DUP3 PUSH2 0x24D4 JUMP JUMPDEST POP PUSH1 0x40 DUP4 ADD MLOAD PUSH2 0x2575 PUSH1 0x40 DUP7 ADD DUP3 PUSH2 0x24E3 JUMP JUMPDEST POP PUSH1 0x60 DUP4 ADD MLOAD DUP5 DUP3 SUB PUSH1 0x60 DUP7 ADD MSTORE PUSH2 0x258D DUP3 DUP3 PUSH2 0x2502 JUMP JUMPDEST SWAP2 POP POP PUSH1 0x80 DUP4 ADD MLOAD PUSH2 0x25A2 PUSH1 0x80 DUP7 ADD DUP3 PUSH2 0x24D4 JUMP JUMPDEST POP DUP1 SWAP2 POP POP SWAP3 SWAP2 POP POP JUMP JUMPDEST PUSH0 PUSH2 0x25B8 DUP4 DUP4 PUSH2 0x253A JUMP JUMPDEST SWAP1 POP SWAP3 SWAP2 POP POP JUMP JUMPDEST PUSH0 PUSH1 0x20 DUP3 ADD SWAP1 POP SWAP2 SWAP1 POP JUMP JUMPDEST PUSH0 PUSH2 0x25D6 DUP3 PUSH2 0x24AB JUMP JUMPDEST PUSH2 0x25E0 DUP2 DUP6 PUSH2 0x24B5 JUMP JUMPDEST SWAP4 POP DUP4 PUSH1 0x20 DUP3 MUL DUP6 ADD PUSH2 0x25F2 DUP6 PUSH2 0x24C5 JUMP JUMPDEST DUP1 PUSH0 JUMPDEST DUP6 DUP2 LT ISZERO PUSH2 0x262D JUMPI DUP5 DUP5 SUB DUP10 MSTORE DUP2 MLOAD PUSH2 0x260E DUP6 DUP3 PUSH2 0x25AD JUMP JUMPDEST SWAP5 POP PUSH2 0x2619 DUP4 PUSH2 0x25C0 JUMP JUMPDEST SWAP3 POP PUSH1 0x20 DUP11 ADD SWAP10 POP POP PUSH1 0x1 DUP2 ADD SWAP1 POP PUSH2 0x25F5 JUMP JUMPDEST POP DUP3 SWAP8 POP DUP8 SWAP6 POP POP POP POP POP POP SWAP3 SWAP2 POP POP JUMP JUMPDEST PUSH0 PUSH1 0x20 DUP3 ADD SWAP1 POP DUP2 DUP2 SUB PUSH0 DUP4 ADD MSTORE PUSH2 0x2657 DUP2 DUP5 PUSH2 0x25CC JUMP JUMPDEST SWAP1 POP SWAP3 SWAP2 POP POP JUMP JUMPDEST PUSH0 DUP1 REVERT JUMPDEST PUSH0 DUP1 REVERT JUMPDEST PUSH32 0x4E487B7100000000000000000000000000000000000000000000000000000000 PUSH0 MSTORE PUSH1 0x41 PUSH1 0x4 MSTORE PUSH1 0x24 PUSH0 REVERT JUMPDEST PUSH2 0x269D DUP3 PUSH2 0x21BC JUMP JUMPDEST DUP2 ADD DUP2 DUP2 LT PUSH8 0xFFFFFFFFFFFFFFFF DUP3 GT OR ISZERO PUSH2 0x26BC JUMPI PUSH2 0x26BB PUSH2 0x2667 JUMP JUMPDEST JUMPDEST DUP1 PUSH1 0x40 MSTORE POP POP POP JUMP JUMPDEST PUSH0 PUSH2 0x26CE PUSH2 0x1FD4 JUMP JUMPDEST SWAP1 POP PUSH2 0x26DA DUP3 DUP3 PUSH2 0x2694 JUMP JUMPDEST SWAP2 SWAP1 POP JUMP JUMPDEST PUSH0 PUSH8 0xFFFFFFFFFFFFFFFF DUP3 GT ISZERO PUSH2 0x26F9 JUMPI PUSH2 0x26F8 PUSH2 0x2667 JUMP JUMPDEST JUMPDEST PUSH2 0x2702 DUP3 PUSH2 0x21BC JUMP JUMPDEST SWAP1 POP PUSH1 0x20 DUP2 ADD SWAP1 POP SWAP2 SWAP1 POP JUMP JUMPDEST DUP3 DUP2 DUP4 CALLDATACOPY PUSH0 DUP4 DUP4 ADD MSTORE POP POP POP JUMP JUMPDEST PUSH0 PUSH2 0x272F PUSH2 0x272A DUP5 PUSH2 0x26DF JUMP JUMPDEST PUSH2 0x26C5 JUMP JUMPDEST SWAP1 POP DUP3 DUP2 MSTORE PUSH1 0x20 DUP2 ADD DUP5 DUP5 DUP5 ADD GT ISZERO PUSH2 0x274B JUMPI PUSH2 0x274A PUSH2 0x2663 JUMP JUMPDEST JUMPDEST PUSH2 0x2756 DUP5 DUP3 DUP6 PUSH2 0x270F JUMP JUMPDEST POP SWAP4 SWAP3 POP POP POP JUMP JUMPDEST PUSH0 DUP3 PUSH1 0x1F DUP4 ADD SLT PUSH2 0x2772 JUMPI PUSH2 0x2771 PUSH2 0x265F JUMP JUMPDEST JUMPDEST DUP2 CALLDATALOAD PUSH2 0x2782 DUP5 DUP3 PUSH1 0x20 DUP7 ADD PUSH2 0x271D JUMP JUMPDEST SWAP2 POP POP SWAP3 SWAP2 POP POP JUMP JUMPDEST PUSH0 DUP1 PUSH0 DUP1 PUSH0 DUP1 PUSH1 0xC0 DUP8 DUP10 SUB SLT ISZERO PUSH2 0x27A5 JUMPI PUSH2 0x27A4 PUSH2 0x1FDD JUMP JUMPDEST JUMPDEST PUSH0 PUSH2 0x27B2 DUP10 DUP3 DUP11 ADD PUSH2 0x2004 JUMP JUMPDEST SWAP7 POP POP PUSH1 0x20 PUSH2 0x27C3 DUP10 DUP3 DUP11 ADD PUSH2 0x2004 JUMP JUMPDEST SWAP6 POP POP PUSH1 0x40 PUSH2 0x27D4 DUP10 DUP3 DUP11 ADD PUSH2 0x2004 JUMP JUMPDEST SWAP5 POP POP PUSH1 0x60 PUSH2 0x27E5 DUP10 DUP3 DUP11 ADD PUSH2 0x2004 JUMP JUMPDEST SWAP4 POP POP PUSH1 0x80 PUSH2 0x27F6 DUP10 DUP3 DUP11 ADD PUSH2 0x2004 JUMP JUMPDEST SWAP3 POP POP PUSH1 0xA0 DUP8 ADD CALLDATALOAD PUSH8 0xFFFFFFFFFFFFFFFF DUP2 GT ISZERO PUSH2 0x2817 JUMPI PUSH2 0x2816 PUSH2 0x1FE1 JUMP JUMPDEST JUMPDEST PUSH2 0x2823 DUP10 DUP3 DUP11 ADD PUSH2 0x275E JUMP JUMPDEST SWAP2 POP POP SWAP3 SWAP6 POP SWAP3 SWAP6 POP SWAP3 SWAP6 JUMP JUMPDEST PUSH32 0x4E487B7100000000000000000000000000000000000000000000000000000000 PUSH0 MSTORE PUSH1 0x22 PUSH1 0x4 MSTORE PUSH1 0x24 PUSH0 REVERT JUMPDEST PUSH0 PUSH1 0x2 DUP3 DIV SWAP1 POP PUSH1 0x1 DUP3 AND DUP1 PUSH2 0x2874 JUMPI PUSH1 0x7F DUP3 AND SWAP2 POP JUMPDEST PUSH1 0x20 DUP3 LT DUP2 SUB PUSH2 0x2887 JUMPI PUSH2 0x2886 PUSH2 0x2830 JUMP JUMPDEST JUMPDEST POP SWAP2 SWAP1 POP JUMP JUMPDEST PUSH32 0x4E487B7100000000000000000000000000000000000000000000000000000000 PUSH0 MSTORE PUSH1 0x32 PUSH1 0x4 MSTORE PUSH1 0x24 PUSH0 REVERT JUMPDEST PUSH32 0x546F6F206D756368000000000000000000000000000000000000000000000000 PUSH0 DUP3 ADD MSTORE POP JUMP JUMPDEST PUSH0 PUSH2 0x28EE PUSH1 0x8 DUP4 PUSH2 0x219E JUMP JUMPDEST SWAP2 POP PUSH2 0x28F9 DUP3 PUSH2 0x28BA JUMP JUMPDEST PUSH1 0x20 DUP3 ADD SWAP1 POP SWAP2 SWAP1 POP JUMP JUMPDEST PUSH0 PUSH1 0x20 DUP3 ADD SWAP1 POP DUP2 DUP2 SUB PUSH0 DUP4 ADD MSTORE PUSH2 0x291B DUP2 PUSH2 0x28E2 JUMP JUMPDEST SWAP1 POP SWAP2 SWAP1 POP JUMP JUMPDEST PUSH32 0x4665652072657175697265640000000000000000000000000000000000000000 PUSH0 DUP3 ADD MSTORE POP JUMP JUMPDEST PUSH0 PUSH2 0x2956 PUSH1 0xC DUP4 PUSH2 0x219E JUMP JUMPDEST SWAP2 POP PUSH2 0x2961 DUP3 PUSH2 0x2922 JUMP JUMPDEST PUSH1 0x20 DUP3 ADD SWAP1 POP SWAP2 SWAP1 POP JUMP JUMPDEST PUSH0 PUSH1 0x20 DUP3 ADD SWAP1 POP DUP2 DUP2 SUB PUSH0 DUP4 ADD MSTORE PUSH2 0x2983 DUP2 PUSH2 0x294A JUMP JUMPDEST SWAP1 POP SWAP2 SWAP1 POP JUMP JUMPDEST PUSH32 0x4E487B7100000000000000000000000000000000000000000000000000000000 PUSH0 MSTORE PUSH1 0x11 PUSH1 0x4 MSTORE PUSH1 0x24 PUSH0 REVERT JUMPDEST PUSH0 PUSH2 0x29C1 DUP3 PUSH2 0x1FE5 JUMP JUMPDEST SWAP2 POP PUSH2 0x29CC DUP4 PUSH2 0x1FE5 JUMP JUMPDEST SWAP3 POP DUP3 DUP3 SUB SWAP1 POP DUP2 DUP2 GT ISZERO PUSH2 0x29E4 JUMPI PUSH2 0x29E3 PUSH2 0x298A JUMP JUMPDEST JUMPDEST SWAP3 SWAP2 POP POP JUMP JUMPDEST PUSH0 PUSH2 0x29F4 DUP3 PUSH2 0x1FE5 JUMP JUMPDEST SWAP2 POP PUSH2 0x29FF DUP4 PUSH2 0x1FE5 JUMP JUMPDEST SWAP3 POP DUP3 DUP3 MUL PUSH2 0x2A0D DUP2 PUSH2 0x1FE5 JUMP JUMPDEST SWAP2 POP DUP3 DUP3 DIV DUP5 EQ DUP4 ISZERO OR PUSH2 0x2A24 JUMPI PUSH2 0x2A23 PUSH2 0x298A JUMP JUMPDEST JUMPDEST POP SWAP3 SWAP2 POP POP JUMP JUMPDEST PUSH32 0x4E487B7100000000000000000000000000000000000000000000000000000000 PUSH0 MSTORE PUSH1 0x12 PUSH1 0x4 MSTORE PUSH1 0x24 PUSH0 REVERT JUMPDEST PUSH0 PUSH2 0x2A62 DUP3 PUSH2 0x1FE5 JUMP JUMPDEST SWAP2 POP PUSH2 0x2A6D DUP4 PUSH2 0x1FE5 JUMP JUMPDEST SWAP3 POP DUP3 PUSH2 0x2A7D JUMPI PUSH2 0x2A7C PUSH2 0x2A2B JUMP JUMPDEST JUMPDEST DUP3 DUP3 DIV SWAP1 POP SWAP3 SWAP2 POP POP JUMP JUMPDEST PUSH32 0x4E6F207265776172640000000000000000000000000000000000000000000000 PUSH0 DUP3 ADD MSTORE POP JUMP JUMPDEST PUSH0 PUSH2 0x2ABC PUSH1 0x9 DUP4 PUSH2 0x219E JUMP JUMPDEST SWAP2 POP PUSH2 0x2AC7 DUP3 PUSH2 0x2A88 JUMP JUMPDEST PUSH1 0x20 DUP3 ADD SWAP1 POP SWAP2 SWAP1 POP JUMP JUMPDEST PUSH0 PUSH1 0x20 DUP3 ADD SWAP1 POP DUP2 DUP2 SUB PUSH0 DUP4 ADD MSTORE PUSH2 0x2AE9 DUP2 PUSH2 0x2AB0 JUMP JUMPDEST SWAP1 POP SWAP2 SWAP1 POP JUMP JUMPDEST PUSH0 PUSH2 0x2AFA DUP3 PUSH2 0x1FE5 JUMP JUMPDEST SWAP2 POP PUSH32 0xFFFFFFFFFFFFFFFFFFFFFFFFFFFFFFFFFFFFFFFFFFFFFFFFFFFFFFFFFFFFFFFF DUP3 SUB PUSH2 0x2B2C JUMPI PUSH2 0x2B2B PUSH2 0x298A JUMP JUMPDEST JUMPDEST PUSH1 0x1 DUP3 ADD SWAP1 POP SWAP2 SWAP1 POP JUMP JUMPDEST PUSH32 0x4578706972656400000000000000000000000000000000000000000000000000 PUSH0 DUP3 ADD MSTORE POP JUMP JUMPDEST PUSH0 PUSH2 0x2B6B PUSH1 0x7 DUP4 PUSH2 0x219E JUMP JUMPDEST SWAP2 POP PUSH2 0x2B76 DUP3 PUSH2 0x2B37 JUMP JUMPDEST PUSH1 0x20 DUP3 ADD SWAP1 POP SWAP2 SWAP1 POP JUMP JUMPDEST PUSH0 PUSH1 0x20 DUP3 ADD SWAP1 POP DUP2 DUP2 SUB PUSH0 DUP4 ADD MSTORE PUSH2 0x2B98 DUP2 PUSH2 0x2B5F JUMP JUMPDEST SWAP1 POP SWAP2 SWAP1 POP JUMP JUMPDEST PUSH32 0x506F6F6C206D69736D6174636800000000000000000000000000000000000000 PUSH0 DUP3 ADD MSTORE POP JUMP JUMPDEST PUSH0 PUSH2 0x2BD3 PUSH1 0xD DUP4 PUSH2 0x219E JUMP JUMPDEST SWAP2 POP PUSH2 0x2BDE DUP3 PUSH2 0x2B9F JUMP JUMPDEST PUSH1 0x20 DUP3 ADD SWAP1 POP SWAP2 SWAP1 POP JUMP JUMPDEST PUSH0 PUSH1 0x20 DUP3 ADD SWAP1 POP DUP2 DUP2 SUB PUSH0 DUP4 ADD MSTORE PUSH2 0x2C00 DUP2 PUSH2 0x2BC7 JUMP JUMPDEST SWAP1 POP SWAP2 SWAP1 POP JUMP JUMPDEST PUSH32 0x496E76616C696420706F6F6C0000000000000000000000000000000000000000 PUSH0 DUP3 ADD MSTORE POP JUMP JUMPDEST PUSH0 PUSH2 0x2C3B PUSH1 0xC DUP4 PUSH2 0x219E JUMP JUMPDEST SWAP2 POP PUSH2 0x2C46 DUP3 PUSH2 0x2C07 JUMP JUMPDEST PUSH1 0x20 DUP3 ADD SWAP1 POP SWAP2 SWAP1 POP JUMP JUMPDEST PUSH0 PUSH1 0x20 DUP3 ADD SWAP1 POP DUP2 DUP2 SUB PUSH0 DUP4 ADD MSTORE PUSH2 0x2C68 DUP2 PUSH2 0x2C2F JUMP JUMPDEST SWAP1 POP SWAP2 SWAP1 POP JUMP JUMPDEST PUSH32 0x45786365656473207265776172642062616C616E636500000000000000000000 PUSH0 DUP3 ADD MSTORE POP JUMP JUMPDEST PUSH0 PUSH2 0x2CA3 PUSH1 0x16 DUP4 PUSH2 0x219E JUMP JUMPDEST SWAP2 POP PUSH2 0x2CAE DUP3 PUSH2 0x2C6F JUMP JUMPDEST PUSH1 0x20 DUP3 ADD SWAP1 POP SWAP2 SWAP1 POP JUMP JUMPDEST PUSH0 PUSH1 0x20 DUP3 ADD SWAP1 POP DUP2 DUP2 SUB PUSH0 DUP4 ADD MSTORE PUSH2 0x2CD0 DUP2 PUSH2 0x2C97 JUMP JUMPDEST SWAP1 POP SWAP2 SWAP1 POP JUMP JUMPDEST PUSH0 PUSH2 0x2CE1 DUP3 PUSH2 0x1FE5 JUMP JUMPDEST SWAP2 POP PUSH2 0x2CEC DUP4 PUSH2 0x1FE5 JUMP JUMPDEST SWAP3 POP DUP3 DUP3 ADD SWAP1 POP DUP1 DUP3 GT ISZERO PUSH2 0x2D04 JUMPI PUSH2 0x2D03 PUSH2 0x298A JUMP JUMPDEST JUMPDEST SWAP3 SWAP2 POP POP JUMP JUMPDEST PUSH32 0x4461696C79206C696D6974207265616368656400000000000000000000000000 PUSH0 DUP3 ADD MSTORE POP JUMP JUMPDEST PUSH0 PUSH2 0x2D3E PUSH1 0x13 DUP4 PUSH2 0x219E JUMP JUMPDEST SWAP2 POP PUSH2 0x2D49 DUP3 PUSH2 0x2D0A JUMP JUMPDEST PUSH1 0x20 DUP3 ADD SWAP1 POP SWAP2 SWAP1 POP JUMP JUMPDEST PUSH0 PUSH1 0x20 DUP3 ADD SWAP1 POP DUP2 DUP2 SUB PUSH0 DUP4 ADD MSTORE PUSH2 0x2D6B DUP2 PUSH2 0x2D32 JUMP JUMPDEST SWAP1 POP SWAP2 SWAP1 POP JUMP JUMPDEST PUSH0 DUP2 PUSH1 0x60 SHL SWAP1 POP SWAP2 SWAP1 POP JUMP JUMPDEST PUSH0 PUSH2 0x2D88 DUP3 PUSH2 0x2D72 JUMP JUMPDEST SWAP1 POP SWAP2 SWAP1 POP JUMP JUMPDEST PUSH0 PUSH2 0x2D99 DUP3 PUSH2 0x2D7E JUMP JUMPDEST SWAP1 POP SWAP2 SWAP1 POP JUMP JUMPDEST PUSH2 0x2DB1 PUSH2 0x2DAC DUP3 PUSH2 0x215B JUMP JUMPDEST PUSH2 0x2D8F JUMP JUMPDEST DUP3 MSTORE POP POP JUMP JUMPDEST PUSH0 DUP2 SWAP1 POP SWAP2 SWAP1 POP JUMP JUMPDEST PUSH2 0x2DD1 PUSH2 0x2DCC DUP3 PUSH2 0x1FE5 JUMP JUMPDEST PUSH2 0x2DB7 JUMP JUMPDEST DUP3 MSTORE POP POP JUMP JUMPDEST PUSH0 PUSH2 0x2DE2 DUP3 DUP9 PUSH2 0x2DA0 JUMP JUMPDEST PUSH1 0x14 DUP3 ADD SWAP2 POP PUSH2 0x2DF2 DUP3 DUP8 PUSH2 0x2DC0 JUMP JUMPDEST PUSH1 0x20 DUP3 ADD SWAP2 POP PUSH2 0x2E02 DUP3 DUP7 PUSH2 0x2DC0 JUMP JUMPDEST PUSH1 0x20 DUP3 ADD SWAP2 POP PUSH2 0x2E12 DUP3 DUP6 PUSH2 0x2DC0 JUMP JUMPDEST PUSH1 0x20 DUP3 ADD SWAP2 POP PUSH2 0x2E22 DUP3 DUP5 PUSH2 0x2DC0 JUMP JUMPDEST PUSH1 0x20 DUP3 ADD SWAP2 POP DUP2 SWAP1 POP SWAP7 SWAP6 POP POP POP POP POP POP JUMP JUMPDEST PUSH32 0x5265706C61792064657465637465640000000000000000000000000000000000 PUSH0 DUP3 ADD MSTORE POP JUMP JUMPDEST PUSH0 PUSH2 0x2E69 PUSH1 0xF DUP4 PUSH2 0x219E JUMP JUMPDEST SWAP2 POP PUSH2 0x2E74 DUP3 PUSH2 0x2E35 JUMP JUMPDEST PUSH1 0x20 DUP3 ADD SWAP1 POP SWAP2 SWAP1 POP JUMP JUMPDEST PUSH0 PUSH1 0x20 DUP3 ADD SWAP1 POP DUP2 DUP2 SUB PUSH0 DUP4 ADD MSTORE PUSH2 0x2E96 DUP2 PUSH2 0x2E5D JUMP JUMPDEST SWAP1 POP SWAP2 SWAP1 POP JUMP JUMPDEST PUSH0 DUP2 SWAP1 POP SWAP3 SWAP2 POP POP JUMP JUMPDEST PUSH32 0x19457468657265756D205369676E6564204D6573736167653A0A333200000000 PUSH0 DUP3 ADD MSTORE POP JUMP JUMPDEST PUSH0 PUSH2 0x2EDB PUSH1 0x1C DUP4 PUSH2 0x2E9D JUMP JUMPDEST SWAP2 POP PUSH2 0x2EE6 DUP3 PUSH2 0x2EA7 JUMP JUMPDEST PUSH1 0x1C DUP3 ADD SWAP1 POP SWAP2 SWAP1 POP JUMP JUMPDEST PUSH0 DUP2 SWAP1 POP SWAP2 SWAP1 POP JUMP JUMPDEST PUSH2 0x2F0B PUSH2 0x2F06 DUP3 PUSH2 0x233D JUMP JUMPDEST PUSH2 0x2EF1 JUMP JUMPDEST DUP3 MSTORE POP POP JUMP JUMPDEST PUSH0 PUSH2 0x2F1B DUP3 PUSH2 0x2ECF JUMP JUMPDEST SWAP2 POP PUSH2 0x2F27 DUP3 DUP5 PUSH2 0x2EFA JUMP JUMPDEST PUSH1 0x20 DUP3 ADD SWAP2 POP DUP2 SWAP1 POP SWAP3 SWAP2 POP POP JUMP JUMPDEST PUSH32 0x496E76616C6964207369676E6572000000000000000000000000000000000000 PUSH0 DUP3 ADD MSTORE POP JUMP JUMPDEST PUSH0 PUSH2 0x2F6A PUSH1 0xE DUP4 PUSH2 0x219E JUMP JUMPDEST SWAP2 POP PUSH2 0x2F75 DUP3 PUSH2 0x2F36 JUMP JUMPDEST PUSH1 0x20 DUP3 ADD SWAP1 POP SWAP2 SWAP1 POP JUMP JUMPDEST PUSH0 PUSH1 0x20 DUP3 ADD SWAP1 POP DUP2 DUP2 SUB PUSH0 DUP4 ADD MSTORE PUSH2 0x2F97 DUP2 PUSH2 0x2F5E JUMP JUMPDEST SWAP1 POP SWAP2 SWAP1 POP JUMP JUMPDEST PUSH32 0x496E73756666696369656E742066656500000000000000000000000000000000 PUSH0 DUP3 ADD MSTORE POP JUMP JUMPDEST PUSH0 PUSH2 0x2FD2 PUSH1 0x10 DUP4 PUSH2 0x219E JUMP JUMPDEST SWAP2 POP PUSH2 0x2FDD DUP3 PUSH2 0x2F9E JUMP JUMPDEST PUSH1 0x20 DUP3 ADD SWAP1 POP SWAP2 SWAP1 POP JUMP JUMPDEST PUSH0 PUSH1 0x20 DUP3 ADD SWAP1 POP DUP2 DUP2 SUB PUSH0 DUP4 ADD MSTORE PUSH2 0x2FFF DUP2 PUSH2 0x2FC6 JUMP JUMPDEST SWAP1 POP SWAP2 SWAP1 POP JUMP JUMPDEST PUSH0 DUP2 SWAP1 POP DUP2 PUSH0 MSTORE PUSH1 0x20 PUSH0 KECCAK256 SWAP1 POP SWAP2 SWAP1 POP JUMP JUMPDEST PUSH0 PUSH1 0x20 PUSH1 0x1F DUP4 ADD DIV SWAP1 POP SWAP2 SWAP1 POP JUMP JUMPDEST PUSH0 DUP3 DUP3 SHL SWAP1 POP SWAP3 SWAP2 POP POP JUMP JUMPDEST PUSH0 PUSH1 0x8 DUP4 MUL PUSH2 0x3062 PUSH32 0xFFFFFFFFFFFFFFFFFFFFFFFFFFFFFFFFFFFFFFFFFFFFFFFFFFFFFFFFFFFFFFFF DUP3 PUSH2 0x3027 JUMP JUMPDEST PUSH2 0x306C DUP7 DUP4 PUSH2 0x3027 JUMP JUMPDEST SWAP6 POP DUP1 NOT DUP5 AND SWAP4 POP DUP1 DUP7 AND DUP5 OR SWAP3 POP POP POP SWAP4 SWAP3 POP POP POP JUMP JUMPDEST PUSH0 PUSH2 0x309E PUSH2 0x3099 PUSH2 0x3094 DUP5 PUSH2 0x1FE5 JUMP JUMPDEST PUSH2 0x20A0 JUMP JUMPDEST PUSH2 0x1FE5 JUMP JUMPDEST SWAP1 POP SWAP2 SWAP1 POP JUMP JUMPDEST PUSH0 DUP2 SWAP1 POP SWAP2 SWAP1 POP JUMP JUMPDEST PUSH2 0x30B7 DUP4 PUSH2 0x3084 JUMP JUMPDEST PUSH2 0x30CB PUSH2 0x30C3 DUP3 PUSH2 0x30A5 JUMP JUMPDEST DUP5 DUP5 SLOAD PUSH2 0x3033 JUMP JUMPDEST DUP3 SSTORE POP POP POP POP JUMP JUMPDEST PUSH0 SWAP1 JUMP JUMPDEST PUSH2 0x30DF PUSH2 0x30D3 JUMP JUMPDEST PUSH2 0x30EA DUP2 DUP5 DUP5 PUSH2 0x30AE JUMP JUMPDEST POP POP POP JUMP JUMPDEST JUMPDEST DUP2 DUP2 LT ISZERO PUSH2 0x310D JUMPI PUSH2 0x3102 PUSH0 DUP3 PUSH2 0x30D7 JUMP JUMPDEST PUSH1 0x1 DUP2 ADD SWAP1 POP PUSH2 0x30F0 JUMP JUMPDEST POP POP JUMP JUMPDEST PUSH1 0x1F DUP3 GT ISZERO PUSH2 0x3152 JUMPI PUSH2 0x3123 DUP2 PUSH2 0x3006 JUMP JUMPDEST PUSH2 0x312C DUP5 PUSH2 0x3018 JUMP JUMPDEST DUP2 ADD PUSH1 0x20 DUP6 LT ISZERO PUSH2 0x313B JUMPI DUP2 SWAP1 POP JUMPDEST PUSH2 0x314F PUSH2 0x3147 DUP6 PUSH2 0x3018 JUMP JUMPDEST DUP4 ADD DUP3 PUSH2 0x30EF JUMP JUMPDEST POP POP JUMPDEST POP POP POP JUMP JUMPDEST PUSH0 DUP3 DUP3 SHR SWAP1 POP SWAP3 SWAP2 POP POP JUMP JUMPDEST PUSH0 PUSH2 0x3172 PUSH0 NOT DUP5 PUSH1 0x8 MUL PUSH2 0x3157 JUMP JUMPDEST NOT DUP1 DUP4 AND SWAP2 POP POP SWAP3 SWAP2 POP POP JUMP JUMPDEST PUSH0 PUSH2 0x318A DUP4 DUP4 PUSH2 0x3163 JUMP JUMPDEST SWAP2 POP DUP3 PUSH1 0x2 MUL DUP3 OR SWAP1 POP SWAP3 SWAP2 POP POP JUMP JUMPDEST PUSH2 0x31A3 DUP3 PUSH2 0x2194 JUMP JUMPDEST PUSH8 0xFFFFFFFFFFFFFFFF DUP2 GT ISZERO PUSH2 0x31BC JUMPI PUSH2 0x31BB PUSH2 0x2667 JUMP JUMPDEST JUMPDEST PUSH2 0x31C6 DUP3 SLOAD PUSH2 0x285D JUMP JUMPDEST PUSH2 0x31D1 DUP3 DUP3 DUP6 PUSH2 0x3111 JUMP JUMPDEST PUSH0 PUSH1 0x20 SWAP1 POP PUSH1 0x1F DUP4 GT PUSH1 0x1 DUP2 EQ PUSH2 0x3202 JUMPI PUSH0 DUP5 ISZERO PUSH2 0x31F0 JUMPI DUP3 DUP8 ADD MLOAD SWAP1 POP JUMPDEST PUSH2 0x31FA DUP6 DUP3 PUSH2 0x317F JUMP JUMPDEST DUP7 SSTORE POP PUSH2 0x3261 JUMP JUMPDEST PUSH1 0x1F NOT DUP5 AND PUSH2 0x3210 DUP7 PUSH2 0x3006 JUMP JUMPDEST PUSH0 JUMPDEST DUP3 DUP2 LT ISZERO PUSH2 0x3237 JUMPI DUP5 DUP10 ADD MLOAD DUP3 SSTORE PUSH1 0x1 DUP3 ADD SWAP2 POP PUSH1 0x20 DUP6 ADD SWAP5 POP PUSH1 0x20 DUP2 ADD SWAP1 POP PUSH2 0x3212 JUMP JUMPDEST DUP7 DUP4 LT ISZERO PUSH2 0x3254 JUMPI DUP5 DUP10 ADD MLOAD PUSH2 0x3250 PUSH1 0x1F DUP10 AND DUP3 PUSH2 0x3163 JUMP JUMPDEST DUP4 SSTORE POP JUMPDEST PUSH1 0x1 PUSH1 0x2 DUP9 MUL ADD DUP9 SSTORE POP POP POP JUMPDEST POP POP POP POP POP POP JUMP JUMPDEST PUSH2 0x3272 DUP2 PUSH2 0x233D JUMP JUMPDEST DUP3 MSTORE POP POP JUMP JUMPDEST PUSH0 PUSH1 0xFF DUP3 AND SWAP1 POP SWAP2 SWAP1 POP JUMP JUMPDEST PUSH2 0x328D DUP2 PUSH2 0x3278 JUMP JUMPDEST DUP3 MSTORE POP POP JUMP JUMPDEST PUSH0 PUSH1 0x80 DUP3 ADD SWAP1 POP PUSH2 0x32A6 PUSH0 DUP4 ADD DUP8 PUSH2 0x3269 JUMP JUMPDEST PUSH2 0x32B3 PUSH1 0x20 DUP4 ADD DUP7 PUSH2 0x3284 JUMP JUMPDEST PUSH2 0x32C0 PUSH1 0x40 DUP4 ADD DUP6 PUSH2 0x3269 JUMP JUMPDEST PUSH2 0x32CD PUSH1 0x60 DUP4 ADD DUP5 PUSH2 0x3269 JUMP JUMPDEST SWAP6 SWAP5 POP POP POP POP POP JUMP JUMPDEST PUSH32 0x6261642073696700000000000000000000000000000000000000000000000000 PUSH0 DUP3 ADD MSTORE POP JUMP JUMPDEST PUSH0 PUSH2 0x330A PUSH1 0x7 DUP4 PUSH2 0x219E JUMP JUMPDEST SWAP2 POP PUSH2 0x3315 DUP3 PUSH2 0x32D6 JUMP JUMPDEST PUSH1 0x20 DUP3 ADD SWAP1 POP SWAP2 SWAP1 POP JUMP JUMPDEST PUSH0 PUSH1 0x20 DUP3 ADD SWAP1 POP DUP2 DUP2 SUB PUSH0 DUP4 ADD MSTORE PUSH2 0x3337 DUP2 PUSH2 0x32FE JUMP JUMPDEST SWAP1 POP SWAP2 SWAP1 POP JUMP INVALID LOG2 PUSH5 0x6970667358 0x22 SLT KECCAK256 0xFC 0xBA DUP12 PUSH32 0xF97543D95EB89391BD3C35732E19A6DE1761FCB32A75B69342E306F864736F6C PUSH4 0x4300081A STOP CALLER "
		},
		"gasEstimates": {
			"creation": {
				"codeDepositCost": "2634400",
				"executionCost": "infinite",
				"totalCost": "infinite"
			},
			"external": {
				"MAX_DAILY_CLAIM()": "2515",
				"MAX_TASK_REWARD()": "2535",
				"addPool(address,address,uint256,uint256)": "infinite",
				"claimAndStake(uint256,uint256,uint256,uint256,uint256,bytes)": "infinite",
				"claimAndStakeFee()": "2470",
				"claimReward(uint256)": "infinite",
				"dailyClaimed(address,uint256)": "infinite",
				"depositedTokens(address)": "2891",
				"earlyWithdrawFee()": "2536",
				"getNotifications()": "infinite",
				"notifications(uint256)": "infinite",
				"owner()": "2560",
				"pendingReward(uint256,address)": "infinite",
				"poolCount()": "2513",
				"poolInfo(uint256)": "infinite",
				"renounceOwnership()": "infinite",
				"setFees(uint256,uint256)": "infinite",
				"setLimits(uint256,uint256)": "infinite",
				"setSigner(address)": "infinite",
				"setTreasury(address)": "infinite",
				"signer()": "2576",
				"taskRewards(address)": "2936",
				"transferOwnership(address)": "infinite",
				"treasury()": "2554",
				"usedHashes(bytes32)": "2853",
				"userInfo(uint256,address)": "infinite",
				"withdraw(uint256,uint256)": "infinite"
			},
			"internal": {
				"_calcReward(struct StakingDapp.UserInfo memory,uint256)": "infinite",
				"_createNotification(uint256,uint256,address,string memory)": "infinite",
				"_stake(uint256,uint256)": "infinite",
				"recoverSigner(bytes32,bytes memory)": "infinite",
				"split(bytes memory)": "infinite"
			}
		},
		"methodIdentifiers": {
			"MAX_DAILY_CLAIM()": "b0c9fbc1",
			"MAX_TASK_REWARD()": "f6dd6d8e",
			"addPool(address,address,uint256,uint256)": "c20632ba",
			"claimAndStake(uint256,uint256,uint256,uint256,uint256,bytes)": "d3287437",
			"claimAndStakeFee()": "c0dcd954",
			"claimReward(uint256)": "ae169a50",
			"dailyClaimed(address,uint256)": "c8e7711f",
			"depositedTokens(address)": "c326bf4f",
			"earlyWithdrawFee()": "a80a7882",
			"getNotifications()": "cf48bd2c",
			"notifications(uint256)": "34c1f944",
			"owner()": "8da5cb5b",
			"pendingReward(uint256,address)": "98969e82",
			"poolCount()": "f525cb68",
			"poolInfo(uint256)": "1526fe27",
			"renounceOwnership()": "715018a6",
			"setFees(uint256,uint256)": "0b78f9c0",
			"setLimits(uint256,uint256)": "c4590d3f",
			"setSigner(address)": "6c19e783",
			"setTreasury(address)": "f0f44260",
			"signer()": "238ac933",
			"taskRewards(address)": "53be657f",
			"transferOwnership(address)": "f2fde38b",
			"treasury()": "61d027b3",
			"usedHashes(bytes32)": "aef18bf7",
			"userInfo(uint256,address)": "93f1a40b",
			"withdraw(uint256,uint256)": "441a3e70"
		}
	},
	"abi": [
		{
			"inputs": [
				{
					"internalType": "address",
					"name": "initialOwner",
					"type": "address"
				}
			],
			"stateMutability": "nonpayable",
			"type": "constructor"
		},
		{
			"inputs": [
				{
					"internalType": "address",
					"name": "owner",
					"type": "address"
				}
			],
			"name": "OwnableInvalidOwner",
			"type": "error"
		},
		{
			"inputs": [
				{
					"internalType": "address",
					"name": "account",
					"type": "address"
				}
			],
			"name": "OwnableUnauthorizedAccount",
			"type": "error"
		},
		{
			"inputs": [],
			"name": "ReentrancyGuardReentrantCall",
			"type": "error"
		},
		{
			"inputs": [
				{
					"internalType": "address",
					"name": "token",
					"type": "address"
				}
			],
			"name": "SafeERC20FailedOperation",
			"type": "error"
		},
		{
			"anonymous": false,
			"inputs": [
				{
					"indexed": true,
					"internalType": "address",
					"name": "previousOwner",
					"type": "address"
				},
				{
					"indexed": true,
					"internalType": "address",
					"name": "newOwner",
					"type": "address"
				}
			],
			"name": "OwnershipTransferred",
			"type": "event"
		},
		{
			"inputs": [],
			"name": "MAX_DAILY_CLAIM",
			"outputs": [
				{
					"internalType": "uint256",
					"name": "",
					"type": "uint256"
				}
			],
			"stateMutability": "view",
			"type": "function"
		},
		{
			"inputs": [],
			"name": "MAX_TASK_REWARD",
			"outputs": [
				{
					"internalType": "uint256",
					"name": "",
					"type": "uint256"
				}
			],
			"stateMutability": "view",
			"type": "function"
		},
		{
			"inputs": [
				{
					"internalType": "contract IERC20",
					"name": "_depositToken",
					"type": "address"
				},
				{
					"internalType": "contract IERC20",
					"name": "_rewardToken",
					"type": "address"
				},
				{
					"internalType": "uint256",
					"name": "_apy",
					"type": "uint256"
				},
				{
					"internalType": "uint256",
					"name": "_lockDays",
					"type": "uint256"
				}
			],
			"name": "addPool",
			"outputs": [],
			"stateMutability": "nonpayable",
			"type": "function"
		},
		{
			"inputs": [
				{
					"internalType": "uint256",
					"name": "pid",
					"type": "uint256"
				},
				{
					"internalType": "uint256",
					"name": "amount",
					"type": "uint256"
				},
				{
					"internalType": "uint256",
					"name": "poolId",
					"type": "uint256"
				},
				{
					"internalType": "uint256",
					"name": "nonce",
					"type": "uint256"
				},
				{
					"internalType": "uint256",
					"name": "deadline",
					"type": "uint256"
				},
				{
					"internalType": "bytes",
					"name": "signature",
					"type": "bytes"
				}
			],
			"name": "claimAndStake",
			"outputs": [],
			"stateMutability": "payable",
			"type": "function"
		},
		{
			"inputs": [],
			"name": "claimAndStakeFee",
			"outputs": [
				{
					"internalType": "uint256",
					"name": "",
					"type": "uint256"
				}
			],
			"stateMutability": "view",
			"type": "function"
		},
		{
			"inputs": [
				{
					"internalType": "uint256",
					"name": "pid",
					"type": "uint256"
				}
			],
			"name": "claimReward",
			"outputs": [],
			"stateMutability": "nonpayable",
			"type": "function"
		},
		{
			"inputs": [
				{
					"internalType": "address",
					"name": "",
					"type": "address"
				},
				{
					"internalType": "uint256",
					"name": "",
					"type": "uint256"
				}
			],
			"name": "dailyClaimed",
			"outputs": [
				{
					"internalType": "uint256",
					"name": "",
					"type": "uint256"
				}
			],
			"stateMutability": "view",
			"type": "function"
		},
		{
			"inputs": [
				{
					"internalType": "address",
					"name": "",
					"type": "address"
				}
			],
			"name": "depositedTokens",
			"outputs": [
				{
					"internalType": "uint256",
					"name": "",
					"type": "uint256"
				}
			],
			"stateMutability": "view",
			"type": "function"
		},
		{
			"inputs": [],
			"name": "earlyWithdrawFee",
			"outputs": [
				{
					"internalType": "uint256",
					"name": "",
					"type": "uint256"
				}
			],
			"stateMutability": "view",
			"type": "function"
		},
		{
			"inputs": [],
			"name": "getNotifications",
			"outputs": [
				{
					"components": [
						{
							"internalType": "uint256",
							"name": "poolID",
							"type": "uint256"
						},
						{
							"internalType": "uint256",
							"name": "amount",
							"type": "uint256"
						},
						{
							"internalType": "address",
							"name": "user",
							"type": "address"
						},
						{
							"internalType": "string",
							"name": "action",
							"type": "string"
						},
						{
							"internalType": "uint256",
							"name": "timestamp",
							"type": "uint256"
						}
					],
					"internalType": "struct StakingDapp.Notification[]",
					"name": "",
					"type": "tuple[]"
				}
			],
			"stateMutability": "view",
			"type": "function"
		},
		{
			"inputs": [
				{
					"internalType": "uint256",
					"name": "",
					"type": "uint256"
				}
			],
			"name": "notifications",
			"outputs": [
				{
					"internalType": "uint256",
					"name": "poolID",
					"type": "uint256"
				},
				{
					"internalType": "uint256",
					"name": "amount",
					"type": "uint256"
				},
				{
					"internalType": "address",
					"name": "user",
					"type": "address"
				},
				{
					"internalType": "string",
					"name": "action",
					"type": "string"
				},
				{
					"internalType": "uint256",
					"name": "timestamp",
					"type": "uint256"
				}
			],
			"stateMutability": "view",
			"type": "function"
		},
		{
			"inputs": [],
			"name": "owner",
			"outputs": [
				{
					"internalType": "address",
					"name": "",
					"type": "address"
				}
			],
			"stateMutability": "view",
			"type": "function"
		},
		{
			"inputs": [
				{
					"internalType": "uint256",
					"name": "pid",
					"type": "uint256"
				},
				{
					"internalType": "address",
					"name": "user",
					"type": "address"
				}
			],
			"name": "pendingReward",
			"outputs": [
				{
					"internalType": "uint256",
					"name": "",
					"type": "uint256"
				}
			],
			"stateMutability": "view",
			"type": "function"
		},
		{
			"inputs": [],
			"name": "poolCount",
			"outputs": [
				{
					"internalType": "uint256",
					"name": "",
					"type": "uint256"
				}
			],
			"stateMutability": "view",
			"type": "function"
		},
		{
			"inputs": [
				{
					"internalType": "uint256",
					"name": "",
					"type": "uint256"
				}
			],
			"name": "poolInfo",
			"outputs": [
				{
					"internalType": "contract IERC20",
					"name": "depositToken",
					"type": "address"
				},
				{
					"internalType": "contract IERC20",
					"name": "rewardToken",
					"type": "address"
				},
				{
					"internalType": "uint256",
					"name": "depositedAmount",
					"type": "uint256"
				},
				{
					"internalType": "uint256",
					"name": "apy",
					"type": "uint256"
				},
				{
					"internalType": "uint256",
					"name": "lockDays",
					"type": "uint256"
				}
			],
			"stateMutability": "view",
			"type": "function"
		},
		{
			"inputs": [],
			"name": "renounceOwnership",
			"outputs": [],
			"stateMutability": "nonpayable",
			"type": "function"
		},
		{
			"inputs": [
				{
					"internalType": "uint256",
					"name": "_claimFee",
					"type": "uint256"
				},
				{
					"internalType": "uint256",
					"name": "_earlyFee",
					"type": "uint256"
				}
			],
			"name": "setFees",
			"outputs": [],
			"stateMutability": "nonpayable",
			"type": "function"
		},
		{
			"inputs": [
				{
					"internalType": "uint256",
					"name": "_maxTask",
					"type": "uint256"
				},
				{
					"internalType": "uint256",
					"name": "_dailyLimit",
					"type": "uint256"
				}
			],
			"name": "setLimits",
			"outputs": [],
			"stateMutability": "nonpayable",
			"type": "function"
		},
		{
			"inputs": [
				{
					"internalType": "address",
					"name": "_signer",
					"type": "address"
				}
			],
			"name": "setSigner",
			"outputs": [],
			"stateMutability": "nonpayable",
			"type": "function"
		},
		{
			"inputs": [
				{
					"internalType": "address",
					"name": "_treasury",
					"type": "address"
				}
			],
			"name": "setTreasury",
			"outputs": [],
			"stateMutability": "nonpayable",
			"type": "function"
		},
		{
			"inputs": [],
			"name": "signer",
			"outputs": [
				{
					"internalType": "address",
					"name": "",
					"type": "address"
				}
			],
			"stateMutability": "view",
			"type": "function"
		},
		{
			"inputs": [
				{
					"internalType": "address",
					"name": "",
					"type": "address"
				}
			],
			"name": "taskRewards",
			"outputs": [
				{
					"internalType": "uint256",
					"name": "",
					"type": "uint256"
				}
			],
			"stateMutability": "view",
			"type": "function"
		},
		{
			"inputs": [
				{
					"internalType": "address",
					"name": "newOwner",
					"type": "address"
				}
			],
			"name": "transferOwnership",
			"outputs": [],
			"stateMutability": "nonpayable",
			"type": "function"
		},
		{
			"inputs": [],
			"name": "treasury",
			"outputs": [
				{
					"internalType": "address",
					"name": "",
					"type": "address"
				}
			],
			"stateMutability": "view",
			"type": "function"
		},
		{
			"inputs": [
				{
					"internalType": "bytes32",
					"name": "",
					"type": "bytes32"
				}
			],
			"name": "usedHashes",
			"outputs": [
				{
					"internalType": "bool",
					"name": "",
					"type": "bool"
				}
			],
			"stateMutability": "view",
			"type": "function"
		},
		{
			"inputs": [
				{
					"internalType": "uint256",
					"name": "",
					"type": "uint256"
				},
				{
					"internalType": "address",
					"name": "",
					"type": "address"
				}
			],
			"name": "userInfo",
			"outputs": [
				{
					"internalType": "uint256",
					"name": "amount",
					"type": "uint256"
				},
				{
					"internalType": "uint256",
					"name": "lastRewardAt",
					"type": "uint256"
				},
				{
					"internalType": "uint256",
					"name": "lockUntil",
					"type": "uint256"
				}
			],
			"stateMutability": "view",
			"type": "function"
		},
		{
			"inputs": [
				{
					"internalType": "uint256",
					"name": "pid",
					"type": "uint256"
				},
				{
					"internalType": "uint256",
					"name": "amount",
					"type": "uint256"
				}
			],
			"name": "withdraw",
			"outputs": [],
			"stateMutability": "payable",
			"type": "function"
		}
	]
}